{
  "contractName": "ConstructionProject",
  "abi": [
    {
      "anonymous": false,
      "inputs": [
        {
          "indexed": false,
          "internalType": "bytes32",
          "name": "hash",
          "type": "bytes32"
        },
        {
          "indexed": false,
          "internalType": "uint8",
          "name": "progress",
          "type": "uint8"
        }
      ],
      "name": "BoQItemProgressChange",
      "type": "event"
    },
    {
      "constant": true,
      "inputs": [],
      "name": "buildingContractor",
      "outputs": [
        {
          "internalType": "address",
          "name": "",
          "type": "address"
        }
      ],
      "payable": false,
      "stateMutability": "view",
      "type": "function"
    },
    {
      "constant": true,
      "inputs": [],
      "name": "generalContractor",
      "outputs": [
        {
          "internalType": "address",
          "name": "",
          "type": "address"
        }
      ],
      "payable": false,
      "stateMutability": "view",
      "type": "function"
    },
    {
      "constant": true,
      "inputs": [],
      "name": "hash",
      "outputs": [
        {
          "internalType": "bytes32",
          "name": "",
          "type": "bytes32"
        }
      ],
      "payable": false,
      "stateMutability": "view",
      "type": "function"
    },
    {
      "constant": true,
      "inputs": [
        {
          "internalType": "address",
          "name": "",
          "type": "address"
        }
      ],
      "name": "subContractors",
      "outputs": [
        {
          "internalType": "bool",
          "name": "",
          "type": "bool"
        }
      ],
      "payable": false,
      "stateMutability": "view",
      "type": "function"
    },
    {
      "constant": false,
      "inputs": [
        {
          "internalType": "bytes32",
          "name": "_hash",
          "type": "bytes32"
        }
      ],
      "name": "init",
      "outputs": [],
      "payable": false,
      "stateMutability": "nonpayable",
      "type": "function"
    },
    {
      "constant": false,
      "inputs": [],
      "name": "registerSubContractor",
      "outputs": [],
      "payable": false,
      "stateMutability": "nonpayable",
      "type": "function"
    },
    {
      "constant": false,
      "inputs": [
        {
          "internalType": "bytes32",
          "name": "_boq",
          "type": "bytes32"
        }
      ],
      "name": "addBoQ",
      "outputs": [
        {
          "internalType": "bool",
          "name": "success",
          "type": "bool"
        }
      ],
      "payable": false,
      "stateMutability": "nonpayable",
      "type": "function"
    },
    {
      "constant": false,
      "inputs": [
        {
          "internalType": "bytes32",
          "name": "_boq",
          "type": "bytes32"
        },
        {
          "internalType": "bytes32",
          "name": "_billingItem",
          "type": "bytes32"
        },
        {
          "internalType": "bytes32",
          "name": "_boqItem",
          "type": "bytes32"
        }
      ],
      "name": "addBillingBoQItem",
      "outputs": [
        {
          "internalType": "bool",
          "name": "",
          "type": "bool"
        }
      ],
      "payable": false,
      "stateMutability": "nonpayable",
      "type": "function"
    },
    {
      "constant": false,
      "inputs": [
        {
          "internalType": "bytes32",
          "name": "_boqItem",
          "type": "bytes32"
        },
        {
          "internalType": "bytes32",
          "name": "_parent",
          "type": "bytes32"
        }
      ],
      "name": "addBoQItem",
      "outputs": [
        {
          "internalType": "bool",
          "name": "",
          "type": "bool"
        }
      ],
      "payable": false,
      "stateMutability": "nonpayable",
      "type": "function"
    },
    {
      "constant": false,
      "inputs": [
        {
          "internalType": "bytes32",
          "name": "_boqItem",
          "type": "bytes32"
        },
        {
          "internalType": "uint8",
          "name": "_progress",
          "type": "uint8"
        }
      ],
      "name": "setBoQItemProgress",
      "outputs": [
        {
          "internalType": "bool",
          "name": "",
          "type": "bool"
        }
      ],
      "payable": false,
      "stateMutability": "nonpayable",
      "type": "function"
    }
  ],
  "bytecode": "0x608060405234801561001057600080fd5b50610e1f806100206000396000f3fe608060405234801561001057600080fd5b506004361061009e5760003560e01c80636c03b400116100665780636c03b400146101e25780638f13eda91461022c578063ca5f158d14610288578063cb8e054f14610292578063e09b820a146102dc5761009e565b806309bd5a60146100a35780633a1abcc9146100c15780633b663195146101075780633fc09374146101355780634f3886b61461018f575b600080fd5b6100ab61032c565b6040518082815260200191505060405180910390f35b6100ed600480360360208110156100d757600080fd5b8101908080359060200190929190505050610332565b604051808215151515815260200191505060405180910390f35b6101336004803603602081101561011d57600080fd5b81019080803590602001909291905050506104a8565b005b6101756004803603606081101561014b57600080fd5b810190808035906020019092919080359060200190929190803590602001909291905050506104f2565b604051808215151515815260200191505060405180910390f35b6101c8600480360360408110156101a557600080fd5b8101908080359060200190929190803560ff16906020019092919050505061075b565b604051808215151515815260200191505060405180910390f35b6101ea61091c565b604051808273ffffffffffffffffffffffffffffffffffffffff1673ffffffffffffffffffffffffffffffffffffffff16815260200191505060405180910390f35b61026e6004803603602081101561024257600080fd5b81019080803573ffffffffffffffffffffffffffffffffffffffff169060200190929190505050610942565b604051808215151515815260200191505060405180910390f35b610290610962565b005b61029a610a61565b604051808273ffffffffffffffffffffffffffffffffffffffff1673ffffffffffffffffffffffffffffffffffffffff16815260200191505060405180910390f35b610312600480360360408110156102f257600080fd5b810190808035906020019092919080359060200190929190505050610a86565b604051808215151515815260200191505060405180910390f35b60025481565b60008060009054906101000a900473ffffffffffffffffffffffffffffffffffffffff1673ffffffffffffffffffffffffffffffffffffffff163373ffffffffffffffffffffffffffffffffffffffff16146103d9576040517f08c379a0000000000000000000000000000000000000000000000000000000008152600401808060200182810382526027815260200180610dc46027913960400191505060405180910390fd5b6004600083815260200190815260200160002060000160009054906101000a900460ff1615610470576040517f08c379a00000000000000000000000000000000000000000000000000000000081526004018080602001828103825260168152602001807f426f5120616c7265616479207370656369666965642e0000000000000000000081525060200191505060405180910390fd5b60016004600084815260200190815260200160002060000160006101000a81548160ff02191690831515021790555060019050919050565b336000806101000a81548173ffffffffffffffffffffffffffffffffffffffff021916908373ffffffffffffffffffffffffffffffffffffffff1602179055508060028190555050565b60008060009054906101000a900473ffffffffffffffffffffffffffffffffffffffff1673ffffffffffffffffffffffffffffffffffffffff163373ffffffffffffffffffffffffffffffffffffffff1614610599576040517f08c379a0000000000000000000000000000000000000000000000000000000008152600401808060200182810382526027815260200180610dc46027913960400191505060405180910390fd5b604051806080016040528083815260200185815260200160006040519080825280602002602001820160405280156105e05781602001602082028038833980820191505090505b508152602001600060ff168152506005600084815260200190815260200160002060008201518160000155602082015181600101556040820151816002019080519060200190610631929190610d51565b5060608201518160030160006101000a81548160ff021916908360ff160217905550905050600460008581526020019081526020016000206001016040518060800160405280848152602001858152602001600073ffffffffffffffffffffffffffffffffffffffff1681526020016000151581525090806001815401808255809150509060018203906000526020600020906003020160009091929091909150600082015181600001556020820151816001015560408201518160020160006101000a81548173ffffffffffffffffffffffffffffffffffffffff021916908373ffffffffffffffffffffffffffffffffffffffff16021790555060608201518160020160146101000a81548160ff021916908315150217905550505050600190509392505050565b60008160ff166005600085815260200190815260200160002060030160009054906101000a900460ff1660ff16106107fb576040517f08c379a00000000000000000000000000000000000000000000000000000000081526004018080602001828103825260168152602001807f496e76616c69642070726f67726573732076616c75650000000000000000000081525060200191505060405180910390fd5b816005600085815260200190815260200160002060030160006101000a81548160ff021916908360ff16021790555060008090505b60056000858152602001908152602001600020600201805490508110156108cc57600060056000868152602001908152602001600020600201828154811061087457fe5b906000526020600020015490508360ff166005600083815260200190815260200160002060030160009054906101000a900460ff1660ff1610156108be576108bc818561075b565b505b508080600101915050610830565b507f881108fadb20840a1fd9b9f5df3bd165552a07f6865797f580fe3003bf4be5b38383604051808381526020018260ff1660ff1681526020019250505060405180910390a16001905092915050565b600160009054906101000a900473ffffffffffffffffffffffffffffffffffffffff1681565b60036020528060005260406000206000915054906101000a900460ff1681565b6000809054906101000a900473ffffffffffffffffffffffffffffffffffffffff1673ffffffffffffffffffffffffffffffffffffffff163373ffffffffffffffffffffffffffffffffffffffff1614610a07576040517f08c379a0000000000000000000000000000000000000000000000000000000008152600401808060200182810382526027815260200180610dc46027913960400191505060405180910390fd5b6001600360003373ffffffffffffffffffffffffffffffffffffffff1673ffffffffffffffffffffffffffffffffffffffff16815260200190815260200160002060006101000a81548160ff021916908315150217905550565b6000809054906101000a900473ffffffffffffffffffffffffffffffffffffffff1681565b60008060009054906101000a900473ffffffffffffffffffffffffffffffffffffffff1673ffffffffffffffffffffffffffffffffffffffff163373ffffffffffffffffffffffffffffffffffffffff1614610b2d576040517f08c379a0000000000000000000000000000000000000000000000000000000008152600401808060200182810382526027815260200180610dc46027913960400191505060405180910390fd5b6000801b60056000848152602001908152602001600020600001541415610bbc576040517f08c379a00000000000000000000000000000000000000000000000000000000081526004018080602001828103825260188152602001807f506172656e74206973206e6f74207370656369666965642e000000000000000081525060200191505060405180910390fd5b6000801b600560008581526020019081526020016000206000015414610c4a576040517f08c379a000000000000000000000000000000000000000000000000000000000815260040180806020018281038252601e8152602001807f426f51206974656d20697320616c7265616479207370656369666965642e000081525060200191505060405180910390fd5b60405180608001604052808481526020018381526020016000604051908082528060200260200182016040528015610c915781602001602082028038833980820191505090505b508152602001600060ff168152506005600085815260200190815260200160002060008201518160000155602082015181600101556040820151816002019080519060200190610ce2929190610d51565b5060608201518160030160006101000a81548160ff021916908360ff160217905550905050600560008381526020019081526020016000206002018390806001815401808255809150509060018203906000526020600020016000909192909190915055506001905092915050565b828054828255906000526020600020908101928215610d8d579160200282015b82811115610d8c578251825591602001919060010190610d71565b5b509050610d9a9190610d9e565b5090565b610dc091905b80821115610dbc576000816000905550600101610da4565b5090565b9056fe4e6f207065726d697373696f6e2e204f6e6c792067656e6572616c20636f6e74726163746f722ea265627a7a723158201cc1c51615e894eafa8741e91dff48c9156af8a115681e4f4a441df90e3598c464736f6c63430005100032",
  "source": "// SPDX-License-Identifier: MIT\npragma solidity >=0.4.21 <0.7.1;\n\n/**\n * @title ConstructionProject\n * @dev Store & retreive value in a variable\n */\ncontract ConstructionProject {\n    event BoQItemProgressChange(bytes32 hash, uint8 progress);\n\n    // Leistungsverzeichnis\n    struct BoQ {\n        bool exists;\n        BillingBoQItem[] items;\n    }\n\n    // Teilleistung\n    struct BoQItem {\n        bytes32 hash;\n        bytes32 parent;\n        bytes32[] items;\n        uint8 progress;\n    }\n\n    // Teilleistung mit Abrechnungseinheit\n    struct BillingBoQItem {\n        bytes32 boqItem;\n        bytes32 hash;\n        address assignee; // Für Leistung verantwortliches Gewerk (Subunternehmer)\n        bool approved; // Abnahme\n    }\n\n    address public generalContractor; // Rolle Generalunternehmer\n    address public buildingContractor; // Rolle Bauherr\n\n    bytes32 public hash;\n\n    mapping(address => bool) public subContractors; // Rolle Subunternehmer\n\n    mapping(bytes32 => BoQ) boqs; // Leistungsverzeichnisse\n    mapping(bytes32 => BoQItem) boqItems; // Teilleistungen\n\n    modifier onlyGeneralContractor {\n        require(\n            msg.sender == generalContractor,\n            'No permission. Only general contractor.'\n        );\n        _;\n    }\n\n    /**\n     * @dev Instantiates a Bulding Project with initial values\n     */\n    function init(bytes32 _hash) public {\n        generalContractor = msg.sender;\n        hash = _hash;\n    }\n\n    /**\n     * @dev Registers sub contractor\n     */\n    function registerSubContractor() public onlyGeneralContractor {\n        subContractors[msg.sender] = true;\n    }\n\n    /**\n     * @dev Adds a new Bill of Quantity\n     * @param _boq The hash of the BoQ\n     */\n    function addBoQ(bytes32 _boq)\n        public\n        onlyGeneralContractor\n        returns (bool success)\n    {\n        require(!boqs[_boq].exists, 'BoQ already specified.');\n        // boqs[_boq].items = new bytes32[](0);\n        boqs[_boq].exists = true;\n        return true;\n    }\n\n    /**\n     * @dev Pushes a new billing boq item to the stack\n     * @param _billingItem The hash of the billing item\n     * @param _boqItem The hash of the boq item\n     */\n    function addBillingBoQItem(\n        bytes32 _boq,\n        bytes32 _billingItem,\n        bytes32 _boqItem\n    ) public onlyGeneralContractor returns (bool) {\n        boqItems[_boqItem] = BoQItem(_boqItem, _boq, new bytes32[](0), 0x0);\n        boqs[_boq].items.push(\n            BillingBoQItem(_boqItem, _billingItem, address(0), false)\n        );\n        // emit BillingItemCreated(billingUnitHash);\n        return true;\n    }\n\n    /**\n     * @dev Creates a new boq item\n     * @param _boqItem The hash of the boq item to be added\n     * @param _parent The parent boq item\n     */\n    function addBoQItem(bytes32 _boqItem, bytes32 _parent)\n        public\n        onlyGeneralContractor\n        returns (bool)\n    {\n        require(boqItems[_parent].hash != 0x0, 'Parent is not specified.');\n        require(\n            boqItems[_boqItem].hash == 0x0,\n            'BoQ item is already specified.'\n        );\n\n        boqItems[_boqItem] = BoQItem(_boqItem, _parent, new bytes32[](0), 0x0);\n        boqItems[_parent].items.push(_boqItem);\n        return true;\n    }\n\n    /**\n     * @dev Sets the progress of a boq item and all of its items\n     * @param _boqItem The hash of the boq item to be updated\n     * @param _progress The progress number (1-100) to be set\n     */\n    function setBoQItemProgress(bytes32 _boqItem, uint8 _progress)\n        public\n        returns (bool)\n    {\n        require(\n            boqItems[_boqItem].progress < _progress,\n            'Invalid progress value'\n        );\n        boqItems[_boqItem].progress = _progress;\n        for (uint256 i = 0; i < boqItems[_boqItem].items.length; i++) {\n            bytes32 item = boqItems[_boqItem].items[i];\n            if (boqItems[item].progress < _progress) {\n                setBoQItemProgress(item, _progress);\n            }\n        }\n        emit BoQItemProgressChange(_boqItem, _progress);\n        return true;\n    }\n}\n",
  "sourcePath": "C:\\Users\\fabia\\WebstormProjects\\bim-contracts\\contracts\\ConstructionProject.sol",
  "compiler": {
    "name": "solc",
    "version": "0.5.16+commit.9c3226ce.Emscripten.clang"
  },
  "schemaVersion": "3.2.4",
  "updatedAt": "2020-09-05T12:24:16.787Z",
  "networkType": "ethereum",
  "devdoc": {
    "details": "Store & retreive value in a variable",
    "methods": {
      "addBillingBoQItem(bytes32,bytes32,bytes32)": {
        "details": "Pushes a new billing boq item to the stack",
        "params": {
          "_billingItem": "The hash of the billing item",
          "_boqItem": "The hash of the boq item"
        }
      },
      "addBoQ(bytes32)": {
        "details": "Adds a new Bill of Quantity",
        "params": {
          "_boq": "The hash of the BoQ"
        }
      },
      "addBoQItem(bytes32,bytes32)": {
        "details": "Creates a new boq item",
        "params": {
          "_boqItem": "The hash of the boq item to be added",
          "_parent": "The parent boq item"
        }
      },
      "init(bytes32)": {
        "details": "Instantiates a Bulding Project with initial values"
      },
      "registerSubContractor()": {
        "details": "Registers sub contractor"
      },
      "setBoQItemProgress(bytes32,uint8)": {
        "details": "Sets the progress of a boq item and all of its items",
        "params": {
          "_boqItem": "The hash of the boq item to be updated",
          "_progress": "The progress number (1-100) to be set"
        }
      }
    },
    "title": "ConstructionProject"
  },
  "userdoc": {
    "methods": {}
  }
}