{
  "contractName": "ServiceAgreementFactory",
  "abi": [
    {
      "inputs": [
        {
          "internalType": "address",
          "name": "_implementation",
          "type": "address"
        }
      ],
      "payable": false,
      "stateMutability": "nonpayable",
      "type": "constructor"
    },
    {
      "anonymous": false,
      "inputs": [
        {
          "indexed": false,
          "internalType": "address",
          "name": "_client",
          "type": "address"
        },
        {
          "indexed": false,
          "internalType": "address",
          "name": "_contractor",
          "type": "address"
        },
        {
          "indexed": true,
          "internalType": "address",
          "name": "_address",
          "type": "address"
        },
        {
          "indexed": true,
          "internalType": "bytes32",
          "name": "_hash",
          "type": "bytes32"
        }
      ],
      "name": "ServiceAgreementCreated",
      "type": "event"
    },
    {
      "constant": true,
      "inputs": [
        {
          "internalType": "bytes32",
          "name": "",
          "type": "bytes32"
        }
      ],
      "name": "agreements",
      "outputs": [
        {
          "internalType": "address",
          "name": "",
          "type": "address"
        }
      ],
      "payable": false,
      "stateMutability": "view",
      "type": "function"
    },
    {
      "constant": true,
      "inputs": [],
      "name": "implementation",
      "outputs": [
        {
          "internalType": "address",
          "name": "",
          "type": "address"
        }
      ],
      "payable": false,
      "stateMutability": "view",
      "type": "function"
    },
    {
      "constant": false,
      "inputs": [
        {
          "internalType": "bytes32",
          "name": "_service",
          "type": "bytes32"
        },
        {
          "internalType": "bytes32",
          "name": "_parent",
          "type": "bytes32"
        },
        {
          "internalType": "address",
          "name": "_client",
          "type": "address"
        },
        {
          "internalType": "address",
          "name": "_contractor",
          "type": "address"
        },
        {
          "internalType": "bytes32[]",
          "name": "_children",
          "type": "bytes32[]"
        },
        {
          "internalType": "bytes32[]",
          "name": "_parents",
          "type": "bytes32[]"
        },
        {
          "internalType": "bool[]",
          "name": "_billables",
          "type": "bool[]"
        },
        {
          "internalType": "bytes32[]",
          "name": "_documents",
          "type": "bytes32[]"
        }
      ],
      "name": "createServiceAgreement",
      "outputs": [
        {
          "internalType": "bool",
          "name": "",
          "type": "bool"
        }
      ],
      "payable": false,
      "stateMutability": "nonpayable",
      "type": "function"
    },
    {
      "constant": false,
      "inputs": [
        {
          "internalType": "bytes32",
          "name": "_service",
          "type": "bytes32"
        },
        {
          "internalType": "uint8",
          "name": "_stage",
          "type": "uint8"
        }
      ],
      "name": "setServiceStage",
      "outputs": [
        {
          "internalType": "bool",
          "name": "",
          "type": "bool"
        }
      ],
      "payable": false,
      "stateMutability": "nonpayable",
      "type": "function"
    }
  ],
  "bytecode": "0x608060405234801561001057600080fd5b506040516109e43803806109e48339818101604052602081101561003357600080fd5b8101908080519060200190929190505050806000806101000a81548173ffffffffffffffffffffffffffffffffffffffff021916908373ffffffffffffffffffffffffffffffffffffffff16021790555050610950806100946000396000f3fe608060405234801561001057600080fd5b506004361061004c5760003560e01c80630d808a21146100515780635c60da1b146100a45780639e1f68c7146100ee578063c39098561461015c575b600080fd5b61008a6004803603604081101561006757600080fd5b8101908080359060200190929190803560ff16906020019092919050505061043d565b604051808215151515815260200191505060405180910390f35b6100ac610519565b604051808273ffffffffffffffffffffffffffffffffffffffff1673ffffffffffffffffffffffffffffffffffffffff16815260200191505060405180910390f35b61011a6004803603602081101561010457600080fd5b810190808035906020019092919050505061053e565b604051808273ffffffffffffffffffffffffffffffffffffffff1673ffffffffffffffffffffffffffffffffffffffff16815260200191505060405180910390f35b610423600480360361010081101561017357600080fd5b810190808035906020019092919080359060200190929190803573ffffffffffffffffffffffffffffffffffffffff169060200190929190803573ffffffffffffffffffffffffffffffffffffffff169060200190929190803590602001906401000000008111156101e457600080fd5b8201836020820111156101f657600080fd5b8035906020019184602083028401116401000000008311171561021857600080fd5b919080806020026020016040519081016040528093929190818152602001838360200280828437600081840152601f19601f8201169050808301925050505050505091929192908035906020019064010000000081111561027857600080fd5b82018360208201111561028a57600080fd5b803590602001918460208302840111640100000000831117156102ac57600080fd5b919080806020026020016040519081016040528093929190818152602001838360200280828437600081840152601f19601f8201169050808301925050505050505091929192908035906020019064010000000081111561030c57600080fd5b82018360208201111561031e57600080fd5b8035906020019184602083028401116401000000008311171561034057600080fd5b919080806020026020016040519081016040528093929190818152602001838360200280828437600081840152601f19601f820116905080830192505050505050509192919290803590602001906401000000008111156103a057600080fd5b8201836020820111156103b257600080fd5b803590602001918460208302840111640100000000831117156103d457600080fd5b919080806020026020016040519081016040528093929190818152602001838360200280828437600081840152601f19601f820116905080830192505050505050509192919290505050610571565b604051808215151515815260200191505060405180910390f35b60006001600084815260200190815260200160002060009054906101000a900473ffffffffffffffffffffffffffffffffffffffff1673ffffffffffffffffffffffffffffffffffffffff1663d1e8c3ea84846040518363ffffffff1660e01b8152600401808381526020018260ff1660ff16815260200192505050602060405180830381600087803b1580156104d357600080fd5b505af11580156104e7573d6000803e3d6000fd5b505050506040513d60208110156104fd57600080fd5b8101908080519060200190929190505050506001905092915050565b6000809054906101000a900473ffffffffffffffffffffffffffffffffffffffff1681565b60016020528060005260406000206000915054906101000a900473ffffffffffffffffffffffffffffffffffffffff1681565b60008061059e6000809054906101000a900473ffffffffffffffffffffffffffffffffffffffff166108b1565b90508073ffffffffffffffffffffffffffffffffffffffff16639d3a2a2c8b8b8b8b8b8b8b8b6040518963ffffffff1660e01b8152600401808981526020018881526020018773ffffffffffffffffffffffffffffffffffffffff1673ffffffffffffffffffffffffffffffffffffffff1681526020018673ffffffffffffffffffffffffffffffffffffffff1673ffffffffffffffffffffffffffffffffffffffff16815260200180602001806020018060200180602001858103855289818151815260200191508051906020019060200280838360005b83811015610692578082015181840152602081019050610677565b50505050905001858103845288818151815260200191508051906020019060200280838360005b838110156106d45780820151818401526020810190506106b9565b50505050905001858103835287818151815260200191508051906020019060200280838360005b838110156107165780820151818401526020810190506106fb565b50505050905001858103825286818151815260200191508051906020019060200280838360005b8381101561075857808201518184015260208101905061073d565b505050509050019c50505050505050505050505050600060405180830381600087803b15801561078757600080fd5b505af115801561079b573d6000803e3d6000fd5b5050505080600160008c815260200190815260200160002060006101000a81548173ffffffffffffffffffffffffffffffffffffffff021916908373ffffffffffffffffffffffffffffffffffffffff160217905550898173ffffffffffffffffffffffffffffffffffffffff167f96e7026a46d2e0799b4ab7dbb77d314b15a66e3f42d3dd9e856805d5caf32daa8a8a604051808373ffffffffffffffffffffffffffffffffffffffff1673ffffffffffffffffffffffffffffffffffffffff1681526020018273ffffffffffffffffffffffffffffffffffffffff1673ffffffffffffffffffffffffffffffffffffffff1681526020019250505060405180910390a3600191505098975050505050505050565b6000808260601b90506040517f3d602d80600a3d3981f3363d3d373d3d3d363d7300000000000000000000000081528160148201527f5af43d82803e903d91602b57fd5bf3000000000000000000000000000000000060288201526037816000f09250505091905056fea265627a7a72315820eab1927aef0bb0f1ffe374aa24d79cadf459e4862b2d34acd825de510b9e4d9664736f6c63430005100032",
  "source": "// SPDX-License-Identifier: MIT\npragma solidity >=0.4.21 <0.7.1;\n\nimport './ServiceAgreement.sol';\nimport './CloneFactory.sol';\n\n/**\n * @title ServiceAgreementFactory\n * @dev Store & retreive value in a variable\n */\ncontract ServiceAgreementFactory is CloneFactory {\n    event ServiceAgreementCreated(\n        address _client,\n        address _contractor,\n        address indexed _address,\n        bytes32 indexed _hash\n    );\n\n    address public implementation;\n\n    constructor(address _implementation) public {\n        implementation = _implementation;\n    }\n\n    mapping(bytes32 => address) public agreements;\n\n    /**\n     * @dev Creates a new service agreement and adds it to mapping\n     * @param _service The hash of the service agreement\n     * @param _parent The hash of the parent service\n     * @param _client The contractor of the service agreement\n     * @param _contractor The contractor of the service agreement\n     * @param _children The hashes of the child services\n     * @param _parents The hashes of parent services of the service specified in same index of _hashes\n     * @param _billables Determines if the service node on index of _hashes has an associated billing unit\n     * @param _documents The hashes of contract documents of the service agreement\n     */\n    function createServiceAgreement(\n        bytes32 _service,\n        bytes32 _parent,\n        address _client,\n        address _contractor,\n        bytes32[] memory _children,\n        bytes32[] memory _parents,\n        bool[] memory _billables,\n        bytes32[] memory _documents\n    ) public returns (bool) {\n        address clone = createClone(implementation);\n        ServiceAgreement(clone).init(\n            _service,\n            _parent,\n            _client,\n            _contractor,\n            _children,\n            _parents,\n            _billables,\n            _documents\n        );\n        agreements[_service] = clone;\n        emit ServiceAgreementCreated(_client, _contractor, clone, _service);\n        return true;\n    }\n\n    /**\n     * @dev Updates the stage of a service agreement\n     * @param _service The hash of the service to be updated\n     * @param _stage The new stage of the service\n     */\n    function setServiceStage(bytes32 _service, uint8 _stage)\n        public\n        returns (bool)\n    {\n        ServiceAgreement(agreements[_service]).setStage(_service, _stage);\n        return true;\n    }\n}\n",
  "sourcePath": "C:\\Users\\fabia\\WebstormProjects\\bim-contracts\\contracts\\ServiceAgreementFactory.sol",
  "compiler": {
    "name": "solc",
    "version": "0.5.16+commit.9c3226ce.Emscripten.clang"
  },
  "schemaVersion": "3.2.4",
  "updatedAt": "2020-09-24T09:13:43.174Z",
  "networkType": "ethereum",
  "devdoc": {
    "details": "Store & retreive value in a variable",
    "methods": {
      "createServiceAgreement(bytes32,bytes32,address,address,bytes32[],bytes32[],bool[],bytes32[])": {
        "details": "Creates a new service agreement and adds it to mapping",
        "params": {
          "_billables": "Determines if the service node on index of _hashes has an associated billing unit",
          "_children": "The hashes of the child services",
          "_client": "The contractor of the service agreement",
          "_contractor": "The contractor of the service agreement",
          "_documents": "The hashes of contract documents of the service agreement",
          "_parent": "The hash of the parent service",
          "_parents": "The hashes of parent services of the service specified in same index of _hashes",
          "_service": "The hash of the service agreement"
        }
      },
      "setServiceStage(bytes32,uint8)": {
        "details": "Updates the stage of a service agreement",
        "params": {
          "_service": "The hash of the service to be updated",
          "_stage": "The new stage of the service"
        }
      }
    },
    "title": "ServiceAgreementFactory"
  },
  "userdoc": {
    "methods": {}
  }
}