{
  "contractName": "ServiceContractFactory",
  "abi": [
    {
      "inputs": [
        {
          "internalType": "address",
          "name": "_implementation",
          "type": "address"
        }
      ],
      "payable": false,
      "stateMutability": "nonpayable",
      "type": "constructor"
    },
    {
      "constant": false,
      "inputs": [
        {
          "internalType": "bytes32",
          "name": "_contract",
          "type": "bytes32"
        },
        {
          "internalType": "address",
          "name": "_contractor",
          "type": "address"
        }
      ],
      "name": "create",
      "outputs": [
        {
          "internalType": "bool",
          "name": "",
          "type": "bool"
        }
      ],
      "payable": false,
      "stateMutability": "nonpayable",
      "type": "function"
    },
    {
      "constant": false,
      "inputs": [
        {
          "internalType": "bytes32",
          "name": "_contract",
          "type": "bytes32"
        },
        {
          "internalType": "bytes32",
          "name": "_super",
          "type": "bytes32"
        },
        {
          "internalType": "bytes32[]",
          "name": "_services",
          "type": "bytes32[]"
        },
        {
          "internalType": "bytes32[]",
          "name": "_billings",
          "type": "bytes32[]"
        }
      ],
      "name": "addServices",
      "outputs": [
        {
          "internalType": "bool",
          "name": "",
          "type": "bool"
        }
      ],
      "payable": false,
      "stateMutability": "nonpayable",
      "type": "function"
    },
    {
      "constant": true,
      "inputs": [
        {
          "internalType": "address",
          "name": "_client",
          "type": "address"
        }
      ],
      "name": "getContractsByClient",
      "outputs": [
        {
          "internalType": "bytes32[]",
          "name": "",
          "type": "bytes32[]"
        }
      ],
      "payable": false,
      "stateMutability": "view",
      "type": "function"
    },
    {
      "constant": true,
      "inputs": [
        {
          "internalType": "address",
          "name": "_contractor",
          "type": "address"
        }
      ],
      "name": "getContractsByContractor",
      "outputs": [
        {
          "internalType": "bytes32[]",
          "name": "",
          "type": "bytes32[]"
        }
      ],
      "payable": false,
      "stateMutability": "view",
      "type": "function"
    },
    {
      "constant": true,
      "inputs": [
        {
          "internalType": "bytes32",
          "name": "_super",
          "type": "bytes32"
        }
      ],
      "name": "servicesOf",
      "outputs": [
        {
          "internalType": "bytes32[]",
          "name": "",
          "type": "bytes32[]"
        }
      ],
      "payable": false,
      "stateMutability": "view",
      "type": "function"
    },
    {
      "constant": true,
      "inputs": [
        {
          "internalType": "bytes32",
          "name": "_item",
          "type": "bytes32"
        }
      ],
      "name": "stageOf",
      "outputs": [
        {
          "internalType": "enum StateMachine.Stages",
          "name": "",
          "type": "uint8"
        }
      ],
      "payable": false,
      "stateMutability": "view",
      "type": "function"
    },
    {
      "constant": false,
      "inputs": [
        {
          "internalType": "bytes32",
          "name": "_item",
          "type": "bytes32"
        }
      ],
      "name": "start",
      "outputs": [
        {
          "internalType": "bool",
          "name": "",
          "type": "bool"
        }
      ],
      "payable": false,
      "stateMutability": "nonpayable",
      "type": "function"
    },
    {
      "constant": false,
      "inputs": [
        {
          "internalType": "bytes32",
          "name": "_item",
          "type": "bytes32"
        }
      ],
      "name": "finish",
      "outputs": [
        {
          "internalType": "bool",
          "name": "",
          "type": "bool"
        }
      ],
      "payable": false,
      "stateMutability": "nonpayable",
      "type": "function"
    },
    {
      "constant": false,
      "inputs": [
        {
          "internalType": "bytes32",
          "name": "_item",
          "type": "bytes32"
        }
      ],
      "name": "approve",
      "outputs": [
        {
          "internalType": "bool",
          "name": "",
          "type": "bool"
        }
      ],
      "payable": false,
      "stateMutability": "nonpayable",
      "type": "function"
    },
    {
      "constant": false,
      "inputs": [
        {
          "internalType": "bytes32",
          "name": "_item",
          "type": "bytes32"
        }
      ],
      "name": "pay",
      "outputs": [
        {
          "internalType": "bool",
          "name": "",
          "type": "bool"
        }
      ],
      "payable": false,
      "stateMutability": "nonpayable",
      "type": "function"
    },
    {
      "constant": false,
      "inputs": [
        {
          "internalType": "bytes32",
          "name": "_item",
          "type": "bytes32"
        }
      ],
      "name": "reject",
      "outputs": [
        {
          "internalType": "bool",
          "name": "",
          "type": "bool"
        }
      ],
      "payable": false,
      "stateMutability": "nonpayable",
      "type": "function"
    }
  ],
  "bytecode": "0x608060405234801561001057600080fd5b506040516120493803806120498339818101604052602081101561003357600080fd5b8101908080519060200190929190505050806000806101000a81548173ffffffffffffffffffffffffffffffffffffffff021916908373ffffffffffffffffffffffffffffffffffffffff16021790555050611fb5806100946000396000f3fe608060405234801561001057600080fd5b50600436106100a95760003560e01c80638609cad1116100715780638609cad11461033d578063a53a1adf14610383578063cabd734f146103c9578063d6d427681461040f578063f2e9c617146104a8578063fde630561461052b576100a9565b8063015a18ed146100ae57806317f581c6146100f457806342698a811461018d578063663ff5a9146102875780636c91047a146102ed575b600080fd5b6100da600480360360208110156100c457600080fd5b8101908080359060200190929190505050610571565b604051808215151515815260200191505060405180910390f35b6101366004803603602081101561010a57600080fd5b81019080803573ffffffffffffffffffffffffffffffffffffffff169060200190929190505050610793565b6040518080602001828103825283818151815260200191508051906020019060200280838360005b8381101561017957808201518184015260208101905061015e565b505050509050019250505060405180910390f35b61026d600480360360808110156101a357600080fd5b810190808035906020019092919080359060200190929190803590602001906401000000008111156101d457600080fd5b8201836020820111156101e657600080fd5b8035906020019184602083028401116401000000008311171561020857600080fd5b90919293919293908035906020019064010000000081111561022957600080fd5b82018360208201111561023b57600080fd5b8035906020019184602083028401116401000000008311171561025d57600080fd5b909192939192939050505061082a565b604051808215151515815260200191505060405180910390f35b6102d36004803603604081101561029d57600080fd5b8101908080359060200190929190803573ffffffffffffffffffffffffffffffffffffffff1690602001909291905050506109b4565b604051808215151515815260200191505060405180910390f35b6103196004803603602081101561030357600080fd5b8101908080359060200190929190505050610cc8565b6040518082600681111561032957fe5b60ff16815260200191505060405180910390f35b6103696004803603602081101561035357600080fd5b8101908080359060200190929190505050610d65565b604051808215151515815260200191505060405180910390f35b6103af6004803603602081101561039957600080fd5b8101908080359060200190929190505050611106565b604051808215151515815260200191505060405180910390f35b6103f5600480360360208110156103df57600080fd5b81019080803590602001909291905050506114e2565b604051808215151515815260200191505060405180910390f35b6104516004803603602081101561042557600080fd5b81019080803573ffffffffffffffffffffffffffffffffffffffff169060200190929190505050611703565b6040518080602001828103825283818151815260200191508051906020019060200280838360005b83811015610494578082015181840152602081019050610479565b505050509050019250505060405180910390f35b6104d4600480360360208110156104be57600080fd5b810190808035906020019092919050505061179a565b6040518080602001828103825283818151815260200191508051906020019060200280838360005b838110156105175780820151818401526020810190506104fc565b505050509050019250505060405180910390f35b6105576004803603602081101561054157600080fd5b81019080803590602001909291905050506118d1565b604051808215151515815260200191505060405180910390f35b600061057c82611c72565b8073ffffffffffffffffffffffffffffffffffffffff1663b6cb405b6040518163ffffffff1660e01b815260040160206040518083038186803b1580156105c257600080fd5b505afa1580156105d6573d6000803e3d6000fd5b505050506040513d60208110156105ec57600080fd5b810190808051906020019092919050505073ffffffffffffffffffffffffffffffffffffffff163373ffffffffffffffffffffffffffffffffffffffff161461069d576040517f08c379a000000000000000000000000000000000000000000000000000000000815260040180806020018281038252601d8152602001807f4e6f7420616c6c6f7765642e204f6e6c7920636f6e74726163746f722e00000081525060200191505060405180910390fd5b6106a683611c72565b73ffffffffffffffffffffffffffffffffffffffff1663015a18ed846040518263ffffffff1660e01b815260040180828152602001915050600060405180830381600087803b1580156106f857600080fd5b505af115801561070c573d6000803e3d6000fd5b505050506000801b600360008581526020019081526020016000205411801561076657506002600681111561073d57fe5b6107596003600086815260200190815260200160002054610cc8565b600681111561076457fe5b105b15610789576107876003600085815260200190815260200160002054610571565b505b6001915050919050565b6060600460008373ffffffffffffffffffffffffffffffffffffffff1673ffffffffffffffffffffffffffffffffffffffff16815260200190815260200160002080548060200260200160405190810160405280929190818152602001828054801561081e57602002820191906000526020600020905b81548152602001906001019080831161080a575b50505050509050919050565b600061083587611d05565b8073ffffffffffffffffffffffffffffffffffffffff166359dc735c6040518163ffffffff1660e01b815260040160206040518083038186803b15801561087b57600080fd5b505afa15801561088f573d6000803e3d6000fd5b505050506040513d60208110156108a557600080fd5b810190808051906020019092919050505073ffffffffffffffffffffffffffffffffffffffff163373ffffffffffffffffffffffffffffffffffffffff1614610956576040517f08c379a00000000000000000000000000000000000000000000000000000000081526004018080602001828103825260198152602001807f4e6f7420616c6c6f7765642e204f6e6c7920636c69656e742e0000000000000081525060200191505060405180910390fd5b60008090505b848490508110156109a457610997898989898581811061097857fe5b9050602002013588888681811061098b57fe5b90506020020135611e16565b808060010191505061095c565b5060019150509695505050505050565b600082600073ffffffffffffffffffffffffffffffffffffffff166002600083815260200190815260200160002060009054906101000a900473ffffffffffffffffffffffffffffffffffffffff1673ffffffffffffffffffffffffffffffffffffffff161115610a975760016006811115610a2c57fe5b610a3582610cc8565b6006811115610a4057fe5b11610a96576040517f08c379a0000000000000000000000000000000000000000000000000000000008152600401808060200182810382526025815260200180611f5c6025913960400191505060405180910390fd5b5b6000610ac36000809054906101000a900473ffffffffffffffffffffffffffffffffffffffff16611ecf565b9050806002600087815260200190815260200160002060006101000a81548173ffffffffffffffffffffffffffffffffffffffff021916908373ffffffffffffffffffffffffffffffffffffffff160217905550610b2085611d05565b73ffffffffffffffffffffffffffffffffffffffff1663f09a401633866040518363ffffffff1660e01b8152600401808373ffffffffffffffffffffffffffffffffffffffff1673ffffffffffffffffffffffffffffffffffffffff1681526020018273ffffffffffffffffffffffffffffffffffffffff1673ffffffffffffffffffffffffffffffffffffffff16815260200192505050600060405180830381600087803b158015610bd257600080fd5b505af1158015610be6573d6000803e3d6000fd5b50505050600460008573ffffffffffffffffffffffffffffffffffffffff1673ffffffffffffffffffffffffffffffffffffffff168152602001908152602001600020859080600181540180825580915050906001820390600052602060002001600090919290919091505550600560003373ffffffffffffffffffffffffffffffffffffffff1673ffffffffffffffffffffffffffffffffffffffff16815260200190815260200160002085908060018154018082558091505090600182039060005260206000200160009091929091909150555060019250505092915050565b6000610cd382611c72565b73ffffffffffffffffffffffffffffffffffffffff16636c91047a836040518263ffffffff1660e01b81526004018082815260200191505060206040518083038186803b158015610d2357600080fd5b505afa158015610d37573d6000803e3d6000fd5b505050506040513d6020811015610d4d57600080fd5b81019080805190602001909291905050509050919050565b6000610d7082611c72565b8073ffffffffffffffffffffffffffffffffffffffff166359dc735c6040518163ffffffff1660e01b815260040160206040518083038186803b158015610db657600080fd5b505afa158015610dca573d6000803e3d6000fd5b505050506040513d6020811015610de057600080fd5b810190808051906020019092919050505073ffffffffffffffffffffffffffffffffffffffff163373ffffffffffffffffffffffffffffffffffffffff1614610e91576040517f08c379a00000000000000000000000000000000000000000000000000000000081526004018080602001828103825260198152602001807f4e6f7420616c6c6f7765642e204f6e6c7920636c69656e742e0000000000000081525060200191505060405180910390fd5b610e9a83611c72565b73ffffffffffffffffffffffffffffffffffffffff16638609cad1846040518263ffffffff1660e01b815260040180828152602001915050600060405180830381600087803b158015610eec57600080fd5b505af1158015610f00573d6000803e3d6000fd5b505050506000801b600360008581526020019081526020016000205411156110fb576060610f406003600086815260200190815260200160002054611c72565b73ffffffffffffffffffffffffffffffffffffffff16637e9ffb8b60036000878152602001908152602001600020546040518263ffffffff1660e01b81526004018082815260200191505060006040518083038186803b158015610fa357600080fd5b505afa158015610fb7573d6000803e3d6000fd5b505050506040513d6000823e3d601f19601f820116820180604052506020811015610fe157600080fd5b810190808051604051939291908464010000000082111561100157600080fd5b8382019150602082018581111561101757600080fd5b825186602082028301116401000000008211171561103457600080fd5b8083526020830192505050908051906020019060200280838360005b8381101561106b578082015181840152602081019050611050565b50505050905001604052505050905060008090505b81518110156110db576005600681111561109657fe5b6110b28383815181106110a557fe5b6020026020010151610cc8565b60068111156110bd57fe5b10156110ce57600193505050611100565b8080600101915050611080565b506110f86003600086815260200190815260200160002054610d65565b50505b600191505b50919050565b600061111182611c72565b8073ffffffffffffffffffffffffffffffffffffffff166359dc735c6040518163ffffffff1660e01b815260040160206040518083038186803b15801561115757600080fd5b505afa15801561116b573d6000803e3d6000fd5b505050506040513d602081101561118157600080fd5b810190808051906020019092919050505073ffffffffffffffffffffffffffffffffffffffff163373ffffffffffffffffffffffffffffffffffffffff1614611232576040517f08c379a00000000000000000000000000000000000000000000000000000000081526004018080602001828103825260198152602001807f4e6f7420616c6c6f7765642e204f6e6c7920636c69656e742e0000000000000081525060200191505060405180910390fd5b61123b83611c72565b73ffffffffffffffffffffffffffffffffffffffff1663a53a1adf846040518263ffffffff1660e01b815260040180828152602001915050600060405180830381600087803b15801561128d57600080fd5b505af11580156112a1573d6000803e3d6000fd5b505050506000801b600360008581526020019081526020016000205411156114d75760606112e16003600086815260200190815260200160002054611c72565b73ffffffffffffffffffffffffffffffffffffffff16637e9ffb8b60036000878152602001908152602001600020546040518263ffffffff1660e01b81526004018082815260200191505060006040518083038186803b15801561134457600080fd5b505afa158015611358573d6000803e3d6000fd5b505050506040513d6000823e3d601f19601f82011682018060405250602081101561138257600080fd5b81019080805160405193929190846401000000008211156113a257600080fd5b838201915060208201858111156113b857600080fd5b82518660208202830111640100000000821117156113d557600080fd5b8083526020830192505050908051906020019060200280838360005b8381101561140c5780820151818401526020810190506113f1565b50505050905001604052505050905060008090505b81518110156114b7576004600681111561143757fe5b61145383838151811061144657fe5b6020026020010151610cc8565b600681111561145e57fe5b108061149a575060068081111561147157fe5b61148d83838151811061148057fe5b6020026020010151610cc8565b600681111561149857fe5b145b156114aa576001935050506114dc565b8080600101915050611421565b506114d46003600086815260200190815260200160002054611106565b50505b600191505b50919050565b60006114ed82611c72565b8073ffffffffffffffffffffffffffffffffffffffff166359dc735c6040518163ffffffff1660e01b815260040160206040518083038186803b15801561153357600080fd5b505afa158015611547573d6000803e3d6000fd5b505050506040513d602081101561155d57600080fd5b810190808051906020019092919050505073ffffffffffffffffffffffffffffffffffffffff163373ffffffffffffffffffffffffffffffffffffffff161461160e576040517f08c379a00000000000000000000000000000000000000000000000000000000081526004018080602001828103825260198152602001807f4e6f7420616c6c6f7765642e204f6e6c7920636c69656e742e0000000000000081525060200191505060405180910390fd5b6000801b6003600085815260200190815260200160002054118015611663575060068081111561163a57fe5b6116566003600086815260200190815260200160002054610cc8565b600681111561166157fe5b105b156116865761168460036000858152602001908152602001600020546114e2565b505b61168f83611c72565b73ffffffffffffffffffffffffffffffffffffffff1663cabd734f846040518263ffffffff1660e01b815260040180828152602001915050600060405180830381600087803b1580156116e157600080fd5b505af11580156116f5573d6000803e3d6000fd5b505050506001915050919050565b6060600560008373ffffffffffffffffffffffffffffffffffffffff1673ffffffffffffffffffffffffffffffffffffffff16815260200190815260200160002080548060200260200160405190810160405280929190818152602001828054801561178e57602002820191906000526020600020905b81548152602001906001019080831161177a575b50505050509050919050565b60606117a582611c72565b73ffffffffffffffffffffffffffffffffffffffff16637e9ffb8b836040518263ffffffff1660e01b81526004018082815260200191505060006040518083038186803b1580156117f557600080fd5b505afa158015611809573d6000803e3d6000fd5b505050506040513d6000823e3d601f19601f82011682018060405250602081101561183357600080fd5b810190808051604051939291908464010000000082111561185357600080fd5b8382019150602082018581111561186957600080fd5b825186602082028301116401000000008211171561188657600080fd5b8083526020830192505050908051906020019060200280838360005b838110156118bd5780820151818401526020810190506118a2565b505050509050016040525050509050919050565b60006118dc82611c72565b8073ffffffffffffffffffffffffffffffffffffffff1663b6cb405b6040518163ffffffff1660e01b815260040160206040518083038186803b15801561192257600080fd5b505afa158015611936573d6000803e3d6000fd5b505050506040513d602081101561194c57600080fd5b810190808051906020019092919050505073ffffffffffffffffffffffffffffffffffffffff163373ffffffffffffffffffffffffffffffffffffffff16146119fd576040517f08c379a000000000000000000000000000000000000000000000000000000000815260040180806020018281038252601d8152602001807f4e6f7420616c6c6f7765642e204f6e6c7920636f6e74726163746f722e00000081525060200191505060405180910390fd5b611a0683611c72565b73ffffffffffffffffffffffffffffffffffffffff1663fde63056846040518263ffffffff1660e01b815260040180828152602001915050600060405180830381600087803b158015611a5857600080fd5b505af1158015611a6c573d6000803e3d6000fd5b505050506000801b60036000858152602001908152602001600020541115611c67576060611aac6003600086815260200190815260200160002054611c72565b73ffffffffffffffffffffffffffffffffffffffff16637e9ffb8b60036000878152602001908152602001600020546040518263ffffffff1660e01b81526004018082815260200191505060006040518083038186803b158015611b0f57600080fd5b505afa158015611b23573d6000803e3d6000fd5b505050506040513d6000823e3d601f19601f820116820180604052506020811015611b4d57600080fd5b8101908080516040519392919084640100000000821115611b6d57600080fd5b83820191506020820185811115611b8357600080fd5b8251866020820283011164010000000082111715611ba057600080fd5b8083526020830192505050908051906020019060200280838360005b83811015611bd7578082015181840152602081019050611bbc565b50505050905001604052505050905060008090505b8151811015611c475760036006811115611c0257fe5b611c1e838381518110611c1157fe5b6020026020010151610cc8565b6006811115611c2957fe5b1015611c3a57600193505050611c6c565b8080600101915050611bec565b50611c6460036000868152602001908152602001600020546118d1565b50505b600191505b50919050565b60008060001b600160008481526020019081526020016000205411611ce2576040517f08c379a0000000000000000000000000000000000000000000000000000000008152600401808060200182810382526022815260200180611f3a6022913960400191505060405180910390fd5b611cfe6001600084815260200190815260200160002054611d05565b9050919050565b60008073ffffffffffffffffffffffffffffffffffffffff166002600084815260200190815260200160002060009054906101000a900473ffffffffffffffffffffffffffffffffffffffff1673ffffffffffffffffffffffffffffffffffffffff1611611ddb576040517f08c379a00000000000000000000000000000000000000000000000000000000081526004018080602001828103825260198152602001807f436f6e747261637420646f6573206e6f74206578697374732e0000000000000081525060200191505060405180910390fd5b6002600083815260200190815260200160002060009054906101000a900473ffffffffffffffffffffffffffffffffffffffff169050919050565b826003600084815260200190815260200160002081905550836001600084815260200190815260200160002081905550611e4f84611d05565b73ffffffffffffffffffffffffffffffffffffffff16635f95f3bd8484846040518463ffffffff1660e01b8152600401808481526020018381526020018281526020019350505050600060405180830381600087803b158015611eb157600080fd5b505af1158015611ec5573d6000803e3d6000fd5b5050505050505050565b6000808260601b90506040517f3d602d80600a3d3981f3363d3d373d3d3d363d7300000000000000000000000081528160148201527f5af43d82803e903d91602b57fd5bf3000000000000000000000000000000000060288201526037816000f09250505091905056fe4c696e6b6564207365727669636520636f6e7472616374206e6f7420666f756e642e4e6f7420616c6c6f7765642e20436f6e747261637420616c72656164792053746172746564a265627a7a723158201a44ae005fe04317edfeb4b5f472c16e28423cdf14965fee7631f8016572fe0364736f6c63430005100032",
  "source": "// SPDX-License-Identifier: MIT\npragma solidity >=0.4.21 <0.7.1;\n\nimport './StateMachine.sol';\nimport './ServiceContract.sol';\nimport './CloneFactory.sol';\n\ncontract ServiceContractFactory is CloneFactory {\n    address private implementation;\n\n    constructor(address _implementation) public {\n        implementation = _implementation;\n    }\n\n    mapping(bytes32 => bytes32) contracts; // service -> contract\n    mapping(bytes32 => address) instances; // contract hash to contract address\n    mapping(bytes32 => bytes32) sections; // service -> section\n\n    mapping(address => bytes32[]) contractsByContractor; // contractor to contract hashes\n    mapping(address => bytes32[]) contractsByClient; // client to contract hashes\n\n    modifier onlyClient(ServiceContract _instance) {\n        require(\n            msg.sender == _instance.getClient(),\n            'Not allowed. Only client.'\n        );\n        _;\n    }\n\n    modifier onlyContractor(ServiceContract _instance) {\n        require(\n            msg.sender == _instance.getContractor(),\n            'Not allowed. Only contractor.'\n        );\n        _;\n    }\n\n    modifier contractNotStarted(bytes32 _contract) {\n        if (instances[_contract] > address(0)) {\n            require(\n                stageOf(_contract) > StateMachine.Stages.INITIALIZED,\n                'Not allowed. Contract already Started'\n            );\n        }\n        _;\n    }\n\n    function create(bytes32 _contract, address _contractor)\n        public\n        contractNotStarted(_contract)\n        returns (bool)\n    {\n        address clone = createClone(implementation);\n        instances[_contract] = clone;\n        _instanceByContract(_contract).init(msg.sender, _contractor);\n        contractsByContractor[_contractor].push(_contract);\n        contractsByClient[msg.sender].push(_contract);\n        return true;\n    }\n\n    function addServices(\n        bytes32 _contract,\n        bytes32 _super,\n        bytes32[] calldata _services,\n        bytes32[] calldata _billings\n    ) external onlyClient(_instanceByContract(_contract)) returns (bool) {\n        for (uint256 i = 0; i < _billings.length; i++) {\n            _addService(_contract, _super, _services[i], _billings[i]);\n        }\n        return true;\n    }\n\n    function getContractsByClient(address _client)\n        external\n        view\n        returns (bytes32[] memory)\n    {\n        return contractsByClient[_client];\n    }\n\n    function getContractsByContractor(address _contractor)\n        external\n        view\n        returns (bytes32[] memory)\n    {\n        return contractsByContractor[_contractor];\n    }\n\n    function servicesOf(bytes32 _super)\n        external\n        view\n        returns (bytes32[] memory)\n    {\n        return _instanceByService(_super).getServicesOf(_super);\n    }\n\n    function stageOf(bytes32 _item)\n        public\n        view\n        returns (ServiceContract.Stages)\n    {\n        return _instanceByService(_item).stageOf(_item);\n    }\n\n    function start(bytes32 _item)\n        public\n        onlyContractor(_instanceByService(_item))\n        returns (bool)\n    {\n        _instanceByService(_item).start(_item);\n        if (\n            sections[_item] > 0 &&\n            (uint256(stageOf(sections[_item])) <\n                uint256(StateMachine.Stages.STARTED))\n        ) {\n            start(sections[_item]);\n        }\n        return true;\n    }\n\n    function finish(bytes32 _item)\n        public\n        onlyContractor(_instanceByService(_item))\n        returns (bool)\n    {\n        _instanceByService(_item).finish(_item);\n        if (sections[_item] > 0) {\n            bytes32[] memory _services = _instanceByService(sections[_item])\n                .getServicesOf(sections[_item]);\n            for (uint256 i = 0; i < _services.length; i++) {\n                if (\n                    uint256(stageOf(_services[i])) <\n                    uint256(StateMachine.Stages.FINISHED)\n                ) {\n                    return true;\n                }\n            }\n            finish(sections[_item]);\n        }\n        return true;\n    }\n\n    function approve(bytes32 _item)\n        public\n        onlyClient(_instanceByService(_item))\n        returns (bool)\n    {\n        _instanceByService(_item).approve(_item);\n        if (sections[_item] > 0) {\n            bytes32[] memory _services = _instanceByService(sections[_item])\n                .getServicesOf(sections[_item]);\n            for (uint256 i = 0; i < _services.length; i++) {\n                if (\n                    uint256(stageOf(_services[i])) <\n                    uint256(StateMachine.Stages.APPROVED) ||\n                    stageOf(_services[i]) == StateMachine.Stages.REJECTED\n                ) {\n                    return true;\n                }\n            }\n            approve(sections[_item]);\n        }\n\n        return true;\n    }\n\n    function pay(bytes32 _item)\n        public\n        onlyClient(_instanceByService(_item))\n        returns (bool)\n    {\n        _instanceByService(_item).pay(_item);\n        if (sections[_item] > 0) {\n            bytes32[] memory _services = _instanceByService(sections[_item])\n                .getServicesOf(sections[_item]);\n            for (uint256 i = 0; i < _services.length; i++) {\n                if (\n                    uint256(stageOf(_services[i])) <\n                    uint256(StateMachine.Stages.PAYED)\n                ) {\n                    return true;\n                }\n            }\n            pay(sections[_item]);\n        }\n        return true;\n    }\n\n    function reject(bytes32 _item)\n        public\n        onlyClient(_instanceByService(_item))\n        returns (bool)\n    {\n        if (\n            sections[_item] > 0 &&\n            (uint256(stageOf(sections[_item])) <\n                uint256(StateMachine.Stages.REJECTED))\n        ) {\n            reject(sections[_item]);\n        }\n        _instanceByService(_item).reject(_item);\n        return true;\n    }\n\n    function _addService(\n        bytes32 _contract,\n        bytes32 _super,\n        bytes32 _service,\n        bytes32 _billing\n    ) internal {\n        sections[_service] = _super;\n        contracts[_service] = _contract;\n        _instanceByContract(_contract).setServiceOf(_super, _service, _billing);\n    }\n\n    function _instanceByContract(bytes32 _contract)\n        internal\n        view\n        returns (ServiceContract)\n    {\n        require(instances[_contract] > address(0), 'Contract does not exists.');\n        return ServiceContract(instances[_contract]);\n    }\n\n    function _instanceByService(bytes32 _service)\n        internal\n        view\n        returns (ServiceContract)\n    {\n        require(contracts[_service] > 0, 'Linked service contract not found.');\n        return _instanceByContract(contracts[_service]);\n    }\n}\n",
  "sourcePath": "C:/Users/fabia/WebstormProjects/bim-contracts/contracts/ServiceContractFactory.sol",
  "compiler": {
    "name": "solc",
    "version": "0.5.16+commit.9c3226ce.Emscripten.clang"
  },
  "schemaVersion": "3.2.4",
  "updatedAt": "2020-10-10T13:59:41.221Z",
  "devdoc": {
    "methods": {}
  },
  "userdoc": {
    "methods": {}
  }
}