{
  "contractName": "ServiceContractFactory",
  "abi": [
    {
      "inputs": [
        {
          "internalType": "address",
          "name": "_implementation",
          "type": "address"
        }
      ],
      "payable": false,
      "stateMutability": "nonpayable",
      "type": "constructor"
    },
    {
      "constant": false,
      "inputs": [
        {
          "internalType": "bytes32",
          "name": "_contract",
          "type": "bytes32"
        },
        {
          "internalType": "address",
          "name": "_contractor",
          "type": "address"
        }
      ],
      "name": "create",
      "outputs": [
        {
          "internalType": "bool",
          "name": "",
          "type": "bool"
        }
      ],
      "payable": false,
      "stateMutability": "nonpayable",
      "type": "function"
    },
    {
      "constant": false,
      "inputs": [
        {
          "internalType": "bytes32",
          "name": "_contract",
          "type": "bytes32"
        },
        {
          "internalType": "bytes32",
          "name": "_super",
          "type": "bytes32"
        },
        {
          "internalType": "bytes32[]",
          "name": "_sections",
          "type": "bytes32[]"
        },
        {
          "internalType": "bytes32[]",
          "name": "_billings",
          "type": "bytes32[]"
        }
      ],
      "name": "addServices",
      "outputs": [
        {
          "internalType": "bool",
          "name": "",
          "type": "bool"
        }
      ],
      "payable": false,
      "stateMutability": "nonpayable",
      "type": "function"
    },
    {
      "constant": true,
      "inputs": [
        {
          "internalType": "address",
          "name": "_client",
          "type": "address"
        }
      ],
      "name": "getContractsByClient",
      "outputs": [
        {
          "internalType": "bytes32[]",
          "name": "",
          "type": "bytes32[]"
        }
      ],
      "payable": false,
      "stateMutability": "view",
      "type": "function"
    },
    {
      "constant": true,
      "inputs": [
        {
          "internalType": "address",
          "name": "_contractor",
          "type": "address"
        }
      ],
      "name": "getContractsByContractor",
      "outputs": [
        {
          "internalType": "bytes32[]",
          "name": "",
          "type": "bytes32[]"
        }
      ],
      "payable": false,
      "stateMutability": "view",
      "type": "function"
    },
    {
      "constant": true,
      "inputs": [
        {
          "internalType": "bytes32",
          "name": "_super",
          "type": "bytes32"
        }
      ],
      "name": "servicesOf",
      "outputs": [
        {
          "internalType": "bytes32[]",
          "name": "",
          "type": "bytes32[]"
        }
      ],
      "payable": false,
      "stateMutability": "view",
      "type": "function"
    },
    {
      "constant": true,
      "inputs": [
        {
          "internalType": "bytes32",
          "name": "_item",
          "type": "bytes32"
        }
      ],
      "name": "stageOf",
      "outputs": [
        {
          "internalType": "enum StateMachine.Stages",
          "name": "",
          "type": "uint8"
        }
      ],
      "payable": false,
      "stateMutability": "view",
      "type": "function"
    },
    {
      "constant": false,
      "inputs": [
        {
          "internalType": "bytes32",
          "name": "_item",
          "type": "bytes32"
        }
      ],
      "name": "start",
      "outputs": [
        {
          "internalType": "bool",
          "name": "",
          "type": "bool"
        }
      ],
      "payable": false,
      "stateMutability": "nonpayable",
      "type": "function"
    },
    {
      "constant": false,
      "inputs": [
        {
          "internalType": "bytes32",
          "name": "_item",
          "type": "bytes32"
        }
      ],
      "name": "finish",
      "outputs": [
        {
          "internalType": "bool",
          "name": "",
          "type": "bool"
        }
      ],
      "payable": false,
      "stateMutability": "nonpayable",
      "type": "function"
    },
    {
      "constant": false,
      "inputs": [
        {
          "internalType": "bytes32",
          "name": "_item",
          "type": "bytes32"
        }
      ],
      "name": "approve",
      "outputs": [
        {
          "internalType": "bool",
          "name": "",
          "type": "bool"
        }
      ],
      "payable": false,
      "stateMutability": "nonpayable",
      "type": "function"
    },
    {
      "constant": false,
      "inputs": [
        {
          "internalType": "bytes32",
          "name": "_item",
          "type": "bytes32"
        }
      ],
      "name": "reject",
      "outputs": [
        {
          "internalType": "bool",
          "name": "",
          "type": "bool"
        }
      ],
      "payable": false,
      "stateMutability": "nonpayable",
      "type": "function"
    },
    {
      "constant": false,
      "inputs": [
        {
          "internalType": "bytes32",
          "name": "_item",
          "type": "bytes32"
        }
      ],
      "name": "pay",
      "outputs": [
        {
          "internalType": "bool",
          "name": "",
          "type": "bool"
        }
      ],
      "payable": false,
      "stateMutability": "nonpayable",
      "type": "function"
    }
  ],
  "bytecode": "0x608060405234801561001057600080fd5b506040516118283803806118288339818101604052602081101561003357600080fd5b8101908080519060200190929190505050806000806101000a81548173ffffffffffffffffffffffffffffffffffffffff021916908373ffffffffffffffffffffffffffffffffffffffff16021790555050611794806100946000396000f3fe608060405234801561001057600080fd5b50600436106100a95760003560e01c80638609cad1116100715780638609cad11461033d578063a53a1adf14610383578063cabd734f146103c9578063d6d427681461040f578063f2e9c617146104a8578063fde630561461052b576100a9565b8063015a18ed146100ae57806317f581c6146100f457806342698a811461018d578063663ff5a9146102875780636c91047a146102ed575b600080fd5b6100da600480360360208110156100c457600080fd5b8101908080359060200190929190505050610571565b604051808215151515815260200191505060405180910390f35b6101366004803603602081101561010a57600080fd5b81019080803573ffffffffffffffffffffffffffffffffffffffff16906020019092919050505061071a565b6040518080602001828103825283818151815260200191508051906020019060200280838360005b8381101561017957808201518184015260208101905061015e565b505050509050019250505060405180910390f35b61026d600480360360808110156101a357600080fd5b810190808035906020019092919080359060200190929190803590602001906401000000008111156101d457600080fd5b8201836020820111156101e657600080fd5b8035906020019184602083028401116401000000008311171561020857600080fd5b90919293919293908035906020019064010000000081111561022957600080fd5b82018360208201111561023b57600080fd5b8035906020019184602083028401116401000000008311171561025d57600080fd5b90919293919293905050506107b1565b604051808215151515815260200191505060405180910390f35b6102d36004803603604081101561029d57600080fd5b8101908080359060200190929190803573ffffffffffffffffffffffffffffffffffffffff1690602001909291905050506109dc565b604051808215151515815260200191505060405180910390f35b6103196004803603602081101561030357600080fd5b8101908080359060200190929190505050610c25565b6040518082600681111561032957fe5b60ff16815260200191505060405180910390f35b6103696004803603602081101561035357600080fd5b8101908080359060200190929190505050610cc2565b604051808215151515815260200191505060405180910390f35b6103af6004803603602081101561039957600080fd5b8101908080359060200190929190505050610e6b565b604051808215151515815260200191505060405180910390f35b6103f5600480360360208110156103df57600080fd5b8101908080359060200190929190505050611014565b604051808215151515815260200191505060405180910390f35b6104516004803603602081101561042557600080fd5b81019080803573ffffffffffffffffffffffffffffffffffffffff1690602001909291905050506111bd565b6040518080602001828103825283818151815260200191508051906020019060200280838360005b83811015610494578082015181840152602081019050610479565b505050509050019250505060405180910390f35b6104d4600480360360208110156104be57600080fd5b8101908080359060200190929190505050611254565b6040518080602001828103825283818151815260200191508051906020019060200280838360005b838110156105175780820151818401526020810190506104fc565b505050509050019250505060405180910390f35b6105576004803603602081101561054157600080fd5b810190808035906020019092919050505061138b565b604051808215151515815260200191505060405180910390f35b600061057c82611534565b8073ffffffffffffffffffffffffffffffffffffffff1663b6cb405b6040518163ffffffff1660e01b815260040160206040518083038186803b1580156105c257600080fd5b505afa1580156105d6573d6000803e3d6000fd5b505050506040513d60208110156105ec57600080fd5b810190808051906020019092919050505073ffffffffffffffffffffffffffffffffffffffff163373ffffffffffffffffffffffffffffffffffffffff161461069d576040517f08c379a000000000000000000000000000000000000000000000000000000000815260040180806020018281038252601d8152602001807f4e6f7420616c6c6f7765642e204f6e6c7920636f6e74726163746f722e00000081525060200191505060405180910390fd5b6106a683611534565b73ffffffffffffffffffffffffffffffffffffffff1663015a18ed846040518263ffffffff1660e01b815260040180828152602001915050600060405180830381600087803b1580156106f857600080fd5b505af115801561070c573d6000803e3d6000fd5b505050506001915050919050565b6060600360008373ffffffffffffffffffffffffffffffffffffffff1673ffffffffffffffffffffffffffffffffffffffff1681526020019081526020016000208054806020026020016040519081016040528092919081815260200182805480156107a557602002820191906000526020600020905b815481526020019060010190808311610791575b50505050509050919050565b60006107bc876115e4565b8073ffffffffffffffffffffffffffffffffffffffff166359dc735c6040518163ffffffff1660e01b815260040160206040518083038186803b15801561080257600080fd5b505afa158015610816573d6000803e3d6000fd5b505050506040513d602081101561082c57600080fd5b810190808051906020019092919050505073ffffffffffffffffffffffffffffffffffffffff163373ffffffffffffffffffffffffffffffffffffffff16146108dd576040517f08c379a00000000000000000000000000000000000000000000000000000000081526004018080602001828103825260198152602001807f4e6f7420616c6c6f7765642e204f6e6c7920636c69656e742e0000000000000081525060200191505060405180910390fd5b60008090505b848490508110156109cc5788600160008989858181106108ff57fe5b90506020020135815260200190815260200160002081905550610921896115e4565b73ffffffffffffffffffffffffffffffffffffffff16635f95f3bd8989898581811061094957fe5b9050602002013588888681811061095c57fe5b905060200201356040518463ffffffff1660e01b8152600401808481526020018381526020018281526020019350505050600060405180830381600087803b1580156109a757600080fd5b505af11580156109bb573d6000803e3d6000fd5b5050505080806001019150506108e3565b5060019150509695505050505050565b600080610a096000809054906101000a900473ffffffffffffffffffffffffffffffffffffffff166116f5565b9050806002600086815260200190815260200160002060006101000a81548173ffffffffffffffffffffffffffffffffffffffff021916908373ffffffffffffffffffffffffffffffffffffffff160217905550836001600086815260200190815260200160002081905550610a7e846115e4565b73ffffffffffffffffffffffffffffffffffffffff1663f09a401633856040518363ffffffff1660e01b8152600401808373ffffffffffffffffffffffffffffffffffffffff1673ffffffffffffffffffffffffffffffffffffffff1681526020018273ffffffffffffffffffffffffffffffffffffffff1673ffffffffffffffffffffffffffffffffffffffff16815260200192505050600060405180830381600087803b158015610b3057600080fd5b505af1158015610b44573d6000803e3d6000fd5b50505050600360008473ffffffffffffffffffffffffffffffffffffffff1673ffffffffffffffffffffffffffffffffffffffff168152602001908152602001600020849080600181540180825580915050906001820390600052602060002001600090919290919091505550600460003373ffffffffffffffffffffffffffffffffffffffff1673ffffffffffffffffffffffffffffffffffffffff168152602001908152602001600020849080600181540180825580915050906001820390600052602060002001600090919290919091505550600191505092915050565b6000610c3082611534565b73ffffffffffffffffffffffffffffffffffffffff16636c91047a836040518263ffffffff1660e01b81526004018082815260200191505060206040518083038186803b158015610c8057600080fd5b505afa158015610c94573d6000803e3d6000fd5b505050506040513d6020811015610caa57600080fd5b81019080805190602001909291905050509050919050565b6000610ccd82611534565b8073ffffffffffffffffffffffffffffffffffffffff166359dc735c6040518163ffffffff1660e01b815260040160206040518083038186803b158015610d1357600080fd5b505afa158015610d27573d6000803e3d6000fd5b505050506040513d6020811015610d3d57600080fd5b810190808051906020019092919050505073ffffffffffffffffffffffffffffffffffffffff163373ffffffffffffffffffffffffffffffffffffffff1614610dee576040517f08c379a00000000000000000000000000000000000000000000000000000000081526004018080602001828103825260198152602001807f4e6f7420616c6c6f7765642e204f6e6c7920636c69656e742e0000000000000081525060200191505060405180910390fd5b610df783611534565b73ffffffffffffffffffffffffffffffffffffffff16638609cad1846040518263ffffffff1660e01b815260040180828152602001915050600060405180830381600087803b158015610e4957600080fd5b505af1158015610e5d573d6000803e3d6000fd5b505050506001915050919050565b6000610e7682611534565b8073ffffffffffffffffffffffffffffffffffffffff166359dc735c6040518163ffffffff1660e01b815260040160206040518083038186803b158015610ebc57600080fd5b505afa158015610ed0573d6000803e3d6000fd5b505050506040513d6020811015610ee657600080fd5b810190808051906020019092919050505073ffffffffffffffffffffffffffffffffffffffff163373ffffffffffffffffffffffffffffffffffffffff1614610f97576040517f08c379a00000000000000000000000000000000000000000000000000000000081526004018080602001828103825260198152602001807f4e6f7420616c6c6f7765642e204f6e6c7920636c69656e742e0000000000000081525060200191505060405180910390fd5b610fa083611534565b73ffffffffffffffffffffffffffffffffffffffff1663a53a1adf846040518263ffffffff1660e01b815260040180828152602001915050600060405180830381600087803b158015610ff257600080fd5b505af1158015611006573d6000803e3d6000fd5b505050506001915050919050565b600061101f82611534565b8073ffffffffffffffffffffffffffffffffffffffff166359dc735c6040518163ffffffff1660e01b815260040160206040518083038186803b15801561106557600080fd5b505afa158015611079573d6000803e3d6000fd5b505050506040513d602081101561108f57600080fd5b810190808051906020019092919050505073ffffffffffffffffffffffffffffffffffffffff163373ffffffffffffffffffffffffffffffffffffffff1614611140576040517f08c379a00000000000000000000000000000000000000000000000000000000081526004018080602001828103825260198152602001807f4e6f7420616c6c6f7765642e204f6e6c7920636c69656e742e0000000000000081525060200191505060405180910390fd5b61114983611534565b73ffffffffffffffffffffffffffffffffffffffff1663cabd734f846040518263ffffffff1660e01b815260040180828152602001915050600060405180830381600087803b15801561119b57600080fd5b505af11580156111af573d6000803e3d6000fd5b505050506001915050919050565b6060600460008373ffffffffffffffffffffffffffffffffffffffff1673ffffffffffffffffffffffffffffffffffffffff16815260200190815260200160002080548060200260200160405190810160405280929190818152602001828054801561124857602002820191906000526020600020905b815481526020019060010190808311611234575b50505050509050919050565b606061125f82611534565b73ffffffffffffffffffffffffffffffffffffffff16637e9ffb8b836040518263ffffffff1660e01b81526004018082815260200191505060006040518083038186803b1580156112af57600080fd5b505afa1580156112c3573d6000803e3d6000fd5b505050506040513d6000823e3d601f19601f8201168201806040525060208110156112ed57600080fd5b810190808051604051939291908464010000000082111561130d57600080fd5b8382019150602082018581111561132357600080fd5b825186602082028301116401000000008211171561134057600080fd5b8083526020830192505050908051906020019060200280838360005b8381101561137757808201518184015260208101905061135c565b505050509050016040525050509050919050565b600061139682611534565b8073ffffffffffffffffffffffffffffffffffffffff1663b6cb405b6040518163ffffffff1660e01b815260040160206040518083038186803b1580156113dc57600080fd5b505afa1580156113f0573d6000803e3d6000fd5b505050506040513d602081101561140657600080fd5b810190808051906020019092919050505073ffffffffffffffffffffffffffffffffffffffff163373ffffffffffffffffffffffffffffffffffffffff16146114b7576040517f08c379a000000000000000000000000000000000000000000000000000000000815260040180806020018281038252601d8152602001807f4e6f7420616c6c6f7765642e204f6e6c7920636f6e74726163746f722e00000081525060200191505060405180910390fd5b6114c083611534565b73ffffffffffffffffffffffffffffffffffffffff1663fde63056846040518263ffffffff1660e01b815260040180828152602001915050600060405180830381600087803b15801561151257600080fd5b505af1158015611526573d6000803e3d6000fd5b505050506001915050919050565b60008060001b6001600084815260200190815260200160002054116115c1576040517f08c379a00000000000000000000000000000000000000000000000000000000081526004018080602001828103825260198152602001807f436f6e747261637420646f6573206e6f74206578697374732e0000000000000081525060200191505060405180910390fd5b6115dd60016000848152602001908152602001600020546115e4565b9050919050565b60008073ffffffffffffffffffffffffffffffffffffffff166002600084815260200190815260200160002060009054906101000a900473ffffffffffffffffffffffffffffffffffffffff1673ffffffffffffffffffffffffffffffffffffffff16116116ba576040517f08c379a00000000000000000000000000000000000000000000000000000000081526004018080602001828103825260198152602001807f436f6e747261637420646f6573206e6f74206578697374732e0000000000000081525060200191505060405180910390fd5b6002600083815260200190815260200160002060009054906101000a900473ffffffffffffffffffffffffffffffffffffffff169050919050565b6000808260601b90506040517f3d602d80600a3d3981f3363d3d373d3d3d363d7300000000000000000000000081528160148201527f5af43d82803e903d91602b57fd5bf3000000000000000000000000000000000060288201526037816000f09250505091905056fea265627a7a7231582026fcd9de330604422ae1100d8825326aaadccec336557fe2060258ff44e56e1164736f6c63430005100032",
  "source": "// SPDX-License-Identifier: MIT\npragma solidity >=0.4.21 <0.7.1;\n\nimport './ServiceContract.sol';\nimport './CloneFactory.sol';\n\ncontract ServiceContractFactory is CloneFactory {\n    address private implementation;\n\n    constructor(address _implementation) public {\n        implementation = _implementation;\n    }\n\n    mapping(bytes32 => bytes32) contracts; // section or item -> contract\n    mapping(bytes32 => address) instances; // contract hash to contract address\n\n    mapping(address => bytes32[]) contractsByContractor; // contractor to contract hashes\n    mapping(address => bytes32[]) contractsByClient; // client to contract hashes\n\n    modifier onlyClient(ServiceContract _instance) {\n        require(\n            msg.sender == _instance.getClient(),\n            'Not allowed. Only client.'\n        );\n        _;\n    }\n\n    modifier onlyContractor(ServiceContract _instance) {\n        require(\n            msg.sender == _instance.getContractor(),\n            'Not allowed. Only contractor.'\n        );\n        _;\n    }\n\n    function create(bytes32 _contract, address _contractor)\n        public\n        returns (bool)\n    {\n        address clone = createClone(implementation);\n        instances[_contract] = clone;\n        contracts[_contract] = _contract; // Include contract in contract pointers, as it is super of first level sections or items\n        _instanceByContract(_contract).init(msg.sender, _contractor);\n        contractsByContractor[_contractor].push(_contract);\n        contractsByClient[msg.sender].push(_contract);\n        return true;\n    }\n\n    function addServices(\n        bytes32 _contract,\n        bytes32 _super,\n        bytes32[] calldata _sections,\n        bytes32[] calldata _billings\n    ) external onlyClient(_instanceByContract(_contract)) returns (bool) {\n        for (uint256 i = 0; i < _billings.length; i++) {\n            contracts[_sections[i]] = _contract;\n            _instanceByContract(_contract).setServiceOf(\n                _super,\n                _sections[i],\n                _billings[i]\n            );\n        }\n        return true;\n    }\n\n    function getContractsByClient(address _client)\n        external\n        view\n        returns (bytes32[] memory)\n    {\n        return contractsByClient[_client];\n    }\n\n    function getContractsByContractor(address _contractor)\n        external\n        view\n        returns (bytes32[] memory)\n    {\n        return contractsByContractor[_contractor];\n    }\n\n    function servicesOf(bytes32 _super)\n        external\n        view\n        returns (bytes32[] memory)\n    {\n        return _instanceByService(_super).getServicesOf(_super);\n    }\n\n    function stageOf(bytes32 _item)\n        public\n        view\n        returns (ServiceContract.Stages)\n    {\n        return _instanceByService(_item).stageOf(_item);\n    }\n\n    function start(bytes32 _item)\n        external\n        onlyContractor(_instanceByService(_item))\n        returns (bool)\n    {\n        _instanceByService(_item).start(_item);\n        return true;\n    }\n\n    function finish(bytes32 _item)\n        external\n        onlyContractor(_instanceByService(_item))\n        returns (bool)\n    {\n        _instanceByService(_item).finish(_item);\n        return true;\n    }\n\n    function approve(bytes32 _item)\n        external\n        onlyClient(_instanceByService(_item))\n        returns (bool)\n    {\n        _instanceByService(_item).approve(_item);\n        return true;\n    }\n\n    function reject(bytes32 _item)\n        external\n        onlyClient(_instanceByService(_item))\n        returns (bool)\n    {\n        _instanceByService(_item).reject(_item);\n        return true;\n    }\n\n    function pay(bytes32 _item)\n        external\n        onlyClient(_instanceByService(_item))\n        returns (bool)\n    {\n        _instanceByService(_item).pay(_item);\n        return true;\n    }\n\n    function _instanceByContract(bytes32 _contract)\n        internal\n        view\n        returns (ServiceContract)\n    {\n        require(instances[_contract] > address(0), 'Contract does not exists.');\n        return ServiceContract(instances[_contract]);\n    }\n\n    function _instanceByService(bytes32 _service)\n        internal\n        view\n        returns (ServiceContract)\n    {\n        require(contracts[_service] > 0, 'Contract does not exists.');\n        return _instanceByContract(contracts[_service]);\n    }\n}\n",
  "sourcePath": "C:/Users/fabia/WebstormProjects/bim-contracts/contracts/ServiceContractFactory.sol",
  "compiler": {
    "name": "solc",
    "version": "0.5.16+commit.9c3226ce.Emscripten.clang"
  },
  "schemaVersion": "3.2.4",
  "updatedAt": "2020-10-07T16:36:58.548Z",
  "networkType": "ethereum",
  "devdoc": {
    "methods": {}
  },
  "userdoc": {
    "methods": {}
  }
}