{
  "contractName": "ServiceAgreement",
  "abi": [
    {
      "anonymous": false,
      "inputs": [
        {
          "indexed": false,
          "internalType": "bytes32",
          "name": "_service",
          "type": "bytes32"
        }
      ],
      "name": "Payment",
      "type": "event"
    },
    {
      "anonymous": false,
      "inputs": [
        {
          "indexed": false,
          "internalType": "bytes32",
          "name": "_service",
          "type": "bytes32"
        },
        {
          "indexed": false,
          "internalType": "uint8",
          "name": "_stage",
          "type": "uint8"
        }
      ],
      "name": "ServiceTransition",
      "type": "event"
    },
    {
      "constant": false,
      "inputs": [
        {
          "internalType": "bytes32",
          "name": "_service",
          "type": "bytes32"
        },
        {
          "internalType": "bytes32",
          "name": "_parent",
          "type": "bytes32"
        },
        {
          "internalType": "address",
          "name": "_client",
          "type": "address"
        },
        {
          "internalType": "address",
          "name": "_contractor",
          "type": "address"
        },
        {
          "internalType": "bytes32[]",
          "name": "_children",
          "type": "bytes32[]"
        },
        {
          "internalType": "bytes32[]",
          "name": "_parents",
          "type": "bytes32[]"
        },
        {
          "internalType": "bool[]",
          "name": "_billables",
          "type": "bool[]"
        },
        {
          "internalType": "bytes32[]",
          "name": "_documents",
          "type": "bytes32[]"
        }
      ],
      "name": "init",
      "outputs": [],
      "payable": false,
      "stateMutability": "nonpayable",
      "type": "function"
    },
    {
      "constant": true,
      "inputs": [
        {
          "internalType": "bytes32",
          "name": "_service",
          "type": "bytes32"
        }
      ],
      "name": "getServiceStage",
      "outputs": [
        {
          "internalType": "uint8",
          "name": "",
          "type": "uint8"
        }
      ],
      "payable": false,
      "stateMutability": "view",
      "type": "function"
    },
    {
      "constant": false,
      "inputs": [
        {
          "internalType": "bytes32",
          "name": "_service",
          "type": "bytes32"
        },
        {
          "internalType": "uint8",
          "name": "_stage",
          "type": "uint8"
        }
      ],
      "name": "setStage",
      "outputs": [
        {
          "internalType": "bool",
          "name": "",
          "type": "bool"
        }
      ],
      "payable": false,
      "stateMutability": "nonpayable",
      "type": "function"
    },
    {
      "constant": false,
      "inputs": [],
      "name": "cleanup",
      "outputs": [],
      "payable": false,
      "stateMutability": "nonpayable",
      "type": "function"
    }
  ],
  "bytecode": "0x608060405234801561001057600080fd5b50610bc1806100206000396000f3fe608060405234801561001057600080fd5b506004361061004c5760003560e01c806319eaf360146100515780633cecd719146100995780639d3a2a2c146100a3578063d1e8c3ea1461036c575b600080fd5b61007d6004803603602081101561006757600080fd5b81019080803590602001909291905050506103bf565b604051808260ff1660ff16815260200191505060405180910390f35b6100a16103f7565b005b61036a60048036036101008110156100ba57600080fd5b810190808035906020019092919080359060200190929190803573ffffffffffffffffffffffffffffffffffffffff169060200190929190803573ffffffffffffffffffffffffffffffffffffffff1690602001909291908035906020019064010000000081111561012b57600080fd5b82018360208201111561013d57600080fd5b8035906020019184602083028401116401000000008311171561015f57600080fd5b919080806020026020016040519081016040528093929190818152602001838360200280828437600081840152601f19601f820116905080830192505050505050509192919290803590602001906401000000008111156101bf57600080fd5b8201836020820111156101d157600080fd5b803590602001918460208302840111640100000000831117156101f357600080fd5b919080806020026020016040519081016040528093929190818152602001838360200280828437600081840152601f19601f8201169050808301925050505050505091929192908035906020019064010000000081111561025357600080fd5b82018360208201111561026557600080fd5b8035906020019184602083028401116401000000008311171561028757600080fd5b919080806020026020016040519081016040528093929190818152602001838360200280828437600081840152601f19601f820116905080830192505050505050509192919290803590602001906401000000008111156102e757600080fd5b8201836020820111156102f957600080fd5b8035906020019184602083028401116401000000008311171561031b57600080fd5b919080806020026020016040519081016040528093929190818152602001838360200280828437600081840152601f19601f8201169050808301925050505050505091929192905050506103f9565b005b6103a56004803603604081101561038257600080fd5b8101908080359060200190929190803560ff16906020019092919050505061062c565b604051808215151515815260200191505060405180910390f35b60006001600083815260200190815260200160002060000160009054906101000a900460ff1660058111156103f057fe5b9050919050565b565b8760008190555060405180608001604052806000600581111561041857fe5b815260200188815260200160006040519080825280602002602001820160405280156104535781602001602082028038833980820191505090505b50815260200160011515815250600160008a815260200190815260200160002060008201518160000160006101000a81548160ff0219169083600581111561049757fe5b02179055506020820151816001015560408201518160020190805190602001906104c2929190610acd565b5060608201518160030160006101000a81548160ff02191690831515021790555090505085600260006101000a81548173ffffffffffffffffffffffffffffffffffffffff021916908373ffffffffffffffffffffffffffffffffffffffff16021790555084600360006101000a81548173ffffffffffffffffffffffffffffffffffffffff021916908373ffffffffffffffffffffffffffffffffffffffff16021790555033600460006101000a81548173ffffffffffffffffffffffffffffffffffffffff021916908373ffffffffffffffffffffffffffffffffffffffff16021790555080600590805190602001906105bf929190610b1a565b5060008090505b8451811015610621576106138582815181106105de57fe5b60200260200101518583815181106105f257fe5b602002602001015185848151811061060657fe5b60200260200101516108e9565b5080806001019150506105c6565b505050505050505050565b6000808260ff1611801561065257506003600581111561064857fe5b60ff168260ff1611155b61065b57600080fd5b60008090505b60016000858152602001908152602001600020600201805490508110156106c5576106b76001600086815260200190815260200160002060020182815481106106a657fe5b90600052602060002001548461062c565b508080600101915050610661565b508160ff1660058111156106d557fe5b6001600085815260200190815260200160002060000160006101000a81548160ff0219169083600581111561070657fe5b02179055506000600581111561071857fe5b600160006001600087815260200190815260200160002060010154815260200190815260200160002060000160009054906101000a900460ff16600581111561075d57fe5b101561083957600460009054906101000a900473ffffffffffffffffffffffffffffffffffffffff1673ffffffffffffffffffffffffffffffffffffffff16630d808a216001600086815260200190815260200160002060010154846040518363ffffffff1660e01b8152600401808381526020018260ff1660ff16815260200192505050602060405180830381600087803b1580156107fc57600080fd5b505af1158015610810573d6000803e3d6000fd5b505050506040513d602081101561082657600080fd5b8101908080519060200190929190505050505b7f0dc8f7519d807cb6d9670623bad1f80ecb93763d286dddb00e19534d901a9a688383604051808381526020018260ff1660ff1681526020019250505060405180910390a16001600084815260200190815260200160002060030160009054906101000a900460ff16156108df577fadee04cb7c7dc8ba441caff4f51b7c0bbdf8122fac7f065bf606d9d3bdf370cb836040518082815260200191505060405180910390a15b6001905092915050565b60008060058111156108f757fe5b6001600085815260200190815260200160002060000160009054906101000a900460ff16600581111561092657fe5b101561099a576040517f08c379a000000000000000000000000000000000000000000000000000000000815260040180806020018281038252601e8152602001807f506172656e742073657276696365206e6f6465206e6f7420666f756e642e000081525060200191505060405180910390fd5b6040518060800160405280600060058111156109b257fe5b81526020016000801b815260200160006040519080825280602002602001820160405280156109f05781602001602082028038833980820191505090505b5081526020018315158152506001600086815260200190815260200160002060008201518160000160006101000a81548160ff02191690836005811115610a3357fe5b0217905550602082015181600101556040820151816002019080519060200190610a5e929190610acd565b5060608201518160030160006101000a81548160ff02191690831515021790555090505060016000848152602001908152602001600020600201849080600181540180825580915050906001820390600052602060002001600090919290919091505550600190509392505050565b828054828255906000526020600020908101928215610b09579160200282015b82811115610b08578251825591602001919060010190610aed565b5b509050610b169190610b67565b5090565b828054828255906000526020600020908101928215610b56579160200282015b82811115610b55578251825591602001919060010190610b3a565b5b509050610b639190610b67565b5090565b610b8991905b80821115610b85576000816000905550600101610b6d565b5090565b9056fea265627a7a723158204d7f2c39f03f02d2a90ee15f9b34a28a7d6156d9c03c8e03714257ad8754595464736f6c63430005100032",
  "source": "// SPDX-License-Identifier: MIT\npragma solidity >=0.4.21 <0.7.1;\n\nimport './ServiceAgreementFactory.sol';\n\n/**\n * @title ServiceAgreement\n * @dev Store & retreive value in a variable\n */\ncontract ServiceAgreement {\n    event ServiceTransition(bytes32 _service, uint8 _stage);\n    event Payment(bytes32 _service);\n\n    enum Stages {INITIALIZED, STARTED, FINISHED, APPROVED, REJECTED, PAYED}\n\n    struct ServiceNode {\n        Stages stage;\n        bytes32 parent;\n        bytes32[] children;\n        bool billable;\n    }\n\n    bytes32 service;\n    mapping(bytes32 => ServiceNode) services;\n\n    address client;\n    address contractor;\n    address factory;\n\n    bytes32[] documents;\n\n    modifier onlyClient() {\n        require(msg.sender == client);\n        _;\n    }\n\n    modifier onlyContractor() {\n        require(msg.sender == contractor);\n        _;\n    }\n\n    modifier atStage(bytes32 _service, Stages _stage) {\n        require(\n            services[_service].stage == _stage,\n            'Function cannot be called at this stage.'\n        );\n        _;\n    }\n\n    /**\n     * @dev Creates a new service agreement with initial values\n     * @param _service The hash of the service agreement\n     * @param _parent The hash of the parent service\n     * @param _client The contractor of the service agreement\n     * @param _contractor The contractor of the service agreement\n     * @param _children The hashes of the child services\n     * @param _parents The hashes of parent services of the service specified in same index of _hashes\n     * @param _billables Determines if the service node on index of _hashes has an associated billing unit\n     * @param _documents The hashes of contract documents of the service agreement\n     */\n    function init(\n        bytes32 _service,\n        bytes32 _parent,\n        address _client,\n        address _contractor,\n        bytes32[] memory _children,\n        bytes32[] memory _parents,\n        bool[] memory _billables,\n        bytes32[] memory _documents\n    ) public {\n        service = _service;\n        services[_service] = ServiceNode(\n            Stages.INITIALIZED,\n            _parent,\n            new bytes32[](0),\n            true\n        ); // root service\n        client = _client;\n        contractor = _contractor;\n        factory = msg.sender;\n        documents = _documents;\n        for (uint256 i = 0; i < _children.length; i++) {\n            _addServiceNode(_children[i], _parents[i], _billables[i]);\n        }\n    }\n\n    /**\n     * @dev Creates a new service node\n     * @param _service The hash of the service to be created\n     * @param _parent The hash of the parent of the new service\n     */\n    function _addServiceNode(\n        bytes32 _service,\n        bytes32 _parent,\n        bool _billable\n    ) internal returns (bool) {\n        require(\n            services[_parent].stage >= Stages.INITIALIZED,\n            'Parent service node not found.'\n        );\n        services[_service] = ServiceNode(\n            Stages.INITIALIZED,\n            0,\n            new bytes32[](0),\n            _billable\n        );\n        services[_parent].children.push(_service);\n        return true;\n    }\n\n    /**\n     * @dev Retrieves the current stage of a service node\n     * @param _service The hash of the service to get the current stage from\n     */\n    function getServiceStage(bytes32 _service) public view returns (uint8) {\n        return uint8(services[_service].stage);\n    }\n\n    /**\n     * @dev Updates the stage of a service and all of its children\n     * @param _service The hash of the service to be updated\n     * @param _stage The new stage of the service\n     */\n    function setStage(bytes32 _service, uint8 _stage) public returns (bool) {\n        require(_stage > 0 && _stage <= uint8(Stages.APPROVED));\n        for (uint256 i = 0; i < services[_service].children.length; i++) {\n            setStage(services[_service].children[i], _stage);\n        }\n        services[_service].stage = Stages(_stage);\n        if (services[services[_service].parent].stage < Stages.INITIALIZED) {\n            // Service parent resides in another service agreement. We have to update the stage via ServiceAgreementFactory.\n            ServiceAgreementFactory(factory).setServiceStage(\n                services[_service].parent,\n                _stage\n            );\n        }\n        emit ServiceTransition(_service, _stage);\n        if (services[_service].billable) {\n            emit Payment(_service);\n        }\n        return true;\n    }\n\n    function cleanup() public {\n        // TODO Implement cleanup of service agreement\n    }\n}\n",
  "sourcePath": "C:\\Users\\fabia\\WebstormProjects\\bim-contracts\\contracts\\ServiceAgreement.sol",
  "compiler": {
    "name": "solc",
    "version": "0.5.16+commit.9c3226ce.Emscripten.clang"
  },
  "schemaVersion": "3.2.4",
  "updatedAt": "2020-09-28T14:58:54.778Z",
  "networkType": "ethereum",
  "devdoc": {
    "details": "Store & retreive value in a variable",
    "methods": {
      "getServiceStage(bytes32)": {
        "details": "Retrieves the current stage of a service node",
        "params": {
          "_service": "The hash of the service to get the current stage from"
        }
      },
      "init(bytes32,bytes32,address,address,bytes32[],bytes32[],bool[],bytes32[])": {
        "details": "Creates a new service agreement with initial values",
        "params": {
          "_billables": "Determines if the service node on index of _hashes has an associated billing unit",
          "_children": "The hashes of the child services",
          "_client": "The contractor of the service agreement",
          "_contractor": "The contractor of the service agreement",
          "_documents": "The hashes of contract documents of the service agreement",
          "_parent": "The hash of the parent service",
          "_parents": "The hashes of parent services of the service specified in same index of _hashes",
          "_service": "The hash of the service agreement"
        }
      },
      "setStage(bytes32,uint8)": {
        "details": "Updates the stage of a service and all of its children",
        "params": {
          "_service": "The hash of the service to be updated",
          "_stage": "The new stage of the service"
        }
      }
    },
    "title": "ServiceAgreement"
  },
  "userdoc": {
    "methods": {}
  }
}