{
  "contractName": "ServiceAgreement",
  "abi": [
    {
      "anonymous": false,
      "inputs": [
        {
          "indexed": false,
          "internalType": "bytes32",
          "name": "service",
          "type": "bytes32"
        }
      ],
      "name": "Payment",
      "type": "event"
    },
    {
      "anonymous": false,
      "inputs": [
        {
          "indexed": false,
          "internalType": "bytes32",
          "name": "service",
          "type": "bytes32"
        },
        {
          "indexed": false,
          "internalType": "uint8",
          "name": "stage",
          "type": "uint8"
        }
      ],
      "name": "ServiceTransition",
      "type": "event"
    },
    {
      "constant": false,
      "inputs": [
        {
          "internalType": "bytes32",
          "name": "_service",
          "type": "bytes32"
        },
        {
          "internalType": "uint8",
          "name": "_stage",
          "type": "uint8"
        }
      ],
      "name": "setStage",
      "outputs": [
        {
          "internalType": "bool",
          "name": "",
          "type": "bool"
        }
      ],
      "payable": false,
      "stateMutability": "nonpayable",
      "type": "function"
    },
    {
      "constant": false,
      "inputs": [],
      "name": "cleanup",
      "outputs": [],
      "payable": false,
      "stateMutability": "nonpayable",
      "type": "function"
    }
  ],
  "bytecode": "0x608060405234801561001057600080fd5b5061038b806100206000396000f3fe608060405234801561001057600080fd5b50600436106100365760003560e01c80633cecd7191461003b578063d1e8c3ea14610045575b600080fd5b610043610098565b005b61007e6004803603604081101561005b57600080fd5b8101908080359060200190929190803560ff16906020019092919050505061009a565b604051808215151515815260200191505060405180910390f35b565b6000808260ff161180156100bf57506003808111156100b557fe5b60ff168260ff1611155b6100c857600080fd5b60008090505b60336000858152602001908152602001600020600201805490508110156101325761012460336000868152602001908152602001600020600201828154811061011357fe5b90600052602060002001548461009a565b5080806001019150506100ce565b508160ff16600381111561014257fe5b6033600085815260200190815260200160002060000160006101000a81548160ff0219169083600381111561017357fe5b02179055506000600381111561018557fe5b603360006033600087815260200190815260200160002060010154815260200190815260200160002060000160009054906101000a900460ff1660038111156101ca57fe5b10156102a657603660009054906101000a900473ffffffffffffffffffffffffffffffffffffffff1673ffffffffffffffffffffffffffffffffffffffff16630d808a216033600086815260200190815260200160002060010154846040518363ffffffff1660e01b8152600401808381526020018260ff1660ff16815260200192505050602060405180830381600087803b15801561026957600080fd5b505af115801561027d573d6000803e3d6000fd5b505050506040513d602081101561029357600080fd5b8101908080519060200190929190505050505b7f0dc8f7519d807cb6d9670623bad1f80ecb93763d286dddb00e19534d901a9a688383604051808381526020018260ff1660ff1681526020019250505060405180910390a16033600084815260200190815260200160002060030160009054906101000a900460ff161561034c577fadee04cb7c7dc8ba441caff4f51b7c0bbdf8122fac7f065bf606d9d3bdf370cb836040518082815260200191505060405180910390a15b600190509291505056fea265627a7a7231582060f61216f074a29c39279b7c94b0e4a38840e92fbb7c4f068cf21c345392e30364736f6c63430005100032",
  "source": "// SPDX-License-Identifier: MIT\npragma solidity >=0.4.21 <0.7.1;\n\nimport './ServiceAgreementFactory.sol';\nimport '@openzeppelin/upgrades/contracts/Initializable.sol';\n\n/**\n * @title ServiceAgreement\n * @dev Store & retreive value in a variable\n */\ncontract ServiceAgreement is Initializable {\n    event ServiceTransition(bytes32 service, uint8 stage);\n    event Payment(bytes32 service);\n\n    enum Stages {INITIALIZED, STARTED, FINISHED, APPROVED}\n\n    struct ServiceNode {\n        Stages stage;\n        bytes32 parent;\n        bytes32[] children;\n        bool billable;\n    }\n\n    mapping(bytes32 => ServiceNode) services;\n\n    address client;\n    address contractor;\n    address factory;\n\n    bytes32[] documents;\n\n    modifier onlyClient() {\n        require(msg.sender == client);\n        _;\n    }\n\n    modifier onlyContractor() {\n        require(msg.sender == contractor);\n        _;\n    }\n\n    modifier atStage(bytes32 _service, Stages _stage) {\n        require(\n            services[_service].stage == _stage,\n            'Function cannot be called at this stage.'\n        );\n        _;\n    }\n\n    /**\n     * @dev Creates a new service agreement with initial values\n     * @param _service The hash of the service agreement\n     * @param _parent The hash of the parent service\n     * @param _client The contractor of the service agreement\n     * @param _contractor The contractor of the service agreement\n     * @param _children The hashes of the child services\n     * @param _parents The hashes of parent services of the service specified in same index of _hashes\n     * @param _billables Determines if the service node on index of _hashes has an associated billing unit\n     * @param _documents The hashes of contract documents of the service agreement\n     */\n    function initialize(\n        bytes32 _service,\n        bytes32 _parent,\n        address _client,\n        address _contractor,\n        bytes32[] memory _children,\n        bytes32[] memory _parents,\n        bool[] memory _billables,\n        bytes32[] memory _documents\n    ) internal {\n        services[_service] = ServiceNode(\n            Stages.INITIALIZED,\n            _parent,\n            new bytes32[](0),\n            true\n        ); // root service\n        client = _client;\n        contractor = _contractor;\n        factory = msg.sender;\n        documents = _documents;\n        for (uint256 i = 0; i < _children.length; i++) {\n            _addServiceNode(_children[i], _parents[i], _billables[i]);\n        }\n    }\n\n    /**\n     * @dev Creates a new service node\n     * @param _service The hash of the service to be created\n     * @param _parent The hash of the parent of the new service\n     */\n    function _addServiceNode(\n        bytes32 _service,\n        bytes32 _parent,\n        bool _billable\n    ) internal returns (bool) {\n        require(\n            services[_parent].stage < Stages.INITIALIZED,\n            'Parent service node not found.'\n        );\n        services[_service] = ServiceNode(\n            Stages.INITIALIZED,\n            0,\n            new bytes32[](0),\n            _billable\n        );\n        services[_parent].children.push(_service);\n        return true;\n    }\n\n    /**\n     * @dev Updates the stage of a service and all of its children\n     * @param _service The hash of the service to be updated\n     * @param _stage The new stage of the service\n     */\n    function setStage(bytes32 _service, uint8 _stage) public returns (bool) {\n        require(_stage > 0 && _stage <= uint8(Stages.APPROVED));\n        for (uint256 i = 0; i < services[_service].children.length; i++) {\n            setStage(services[_service].children[i], _stage);\n        }\n        services[_service].stage = Stages(_stage);\n        if (services[services[_service].parent].stage < Stages.INITIALIZED) {\n            // Service parent resides in another service agreement. We have to update the stage via ServiceAgreementFactory.\n            ServiceAgreementFactory(factory).setServiceStage(\n                services[_service].parent,\n                _stage\n            );\n        }\n        emit ServiceTransition(_service, _stage);\n        if (services[_service].billable) {\n            emit Payment(_service);\n        }\n        return true;\n    }\n\n    function cleanup() public {\n        // TODO Implement cleanup of service agreement\n    }\n}\n",
  "sourcePath": "C:\\Users\\fabia\\WebstormProjects\\bim-contracts\\contracts\\ServiceAgreement.sol",
  "compiler": {
    "name": "solc",
    "version": "0.5.16+commit.9c3226ce.Emscripten.clang"
  },
  "schemaVersion": "3.2.4",
  "updatedAt": "2020-09-10T09:21:55.093Z",
  "networkType": "ethereum",
  "devdoc": {
    "details": "Store & retreive value in a variable",
    "methods": {
      "setStage(bytes32,uint8)": {
        "details": "Updates the stage of a service and all of its children",
        "params": {
          "_service": "The hash of the service to be updated",
          "_stage": "The new stage of the service"
        }
      }
    },
    "title": "ServiceAgreement"
  },
  "userdoc": {
    "methods": {}
  }
}