{
  "contractName": "ServiceAgreementFactory",
  "abi": [
    {
      "inputs": [
        {
          "internalType": "address",
          "name": "_implementation",
          "type": "address"
        }
      ],
      "payable": false,
      "stateMutability": "nonpayable",
      "type": "constructor"
    },
    {
      "anonymous": false,
      "inputs": [
        {
          "indexed": false,
          "internalType": "address",
          "name": "proxy",
          "type": "address"
        }
      ],
      "name": "ProxyCreated",
      "type": "event"
    },
    {
      "constant": true,
      "inputs": [
        {
          "internalType": "bytes32",
          "name": "",
          "type": "bytes32"
        }
      ],
      "name": "agreements",
      "outputs": [
        {
          "internalType": "address",
          "name": "",
          "type": "address"
        }
      ],
      "payable": false,
      "stateMutability": "view",
      "type": "function"
    },
    {
      "constant": false,
      "inputs": [
        {
          "internalType": "uint256",
          "name": "_salt",
          "type": "uint256"
        },
        {
          "internalType": "address",
          "name": "_logic",
          "type": "address"
        },
        {
          "internalType": "address",
          "name": "_admin",
          "type": "address"
        },
        {
          "internalType": "bytes",
          "name": "_data",
          "type": "bytes"
        }
      ],
      "name": "deploy",
      "outputs": [
        {
          "internalType": "address",
          "name": "",
          "type": "address"
        }
      ],
      "payable": false,
      "stateMutability": "nonpayable",
      "type": "function"
    },
    {
      "constant": false,
      "inputs": [
        {
          "internalType": "address",
          "name": "_logic",
          "type": "address"
        },
        {
          "internalType": "bytes",
          "name": "_data",
          "type": "bytes"
        }
      ],
      "name": "deployMinimal",
      "outputs": [
        {
          "internalType": "address",
          "name": "proxy",
          "type": "address"
        }
      ],
      "payable": false,
      "stateMutability": "nonpayable",
      "type": "function"
    },
    {
      "constant": false,
      "inputs": [
        {
          "internalType": "uint256",
          "name": "_salt",
          "type": "uint256"
        },
        {
          "internalType": "address",
          "name": "_logic",
          "type": "address"
        },
        {
          "internalType": "address",
          "name": "_admin",
          "type": "address"
        },
        {
          "internalType": "bytes",
          "name": "_data",
          "type": "bytes"
        },
        {
          "internalType": "bytes",
          "name": "_signature",
          "type": "bytes"
        }
      ],
      "name": "deploySigned",
      "outputs": [
        {
          "internalType": "address",
          "name": "",
          "type": "address"
        }
      ],
      "payable": false,
      "stateMutability": "nonpayable",
      "type": "function"
    },
    {
      "constant": true,
      "inputs": [
        {
          "internalType": "uint256",
          "name": "_salt",
          "type": "uint256"
        },
        {
          "internalType": "address",
          "name": "_sender",
          "type": "address"
        }
      ],
      "name": "getDeploymentAddress",
      "outputs": [
        {
          "internalType": "address",
          "name": "",
          "type": "address"
        }
      ],
      "payable": false,
      "stateMutability": "view",
      "type": "function"
    },
    {
      "constant": true,
      "inputs": [
        {
          "internalType": "uint256",
          "name": "_salt",
          "type": "uint256"
        },
        {
          "internalType": "address",
          "name": "_logic",
          "type": "address"
        },
        {
          "internalType": "address",
          "name": "_admin",
          "type": "address"
        },
        {
          "internalType": "bytes",
          "name": "_data",
          "type": "bytes"
        },
        {
          "internalType": "bytes",
          "name": "_signature",
          "type": "bytes"
        }
      ],
      "name": "getSigner",
      "outputs": [
        {
          "internalType": "address",
          "name": "",
          "type": "address"
        }
      ],
      "payable": false,
      "stateMutability": "view",
      "type": "function"
    },
    {
      "constant": true,
      "inputs": [],
      "name": "implementation",
      "outputs": [
        {
          "internalType": "address",
          "name": "",
          "type": "address"
        }
      ],
      "payable": false,
      "stateMutability": "view",
      "type": "function"
    },
    {
      "constant": false,
      "inputs": [
        {
          "internalType": "bytes32",
          "name": "_service",
          "type": "bytes32"
        },
        {
          "internalType": "bytes",
          "name": "_data",
          "type": "bytes"
        }
      ],
      "name": "createServiceAgreement",
      "outputs": [
        {
          "internalType": "bool",
          "name": "",
          "type": "bool"
        }
      ],
      "payable": false,
      "stateMutability": "nonpayable",
      "type": "function"
    },
    {
      "constant": false,
      "inputs": [
        {
          "internalType": "bytes32",
          "name": "_service",
          "type": "bytes32"
        },
        {
          "internalType": "uint8",
          "name": "_stage",
          "type": "uint8"
        }
      ],
      "name": "setServiceStage",
      "outputs": [
        {
          "internalType": "bool",
          "name": "",
          "type": "bool"
        }
      ],
      "payable": false,
      "stateMutability": "nonpayable",
      "type": "function"
    }
  ],
  "bytecode": "0x608060405234801561001057600080fd5b50604051612ebe380380612ebe8339818101604052602081101561003357600080fd5b810190808051906020019092919050505060405180602001610054906100bc565b6020820181038252601f19601f820116604052508051906020012060008190555080600160006101000a81548173ffffffffffffffffffffffffffffffffffffffff021916908373ffffffffffffffffffffffffffffffffffffffff160217905550506100c9565b610d228061219c83390190565b6120c4806100d86000396000f3fe608060405234801561001057600080fd5b50600436106100935760003560e01c80635c60da1b116100665780635c60da1b146105805780636150864c146105ca57806381ae1f5b1461070f5780639e1f68c71461079d578063b3eeb5e21461080b57610093565b80630d808a2114610098578063290f8f56146100eb578063332d6626146102c75780634a1882b3146104a3575b600080fd5b6100d1600480360360408110156100ae57600080fd5b8101908080359060200190929190803560ff169060200190929190505050610926565b604051808215151515815260200191505060405180910390f35b610285600480360360a081101561010157600080fd5b8101908080359060200190929190803573ffffffffffffffffffffffffffffffffffffffff169060200190929190803573ffffffffffffffffffffffffffffffffffffffff1690602001909291908035906020019064010000000081111561016857600080fd5b82018360208201111561017a57600080fd5b8035906020019184600183028401116401000000008311171561019c57600080fd5b91908080601f016020809104026020016040519081016040528093929190818152602001838380828437600081840152601f19601f820116905080830192505050505050509192919290803590602001906401000000008111156101ff57600080fd5b82018360208201111561021157600080fd5b8035906020019184600183028401116401000000008311171561023357600080fd5b91908080601f016020809104026020016040519081016040528093929190818152602001838380828437600081840152601f19601f820116905080830192505050505050509192919290505050610a02565b604051808273ffffffffffffffffffffffffffffffffffffffff1673ffffffffffffffffffffffffffffffffffffffff16815260200191505060405180910390f35b610461600480360360a08110156102dd57600080fd5b8101908080359060200190929190803573ffffffffffffffffffffffffffffffffffffffff169060200190929190803573ffffffffffffffffffffffffffffffffffffffff1690602001909291908035906020019064010000000081111561034457600080fd5b82018360208201111561035657600080fd5b8035906020019184600183028401116401000000008311171561037857600080fd5b91908080601f016020809104026020016040519081016040528093929190818152602001838380828437600081840152601f19601f820116905080830192505050505050509192919290803590602001906401000000008111156103db57600080fd5b8201836020820111156103ed57600080fd5b8035906020019184600183028401116401000000008311171561040f57600080fd5b91908080601f016020809104026020016040519081016040528093929190818152602001838380828437600081840152601f19601f820116905080830192505050505050509192919290505050610b44565b604051808273ffffffffffffffffffffffffffffffffffffffff1673ffffffffffffffffffffffffffffffffffffffff16815260200191505060405180910390f35b610566600480360360408110156104b957600080fd5b8101908080359060200190929190803590602001906401000000008111156104e057600080fd5b8201836020820111156104f257600080fd5b8035906020019184600183028401116401000000008311171561051457600080fd5b91908080601f016020809104026020016040519081016040528093929190818152602001838380828437600081840152601f19601f820116905080830192505050505050509192919290505050610c12565b604051808215151515815260200191505060405180910390f35b610588610ca0565b604051808273ffffffffffffffffffffffffffffffffffffffff1673ffffffffffffffffffffffffffffffffffffffff16815260200191505060405180910390f35b6106cd600480360360808110156105e057600080fd5b8101908080359060200190929190803573ffffffffffffffffffffffffffffffffffffffff169060200190929190803573ffffffffffffffffffffffffffffffffffffffff1690602001909291908035906020019064010000000081111561064757600080fd5b82018360208201111561065957600080fd5b8035906020019184600183028401116401000000008311171561067b57600080fd5b91908080601f016020809104026020016040519081016040528093929190818152602001838380828437600081840152601f19601f820116905080830192505050505050509192919290505050610cc6565b604051808273ffffffffffffffffffffffffffffffffffffffff1673ffffffffffffffffffffffffffffffffffffffff16815260200191505060405180910390f35b61075b6004803603604081101561072557600080fd5b8101908080359060200190929190803573ffffffffffffffffffffffffffffffffffffffff169060200190929190505050610cdf565b604051808273ffffffffffffffffffffffffffffffffffffffff1673ffffffffffffffffffffffffffffffffffffffff16815260200191505060405180910390f35b6107c9600480360360208110156107b357600080fd5b8101908080359060200190929190505050610dbc565b604051808273ffffffffffffffffffffffffffffffffffffffff1673ffffffffffffffffffffffffffffffffffffffff16815260200191505060405180910390f35b6108e46004803603604081101561082157600080fd5b81019080803573ffffffffffffffffffffffffffffffffffffffff1690602001909291908035906020019064010000000081111561085e57600080fd5b82018360208201111561087057600080fd5b8035906020019184600183028401116401000000008311171561089257600080fd5b91908080601f016020809104026020016040519081016040528093929190818152602001838380828437600081840152601f19601f820116905080830192505050505050509192919290505050610def565b604051808273ffffffffffffffffffffffffffffffffffffffff1673ffffffffffffffffffffffffffffffffffffffff16815260200191505060405180910390f35b60006002600084815260200190815260200160002060009054906101000a900473ffffffffffffffffffffffffffffffffffffffff1673ffffffffffffffffffffffffffffffffffffffff1663d1e8c3ea84846040518363ffffffff1660e01b8152600401808381526020018260ff1660ff16815260200192505050602060405180830381600087803b1580156109bc57600080fd5b505af11580156109d0573d6000803e3d6000fd5b505050506040513d60208110156109e657600080fd5b8101908080519060200190929190505050506001905092915050565b600080610b2c8787878730604051602001808681526020018573ffffffffffffffffffffffffffffffffffffffff1673ffffffffffffffffffffffffffffffffffffffff1660601b81526014018473ffffffffffffffffffffffffffffffffffffffff1673ffffffffffffffffffffffffffffffffffffffff1660601b815260140183805190602001908083835b60208310610ab35780518252602082019150602081019050602083039250610a90565b6001836020036101000a0380198251168184511680821785525050505050509050018273ffffffffffffffffffffffffffffffffffffffff1673ffffffffffffffffffffffffffffffffffffffff1660601b81526014019550505050505060405160208183030381529060405280519060200120610f8a565b9050610b388184610fe2565b91505095945050505050565b600080610b548787878787610a02565b9050600073ffffffffffffffffffffffffffffffffffffffff168173ffffffffffffffffffffffffffffffffffffffff161415610bf9576040517f08c379a00000000000000000000000000000000000000000000000000000000081526004018080602001828103825260118152602001807f496e76616c6964207369676e617475726500000000000000000000000000000081525060200191505060405180910390fd5b610c0687878787856110e6565b91505095945050505050565b600080610c41600160009054906101000a900473ffffffffffffffffffffffffffffffffffffffff1684610def565b9050806002600086815260200190815260200160002060006101000a81548173ffffffffffffffffffffffffffffffffffffffff021916908373ffffffffffffffffffffffffffffffffffffffff160217905550600191505092915050565b600160009054906101000a900473ffffffffffffffffffffffffffffffffffffffff1681565b6000610cd585858585336110e6565b9050949350505050565b600080610cec848461129c565b9050600060ff60f81b308360005460405160200180857effffffffffffffffffffffffffffffffffffffffffffffffffffffffffffff19167effffffffffffffffffffffffffffffffffffffffffffffffffffffffffffff191681526001018473ffffffffffffffffffffffffffffffffffffffff1673ffffffffffffffffffffffffffffffffffffffff1660601b8152601401838152602001828152602001945050505050604051602081830303815290604052805190602001209050606081901b60601c9250505092915050565b60026020528060005260406000206000915054906101000a900473ffffffffffffffffffffffffffffffffffffffff1681565b6000808360601b90506040517f3d602d80600a3d3981f3363d3d373d3d3d363d7300000000000000000000000081528160148201527f5af43d82803e903d91602b57fd5bf3000000000000000000000000000000000060288201526037816000f09250507efffc2da0b561cae30d9826d37709e9421c4725faebc226cbbb7ef5fc5e734982604051808273ffffffffffffffffffffffffffffffffffffffff1673ffffffffffffffffffffffffffffffffffffffff16815260200191505060405180910390a1600083511115610f835760008273ffffffffffffffffffffffffffffffffffffffff16846040518082805190602001908083835b60208310610f0c5780518252602082019150602081019050602083039250610ee9565b6001836020036101000a0380198251168184511680821785525050505050509050019150506000604051808303816000865af19150503d8060008114610f6e576040519150601f19603f3d011682016040523d82523d6000602084013e610f73565b606091505b5050905080610f8157600080fd5b505b5092915050565b60008160405160200180807f19457468657265756d205369676e6564204d6573736167653a0a333200000000815250601c01828152602001915050604051602081830303815290604052805190602001209050919050565b60006041825114610ff657600090506110e0565b60008060006020850151925060408501519150606085015160001a90507f7fffffffffffffffffffffffffffffff5d576e7357a4501ddfe92f46681b20a08260001c111561104a57600093505050506110e0565b601b8160ff16141580156110625750601c8160ff1614155b1561107357600093505050506110e0565b60018682858560405160008152602001604052604051808581526020018460ff1660ff1681526020018381526020018281526020019450505050506020604051602081039080840390855afa1580156110d0573d6000803e3d6000fd5b5050506020604051035193505050505b92915050565b6000806110f38784611304565b90507efffc2da0b561cae30d9826d37709e9421c4725faebc226cbbb7ef5fc5e734981604051808273ffffffffffffffffffffffffffffffffffffffff1673ffffffffffffffffffffffffffffffffffffffff16815260200191505060405180910390a18073ffffffffffffffffffffffffffffffffffffffff1663cf7a1d778787876040518463ffffffff1660e01b8152600401808473ffffffffffffffffffffffffffffffffffffffff1673ffffffffffffffffffffffffffffffffffffffff1681526020018373ffffffffffffffffffffffffffffffffffffffff1673ffffffffffffffffffffffffffffffffffffffff16815260200180602001828103825283818151815260200191508051906020019080838360005b8381101561122957808201518184015260208101905061120e565b50505050905090810190601f1680156112565780820380516001836020036101000a031916815260200191505b50945050505050600060405180830381600087803b15801561127757600080fd5b505af115801561128b573d6000803e3d6000fd5b505050508091505095945050505050565b60008282604051602001808381526020018273ffffffffffffffffffffffffffffffffffffffff1673ffffffffffffffffffffffffffffffffffffffff1660601b81526014019250505060405160208183030381529060405280519060200120905092915050565b60008060606040518060200161131990611360565b6020820181038252601f19601f820116604052509050600061133b868661129c565b9050808251602084016000f59250823b61135457600080fd5b82935050505092915050565b610d228061136e8339019056fe608060405234801561001057600080fd5b50610d02806100206000396000f3fe6080604052600436106100705760003560e01c80638f2839701161004e5780638f283970146101bb578063cf7a1d771461020c578063d1f5789414610307578063f851a440146103e257610070565b80633659cfe61461007a5780634f1ef286146100cb5780635c60da1b14610164575b610078610439565b005b34801561008657600080fd5b506100c96004803603602081101561009d57600080fd5b81019080803573ffffffffffffffffffffffffffffffffffffffff169060200190929190505050610453565b005b610162600480360360408110156100e157600080fd5b81019080803573ffffffffffffffffffffffffffffffffffffffff1690602001909291908035906020019064010000000081111561011e57600080fd5b82018360208201111561013057600080fd5b8035906020019184600183028401116401000000008311171561015257600080fd5b90919293919293905050506104a8565b005b34801561017057600080fd5b5061017961057e565b604051808273ffffffffffffffffffffffffffffffffffffffff1673ffffffffffffffffffffffffffffffffffffffff16815260200191505060405180910390f35b3480156101c757600080fd5b5061020a600480360360208110156101de57600080fd5b81019080803573ffffffffffffffffffffffffffffffffffffffff1690602001909291905050506105d6565b005b6103056004803603606081101561022257600080fd5b81019080803573ffffffffffffffffffffffffffffffffffffffff169060200190929190803573ffffffffffffffffffffffffffffffffffffffff1690602001909291908035906020019064010000000081111561027f57600080fd5b82018360208201111561029157600080fd5b803590602001918460018302840111640100000000831117156102b357600080fd5b91908080601f016020809104026020016040519081016040528093929190818152602001838380828437600081840152601f19601f82011690508083019250505050505050919291929050505061074f565b005b6103e06004803603604081101561031d57600080fd5b81019080803573ffffffffffffffffffffffffffffffffffffffff1690602001909291908035906020019064010000000081111561035a57600080fd5b82018360208201111561036c57600080fd5b8035906020019184600183028401116401000000008311171561038e57600080fd5b91908080601f016020809104026020016040519081016040528093929190818152602001838380828437600081840152601f19601f820116905080830192505050505050509192919290505050610811565b005b3480156103ee57600080fd5b506103f7610994565b604051808273ffffffffffffffffffffffffffffffffffffffff1673ffffffffffffffffffffffffffffffffffffffff16815260200191505060405180910390f35b6104416109ec565b61045161044c610a82565b610ab3565b565b61045b610ad9565b73ffffffffffffffffffffffffffffffffffffffff163373ffffffffffffffffffffffffffffffffffffffff16141561049c5761049781610b0a565b6104a5565b6104a4610439565b5b50565b6104b0610ad9565b73ffffffffffffffffffffffffffffffffffffffff163373ffffffffffffffffffffffffffffffffffffffff161415610570576104ec83610b0a565b60008373ffffffffffffffffffffffffffffffffffffffff168383604051808383808284378083019250505092505050600060405180830381855af49150503d8060008114610557576040519150601f19603f3d011682016040523d82523d6000602084013e61055c565b606091505b505090508061056a57600080fd5b50610579565b610578610439565b5b505050565b6000610588610ad9565b73ffffffffffffffffffffffffffffffffffffffff163373ffffffffffffffffffffffffffffffffffffffff1614156105ca576105c3610a82565b90506105d3565b6105d2610439565b5b90565b6105de610ad9565b73ffffffffffffffffffffffffffffffffffffffff163373ffffffffffffffffffffffffffffffffffffffff16141561074357600073ffffffffffffffffffffffffffffffffffffffff168173ffffffffffffffffffffffffffffffffffffffff161415610697576040517f08c379a0000000000000000000000000000000000000000000000000000000008152600401808060200182810382526036815260200180610c5d6036913960400191505060405180910390fd5b7f7e644d79422f17c01e4894b5f4f588d331ebfa28653d42ae832dc59e38c9798f6106c0610ad9565b82604051808373ffffffffffffffffffffffffffffffffffffffff1673ffffffffffffffffffffffffffffffffffffffff1681526020018273ffffffffffffffffffffffffffffffffffffffff1673ffffffffffffffffffffffffffffffffffffffff1681526020019250505060405180910390a161073e81610b59565b61074c565b61074b610439565b5b50565b600073ffffffffffffffffffffffffffffffffffffffff1661076f610a82565b73ffffffffffffffffffffffffffffffffffffffff161461078f57600080fd5b6107998382610811565b600160405180807f656970313936372e70726f78792e61646d696e000000000000000000000000008152506013019050604051809103902060001c0360001b7fb53127684a568b3173ae13b9f8a6016e243e63b6e8ee1178d6a717850b5d610360001b1461080357fe5b61080c82610b59565b505050565b600073ffffffffffffffffffffffffffffffffffffffff16610831610a82565b73ffffffffffffffffffffffffffffffffffffffff161461085157600080fd5b600160405180807f656970313936372e70726f78792e696d706c656d656e746174696f6e00000000815250601c019050604051809103902060001c0360001b7f360894a13ba1a3210667c828492db98dca3e2076cc3735a920a3ca505d382bbc60001b146108bb57fe5b6108c482610b88565b6000815111156109905760008273ffffffffffffffffffffffffffffffffffffffff16826040518082805190602001908083835b6020831061091b57805182526020820191506020810190506020830392506108f8565b6001836020036101000a038019825116818451168082178552505050505050905001915050600060405180830381855af49150503d806000811461097b576040519150601f19603f3d011682016040523d82523d6000602084013e610980565b606091505b505090508061098e57600080fd5b505b5050565b600061099e610ad9565b73ffffffffffffffffffffffffffffffffffffffff163373ffffffffffffffffffffffffffffffffffffffff1614156109e0576109d9610ad9565b90506109e9565b6109e8610439565b5b90565b6109f4610ad9565b73ffffffffffffffffffffffffffffffffffffffff163373ffffffffffffffffffffffffffffffffffffffff161415610a78576040517f08c379a0000000000000000000000000000000000000000000000000000000008152600401808060200182810382526032815260200180610c2b6032913960400191505060405180910390fd5b610a80610c15565b565b6000807f360894a13ba1a3210667c828492db98dca3e2076cc3735a920a3ca505d382bbc60001b9050805491505090565b3660008037600080366000845af43d6000803e8060008114610ad4573d6000f35b3d6000fd5b6000807fb53127684a568b3173ae13b9f8a6016e243e63b6e8ee1178d6a717850b5d610360001b9050805491505090565b610b1381610b88565b8073ffffffffffffffffffffffffffffffffffffffff167fbc7cd75a20ee27fd9adebab32041f755214dbc6bffa90cc0225b39da2e5c2d3b60405160405180910390a250565b60007fb53127684a568b3173ae13b9f8a6016e243e63b6e8ee1178d6a717850b5d610360001b90508181555050565b610b9181610c17565b610be6576040517f08c379a000000000000000000000000000000000000000000000000000000000815260040180806020018281038252603b815260200180610c93603b913960400191505060405180910390fd5b60007f360894a13ba1a3210667c828492db98dca3e2076cc3735a920a3ca505d382bbc60001b90508181555050565b565b600080823b90506000811191505091905056fe43616e6e6f742063616c6c2066616c6c6261636b2066756e6374696f6e2066726f6d207468652070726f78792061646d696e43616e6e6f74206368616e6765207468652061646d696e206f6620612070726f787920746f20746865207a65726f206164647265737343616e6e6f742073657420612070726f787920696d706c656d656e746174696f6e20746f2061206e6f6e2d636f6e74726163742061646472657373a265627a7a72315820a6f2dbb324575f7cf072335130e9ac1f14aae15fd84d2cc4e871baf88177287564736f6c63430005100032a265627a7a7231582039f6cd8ad0df38186281e13d73753b226d34ccbeb4ae82215465c619c708ef0764736f6c63430005100032608060405234801561001057600080fd5b50610d02806100206000396000f3fe6080604052600436106100705760003560e01c80638f2839701161004e5780638f283970146101bb578063cf7a1d771461020c578063d1f5789414610307578063f851a440146103e257610070565b80633659cfe61461007a5780634f1ef286146100cb5780635c60da1b14610164575b610078610439565b005b34801561008657600080fd5b506100c96004803603602081101561009d57600080fd5b81019080803573ffffffffffffffffffffffffffffffffffffffff169060200190929190505050610453565b005b610162600480360360408110156100e157600080fd5b81019080803573ffffffffffffffffffffffffffffffffffffffff1690602001909291908035906020019064010000000081111561011e57600080fd5b82018360208201111561013057600080fd5b8035906020019184600183028401116401000000008311171561015257600080fd5b90919293919293905050506104a8565b005b34801561017057600080fd5b5061017961057e565b604051808273ffffffffffffffffffffffffffffffffffffffff1673ffffffffffffffffffffffffffffffffffffffff16815260200191505060405180910390f35b3480156101c757600080fd5b5061020a600480360360208110156101de57600080fd5b81019080803573ffffffffffffffffffffffffffffffffffffffff1690602001909291905050506105d6565b005b6103056004803603606081101561022257600080fd5b81019080803573ffffffffffffffffffffffffffffffffffffffff169060200190929190803573ffffffffffffffffffffffffffffffffffffffff1690602001909291908035906020019064010000000081111561027f57600080fd5b82018360208201111561029157600080fd5b803590602001918460018302840111640100000000831117156102b357600080fd5b91908080601f016020809104026020016040519081016040528093929190818152602001838380828437600081840152601f19601f82011690508083019250505050505050919291929050505061074f565b005b6103e06004803603604081101561031d57600080fd5b81019080803573ffffffffffffffffffffffffffffffffffffffff1690602001909291908035906020019064010000000081111561035a57600080fd5b82018360208201111561036c57600080fd5b8035906020019184600183028401116401000000008311171561038e57600080fd5b91908080601f016020809104026020016040519081016040528093929190818152602001838380828437600081840152601f19601f820116905080830192505050505050509192919290505050610811565b005b3480156103ee57600080fd5b506103f7610994565b604051808273ffffffffffffffffffffffffffffffffffffffff1673ffffffffffffffffffffffffffffffffffffffff16815260200191505060405180910390f35b6104416109ec565b61045161044c610a82565b610ab3565b565b61045b610ad9565b73ffffffffffffffffffffffffffffffffffffffff163373ffffffffffffffffffffffffffffffffffffffff16141561049c5761049781610b0a565b6104a5565b6104a4610439565b5b50565b6104b0610ad9565b73ffffffffffffffffffffffffffffffffffffffff163373ffffffffffffffffffffffffffffffffffffffff161415610570576104ec83610b0a565b60008373ffffffffffffffffffffffffffffffffffffffff168383604051808383808284378083019250505092505050600060405180830381855af49150503d8060008114610557576040519150601f19603f3d011682016040523d82523d6000602084013e61055c565b606091505b505090508061056a57600080fd5b50610579565b610578610439565b5b505050565b6000610588610ad9565b73ffffffffffffffffffffffffffffffffffffffff163373ffffffffffffffffffffffffffffffffffffffff1614156105ca576105c3610a82565b90506105d3565b6105d2610439565b5b90565b6105de610ad9565b73ffffffffffffffffffffffffffffffffffffffff163373ffffffffffffffffffffffffffffffffffffffff16141561074357600073ffffffffffffffffffffffffffffffffffffffff168173ffffffffffffffffffffffffffffffffffffffff161415610697576040517f08c379a0000000000000000000000000000000000000000000000000000000008152600401808060200182810382526036815260200180610c5d6036913960400191505060405180910390fd5b7f7e644d79422f17c01e4894b5f4f588d331ebfa28653d42ae832dc59e38c9798f6106c0610ad9565b82604051808373ffffffffffffffffffffffffffffffffffffffff1673ffffffffffffffffffffffffffffffffffffffff1681526020018273ffffffffffffffffffffffffffffffffffffffff1673ffffffffffffffffffffffffffffffffffffffff1681526020019250505060405180910390a161073e81610b59565b61074c565b61074b610439565b5b50565b600073ffffffffffffffffffffffffffffffffffffffff1661076f610a82565b73ffffffffffffffffffffffffffffffffffffffff161461078f57600080fd5b6107998382610811565b600160405180807f656970313936372e70726f78792e61646d696e000000000000000000000000008152506013019050604051809103902060001c0360001b7fb53127684a568b3173ae13b9f8a6016e243e63b6e8ee1178d6a717850b5d610360001b1461080357fe5b61080c82610b59565b505050565b600073ffffffffffffffffffffffffffffffffffffffff16610831610a82565b73ffffffffffffffffffffffffffffffffffffffff161461085157600080fd5b600160405180807f656970313936372e70726f78792e696d706c656d656e746174696f6e00000000815250601c019050604051809103902060001c0360001b7f360894a13ba1a3210667c828492db98dca3e2076cc3735a920a3ca505d382bbc60001b146108bb57fe5b6108c482610b88565b6000815111156109905760008273ffffffffffffffffffffffffffffffffffffffff16826040518082805190602001908083835b6020831061091b57805182526020820191506020810190506020830392506108f8565b6001836020036101000a038019825116818451168082178552505050505050905001915050600060405180830381855af49150503d806000811461097b576040519150601f19603f3d011682016040523d82523d6000602084013e610980565b606091505b505090508061098e57600080fd5b505b5050565b600061099e610ad9565b73ffffffffffffffffffffffffffffffffffffffff163373ffffffffffffffffffffffffffffffffffffffff1614156109e0576109d9610ad9565b90506109e9565b6109e8610439565b5b90565b6109f4610ad9565b73ffffffffffffffffffffffffffffffffffffffff163373ffffffffffffffffffffffffffffffffffffffff161415610a78576040517f08c379a0000000000000000000000000000000000000000000000000000000008152600401808060200182810382526032815260200180610c2b6032913960400191505060405180910390fd5b610a80610c15565b565b6000807f360894a13ba1a3210667c828492db98dca3e2076cc3735a920a3ca505d382bbc60001b9050805491505090565b3660008037600080366000845af43d6000803e8060008114610ad4573d6000f35b3d6000fd5b6000807fb53127684a568b3173ae13b9f8a6016e243e63b6e8ee1178d6a717850b5d610360001b9050805491505090565b610b1381610b88565b8073ffffffffffffffffffffffffffffffffffffffff167fbc7cd75a20ee27fd9adebab32041f755214dbc6bffa90cc0225b39da2e5c2d3b60405160405180910390a250565b60007fb53127684a568b3173ae13b9f8a6016e243e63b6e8ee1178d6a717850b5d610360001b90508181555050565b610b9181610c17565b610be6576040517f08c379a000000000000000000000000000000000000000000000000000000000815260040180806020018281038252603b815260200180610c93603b913960400191505060405180910390fd5b60007f360894a13ba1a3210667c828492db98dca3e2076cc3735a920a3ca505d382bbc60001b90508181555050565b565b600080823b90506000811191505091905056fe43616e6e6f742063616c6c2066616c6c6261636b2066756e6374696f6e2066726f6d207468652070726f78792061646d696e43616e6e6f74206368616e6765207468652061646d696e206f6620612070726f787920746f20746865207a65726f206164647265737343616e6e6f742073657420612070726f787920696d706c656d656e746174696f6e20746f2061206e6f6e2d636f6e74726163742061646472657373a265627a7a72315820a6f2dbb324575f7cf072335130e9ac1f14aae15fd84d2cc4e871baf88177287564736f6c63430005100032",
  "source": "// SPDX-License-Identifier: MIT\npragma solidity >=0.4.21 <0.7.1;\n\nimport './ServiceAgreement.sol';\nimport '@openzeppelin/upgrades/contracts/upgradeability/ProxyFactory.sol';\n\n/**\n * @title ServiceAgreementFactory\n * @dev Store & retreive value in a variable\n */\ncontract ServiceAgreementFactory is ProxyFactory {\n    address public implementation;\n\n    constructor(address _implementation) public {\n        implementation = _implementation;\n    }\n\n    mapping(bytes32 => address) public agreements;\n\n    /**\n     * @dev Creates a new service agreement and adds it to mapping\n     * @param _service The hash of the new service agreement\n     * @param _data The bytearray of calldata\n     */\n    function createServiceAgreement(bytes32 _service, bytes memory _data)\n        public\n        returns (bool)\n    {\n        address proxy = deployMinimal(implementation, _data);\n        agreements[_service] = proxy;\n        return true;\n    }\n\n    /**\n     * @dev Updates the stage of a service agreement\n     * @param _service The hash of the service to be updated\n     * @param _stage The new stage of the service\n     */\n    function setServiceStage(bytes32 _service, uint8 _stage)\n        public\n        returns (bool)\n    {\n        ServiceAgreement(agreements[_service]).setStage(_service, _stage);\n        return true;\n    }\n}\n",
  "sourcePath": "C:\\Users\\fabia\\WebstormProjects\\bim-contracts\\contracts\\ServiceAgreementFactory.sol",
  "compiler": {
    "name": "solc",
    "version": "0.5.16+commit.9c3226ce.Emscripten.clang"
  },
  "schemaVersion": "3.2.4",
  "updatedAt": "2020-09-10T09:21:55.098Z",
  "networkType": "ethereum",
  "devdoc": {
    "details": "Store & retreive value in a variable",
    "methods": {
      "createServiceAgreement(bytes32,bytes)": {
        "details": "Creates a new service agreement and adds it to mapping",
        "params": {
          "_data": "The bytearray of calldata",
          "_service": "The hash of the new service agreement"
        }
      },
      "setServiceStage(bytes32,uint8)": {
        "details": "Updates the stage of a service agreement",
        "params": {
          "_service": "The hash of the service to be updated",
          "_stage": "The new stage of the service"
        }
      }
    },
    "title": "ServiceAgreementFactory"
  },
  "userdoc": {
    "methods": {}
  }
}