{
  "contractName": "ServiceContract",
  "abi": [
    {
      "constant": false,
      "inputs": [
        {
          "internalType": "bytes32",
          "name": "_contract",
          "type": "bytes32"
        },
        {
          "internalType": "address",
          "name": "_contractor",
          "type": "address"
        },
        {
          "internalType": "bytes32",
          "name": "_node",
          "type": "bytes32"
        },
        {
          "internalType": "bytes32[]",
          "name": "_children",
          "type": "bytes32[]"
        },
        {
          "internalType": "bytes32[]",
          "name": "_billings",
          "type": "bytes32[]"
        }
      ],
      "name": "createServiceContract",
      "outputs": [
        {
          "internalType": "bool",
          "name": "",
          "type": "bool"
        }
      ],
      "payable": false,
      "stateMutability": "nonpayable",
      "type": "function"
    },
    {
      "constant": false,
      "inputs": [
        {
          "internalType": "bytes32",
          "name": "_contract",
          "type": "bytes32"
        },
        {
          "internalType": "bytes32",
          "name": "_node",
          "type": "bytes32"
        },
        {
          "internalType": "bytes32[]",
          "name": "_children",
          "type": "bytes32[]"
        },
        {
          "internalType": "bytes32[]",
          "name": "_billings",
          "type": "bytes32[]"
        }
      ],
      "name": "addServiceSection",
      "outputs": [
        {
          "internalType": "bool",
          "name": "",
          "type": "bool"
        }
      ],
      "payable": false,
      "stateMutability": "nonpayable",
      "type": "function"
    },
    {
      "constant": true,
      "inputs": [
        {
          "internalType": "bytes32",
          "name": "_service",
          "type": "bytes32"
        }
      ],
      "name": "stageOf",
      "outputs": [
        {
          "internalType": "enum ServiceContractLib.Stages",
          "name": "",
          "type": "uint8"
        }
      ],
      "payable": false,
      "stateMutability": "view",
      "type": "function"
    },
    {
      "constant": false,
      "inputs": [
        {
          "internalType": "bytes32",
          "name": "_service",
          "type": "bytes32"
        }
      ],
      "name": "start",
      "outputs": [
        {
          "internalType": "bool",
          "name": "",
          "type": "bool"
        }
      ],
      "payable": false,
      "stateMutability": "nonpayable",
      "type": "function"
    },
    {
      "constant": false,
      "inputs": [
        {
          "internalType": "bytes32",
          "name": "_service",
          "type": "bytes32"
        }
      ],
      "name": "finish",
      "outputs": [
        {
          "internalType": "bool",
          "name": "",
          "type": "bool"
        }
      ],
      "payable": false,
      "stateMutability": "nonpayable",
      "type": "function"
    },
    {
      "constant": false,
      "inputs": [
        {
          "internalType": "bytes32",
          "name": "_service",
          "type": "bytes32"
        }
      ],
      "name": "approve",
      "outputs": [
        {
          "internalType": "bool",
          "name": "",
          "type": "bool"
        }
      ],
      "payable": false,
      "stateMutability": "nonpayable",
      "type": "function"
    },
    {
      "constant": false,
      "inputs": [
        {
          "internalType": "bytes32",
          "name": "_service",
          "type": "bytes32"
        }
      ],
      "name": "reject",
      "outputs": [
        {
          "internalType": "bool",
          "name": "",
          "type": "bool"
        }
      ],
      "payable": false,
      "stateMutability": "nonpayable",
      "type": "function"
    },
    {
      "constant": false,
      "inputs": [
        {
          "internalType": "bytes32",
          "name": "_service",
          "type": "bytes32"
        }
      ],
      "name": "pay",
      "outputs": [
        {
          "internalType": "bool",
          "name": "",
          "type": "bool"
        }
      ],
      "payable": false,
      "stateMutability": "nonpayable",
      "type": "function"
    }
  ],
  "bytecode": "0x608060405234801561001057600080fd5b50610da7806100206000396000f3fe608060405234801561001057600080fd5b50600436106100885760003560e01c8063a53a1adf1161005b578063a53a1adf146102e1578063cabd734f14610327578063e3c64bdc1461036d578063fde630561461048757610088565b8063015a18ed1461008d5780636c91047a146100d35780638609cad11461012357806387520b2b14610169575b600080fd5b6100b9600480360360208110156100a357600080fd5b81019080803590602001909291905050506104cd565b604051808215151515815260200191505060405180910390f35b6100ff600480360360208110156100e957600080fd5b810190808035906020019092919050505061058e565b6040518082600681111561010f57fe5b60ff16815260200191505060405180910390f35b61014f6004803603602081101561013957600080fd5b810190808035906020019092919050505061064f565b604051808215151515815260200191505060405180910390f35b6102c76004803603608081101561017f57600080fd5b810190808035906020019092919080359060200190929190803590602001906401000000008111156101b057600080fd5b8201836020820111156101c257600080fd5b803590602001918460208302840111640100000000831117156101e457600080fd5b919080806020026020016040519081016040528093929190818152602001838360200280828437600081840152601f19601f8201169050808301925050505050505091929192908035906020019064010000000081111561024457600080fd5b82018360208201111561025657600080fd5b8035906020019184602083028401116401000000008311171561027857600080fd5b919080806020026020016040519081016040528093929190818152602001838360200280828437600081840152601f19601f820116905080830192505050505050509192919290505050610710565b604051808215151515815260200191505060405180910390f35b61030d600480360360208110156102f757600080fd5b810190808035906020019092919050505061094b565b604051808215151515815260200191505060405180910390f35b6103536004803603602081101561033d57600080fd5b8101908080359060200190929190505050610a0c565b604051808215151515815260200191505060405180910390f35b61046d600480360360a081101561038357600080fd5b8101908080359060200190929190803573ffffffffffffffffffffffffffffffffffffffff16906020019092919080359060200190929190803590602001906401000000008111156103d457600080fd5b8201836020820111156103e657600080fd5b8035906020019184602083028401116401000000008311171561040857600080fd5b90919293919293908035906020019064010000000081111561042957600080fd5b82018360208201111561043b57600080fd5b8035906020019184602083028401116401000000008311171561045d57600080fd5b9091929391929390505050610acd565b604051808215151515815260200191505060405180910390f35b6104b36004803603602081101561049d57600080fd5b8101908080359060200190929190505050610cb1565b604051808215151515815260200191505060405180910390f35b60008060006001600085815260200190815260200160002054815260200190815260200160002073__ServiceContractLib____________________63998311fd9091846040518363ffffffff1660e01b8152600401808381526020018281526020019250505060206040518083038186803b15801561054c57600080fd5b505af4158015610560573d6000803e3d6000fd5b505050506040513d602081101561057657600080fd5b81019080805190602001909291905050509050919050565b60008060006001600085815260200190815260200160002054815260200190815260200160002073__ServiceContractLib____________________636a26d3969091846040518363ffffffff1660e01b8152600401808381526020018281526020019250505060206040518083038186803b15801561060d57600080fd5b505af4158015610621573d6000803e3d6000fd5b505050506040513d602081101561063757600080fd5b81019080805190602001909291905050509050919050565b60008060006001600085815260200190815260200160002054815260200190815260200160002073__ServiceContractLib____________________636c1c6aa99091846040518363ffffffff1660e01b8152600401808381526020018281526020019250505060206040518083038186803b1580156106ce57600080fd5b505af41580156106e2573d6000803e3d6000fd5b505050506040513d60208110156106f857600080fd5b81019080805190602001909291905050509050919050565b600080600086815260200190815260200160002060040160149054906101000a900460ff166107a7576040517f08c379a000000000000000000000000000000000000000000000000000000000815260040180806020018281038252601e8152602001807f5365727669636520636f6e7472616374206e6f74206578697374696e672e000081525060200191505060405180910390fd5b84600160008681526020019081526020016000208190555060008090505b83518110156108065785600160008684815181106107df57fe5b602002602001015181526020019081526020016000208190555080806001019150506107c5565b5060008086815260200190815260200160002073__ServiceContractLib____________________632ae61f7990918686866040518563ffffffff1660e01b8152600401808581526020018481526020018060200180602001838103835285818151815260200191508051906020019060200280838360005b8381101561089a57808201518184015260208101905061087f565b50505050905001838103825284818151815260200191508051906020019060200280838360005b838110156108dc5780820151818401526020810190506108c1565b50505050905001965050505050505060206040518083038186803b15801561090357600080fd5b505af4158015610917573d6000803e3d6000fd5b505050506040513d602081101561092d57600080fd5b81019080805190602001909291905050505060019050949350505050565b60008060006001600085815260200190815260200160002054815260200190815260200160002073__ServiceContractLib____________________6320f5490b9091846040518363ffffffff1660e01b8152600401808381526020018281526020019250505060206040518083038186803b1580156109ca57600080fd5b505af41580156109de573d6000803e3d6000fd5b505050506040513d60208110156109f457600080fd5b81019080805190602001909291905050509050919050565b60008060006001600085815260200190815260200160002054815260200190815260200160002073__ServiceContractLib____________________6355aff3f99091846040518363ffffffff1660e01b8152600401808381526020018281526020019250505060206040518083038186803b158015610a8b57600080fd5b505af4158015610a9f573d6000803e3d6000fd5b505050506040513d6020811015610ab557600080fd5b81019080805190602001909291905050509050919050565b600080600089815260200190815260200160002060040160149054906101000a900460ff1615610b65576040517f08c379a00000000000000000000000000000000000000000000000000000000081526004018080602001828103825260208152602001807f5365727669636520636f6e747261637420616c7265616479206578697374732e81525060200191505060405180910390fd5b60008089815260200190815260200160002073__ServiceContractLib____________________633b0e4d6a9091896040518363ffffffff1660e01b8152600401808381526020018273ffffffffffffffffffffffffffffffffffffffff1673ffffffffffffffffffffffffffffffffffffffff1681526020019250505060006040518083038186803b158015610bfb57600080fd5b505af4158015610c0f573d6000803e3d6000fd5b50505050610ca18887878780806020026020016040519081016040528093929190818152602001838360200280828437600081840152601f19601f82011690508083019250505050505050868680806020026020016040519081016040528093929190818152602001838360200280828437600081840152601f19601f82011690508083019250505050505050610710565b5060019050979650505050505050565b60008060006001600085815260200190815260200160002054815260200190815260200160002073__ServiceContractLib____________________6349ce64689091846040518363ffffffff1660e01b8152600401808381526020018281526020019250505060206040518083038186803b158015610d3057600080fd5b505af4158015610d44573d6000803e3d6000fd5b505050506040513d6020811015610d5a57600080fd5b8101908080519060200190929190505050905091905056fea265627a7a723158203f086544400f4aa19313cddaf20ed9b43a6bf79000b1217471120b87f16e7d6d64736f6c63430005100032",
  "source": "// SPDX-License-Identifier: MIT\npragma solidity >=0.4.21 <0.7.1;\n\nimport './ServiceContractLib.sol';\n\ncontract ServiceContract {\n    using ServiceContractLib for ServiceContractLib.ServiceContract;\n\n    mapping(bytes32 => ServiceContractLib.ServiceContract) private instances;\n    mapping(bytes32 => bytes32) private contracts;\n\n    function createServiceContract(\n        bytes32 _contract,\n        address _contractor,\n        bytes32 _node,\n        bytes32[] calldata _children,\n        bytes32[] calldata _billings\n    ) external returns (bool) {\n        require(\n            !instances[_contract].exists,\n            'Service contract already exists.'\n        );\n        instances[_contract].init(_contractor);\n        addServiceSection(_contract, _node, _children, _billings);\n        return true;\n    }\n\n    function addServiceSection(\n        bytes32 _contract,\n        bytes32 _node,\n        bytes32[] memory _children,\n        bytes32[] memory _billings\n    ) public returns (bool) {\n        require(instances[_contract].exists, 'Service contract not existing.');\n        contracts[_node] = _contract;\n        for (uint256 i = 0; i < _children.length; i++) {\n            contracts[_children[i]] = _contract;\n        }\n        instances[_contract].addServiceSection(_node, _children, _billings);\n        return true;\n    }\n\n    function stageOf(bytes32 _service)\n        public\n        view\n        returns (ServiceContractLib.Stages)\n    {\n        return instances[contracts[_service]].stageOf(_service);\n    }\n\n    function start(bytes32 _service) external returns (bool) {\n        return instances[contracts[_service]].start(_service);\n    }\n\n    function finish(bytes32 _service) external returns (bool) {\n        return instances[contracts[_service]].finish(_service);\n    }\n\n    function approve(bytes32 _service) external returns (bool) {\n        return instances[contracts[_service]].approve(_service);\n    }\n\n    function reject(bytes32 _service) external returns (bool) {\n        return instances[contracts[_service]].reject(_service);\n    }\n\n    function pay(bytes32 _service) external returns (bool) {\n        return instances[contracts[_service]].pay(_service);\n    }\n}\n",
  "sourcePath": "C:/Users/fabia/WebstormProjects/bim-contracts/contracts/ServiceContract.sol",
  "compiler": {
    "name": "solc",
    "version": "0.5.16+commit.9c3226ce.Emscripten.clang"
  },
  "schemaVersion": "3.2.4",
  "updatedAt": "2020-10-02T11:15:30.019Z",
  "networkType": "ethereum",
  "devdoc": {
    "methods": {}
  },
  "userdoc": {
    "methods": {}
  }
}