{
  "contractName": "ServiceAgreementFactory",
  "abi": [
    {
      "inputs": [
        {
          "internalType": "address",
          "name": "_implementation",
          "type": "address"
        }
      ],
      "payable": false,
      "stateMutability": "nonpayable",
      "type": "constructor"
    },
    {
      "anonymous": false,
      "inputs": [
        {
          "indexed": false,
          "internalType": "address",
          "name": "_client",
          "type": "address"
        },
        {
          "indexed": false,
          "internalType": "address",
          "name": "_contractor",
          "type": "address"
        },
        {
          "indexed": true,
          "internalType": "address",
          "name": "_address",
          "type": "address"
        },
        {
          "indexed": true,
          "internalType": "bytes32",
          "name": "_hash",
          "type": "bytes32"
        }
      ],
      "name": "ServiceAgreementCreated",
      "type": "event"
    },
    {
      "constant": true,
      "inputs": [
        {
          "internalType": "bytes32",
          "name": "",
          "type": "bytes32"
        }
      ],
      "name": "agreements",
      "outputs": [
        {
          "internalType": "address",
          "name": "",
          "type": "address"
        }
      ],
      "payable": false,
      "stateMutability": "view",
      "type": "function"
    },
    {
      "constant": true,
      "inputs": [],
      "name": "implementation",
      "outputs": [
        {
          "internalType": "address",
          "name": "",
          "type": "address"
        }
      ],
      "payable": false,
      "stateMutability": "view",
      "type": "function"
    },
    {
      "constant": false,
      "inputs": [
        {
          "internalType": "bytes32",
          "name": "_service",
          "type": "bytes32"
        },
        {
          "internalType": "bytes32",
          "name": "_parent",
          "type": "bytes32"
        },
        {
          "internalType": "address",
          "name": "_client",
          "type": "address"
        },
        {
          "internalType": "address",
          "name": "_contractor",
          "type": "address"
        },
        {
          "internalType": "bytes32[]",
          "name": "_children",
          "type": "bytes32[]"
        },
        {
          "internalType": "bytes32[]",
          "name": "_parents",
          "type": "bytes32[]"
        },
        {
          "internalType": "bool[]",
          "name": "_billables",
          "type": "bool[]"
        },
        {
          "internalType": "bytes32[]",
          "name": "_documents",
          "type": "bytes32[]"
        }
      ],
      "name": "createServiceAgreement",
      "outputs": [
        {
          "internalType": "bool",
          "name": "",
          "type": "bool"
        }
      ],
      "payable": false,
      "stateMutability": "nonpayable",
      "type": "function"
    },
    {
      "constant": true,
      "inputs": [
        {
          "internalType": "bytes32",
          "name": "_service",
          "type": "bytes32"
        }
      ],
      "name": "getServiceStage",
      "outputs": [
        {
          "internalType": "enum ServiceAgreement.Stages",
          "name": "",
          "type": "uint8"
        }
      ],
      "payable": false,
      "stateMutability": "view",
      "type": "function"
    },
    {
      "constant": false,
      "inputs": [
        {
          "internalType": "bytes32",
          "name": "_service",
          "type": "bytes32"
        },
        {
          "internalType": "enum ServiceAgreement.Stages",
          "name": "_stage",
          "type": "uint8"
        }
      ],
      "name": "setServiceStage",
      "outputs": [],
      "payable": false,
      "stateMutability": "nonpayable",
      "type": "function"
    }
  ],
  "bytecode": "0x608060405234801561001057600080fd5b50604051610c54380380610c548339818101604052602081101561003357600080fd5b8101908080519060200190929190505050806000806101000a81548173ffffffffffffffffffffffffffffffffffffffff021916908373ffffffffffffffffffffffffffffffffffffffff16021790555050610bc0806100946000396000f3fe608060405234801561001057600080fd5b50600436106100575760003560e01c80630d808a211461005c57806319eaf360146100975780635c60da1b146100e75780639e1f68c714610131578063c39098561461019f575b600080fd5b6100956004803603604081101561007257600080fd5b8101908080359060200190929190803560ff169060200190929190505050610480565b005b6100c3600480360360208110156100ad57600080fd5b8101908080359060200190929190505050610616565b604051808260068111156100d357fe5b60ff16815260200191505060405180910390f35b6100ef6106de565b604051808273ffffffffffffffffffffffffffffffffffffffff1673ffffffffffffffffffffffffffffffffffffffff16815260200191505060405180910390f35b61015d6004803603602081101561014757600080fd5b8101908080359060200190929190505050610703565b604051808273ffffffffffffffffffffffffffffffffffffffff1673ffffffffffffffffffffffffffffffffffffffff16815260200191505060405180910390f35b61046660048036036101008110156101b657600080fd5b810190808035906020019092919080359060200190929190803573ffffffffffffffffffffffffffffffffffffffff169060200190929190803573ffffffffffffffffffffffffffffffffffffffff1690602001909291908035906020019064010000000081111561022757600080fd5b82018360208201111561023957600080fd5b8035906020019184602083028401116401000000008311171561025b57600080fd5b919080806020026020016040519081016040528093929190818152602001838360200280828437600081840152601f19601f820116905080830192505050505050509192919290803590602001906401000000008111156102bb57600080fd5b8201836020820111156102cd57600080fd5b803590602001918460208302840111640100000000831117156102ef57600080fd5b919080806020026020016040519081016040528093929190818152602001838360200280828437600081840152601f19601f8201169050808301925050505050505091929192908035906020019064010000000081111561034f57600080fd5b82018360208201111561036157600080fd5b8035906020019184602083028401116401000000008311171561038357600080fd5b919080806020026020016040519081016040528093929190818152602001838360200280828437600081840152601f19601f820116905080830192505050505050509192919290803590602001906401000000008111156103e357600080fd5b8201836020820111156103f557600080fd5b8035906020019184602083028401116401000000008311171561041757600080fd5b919080806020026020016040519081016040528093929190818152602001838360200280828437600081840152601f19601f820116905080830192505050505050509192919290505050610736565b604051808215151515815260200191505060405180910390f35b81600073ffffffffffffffffffffffffffffffffffffffff166001600083815260200190815260200160002060009054906101000a900473ffffffffffffffffffffffffffffffffffffffff1673ffffffffffffffffffffffffffffffffffffffff1611610539576040517f08c379a0000000000000000000000000000000000000000000000000000000008152600401808060200182810382526029815260200180610b636029913960400191505060405180910390fd5b6001600084815260200190815260200160002060009054906101000a900473ffffffffffffffffffffffffffffffffffffffff1673ffffffffffffffffffffffffffffffffffffffff1663d1e8c3ea84846040518363ffffffff1660e01b8152600401808381526020018260068111156105af57fe5b60ff16815260200192505050602060405180830381600087803b1580156105d557600080fd5b505af11580156105e9573d6000803e3d6000fd5b505050506040513d60208110156105ff57600080fd5b810190808051906020019092919050505050505050565b60006001600083815260200190815260200160002060009054906101000a900473ffffffffffffffffffffffffffffffffffffffff1673ffffffffffffffffffffffffffffffffffffffff166319eaf360836040518263ffffffff1660e01b81526004018082815260200191505060206040518083038186803b15801561069c57600080fd5b505afa1580156106b0573d6000803e3d6000fd5b505050506040513d60208110156106c657600080fd5b81019080805190602001909291905050509050919050565b6000809054906101000a900473ffffffffffffffffffffffffffffffffffffffff1681565b60016020528060005260406000206000915054906101000a900473ffffffffffffffffffffffffffffffffffffffff1681565b6000806107636000809054906101000a900473ffffffffffffffffffffffffffffffffffffffff16610af8565b90508073ffffffffffffffffffffffffffffffffffffffff16639d3a2a2c8b8b8b8b8b8b8b8b6040518963ffffffff1660e01b8152600401808981526020018881526020018773ffffffffffffffffffffffffffffffffffffffff1673ffffffffffffffffffffffffffffffffffffffff1681526020018673ffffffffffffffffffffffffffffffffffffffff1673ffffffffffffffffffffffffffffffffffffffff16815260200180602001806020018060200180602001858103855289818151815260200191508051906020019060200280838360005b8381101561085757808201518184015260208101905061083c565b50505050905001858103845288818151815260200191508051906020019060200280838360005b8381101561089957808201518184015260208101905061087e565b50505050905001858103835287818151815260200191508051906020019060200280838360005b838110156108db5780820151818401526020810190506108c0565b50505050905001858103825286818151815260200191508051906020019060200280838360005b8381101561091d578082015181840152602081019050610902565b505050509050019c50505050505050505050505050600060405180830381600087803b15801561094c57600080fd5b505af1158015610960573d6000803e3d6000fd5b5050505080600160008c815260200190815260200160002060006101000a81548173ffffffffffffffffffffffffffffffffffffffff021916908373ffffffffffffffffffffffffffffffffffffffff16021790555060008090505b8651811015610a375781600160008984815181106109d657fe5b6020026020010151815260200190815260200160002060006101000a81548173ffffffffffffffffffffffffffffffffffffffff021916908373ffffffffffffffffffffffffffffffffffffffff16021790555080806001019150506109bc565b50898173ffffffffffffffffffffffffffffffffffffffff167f96e7026a46d2e0799b4ab7dbb77d314b15a66e3f42d3dd9e856805d5caf32daa8a8a604051808373ffffffffffffffffffffffffffffffffffffffff1673ffffffffffffffffffffffffffffffffffffffff1681526020018273ffffffffffffffffffffffffffffffffffffffff1673ffffffffffffffffffffffffffffffffffffffff1681526020019250505060405180910390a3600191505098975050505050505050565b6000808260601b90506040517f3d602d80600a3d3981f3363d3d373d3d3d363d7300000000000000000000000081528160148201527f5af43d82803e903d91602b57fd5bf3000000000000000000000000000000000060288201526037816000f09250505091905056fe4e6f7420616c6c6f7765642e204f6e6c792066726f6d20536572766963652041677265656d656e742ea265627a7a7231582004083200e80f527c419ef08051d71848c395f7772175a1907b57e427419e65c464736f6c63430005100032",
  "source": "// SPDX-License-Identifier: MIT\npragma solidity >=0.4.21 <0.7.1;\n\nimport './ServiceAgreement.sol';\nimport './CloneFactory.sol';\n\n/**\n * @title ServiceAgreementFactory\n * @dev Store & retreive value in a variable\n */\ncontract ServiceAgreementFactory is CloneFactory {\n    event ServiceAgreementCreated(\n        address _client,\n        address _contractor,\n        address indexed _address,\n        bytes32 indexed _hash\n    );\n\n    address public implementation;\n\n    modifier onlyServiceAgreement(bytes32 _service) {\n        require(\n            agreements[_service] > address(0),\n            'Not allowed. Only from Service Agreement.'\n        );\n        _;\n    }\n\n    constructor(address _implementation) public {\n        implementation = _implementation;\n    }\n\n    mapping(bytes32 => address) public agreements;\n\n    /**\n     * @dev Creates a new service agreement and adds it to mapping\n     * @param _service The hash of the service agreement\n     * @param _parent The hash of the parent service\n     * @param _client The contractor of the service agreement\n     * @param _contractor The contractor of the service agreement\n     * @param _children The hashes of the child services\n     * @param _parents The hashes of parent services of the service specified in same index of _hashes\n     * @param _billables Determines if the service node on index of _hashes has an associated billing unit\n     * @param _documents The hashes of contract documents of the service agreement\n     */\n    function createServiceAgreement(\n        bytes32 _service,\n        bytes32 _parent,\n        address _client,\n        address _contractor,\n        bytes32[] memory _children,\n        bytes32[] memory _parents,\n        bool[] memory _billables,\n        bytes32[] memory _documents\n    ) public returns (bool) {\n        address clone = createClone(implementation);\n        ServiceAgreement(clone).init(\n            _service,\n            _parent,\n            _client,\n            _contractor,\n            _children,\n            _parents,\n            _billables,\n            _documents\n        );\n\n        // Set agreement address pointer to service and his children\n        agreements[_service] = clone;\n        for (uint256 i = 0; i < _children.length; i++) {\n            agreements[_children[i]] = clone;\n        }\n        emit ServiceAgreementCreated(_client, _contractor, clone, _service);\n        return true;\n    }\n\n    function _addServiceNode(bytes32 _service, address _agreement) internal {\n        if (agreements[_service] > address(0)) {\n            ServiceAgreement(agreements[_service]).removeServiceNode(_service);\n        }\n        agreements[_service] = _agreement;\n    }\n\n    /**\n     * @dev Retrieves the current stage of a service node\n     * @param _service The hash of the service to get the current stage from\n     */\n    function getServiceStage(bytes32 _service)\n        external\n        view\n        returns (ServiceAgreement.Stages)\n    {\n        return ServiceAgreement(agreements[_service]).getServiceStage(_service);\n    }\n\n    // TODO Act as Proxy for Agreements and redirect all request. This allows easier authentication and validation (e.g. only contractor can create new service agreement)\n    /**\n     * @dev Updates the stage of a service agreement\n     * @param _service The hash of the service to be updated\n     * @param _stage The new stage of the service\n     */\n    function setServiceStage(bytes32 _service, ServiceAgreement.Stages _stage)\n        external\n        onlyServiceAgreement(_service)\n    {\n        ServiceAgreement(agreements[_service]).setStage(_service, _stage);\n    }\n}\n",
  "sourcePath": "C:\\Users\\fabia\\WebstormProjects\\bim-contracts\\contracts\\ServiceAgreementFactory.sol",
  "compiler": {
    "name": "solc",
    "version": "0.5.16+commit.9c3226ce.Emscripten.clang"
  },
  "schemaVersion": "3.2.4",
  "updatedAt": "2020-09-29T14:56:03.423Z",
  "networkType": "ethereum",
  "devdoc": {
    "details": "Store & retreive value in a variable",
    "methods": {
      "createServiceAgreement(bytes32,bytes32,address,address,bytes32[],bytes32[],bool[],bytes32[])": {
        "details": "Creates a new service agreement and adds it to mapping",
        "params": {
          "_billables": "Determines if the service node on index of _hashes has an associated billing unit",
          "_children": "The hashes of the child services",
          "_client": "The contractor of the service agreement",
          "_contractor": "The contractor of the service agreement",
          "_documents": "The hashes of contract documents of the service agreement",
          "_parent": "The hash of the parent service",
          "_parents": "The hashes of parent services of the service specified in same index of _hashes",
          "_service": "The hash of the service agreement"
        }
      },
      "getServiceStage(bytes32)": {
        "details": "Retrieves the current stage of a service node",
        "params": {
          "_service": "The hash of the service to get the current stage from"
        }
      },
      "setServiceStage(bytes32,uint8)": {
        "details": "Updates the stage of a service agreement",
        "params": {
          "_service": "The hash of the service to be updated",
          "_stage": "The new stage of the service"
        }
      }
    },
    "title": "ServiceAgreementFactory"
  },
  "userdoc": {
    "methods": {}
  }
}