{
  "contractName": "ServiceFactory",
  "abi": [
    {
      "constant": true,
      "inputs": [
        {
          "internalType": "bytes32",
          "name": "",
          "type": "bytes32"
        }
      ],
      "name": "billings",
      "outputs": [
        {
          "internalType": "bytes32",
          "name": "",
          "type": "bytes32"
        }
      ],
      "payable": false,
      "stateMutability": "view",
      "type": "function"
    },
    {
      "constant": true,
      "inputs": [
        {
          "internalType": "bytes32",
          "name": "",
          "type": "bytes32"
        }
      ],
      "name": "contracts",
      "outputs": [
        {
          "internalType": "address",
          "name": "client",
          "type": "address"
        },
        {
          "internalType": "address",
          "name": "contractor",
          "type": "address"
        }
      ],
      "payable": false,
      "stateMutability": "view",
      "type": "function"
    },
    {
      "constant": true,
      "inputs": [
        {
          "internalType": "bytes32",
          "name": "",
          "type": "bytes32"
        }
      ],
      "name": "services",
      "outputs": [
        {
          "internalType": "enum ServiceFactory.Status",
          "name": "status",
          "type": "uint8"
        }
      ],
      "payable": false,
      "stateMutability": "view",
      "type": "function"
    },
    {
      "constant": false,
      "inputs": [
        {
          "internalType": "bytes32",
          "name": "_hash",
          "type": "bytes32"
        },
        {
          "internalType": "address",
          "name": "_contractor",
          "type": "address"
        }
      ],
      "name": "createServiceContract",
      "outputs": [
        {
          "internalType": "bool",
          "name": "",
          "type": "bool"
        }
      ],
      "payable": false,
      "stateMutability": "nonpayable",
      "type": "function"
    },
    {
      "constant": false,
      "inputs": [
        {
          "internalType": "bytes32[]",
          "name": "_hashes",
          "type": "bytes32[]"
        },
        {
          "internalType": "bytes32[]",
          "name": "_parents",
          "type": "bytes32[]"
        },
        {
          "internalType": "uint256",
          "name": "_len",
          "type": "uint256"
        }
      ],
      "name": "addServiceNodes",
      "outputs": [
        {
          "internalType": "bool",
          "name": "",
          "type": "bool"
        }
      ],
      "payable": false,
      "stateMutability": "nonpayable",
      "type": "function"
    },
    {
      "constant": false,
      "inputs": [
        {
          "internalType": "bytes32",
          "name": "_service",
          "type": "bytes32"
        }
      ],
      "name": "approveServiceNode",
      "outputs": [
        {
          "internalType": "bool",
          "name": "",
          "type": "bool"
        }
      ],
      "payable": false,
      "stateMutability": "nonpayable",
      "type": "function"
    },
    {
      "constant": false,
      "inputs": [
        {
          "internalType": "bytes32",
          "name": "_service",
          "type": "bytes32"
        }
      ],
      "name": "nextServiceStatus",
      "outputs": [
        {
          "internalType": "bool",
          "name": "",
          "type": "bool"
        }
      ],
      "payable": false,
      "stateMutability": "nonpayable",
      "type": "function"
    }
  ],
  "bytecode": "0x608060405234801561001057600080fd5b50610de9806100206000396000f3fe608060405234801561001057600080fd5b506004361061007d5760003560e01c80637cde669d1161005b5780637cde669d1461017e578063afccb901146101c4578063d6b0f64c14610332578063ec56a373146103745761007d565b806309c5874e146100825780630a790eb7146100c85780633cc458e814610118575b600080fd5b6100ae6004803603602081101561009857600080fd5b8101908080359060200190929190505050610415565b604051808215151515815260200191505060405180910390f35b6100f4600480360360208110156100de57600080fd5b81019080803590602001909291905050506105af565b6040518082600381111561010457fe5b60ff16815260200191505060405180910390f35b6101646004803603604081101561012e57600080fd5b8101908080359060200190929190803573ffffffffffffffffffffffffffffffffffffffff1690602001909291905050506105da565b604051808215151515815260200191505060405180910390f35b6101aa6004803603602081101561019457600080fd5b8101908080359060200190929190505050610803565b604051808215151515815260200191505060405180910390f35b610318600480360360608110156101da57600080fd5b81019080803590602001906401000000008111156101f757600080fd5b82018360208201111561020957600080fd5b8035906020019184602083028401116401000000008311171561022b57600080fd5b919080806020026020016040519081016040528093929190818152602001838360200280828437600081840152601f19601f8201169050808301925050505050505091929192908035906020019064010000000081111561028b57600080fd5b82018360208201111561029d57600080fd5b803590602001918460208302840111640100000000831117156102bf57600080fd5b919080806020026020016040519081016040528093929190818152602001838360200280828437600081840152601f19601f82011690508083019250505050505050919291929080359060200190929190505050610a4b565b604051808215151515815260200191505060405180910390f35b61035e6004803603602081101561034857600080fd5b8101908080359060200190929190505050610aa5565b6040518082815260200191505060405180910390f35b6103a06004803603602081101561038a57600080fd5b8101908080359060200190929190505050610abd565b604051808373ffffffffffffffffffffffffffffffffffffffff1673ffffffffffffffffffffffffffffffffffffffff1681526020018273ffffffffffffffffffffffffffffffffffffffff1673ffffffffffffffffffffffffffffffffffffffff1681526020019250505060405180910390f35b600080600381111561042357fe5b60008084815260200190815260200160002060000160009054906101000a900460ff16600381111561045157fe5b10156104c5576040517f08c379a00000000000000000000000000000000000000000000000000000000081526004018080602001828103825260178152602001807f53657276696365206e6f6465206e6f7420666f756e642e00000000000000000081525060200191505060405180910390fd5b6001600083815260200190815260200160002060000160009054906101000a900473ffffffffffffffffffffffffffffffffffffffff1673ffffffffffffffffffffffffffffffffffffffff163373ffffffffffffffffffffffffffffffffffffffff161461059c576040517f08c379a000000000000000000000000000000000000000000000000000000000815260040180806020018281038252601f8152602001807f4e6f207065726d697373696f6e2e204f6e6c7920636f6e74726163746f722e0081525060200191505060405180910390fd5b6105a582610b21565b5060019050919050565b60006020528060005260406000206000915090508060000160009054906101000a900460ff16905081565b60008060038111156105e857fe5b60008085815260200190815260200160002060000160009054906101000a900460ff16600381111561061657fe5b14610689576040517f08c379a00000000000000000000000000000000000000000000000000000000081526004018080602001828103825260108152602001807f496e76616c696420736572766963652e0000000000000000000000000000000081525060200191505060405180910390fd5b6000801b600260008581526020019081526020016000205411610714576040517f08c379a000000000000000000000000000000000000000000000000000000000815260040180806020018281038252601b8152602001807f53657276696365206973206e6f2062696c6c696e6720756e69742e000000000081525060200191505060405180910390fd5b60405180604001604052803373ffffffffffffffffffffffffffffffffffffffff1681526020018373ffffffffffffffffffffffffffffffffffffffff168152506001600085815260200190815260200160002060008201518160000160006101000a81548173ffffffffffffffffffffffffffffffffffffffff021916908373ffffffffffffffffffffffffffffffffffffffff16021790555060208201518160010160006101000a81548173ffffffffffffffffffffffffffffffffffffffff021916908373ffffffffffffffffffffffffffffffffffffffff1602179055509050506001905092915050565b600080600381111561081157fe5b60008084815260200190815260200160002060000160009054906101000a900460ff16600381111561083f57fe5b10156108b3576040517f08c379a00000000000000000000000000000000000000000000000000000000081526004018080602001828103825260178152602001807f53657276696365206e6f6465206e6f7420666f756e642e00000000000000000081525060200191505060405180910390fd5b600260038111156108c057fe5b60008084815260200190815260200160002060000160009054906101000a900460ff1660038111156108ee57fe5b14610961576040517f08c379a000000000000000000000000000000000000000000000000000000000815260040180806020018281038252601a8152602001807f53657276696365206e6f6465206e6f742066696e69736865642e00000000000081525060200191505060405180910390fd5b6001600083815260200190815260200160002060000160009054906101000a900473ffffffffffffffffffffffffffffffffffffffff1673ffffffffffffffffffffffffffffffffffffffff163373ffffffffffffffffffffffffffffffffffffffff1614610a38576040517f08c379a000000000000000000000000000000000000000000000000000000000815260040180806020018281038252601b8152602001807f4e6f207065726d697373696f6e2e204f6e6c7920636c69656e742e000000000081525060200191505060405180910390fd5b610a4182610b21565b5060019050919050565b600080600090505b82811015610a9957610a8b858281518110610a6a57fe5b6020026020010151858381518110610a7e57fe5b6020026020010151610b9d565b508080600101915050610a53565b50600190509392505050565b60026020528060005260406000206000915090505481565b60016020528060005260406000206000915090508060000160009054906101000a900473ffffffffffffffffffffffffffffffffffffffff16908060010160009054906101000a900473ffffffffffffffffffffffffffffffffffffffff16905082565b6000600160008084815260200190815260200160002060000160009054906101000a900460ff166003811115610b5357fe5b016003811115610b5f57fe5b60008084815260200190815260200160002060000160006101000a81548160ff02191690836003811115610b8f57fe5b021790555060019050919050565b6000806003811115610bab57fe5b60008084815260200190815260200160002060000160009054906101000a900460ff166003811115610bd957fe5b1015610c4d576040517f08c379a000000000000000000000000000000000000000000000000000000000815260040180806020018281038252601e8152602001807f506172656e742073657276696365206e6f6465206e6f7420666f756e642e000081525060200191505060405180910390fd5b604051806040016040528060006003811115610c6557fe5b81526020016000604051908082528060200260200182016040528015610c9a5781602001602082028038833980820191505090505b5081525060008085815260200190815260200160002060008201518160000160006101000a81548160ff02191690836003811115610cd457fe5b02179055506020820151816001019080519060200190610cf5929190610d42565b509050506000808381526020019081526020016000206001018390806001815401808255809150509060018203906000526020600020016000909192909190915055506001905092915050565b828054828255906000526020600020908101928215610d7e579160200282015b82811115610d7d578251825591602001919060010190610d62565b5b509050610d8b9190610d8f565b5090565b610db191905b80821115610dad576000816000905550600101610d95565b5090565b9056fea265627a7a7231582061d4e1b4674003016e724258c6d28309276704ecdca37d5836173b8daf20f5e064736f6c63430005100032",
  "source": "// SPDX-License-Identifier: MIT\npragma solidity >=0.4.21 <0.7.1;\n\n// import '@openzeppelin/contracts/access/Roles.sol';\n\n/**\n * @title ServiceFactory\n * @dev Store & retreive value in a variable\n */\ncontract ServiceFactory {\n    enum Status {INITIALIZED, STARTED, FINISHED, APPROVED}\n\n    struct ServiceNode {\n        Status status;\n        bytes32[] children;\n    }\n\n    struct ServiceContract {\n        address client;\n        address contractor;\n    }\n\n    mapping(bytes32 => ServiceNode) public services; // Alle service nodes\n    mapping(bytes32 => ServiceContract) public contracts; // Service nodes die Verträge hinterlegt haben\n    mapping(bytes32 => bytes32) public billings; // Service nodes die abgerechnet werden können\n\n    /**\n     * @dev Creates a new service contract\n     * @param _hash The hash of the service to be created\n     */\n    function createServiceContract(bytes32 _hash, address _contractor)\n        public\n        returns (bool)\n    {\n        require(\n            services[_hash].status == Status.INITIALIZED,\n            'Invalid service.'\n        );\n        require(billings[_hash] > 0, 'Service is no billing unit.');\n        contracts[_hash] = ServiceContract(msg.sender, _contractor);\n        return true;\n    }\n\n    /**\n     * @dev Creates new service nodes\n     * @param _hashes The hashes of the services to be created\n     * @param _parents The hashes of the parents from the new services\n     */\n    function addServiceNodes(\n        bytes32[] memory _hashes,\n        bytes32[] memory _parents,\n        uint256 _len\n    ) public returns (bool) {\n        for (uint256 i = 0; i < _len; i++) {\n            _addServiceNode(_hashes[i], _parents[i]);\n        }\n        return true;\n    }\n\n    /**\n     * @dev Creates a new service node\n     * @param _hash The hash of the service to be created\n     * @param _parent The hash of the parent of the new service\n     */\n    function _addServiceNode(bytes32 _hash, bytes32 _parent)\n        internal\n        returns (bool)\n    {\n        require(\n            services[_parent].status >= Status.INITIALIZED,\n            'Parent service node not found.'\n        );\n        services[_hash] = ServiceNode(Status.INITIALIZED, new bytes32[](0));\n        services[_parent].children.push(_hash);\n        return true;\n    }\n\n    /**\n     * @dev Approves a service and emits a payment request\n     * @param _service The hash of the service node to be updated\n     */\n    function approveServiceNode(bytes32 _service) public returns (bool) {\n        require(\n            services[_service].status >= Status.INITIALIZED,\n            'Service node not found.'\n        );\n        require(\n            services[_service].status == Status.FINISHED,\n            'Service node not finished.'\n        );\n        require(\n            msg.sender == contracts[_service].client,\n            'No permission. Only client.'\n        );\n        _nextServiceStatus(_service);\n        //TODO submit payment if approved\n        return true;\n    }\n\n    /**\n     * @dev Sets the progress of a boq item and all of its items\n     * @param _service The hash of the service node to be updated\n     */\n    function nextServiceStatus(bytes32 _service) public returns (bool) {\n        require(\n            services[_service].status >= Status.INITIALIZED,\n            'Service node not found.'\n        );\n        require(\n            msg.sender == contracts[_service].client,\n            'No permission. Only contractor.'\n        );\n        _nextServiceStatus(_service);\n        return true;\n    }\n\n    /**\n     * @dev Sets the progress of a boq item and all of its items\n     * @param _service The hash of the service node to be updated\n     */\n    function _nextServiceStatus(bytes32 _service) internal returns (bool) {\n        services[_service].status = Status(\n            uint256(services[_service].status) + 1\n        );\n        //TODO update children\n        return true;\n    }\n}\n",
  "sourcePath": "C:/Users/fabia/WebstormProjects/bim-contracts/contracts/ServiceFactory.sol",
  "compiler": {
    "name": "solc",
    "version": "0.5.16+commit.9c3226ce.Emscripten.clang"
  },
  "schemaVersion": "3.2.4",
  "updatedAt": "2020-09-08T08:47:23.531Z",
  "networkType": "ethereum",
  "devdoc": {
    "details": "Store & retreive value in a variable",
    "methods": {
      "addServiceNodes(bytes32[],bytes32[],uint256)": {
        "details": "Creates new service nodes",
        "params": {
          "_hashes": "The hashes of the services to be created",
          "_parents": "The hashes of the parents from the new services"
        }
      },
      "approveServiceNode(bytes32)": {
        "details": "Approves a service and emits a payment request",
        "params": {
          "_service": "The hash of the service node to be updated"
        }
      },
      "createServiceContract(bytes32,address)": {
        "details": "Creates a new service contract",
        "params": {
          "_hash": "The hash of the service to be created"
        }
      },
      "nextServiceStatus(bytes32)": {
        "details": "Sets the progress of a boq item and all of its items",
        "params": {
          "_service": "The hash of the service node to be updated"
        }
      }
    },
    "title": "ServiceFactory"
  },
  "userdoc": {
    "methods": {}
  }
}