{
  "contractName": "ServiceContractFactory",
  "abi": [
    {
      "inputs": [
        {
          "internalType": "address",
          "name": "_implementation",
          "type": "address"
        }
      ],
      "payable": false,
      "stateMutability": "nonpayable",
      "type": "constructor"
    },
    {
      "constant": false,
      "inputs": [
        {
          "internalType": "bytes32",
          "name": "_contract",
          "type": "bytes32"
        },
        {
          "internalType": "address",
          "name": "_contractor",
          "type": "address"
        }
      ],
      "name": "create",
      "outputs": [
        {
          "internalType": "bool",
          "name": "",
          "type": "bool"
        }
      ],
      "payable": false,
      "stateMutability": "nonpayable",
      "type": "function"
    },
    {
      "constant": false,
      "inputs": [
        {
          "internalType": "bytes32",
          "name": "_contract",
          "type": "bytes32"
        },
        {
          "internalType": "bytes32",
          "name": "_super",
          "type": "bytes32"
        },
        {
          "internalType": "bytes32[]",
          "name": "_sections",
          "type": "bytes32[]"
        },
        {
          "internalType": "bytes32[]",
          "name": "_billings",
          "type": "bytes32[]"
        }
      ],
      "name": "addSections",
      "outputs": [
        {
          "internalType": "bool",
          "name": "",
          "type": "bool"
        }
      ],
      "payable": false,
      "stateMutability": "nonpayable",
      "type": "function"
    },
    {
      "constant": false,
      "inputs": [
        {
          "internalType": "bytes32",
          "name": "_contract",
          "type": "bytes32"
        },
        {
          "internalType": "bytes32",
          "name": "_section",
          "type": "bytes32"
        },
        {
          "internalType": "bytes32[]",
          "name": "_items",
          "type": "bytes32[]"
        },
        {
          "internalType": "bytes32[]",
          "name": "_billings",
          "type": "bytes32[]"
        }
      ],
      "name": "addItems",
      "outputs": [
        {
          "internalType": "bool",
          "name": "",
          "type": "bool"
        }
      ],
      "payable": false,
      "stateMutability": "nonpayable",
      "type": "function"
    },
    {
      "constant": true,
      "inputs": [
        {
          "internalType": "address",
          "name": "_client",
          "type": "address"
        }
      ],
      "name": "getContractsByClient",
      "outputs": [
        {
          "internalType": "bytes32[]",
          "name": "",
          "type": "bytes32[]"
        }
      ],
      "payable": false,
      "stateMutability": "view",
      "type": "function"
    },
    {
      "constant": true,
      "inputs": [
        {
          "internalType": "address",
          "name": "_contractor",
          "type": "address"
        }
      ],
      "name": "getContractsByContractor",
      "outputs": [
        {
          "internalType": "bytes32[]",
          "name": "",
          "type": "bytes32[]"
        }
      ],
      "payable": false,
      "stateMutability": "view",
      "type": "function"
    },
    {
      "constant": true,
      "inputs": [
        {
          "internalType": "bytes32",
          "name": "_super",
          "type": "bytes32"
        }
      ],
      "name": "sectionsOf",
      "outputs": [
        {
          "internalType": "bytes32[]",
          "name": "",
          "type": "bytes32[]"
        }
      ],
      "payable": false,
      "stateMutability": "view",
      "type": "function"
    },
    {
      "constant": true,
      "inputs": [
        {
          "internalType": "bytes32",
          "name": "_section",
          "type": "bytes32"
        }
      ],
      "name": "itemsOf",
      "outputs": [
        {
          "internalType": "bytes32[]",
          "name": "",
          "type": "bytes32[]"
        }
      ],
      "payable": false,
      "stateMutability": "view",
      "type": "function"
    },
    {
      "constant": true,
      "inputs": [
        {
          "internalType": "bytes32",
          "name": "_item",
          "type": "bytes32"
        }
      ],
      "name": "stageOf",
      "outputs": [
        {
          "internalType": "enum StateMachine.Stages",
          "name": "",
          "type": "uint8"
        }
      ],
      "payable": false,
      "stateMutability": "view",
      "type": "function"
    },
    {
      "constant": false,
      "inputs": [
        {
          "internalType": "bytes32",
          "name": "_item",
          "type": "bytes32"
        }
      ],
      "name": "start",
      "outputs": [
        {
          "internalType": "bool",
          "name": "",
          "type": "bool"
        }
      ],
      "payable": false,
      "stateMutability": "nonpayable",
      "type": "function"
    },
    {
      "constant": false,
      "inputs": [
        {
          "internalType": "bytes32",
          "name": "_item",
          "type": "bytes32"
        }
      ],
      "name": "finish",
      "outputs": [
        {
          "internalType": "bool",
          "name": "",
          "type": "bool"
        }
      ],
      "payable": false,
      "stateMutability": "nonpayable",
      "type": "function"
    },
    {
      "constant": false,
      "inputs": [
        {
          "internalType": "bytes32",
          "name": "_item",
          "type": "bytes32"
        }
      ],
      "name": "approve",
      "outputs": [
        {
          "internalType": "bool",
          "name": "",
          "type": "bool"
        }
      ],
      "payable": false,
      "stateMutability": "nonpayable",
      "type": "function"
    },
    {
      "constant": false,
      "inputs": [
        {
          "internalType": "bytes32",
          "name": "_item",
          "type": "bytes32"
        }
      ],
      "name": "reject",
      "outputs": [
        {
          "internalType": "bool",
          "name": "",
          "type": "bool"
        }
      ],
      "payable": false,
      "stateMutability": "nonpayable",
      "type": "function"
    },
    {
      "constant": false,
      "inputs": [
        {
          "internalType": "bytes32",
          "name": "_item",
          "type": "bytes32"
        }
      ],
      "name": "pay",
      "outputs": [
        {
          "internalType": "bool",
          "name": "",
          "type": "bool"
        }
      ],
      "payable": false,
      "stateMutability": "nonpayable",
      "type": "function"
    }
  ],
  "bytecode": "0x608060405234801561001057600080fd5b50604051611ddd380380611ddd8339818101604052602081101561003357600080fd5b8101908080519060200190929190505050806000806101000a81548173ffffffffffffffffffffffffffffffffffffffff021916908373ffffffffffffffffffffffffffffffffffffffff16021790555050611d49806100946000396000f3fe608060405234801561001057600080fd5b50600436106100cf5760003560e01c80636c91047a1161008c578063a6bd076e11610066578063a6bd076e146104f5578063cabd734f146105ef578063d6d4276814610635578063fde63056146106ce576100cf565b80636c91047a146104195780638609cad114610469578063a53a1adf146104af576100cf565b8063015a18ed146100d457806317f581c61461011a578063434b5399146101b35780635b619c4214610236578063663ff5a9146102b9578063686f2e9d1461031f575b600080fd5b610100600480360360208110156100ea57600080fd5b8101908080359060200190929190505050610714565b604051808215151515815260200191505060405180910390f35b61015c6004803603602081101561013057600080fd5b81019080803573ffffffffffffffffffffffffffffffffffffffff1690602001909291905050506108bd565b6040518080602001828103825283818151815260200191508051906020019060200280838360005b8381101561019f578082015181840152602081019050610184565b505050509050019250505060405180910390f35b6101df600480360360208110156101c957600080fd5b8101908080359060200190929190505050610954565b6040518080602001828103825283818151815260200191508051906020019060200280838360005b83811015610222578082015181840152602081019050610207565b505050509050019250505060405180910390f35b6102626004803603602081101561024c57600080fd5b8101908080359060200190929190505050610a8b565b6040518080602001828103825283818151815260200191508051906020019060200280838360005b838110156102a557808201518184015260208101905061028a565b505050509050019250505060405180910390f35b610305600480360360408110156102cf57600080fd5b8101908080359060200190929190803573ffffffffffffffffffffffffffffffffffffffff169060200190929190505050610bc2565b604051808215151515815260200191505060405180910390f35b6103ff6004803603608081101561033557600080fd5b8101908080359060200190929190803590602001909291908035906020019064010000000081111561036657600080fd5b82018360208201111561037857600080fd5b8035906020019184602083028401116401000000008311171561039a57600080fd5b9091929391929390803590602001906401000000008111156103bb57600080fd5b8201836020820111156103cd57600080fd5b803590602001918460208302840111640100000000831117156103ef57600080fd5b9091929391929390505050610e0b565b604051808215151515815260200191505060405180910390f35b6104456004803603602081101561042f57600080fd5b8101908080359060200190929190505050611036565b6040518082600681111561045557fe5b60ff16815260200191505060405180910390f35b6104956004803603602081101561047f57600080fd5b81019080803590602001909291905050506110d3565b604051808215151515815260200191505060405180910390f35b6104db600480360360208110156104c557600080fd5b810190808035906020019092919050505061127c565b604051808215151515815260200191505060405180910390f35b6105d56004803603608081101561050b57600080fd5b8101908080359060200190929190803590602001909291908035906020019064010000000081111561053c57600080fd5b82018360208201111561054e57600080fd5b8035906020019184602083028401116401000000008311171561057057600080fd5b90919293919293908035906020019064010000000081111561059157600080fd5b8201836020820111156105a357600080fd5b803590602001918460208302840111640100000000831117156105c557600080fd5b9091929391929390505050611425565b604051808215151515815260200191505060405180910390f35b61061b6004803603602081101561060557600080fd5b81019080803590602001909291905050506116d9565b604051808215151515815260200191505060405180910390f35b6106776004803603602081101561064b57600080fd5b81019080803573ffffffffffffffffffffffffffffffffffffffff169060200190929190505050611882565b6040518080602001828103825283818151815260200191508051906020019060200280838360005b838110156106ba57808201518184015260208101905061069f565b505050509050019250505060405180910390f35b6106fa600480360360208110156106e457600080fd5b8101908080359060200190929190505050611919565b604051808215151515815260200191505060405180910390f35b600061071f82611ac2565b8073ffffffffffffffffffffffffffffffffffffffff1663b6cb405b6040518163ffffffff1660e01b815260040160206040518083038186803b15801561076557600080fd5b505afa158015610779573d6000803e3d6000fd5b505050506040513d602081101561078f57600080fd5b810190808051906020019092919050505073ffffffffffffffffffffffffffffffffffffffff163373ffffffffffffffffffffffffffffffffffffffff1614610840576040517f08c379a000000000000000000000000000000000000000000000000000000000815260040180806020018281038252601d8152602001807f4e6f7420616c6c6f7765642e204f6e6c7920636f6e74726163746f722e00000081525060200191505060405180910390fd5b61084983611ac2565b73ffffffffffffffffffffffffffffffffffffffff1663015a18ed846040518263ffffffff1660e01b815260040180828152602001915050600060405180830381600087803b15801561089b57600080fd5b505af11580156108af573d6000803e3d6000fd5b505050506001915050919050565b6060600360008373ffffffffffffffffffffffffffffffffffffffff1673ffffffffffffffffffffffffffffffffffffffff16815260200190815260200160002080548060200260200160405190810160405280929190818152602001828054801561094857602002820191906000526020600020905b815481526020019060010190808311610934575b50505050509050919050565b606061095f82611ac2565b73ffffffffffffffffffffffffffffffffffffffff16637572fba3836040518263ffffffff1660e01b81526004018082815260200191505060006040518083038186803b1580156109af57600080fd5b505afa1580156109c3573d6000803e3d6000fd5b505050506040513d6000823e3d601f19601f8201168201806040525060208110156109ed57600080fd5b8101908080516040519392919084640100000000821115610a0d57600080fd5b83820191506020820185811115610a2357600080fd5b8251866020820283011164010000000082111715610a4057600080fd5b8083526020830192505050908051906020019060200280838360005b83811015610a77578082015181840152602081019050610a5c565b505050509050016040525050509050919050565b6060610a9682611ac2565b73ffffffffffffffffffffffffffffffffffffffff166353677b20836040518263ffffffff1660e01b81526004018082815260200191505060006040518083038186803b158015610ae657600080fd5b505afa158015610afa573d6000803e3d6000fd5b505050506040513d6000823e3d601f19601f820116820180604052506020811015610b2457600080fd5b8101908080516040519392919084640100000000821115610b4457600080fd5b83820191506020820185811115610b5a57600080fd5b8251866020820283011164010000000082111715610b7757600080fd5b8083526020830192505050908051906020019060200280838360005b83811015610bae578082015181840152602081019050610b93565b505050509050016040525050509050919050565b600080610bef6000809054906101000a900473ffffffffffffffffffffffffffffffffffffffff16611b72565b9050806002600086815260200190815260200160002060006101000a81548173ffffffffffffffffffffffffffffffffffffffff021916908373ffffffffffffffffffffffffffffffffffffffff160217905550836001600086815260200190815260200160002081905550610c6484611bdc565b73ffffffffffffffffffffffffffffffffffffffff1663f09a401633856040518363ffffffff1660e01b8152600401808373ffffffffffffffffffffffffffffffffffffffff1673ffffffffffffffffffffffffffffffffffffffff1681526020018273ffffffffffffffffffffffffffffffffffffffff1673ffffffffffffffffffffffffffffffffffffffff16815260200192505050600060405180830381600087803b158015610d1657600080fd5b505af1158015610d2a573d6000803e3d6000fd5b50505050600360008473ffffffffffffffffffffffffffffffffffffffff1673ffffffffffffffffffffffffffffffffffffffff168152602001908152602001600020849080600181540180825580915050906001820390600052602060002001600090919290919091505550600460003373ffffffffffffffffffffffffffffffffffffffff1673ffffffffffffffffffffffffffffffffffffffff168152602001908152602001600020849080600181540180825580915050906001820390600052602060002001600090919290919091505550600191505092915050565b6000610e1687611bdc565b8073ffffffffffffffffffffffffffffffffffffffff166359dc735c6040518163ffffffff1660e01b815260040160206040518083038186803b158015610e5c57600080fd5b505afa158015610e70573d6000803e3d6000fd5b505050506040513d6020811015610e8657600080fd5b810190808051906020019092919050505073ffffffffffffffffffffffffffffffffffffffff163373ffffffffffffffffffffffffffffffffffffffff1614610f37576040517f08c379a00000000000000000000000000000000000000000000000000000000081526004018080602001828103825260198152602001807f4e6f7420616c6c6f7765642e204f6e6c7920636c69656e742e0000000000000081525060200191505060405180910390fd5b60008090505b84849050811015611026578860016000898985818110610f5957fe5b90506020020135815260200190815260200160002081905550610f7b89611bdc565b73ffffffffffffffffffffffffffffffffffffffff1663ea9a157289898985818110610fa357fe5b90506020020135888886818110610fb657fe5b905060200201356040518463ffffffff1660e01b8152600401808481526020018381526020018281526020019350505050600060405180830381600087803b15801561100157600080fd5b505af1158015611015573d6000803e3d6000fd5b505050508080600101915050610f3d565b5060019150509695505050505050565b600061104182611ac2565b73ffffffffffffffffffffffffffffffffffffffff16636c91047a836040518263ffffffff1660e01b81526004018082815260200191505060206040518083038186803b15801561109157600080fd5b505afa1580156110a5573d6000803e3d6000fd5b505050506040513d60208110156110bb57600080fd5b81019080805190602001909291905050509050919050565b60006110de82611ac2565b8073ffffffffffffffffffffffffffffffffffffffff166359dc735c6040518163ffffffff1660e01b815260040160206040518083038186803b15801561112457600080fd5b505afa158015611138573d6000803e3d6000fd5b505050506040513d602081101561114e57600080fd5b810190808051906020019092919050505073ffffffffffffffffffffffffffffffffffffffff163373ffffffffffffffffffffffffffffffffffffffff16146111ff576040517f08c379a00000000000000000000000000000000000000000000000000000000081526004018080602001828103825260198152602001807f4e6f7420616c6c6f7765642e204f6e6c7920636c69656e742e0000000000000081525060200191505060405180910390fd5b61120883611ac2565b73ffffffffffffffffffffffffffffffffffffffff16638609cad1846040518263ffffffff1660e01b815260040180828152602001915050600060405180830381600087803b15801561125a57600080fd5b505af115801561126e573d6000803e3d6000fd5b505050506001915050919050565b600061128782611ac2565b8073ffffffffffffffffffffffffffffffffffffffff166359dc735c6040518163ffffffff1660e01b815260040160206040518083038186803b1580156112cd57600080fd5b505afa1580156112e1573d6000803e3d6000fd5b505050506040513d60208110156112f757600080fd5b810190808051906020019092919050505073ffffffffffffffffffffffffffffffffffffffff163373ffffffffffffffffffffffffffffffffffffffff16146113a8576040517f08c379a00000000000000000000000000000000000000000000000000000000081526004018080602001828103825260198152602001807f4e6f7420616c6c6f7765642e204f6e6c7920636c69656e742e0000000000000081525060200191505060405180910390fd5b6113b183611ac2565b73ffffffffffffffffffffffffffffffffffffffff1663a53a1adf846040518263ffffffff1660e01b815260040180828152602001915050600060405180830381600087803b15801561140357600080fd5b505af1158015611417573d6000803e3d6000fd5b505050506001915050919050565b600061143087611bdc565b8073ffffffffffffffffffffffffffffffffffffffff166359dc735c6040518163ffffffff1660e01b815260040160206040518083038186803b15801561147657600080fd5b505afa15801561148a573d6000803e3d6000fd5b505050506040513d60208110156114a057600080fd5b810190808051906020019092919050505073ffffffffffffffffffffffffffffffffffffffff163373ffffffffffffffffffffffffffffffffffffffff1614611551576040517f08c379a00000000000000000000000000000000000000000000000000000000081526004018080602001828103825260198152602001807f4e6f7420616c6c6f7765642e204f6e6c7920636c69656e742e0000000000000081525060200191505060405180910390fd5b8383905086869050146115af576040517f08c379a0000000000000000000000000000000000000000000000000000000008152600401808060200182810382526027815260200180611cee6027913960400191505060405180910390fd5b60008090505b868690508110156116c95788600160008989858181106115d157fe5b90506020020135815260200190815260200160002081905550600260008a815260200190815260200160002060009054906101000a900473ffffffffffffffffffffffffffffffffffffffff1673ffffffffffffffffffffffffffffffffffffffff16636f95a6198989898581811061164657fe5b9050602002013588888681811061165957fe5b905060200201356040518463ffffffff1660e01b8152600401808481526020018381526020018281526020019350505050600060405180830381600087803b1580156116a457600080fd5b505af11580156116b8573d6000803e3d6000fd5b5050505080806001019150506115b5565b5060019150509695505050505050565b60006116e482611ac2565b8073ffffffffffffffffffffffffffffffffffffffff166359dc735c6040518163ffffffff1660e01b815260040160206040518083038186803b15801561172a57600080fd5b505afa15801561173e573d6000803e3d6000fd5b505050506040513d602081101561175457600080fd5b810190808051906020019092919050505073ffffffffffffffffffffffffffffffffffffffff163373ffffffffffffffffffffffffffffffffffffffff1614611805576040517f08c379a00000000000000000000000000000000000000000000000000000000081526004018080602001828103825260198152602001807f4e6f7420616c6c6f7765642e204f6e6c7920636c69656e742e0000000000000081525060200191505060405180910390fd5b61180e83611ac2565b73ffffffffffffffffffffffffffffffffffffffff1663cabd734f846040518263ffffffff1660e01b815260040180828152602001915050600060405180830381600087803b15801561186057600080fd5b505af1158015611874573d6000803e3d6000fd5b505050506001915050919050565b6060600460008373ffffffffffffffffffffffffffffffffffffffff1673ffffffffffffffffffffffffffffffffffffffff16815260200190815260200160002080548060200260200160405190810160405280929190818152602001828054801561190d57602002820191906000526020600020905b8154815260200190600101908083116118f9575b50505050509050919050565b600061192482611ac2565b8073ffffffffffffffffffffffffffffffffffffffff1663b6cb405b6040518163ffffffff1660e01b815260040160206040518083038186803b15801561196a57600080fd5b505afa15801561197e573d6000803e3d6000fd5b505050506040513d602081101561199457600080fd5b810190808051906020019092919050505073ffffffffffffffffffffffffffffffffffffffff163373ffffffffffffffffffffffffffffffffffffffff1614611a45576040517f08c379a000000000000000000000000000000000000000000000000000000000815260040180806020018281038252601d8152602001807f4e6f7420616c6c6f7765642e204f6e6c7920636f6e74726163746f722e00000081525060200191505060405180910390fd5b611a4e83611ac2565b73ffffffffffffffffffffffffffffffffffffffff1663fde63056846040518263ffffffff1660e01b815260040180828152602001915050600060405180830381600087803b158015611aa057600080fd5b505af1158015611ab4573d6000803e3d6000fd5b505050506001915050919050565b60008060001b600160008481526020019081526020016000205411611b4f576040517f08c379a00000000000000000000000000000000000000000000000000000000081526004018080602001828103825260198152602001807f436f6e747261637420646f6573206e6f74206578697374732e0000000000000081525060200191505060405180910390fd5b611b6b6001600084815260200190815260200160002054611bdc565b9050919050565b6000808260601b90506040517f3d602d80600a3d3981f3363d3d373d3d3d363d7300000000000000000000000081528160148201527f5af43d82803e903d91602b57fd5bf3000000000000000000000000000000000060288201526037816000f092505050919050565b60008073ffffffffffffffffffffffffffffffffffffffff166002600084815260200190815260200160002060009054906101000a900473ffffffffffffffffffffffffffffffffffffffff1673ffffffffffffffffffffffffffffffffffffffff1611611cb2576040517f08c379a00000000000000000000000000000000000000000000000000000000081526004018080602001828103825260198152602001807f436f6e747261637420646f6573206e6f74206578697374732e0000000000000081525060200191505060405180910390fd5b6002600083815260200190815260200160002060009054906101000a900473ffffffffffffffffffffffffffffffffffffffff16905091905056fe50726f7669646564206974656d73206f722062696c6c696e67732061726520696e76616c69642ea265627a7a723158201845cd979f6523cb39515bfa2ea3912c83965181d05ce45fac55fef17a084ab064736f6c63430005100032",
  "source": "// SPDX-License-Identifier: MIT\npragma solidity >=0.4.21 <0.7.1;\n\nimport './ServiceContract.sol';\nimport './CloneFactory.sol';\n\ncontract ServiceContractFactory is CloneFactory {\n    address private implementation;\n\n    constructor(address _implementation) public {\n        implementation = _implementation;\n    }\n\n    mapping(bytes32 => bytes32) contracts; // section or item -> contract\n    mapping(bytes32 => address) instances; // contract hash to contract address\n\n    mapping(address => bytes32[]) contractsByContractor; // contractor to contract hashes\n    mapping(address => bytes32[]) contractsByClient; // client to contract hashes\n\n    modifier onlyClient(ServiceContract _instance) {\n        require(\n            msg.sender == _instance.getClient(),\n            'Not allowed. Only client.'\n        );\n        _;\n    }\n\n    modifier onlyContractor(ServiceContract _instance) {\n        require(\n            msg.sender == _instance.getContractor(),\n            'Not allowed. Only contractor.'\n        );\n        _;\n    }\n\n    function create(bytes32 _contract, address _contractor)\n        public\n        returns (bool)\n    {\n        address clone = createClone(implementation);\n        instances[_contract] = clone;\n        contracts[_contract] = _contract; // Include contract in contract pointers, as it is super of first level sections or items\n        _instanceByContract(_contract).init(msg.sender, _contractor);\n        contractsByContractor[_contractor].push(_contract);\n        contractsByClient[msg.sender].push(_contract);\n        return true;\n    }\n\n    function addSections(\n        bytes32 _contract,\n        bytes32 _super,\n        bytes32[] calldata _sections,\n        bytes32[] calldata _billings\n    ) external onlyClient(_instanceByContract(_contract)) returns (bool) {\n        for (uint256 i = 0; i < _billings.length; i++) {\n            contracts[_sections[i]] = _contract;\n            _instanceByContract(_contract).setSectionOf(\n                _super,\n                _sections[i],\n                _billings[i]\n            );\n        }\n        return true;\n    }\n\n    function addItems(\n        bytes32 _contract,\n        bytes32 _section,\n        bytes32[] calldata _items,\n        bytes32[] calldata _billings\n    ) external onlyClient(_instanceByContract(_contract)) returns (bool) {\n        require(\n            _items.length == _billings.length,\n            'Provided items or billings are invalid.'\n        );\n        for (uint256 i = 0; i < _items.length; i++) {\n            contracts[_items[i]] = _contract;\n            ServiceContract(instances[_contract]).setItemOf(\n                _section,\n                _items[i],\n                _billings[i]\n            );\n        }\n        return true;\n    }\n\n    function getContractsByClient(address _client)\n        external\n        view\n        returns (bytes32[] memory)\n    {\n        return contractsByClient[_client];\n    }\n\n    function getContractsByContractor(address _contractor)\n        external\n        view\n        returns (bytes32[] memory)\n    {\n        return contractsByContractor[_contractor];\n    }\n\n    function sectionsOf(bytes32 _super)\n        external\n        view\n        returns (bytes32[] memory)\n    {\n        return _instanceByService(_super).getSectionsOf(_super);\n    }\n\n    function itemsOf(bytes32 _section)\n        external\n        view\n        returns (bytes32[] memory)\n    {\n        return _instanceByService(_section).getItemsOf(_section);\n    }\n\n    function stageOf(bytes32 _item)\n        public\n        view\n        returns (ServiceContract.Stages)\n    {\n        return _instanceByService(_item).stageOf(_item);\n    }\n\n    function start(bytes32 _item)\n        external\n        onlyContractor(_instanceByService(_item))\n        returns (bool)\n    {\n        _instanceByService(_item).start(_item);\n        return true;\n    }\n\n    function finish(bytes32 _item)\n        external\n        onlyContractor(_instanceByService(_item))\n        returns (bool)\n    {\n        _instanceByService(_item).finish(_item);\n        return true;\n    }\n\n    function approve(bytes32 _item)\n        external\n        onlyClient(_instanceByService(_item))\n        returns (bool)\n    {\n        _instanceByService(_item).approve(_item);\n        return true;\n    }\n\n    function reject(bytes32 _item)\n        external\n        onlyClient(_instanceByService(_item))\n        returns (bool)\n    {\n        _instanceByService(_item).reject(_item);\n        return true;\n    }\n\n    function pay(bytes32 _item)\n        external\n        onlyClient(_instanceByService(_item))\n        returns (bool)\n    {\n        _instanceByService(_item).pay(_item);\n        return true;\n    }\n\n    function _instanceByContract(bytes32 _contract)\n        internal\n        view\n        returns (ServiceContract)\n    {\n        require(instances[_contract] > address(0), 'Contract does not exists.');\n        return ServiceContract(instances[_contract]);\n    }\n\n    function _instanceByService(bytes32 _service)\n        internal\n        view\n        returns (ServiceContract)\n    {\n        require(contracts[_service] > 0, 'Contract does not exists.');\n        return _instanceByContract(contracts[_service]);\n    }\n}\n",
  "sourcePath": "C:/Users/fabia/WebstormProjects/bim-contracts/contracts/ServiceContractFactory.sol",
  "compiler": {
    "name": "solc",
    "version": "0.5.16+commit.9c3226ce.Emscripten.clang"
  },
  "schemaVersion": "3.2.4",
  "updatedAt": "2020-10-07T16:18:23.952Z",
  "networkType": "ethereum",
  "devdoc": {
    "methods": {}
  },
  "userdoc": {
    "methods": {}
  }
}