{
  "contractName": "ServiceContractFactory",
  "abi": [
    {
      "inputs": [
        {
          "internalType": "address",
          "name": "_implementation",
          "type": "address"
        }
      ],
      "payable": false,
      "stateMutability": "nonpayable",
      "type": "constructor"
    },
    {
      "constant": false,
      "inputs": [
        {
          "internalType": "bytes32",
          "name": "_contract",
          "type": "bytes32"
        },
        {
          "internalType": "address",
          "name": "_contractor",
          "type": "address"
        }
      ],
      "name": "create",
      "outputs": [
        {
          "internalType": "bool",
          "name": "",
          "type": "bool"
        }
      ],
      "payable": false,
      "stateMutability": "nonpayable",
      "type": "function"
    },
    {
      "constant": false,
      "inputs": [
        {
          "internalType": "bytes32",
          "name": "_contract",
          "type": "bytes32"
        },
        {
          "internalType": "bytes32",
          "name": "_super",
          "type": "bytes32"
        },
        {
          "internalType": "bytes32[]",
          "name": "_sections",
          "type": "bytes32[]"
        },
        {
          "internalType": "bytes32[]",
          "name": "_billings",
          "type": "bytes32[]"
        }
      ],
      "name": "addSections",
      "outputs": [
        {
          "internalType": "bool",
          "name": "",
          "type": "bool"
        }
      ],
      "payable": false,
      "stateMutability": "nonpayable",
      "type": "function"
    },
    {
      "constant": false,
      "inputs": [
        {
          "internalType": "bytes32",
          "name": "_contract",
          "type": "bytes32"
        },
        {
          "internalType": "bytes32",
          "name": "_section",
          "type": "bytes32"
        },
        {
          "internalType": "bytes32[]",
          "name": "_items",
          "type": "bytes32[]"
        },
        {
          "internalType": "bytes32[]",
          "name": "_billings",
          "type": "bytes32[]"
        }
      ],
      "name": "addItems",
      "outputs": [
        {
          "internalType": "bool",
          "name": "",
          "type": "bool"
        }
      ],
      "payable": false,
      "stateMutability": "nonpayable",
      "type": "function"
    },
    {
      "constant": true,
      "inputs": [
        {
          "internalType": "bytes32",
          "name": "_super",
          "type": "bytes32"
        }
      ],
      "name": "sectionsOf",
      "outputs": [
        {
          "internalType": "bytes32[]",
          "name": "",
          "type": "bytes32[]"
        }
      ],
      "payable": false,
      "stateMutability": "view",
      "type": "function"
    },
    {
      "constant": true,
      "inputs": [
        {
          "internalType": "bytes32",
          "name": "_section",
          "type": "bytes32"
        }
      ],
      "name": "itemsOf",
      "outputs": [
        {
          "internalType": "bytes32[]",
          "name": "",
          "type": "bytes32[]"
        }
      ],
      "payable": false,
      "stateMutability": "view",
      "type": "function"
    },
    {
      "constant": true,
      "inputs": [
        {
          "internalType": "bytes32",
          "name": "_item",
          "type": "bytes32"
        }
      ],
      "name": "stageOf",
      "outputs": [
        {
          "internalType": "enum StateMachine.Stages",
          "name": "",
          "type": "uint8"
        }
      ],
      "payable": false,
      "stateMutability": "view",
      "type": "function"
    },
    {
      "constant": false,
      "inputs": [
        {
          "internalType": "bytes32",
          "name": "_item",
          "type": "bytes32"
        }
      ],
      "name": "start",
      "outputs": [
        {
          "internalType": "bool",
          "name": "",
          "type": "bool"
        }
      ],
      "payable": false,
      "stateMutability": "nonpayable",
      "type": "function"
    },
    {
      "constant": false,
      "inputs": [
        {
          "internalType": "bytes32",
          "name": "_item",
          "type": "bytes32"
        }
      ],
      "name": "finish",
      "outputs": [
        {
          "internalType": "bool",
          "name": "",
          "type": "bool"
        }
      ],
      "payable": false,
      "stateMutability": "nonpayable",
      "type": "function"
    },
    {
      "constant": false,
      "inputs": [
        {
          "internalType": "bytes32",
          "name": "_item",
          "type": "bytes32"
        }
      ],
      "name": "approve",
      "outputs": [
        {
          "internalType": "bool",
          "name": "",
          "type": "bool"
        }
      ],
      "payable": false,
      "stateMutability": "nonpayable",
      "type": "function"
    },
    {
      "constant": false,
      "inputs": [
        {
          "internalType": "bytes32",
          "name": "_item",
          "type": "bytes32"
        }
      ],
      "name": "reject",
      "outputs": [
        {
          "internalType": "bool",
          "name": "",
          "type": "bool"
        }
      ],
      "payable": false,
      "stateMutability": "nonpayable",
      "type": "function"
    },
    {
      "constant": false,
      "inputs": [
        {
          "internalType": "bytes32",
          "name": "_item",
          "type": "bytes32"
        }
      ],
      "name": "pay",
      "outputs": [
        {
          "internalType": "bool",
          "name": "",
          "type": "bool"
        }
      ],
      "payable": false,
      "stateMutability": "nonpayable",
      "type": "function"
    }
  ],
  "bytecode": "0x608060405234801561001057600080fd5b50604051611b57380380611b578339818101604052602081101561003357600080fd5b8101908080519060200190929190505050806000806101000a81548173ffffffffffffffffffffffffffffffffffffffff021916908373ffffffffffffffffffffffffffffffffffffffff16021790555050611ac3806100946000396000f3fe608060405234801561001057600080fd5b50600436106100a95760003560e01c80636c91047a116100715780636c91047a1461035a5780638609cad1146103aa578063a53a1adf146103f0578063a6bd076e14610436578063cabd734f14610530578063fde6305614610576576100a9565b8063015a18ed146100ae578063434b5399146100f45780635b619c4214610177578063663ff5a9146101fa578063686f2e9d14610260575b600080fd5b6100da600480360360208110156100c457600080fd5b81019080803590602001909291905050506105bc565b604051808215151515815260200191505060405180910390f35b6101206004803603602081101561010a57600080fd5b8101908080359060200190929190505050610765565b6040518080602001828103825283818151815260200191508051906020019060200280838360005b83811015610163578082015181840152602081019050610148565b505050509050019250505060405180910390f35b6101a36004803603602081101561018d57600080fd5b810190808035906020019092919050505061089c565b6040518080602001828103825283818151815260200191508051906020019060200280838360005b838110156101e65780820151818401526020810190506101cb565b505050509050019250505060405180910390f35b6102466004803603604081101561021057600080fd5b8101908080359060200190929190803573ffffffffffffffffffffffffffffffffffffffff1690602001909291905050506109d3565b604051808215151515815260200191505060405180910390f35b6103406004803603608081101561027657600080fd5b810190808035906020019092919080359060200190929190803590602001906401000000008111156102a757600080fd5b8201836020820111156102b957600080fd5b803590602001918460208302840111640100000000831117156102db57600080fd5b9091929391929390803590602001906401000000008111156102fc57600080fd5b82018360208201111561030e57600080fd5b8035906020019184602083028401116401000000008311171561033057600080fd5b9091929391929390505050610c1c565b604051808215151515815260200191505060405180910390f35b6103866004803603602081101561037057600080fd5b8101908080359060200190929190505050610e47565b6040518082600681111561039657fe5b60ff16815260200191505060405180910390f35b6103d6600480360360208110156103c057600080fd5b8101908080359060200190929190505050610ee4565b604051808215151515815260200191505060405180910390f35b61041c6004803603602081101561040657600080fd5b810190808035906020019092919050505061108d565b604051808215151515815260200191505060405180910390f35b6105166004803603608081101561044c57600080fd5b8101908080359060200190929190803590602001909291908035906020019064010000000081111561047d57600080fd5b82018360208201111561048f57600080fd5b803590602001918460208302840111640100000000831117156104b157600080fd5b9091929391929390803590602001906401000000008111156104d257600080fd5b8201836020820111156104e457600080fd5b8035906020019184602083028401116401000000008311171561050657600080fd5b9091929391929390505050611236565b604051808215151515815260200191505060405180910390f35b61055c6004803603602081101561054657600080fd5b81019080803590602001909291905050506114ea565b604051808215151515815260200191505060405180910390f35b6105a26004803603602081101561058c57600080fd5b8101908080359060200190929190505050611693565b604051808215151515815260200191505060405180910390f35b60006105c78261183c565b8073ffffffffffffffffffffffffffffffffffffffff1663b6cb405b6040518163ffffffff1660e01b815260040160206040518083038186803b15801561060d57600080fd5b505afa158015610621573d6000803e3d6000fd5b505050506040513d602081101561063757600080fd5b810190808051906020019092919050505073ffffffffffffffffffffffffffffffffffffffff163373ffffffffffffffffffffffffffffffffffffffff16146106e8576040517f08c379a000000000000000000000000000000000000000000000000000000000815260040180806020018281038252601d8152602001807f4e6f7420616c6c6f7765642e204f6e6c7920636f6e74726163746f722e00000081525060200191505060405180910390fd5b6106f18361183c565b73ffffffffffffffffffffffffffffffffffffffff1663015a18ed846040518263ffffffff1660e01b815260040180828152602001915050600060405180830381600087803b15801561074357600080fd5b505af1158015610757573d6000803e3d6000fd5b505050506001915050919050565b60606107708261183c565b73ffffffffffffffffffffffffffffffffffffffff16637572fba3836040518263ffffffff1660e01b81526004018082815260200191505060006040518083038186803b1580156107c057600080fd5b505afa1580156107d4573d6000803e3d6000fd5b505050506040513d6000823e3d601f19601f8201168201806040525060208110156107fe57600080fd5b810190808051604051939291908464010000000082111561081e57600080fd5b8382019150602082018581111561083457600080fd5b825186602082028301116401000000008211171561085157600080fd5b8083526020830192505050908051906020019060200280838360005b8381101561088857808201518184015260208101905061086d565b505050509050016040525050509050919050565b60606108a78261183c565b73ffffffffffffffffffffffffffffffffffffffff166353677b20836040518263ffffffff1660e01b81526004018082815260200191505060006040518083038186803b1580156108f757600080fd5b505afa15801561090b573d6000803e3d6000fd5b505050506040513d6000823e3d601f19601f82011682018060405250602081101561093557600080fd5b810190808051604051939291908464010000000082111561095557600080fd5b8382019150602082018581111561096b57600080fd5b825186602082028301116401000000008211171561098857600080fd5b8083526020830192505050908051906020019060200280838360005b838110156109bf5780820151818401526020810190506109a4565b505050509050016040525050509050919050565b600080610a006000809054906101000a900473ffffffffffffffffffffffffffffffffffffffff166118ec565b9050806002600086815260200190815260200160002060006101000a81548173ffffffffffffffffffffffffffffffffffffffff021916908373ffffffffffffffffffffffffffffffffffffffff160217905550836001600086815260200190815260200160002081905550610a7584611956565b73ffffffffffffffffffffffffffffffffffffffff1663f09a401633856040518363ffffffff1660e01b8152600401808373ffffffffffffffffffffffffffffffffffffffff1673ffffffffffffffffffffffffffffffffffffffff1681526020018273ffffffffffffffffffffffffffffffffffffffff1673ffffffffffffffffffffffffffffffffffffffff16815260200192505050600060405180830381600087803b158015610b2757600080fd5b505af1158015610b3b573d6000803e3d6000fd5b50505050600360008473ffffffffffffffffffffffffffffffffffffffff1673ffffffffffffffffffffffffffffffffffffffff168152602001908152602001600020849080600181540180825580915050906001820390600052602060002001600090919290919091505550600460003373ffffffffffffffffffffffffffffffffffffffff1673ffffffffffffffffffffffffffffffffffffffff168152602001908152602001600020849080600181540180825580915050906001820390600052602060002001600090919290919091505550600191505092915050565b6000610c2787611956565b8073ffffffffffffffffffffffffffffffffffffffff166359dc735c6040518163ffffffff1660e01b815260040160206040518083038186803b158015610c6d57600080fd5b505afa158015610c81573d6000803e3d6000fd5b505050506040513d6020811015610c9757600080fd5b810190808051906020019092919050505073ffffffffffffffffffffffffffffffffffffffff163373ffffffffffffffffffffffffffffffffffffffff1614610d48576040517f08c379a00000000000000000000000000000000000000000000000000000000081526004018080602001828103825260198152602001807f4e6f7420616c6c6f7765642e204f6e6c7920636c69656e742e0000000000000081525060200191505060405180910390fd5b60008090505b84849050811015610e37578860016000898985818110610d6a57fe5b90506020020135815260200190815260200160002081905550610d8c89611956565b73ffffffffffffffffffffffffffffffffffffffff1663ea9a157289898985818110610db457fe5b90506020020135888886818110610dc757fe5b905060200201356040518463ffffffff1660e01b8152600401808481526020018381526020018281526020019350505050600060405180830381600087803b158015610e1257600080fd5b505af1158015610e26573d6000803e3d6000fd5b505050508080600101915050610d4e565b5060019150509695505050505050565b6000610e528261183c565b73ffffffffffffffffffffffffffffffffffffffff16636c91047a836040518263ffffffff1660e01b81526004018082815260200191505060206040518083038186803b158015610ea257600080fd5b505afa158015610eb6573d6000803e3d6000fd5b505050506040513d6020811015610ecc57600080fd5b81019080805190602001909291905050509050919050565b6000610eef8261183c565b8073ffffffffffffffffffffffffffffffffffffffff166359dc735c6040518163ffffffff1660e01b815260040160206040518083038186803b158015610f3557600080fd5b505afa158015610f49573d6000803e3d6000fd5b505050506040513d6020811015610f5f57600080fd5b810190808051906020019092919050505073ffffffffffffffffffffffffffffffffffffffff163373ffffffffffffffffffffffffffffffffffffffff1614611010576040517f08c379a00000000000000000000000000000000000000000000000000000000081526004018080602001828103825260198152602001807f4e6f7420616c6c6f7765642e204f6e6c7920636c69656e742e0000000000000081525060200191505060405180910390fd5b6110198361183c565b73ffffffffffffffffffffffffffffffffffffffff16638609cad1846040518263ffffffff1660e01b815260040180828152602001915050600060405180830381600087803b15801561106b57600080fd5b505af115801561107f573d6000803e3d6000fd5b505050506001915050919050565b60006110988261183c565b8073ffffffffffffffffffffffffffffffffffffffff166359dc735c6040518163ffffffff1660e01b815260040160206040518083038186803b1580156110de57600080fd5b505afa1580156110f2573d6000803e3d6000fd5b505050506040513d602081101561110857600080fd5b810190808051906020019092919050505073ffffffffffffffffffffffffffffffffffffffff163373ffffffffffffffffffffffffffffffffffffffff16146111b9576040517f08c379a00000000000000000000000000000000000000000000000000000000081526004018080602001828103825260198152602001807f4e6f7420616c6c6f7765642e204f6e6c7920636c69656e742e0000000000000081525060200191505060405180910390fd5b6111c28361183c565b73ffffffffffffffffffffffffffffffffffffffff1663a53a1adf846040518263ffffffff1660e01b815260040180828152602001915050600060405180830381600087803b15801561121457600080fd5b505af1158015611228573d6000803e3d6000fd5b505050506001915050919050565b600061124187611956565b8073ffffffffffffffffffffffffffffffffffffffff166359dc735c6040518163ffffffff1660e01b815260040160206040518083038186803b15801561128757600080fd5b505afa15801561129b573d6000803e3d6000fd5b505050506040513d60208110156112b157600080fd5b810190808051906020019092919050505073ffffffffffffffffffffffffffffffffffffffff163373ffffffffffffffffffffffffffffffffffffffff1614611362576040517f08c379a00000000000000000000000000000000000000000000000000000000081526004018080602001828103825260198152602001807f4e6f7420616c6c6f7765642e204f6e6c7920636c69656e742e0000000000000081525060200191505060405180910390fd5b8383905086869050146113c0576040517f08c379a0000000000000000000000000000000000000000000000000000000008152600401808060200182810382526027815260200180611a686027913960400191505060405180910390fd5b60008090505b868690508110156114da5788600160008989858181106113e257fe5b90506020020135815260200190815260200160002081905550600260008a815260200190815260200160002060009054906101000a900473ffffffffffffffffffffffffffffffffffffffff1673ffffffffffffffffffffffffffffffffffffffff16636f95a6198989898581811061145757fe5b9050602002013588888681811061146a57fe5b905060200201356040518463ffffffff1660e01b8152600401808481526020018381526020018281526020019350505050600060405180830381600087803b1580156114b557600080fd5b505af11580156114c9573d6000803e3d6000fd5b5050505080806001019150506113c6565b5060019150509695505050505050565b60006114f58261183c565b8073ffffffffffffffffffffffffffffffffffffffff166359dc735c6040518163ffffffff1660e01b815260040160206040518083038186803b15801561153b57600080fd5b505afa15801561154f573d6000803e3d6000fd5b505050506040513d602081101561156557600080fd5b810190808051906020019092919050505073ffffffffffffffffffffffffffffffffffffffff163373ffffffffffffffffffffffffffffffffffffffff1614611616576040517f08c379a00000000000000000000000000000000000000000000000000000000081526004018080602001828103825260198152602001807f4e6f7420616c6c6f7765642e204f6e6c7920636c69656e742e0000000000000081525060200191505060405180910390fd5b61161f8361183c565b73ffffffffffffffffffffffffffffffffffffffff1663cabd734f846040518263ffffffff1660e01b815260040180828152602001915050600060405180830381600087803b15801561167157600080fd5b505af1158015611685573d6000803e3d6000fd5b505050506001915050919050565b600061169e8261183c565b8073ffffffffffffffffffffffffffffffffffffffff1663b6cb405b6040518163ffffffff1660e01b815260040160206040518083038186803b1580156116e457600080fd5b505afa1580156116f8573d6000803e3d6000fd5b505050506040513d602081101561170e57600080fd5b810190808051906020019092919050505073ffffffffffffffffffffffffffffffffffffffff163373ffffffffffffffffffffffffffffffffffffffff16146117bf576040517f08c379a000000000000000000000000000000000000000000000000000000000815260040180806020018281038252601d8152602001807f4e6f7420616c6c6f7765642e204f6e6c7920636f6e74726163746f722e00000081525060200191505060405180910390fd5b6117c88361183c565b73ffffffffffffffffffffffffffffffffffffffff1663fde63056846040518263ffffffff1660e01b815260040180828152602001915050600060405180830381600087803b15801561181a57600080fd5b505af115801561182e573d6000803e3d6000fd5b505050506001915050919050565b60008060001b6001600084815260200190815260200160002054116118c9576040517f08c379a00000000000000000000000000000000000000000000000000000000081526004018080602001828103825260198152602001807f436f6e747261637420646f6573206e6f74206578697374732e0000000000000081525060200191505060405180910390fd5b6118e56001600084815260200190815260200160002054611956565b9050919050565b6000808260601b90506040517f3d602d80600a3d3981f3363d3d373d3d3d363d7300000000000000000000000081528160148201527f5af43d82803e903d91602b57fd5bf3000000000000000000000000000000000060288201526037816000f092505050919050565b60008073ffffffffffffffffffffffffffffffffffffffff166002600084815260200190815260200160002060009054906101000a900473ffffffffffffffffffffffffffffffffffffffff1673ffffffffffffffffffffffffffffffffffffffff1611611a2c576040517f08c379a00000000000000000000000000000000000000000000000000000000081526004018080602001828103825260198152602001807f436f6e747261637420646f6573206e6f74206578697374732e0000000000000081525060200191505060405180910390fd5b6002600083815260200190815260200160002060009054906101000a900473ffffffffffffffffffffffffffffffffffffffff16905091905056fe50726f7669646564206974656d73206f722062696c6c696e67732061726520696e76616c69642ea265627a7a723158208c6f0203a46cc11324d13472de2325473d715094c2126816420426028ca77d3264736f6c63430005100032",
  "source": "// SPDX-License-Identifier: MIT\npragma solidity >=0.4.21 <0.7.1;\n\nimport './ServiceContract.sol';\nimport './CloneFactory.sol';\n\ncontract ServiceContractFactory is CloneFactory {\n    address private implementation;\n\n    constructor(address _implementation) public {\n        implementation = _implementation;\n    }\n\n    mapping(bytes32 => bytes32) contracts; // section or item -> contract\n    mapping(bytes32 => address) instances; // contract hash to contract address\n\n    mapping(address => bytes32[]) contractsByContractor; // contractor to contract hashes\n    mapping(address => bytes32[]) contractsByClient; // client to contract hashes\n\n    modifier onlyClient(ServiceContract _instance) {\n        require(\n            msg.sender == _instance.getClient(),\n            'Not allowed. Only client.'\n        );\n        _;\n    }\n\n    modifier onlyContractor(ServiceContract _instance) {\n        require(\n            msg.sender == _instance.getContractor(),\n            'Not allowed. Only contractor.'\n        );\n        _;\n    }\n\n    function create(bytes32 _contract, address _contractor)\n        public\n        returns (bool)\n    {\n        address clone = createClone(implementation);\n        instances[_contract] = clone;\n        contracts[_contract] = _contract; // Include contract in contract pointers, as it is super of first level sections or items\n        _instanceByContract(_contract).init(msg.sender, _contractor);\n        contractsByContractor[_contractor].push(_contract);\n        contractsByClient[msg.sender].push(_contract);\n        return true;\n    }\n\n    function addSections(\n        bytes32 _contract,\n        bytes32 _super,\n        bytes32[] calldata _sections,\n        bytes32[] calldata _billings\n    ) external onlyClient(_instanceByContract(_contract)) returns (bool) {\n        for (uint256 i = 0; i < _billings.length; i++) {\n            contracts[_sections[i]] = _contract;\n            _instanceByContract(_contract).setSectionOf(\n                _super,\n                _sections[i],\n                _billings[i]\n            );\n        }\n        return true;\n    }\n\n    function addItems(\n        bytes32 _contract,\n        bytes32 _section,\n        bytes32[] calldata _items,\n        bytes32[] calldata _billings\n    ) external onlyClient(_instanceByContract(_contract)) returns (bool) {\n        require(\n            _items.length == _billings.length,\n            'Provided items or billings are invalid.'\n        );\n        for (uint256 i = 0; i < _items.length; i++) {\n            contracts[_items[i]] = _contract;\n            ServiceContract(instances[_contract]).setItemOf(\n                _section,\n                _items[i],\n                _billings[i]\n            );\n        }\n        return true;\n    }\n\n    function sectionsOf(bytes32 _super)\n        external\n        view\n        returns (bytes32[] memory)\n    {\n        return _instanceByService(_super).getSectionsOf(_super);\n    }\n\n    function itemsOf(bytes32 _section)\n        external\n        view\n        returns (bytes32[] memory)\n    {\n        return _instanceByService(_section).getItemsOf(_section);\n    }\n\n    function stageOf(bytes32 _item)\n        public\n        view\n        returns (ServiceContract.Stages)\n    {\n        return _instanceByService(_item).stageOf(_item);\n    }\n\n    function start(bytes32 _item)\n        external\n        onlyContractor(_instanceByService(_item))\n        returns (bool)\n    {\n        _instanceByService(_item).start(_item);\n        return true;\n    }\n\n    function finish(bytes32 _item)\n        external\n        onlyContractor(_instanceByService(_item))\n        returns (bool)\n    {\n        _instanceByService(_item).finish(_item);\n        return true;\n    }\n\n    function approve(bytes32 _item)\n        external\n        onlyClient(_instanceByService(_item))\n        returns (bool)\n    {\n        _instanceByService(_item).approve(_item);\n        return true;\n    }\n\n    function reject(bytes32 _item)\n        external\n        onlyClient(_instanceByService(_item))\n        returns (bool)\n    {\n        _instanceByService(_item).reject(_item);\n        return true;\n    }\n\n    function pay(bytes32 _item)\n        external\n        onlyClient(_instanceByService(_item))\n        returns (bool)\n    {\n        _instanceByService(_item).pay(_item);\n        return true;\n    }\n\n    function _instanceByContract(bytes32 _contract)\n        internal\n        view\n        returns (ServiceContract)\n    {\n        require(instances[_contract] > address(0), 'Contract does not exists.');\n        return ServiceContract(instances[_contract]);\n    }\n\n    function _instanceByService(bytes32 _service)\n        internal\n        view\n        returns (ServiceContract)\n    {\n        require(contracts[_service] > 0, 'Contract does not exists.');\n        return _instanceByContract(contracts[_service]);\n    }\n}\n",
  "sourcePath": "C:/Users/fabia/WebstormProjects/bim-contracts/contracts/ServiceContractFactory.sol",
  "compiler": {
    "name": "solc",
    "version": "0.5.16+commit.9c3226ce.Emscripten.clang"
  },
  "schemaVersion": "3.2.4",
  "updatedAt": "2020-10-07T13:35:47.260Z",
  "networkType": "ethereum",
  "devdoc": {
    "methods": {}
  },
  "userdoc": {
    "methods": {}
  }
}