{
  "contractName": "ServiceContract",
  "abi": [
    {
      "constant": false,
      "inputs": [
        {
          "internalType": "bytes32",
          "name": "_contract",
          "type": "bytes32"
        },
        {
          "internalType": "address",
          "name": "_contractor",
          "type": "address"
        },
        {
          "internalType": "bytes32[]",
          "name": "_services",
          "type": "bytes32[]"
        }
      ],
      "name": "createServiceContract",
      "outputs": [
        {
          "internalType": "bool",
          "name": "",
          "type": "bool"
        }
      ],
      "payable": false,
      "stateMutability": "nonpayable",
      "type": "function"
    },
    {
      "constant": false,
      "inputs": [
        {
          "internalType": "bytes32",
          "name": "_contract",
          "type": "bytes32"
        },
        {
          "internalType": "bytes32",
          "name": "_node",
          "type": "bytes32"
        },
        {
          "internalType": "bytes32",
          "name": "_parent",
          "type": "bytes32"
        }
      ],
      "name": "addService",
      "outputs": [
        {
          "internalType": "bool",
          "name": "",
          "type": "bool"
        }
      ],
      "payable": false,
      "stateMutability": "nonpayable",
      "type": "function"
    },
    {
      "constant": true,
      "inputs": [
        {
          "internalType": "bytes32",
          "name": "_service",
          "type": "bytes32"
        }
      ],
      "name": "stageOf",
      "outputs": [
        {
          "internalType": "enum ServiceContractLib.Stages",
          "name": "",
          "type": "uint8"
        }
      ],
      "payable": false,
      "stateMutability": "view",
      "type": "function"
    },
    {
      "constant": false,
      "inputs": [
        {
          "internalType": "bytes32",
          "name": "_service",
          "type": "bytes32"
        }
      ],
      "name": "start",
      "outputs": [
        {
          "internalType": "bool",
          "name": "",
          "type": "bool"
        }
      ],
      "payable": false,
      "stateMutability": "nonpayable",
      "type": "function"
    },
    {
      "constant": false,
      "inputs": [
        {
          "internalType": "bytes32",
          "name": "_service",
          "type": "bytes32"
        }
      ],
      "name": "finish",
      "outputs": [
        {
          "internalType": "bool",
          "name": "",
          "type": "bool"
        }
      ],
      "payable": false,
      "stateMutability": "nonpayable",
      "type": "function"
    },
    {
      "constant": false,
      "inputs": [
        {
          "internalType": "bytes32",
          "name": "_service",
          "type": "bytes32"
        }
      ],
      "name": "approve",
      "outputs": [
        {
          "internalType": "bool",
          "name": "",
          "type": "bool"
        }
      ],
      "payable": false,
      "stateMutability": "nonpayable",
      "type": "function"
    },
    {
      "constant": false,
      "inputs": [
        {
          "internalType": "bytes32",
          "name": "_service",
          "type": "bytes32"
        }
      ],
      "name": "reject",
      "outputs": [
        {
          "internalType": "bool",
          "name": "",
          "type": "bool"
        }
      ],
      "payable": false,
      "stateMutability": "nonpayable",
      "type": "function"
    },
    {
      "constant": false,
      "inputs": [
        {
          "internalType": "bytes32",
          "name": "_service",
          "type": "bytes32"
        }
      ],
      "name": "pay",
      "outputs": [
        {
          "internalType": "bool",
          "name": "",
          "type": "bool"
        }
      ],
      "payable": false,
      "stateMutability": "nonpayable",
      "type": "function"
    }
  ],
  "bytecode": "0x608060405234801561001057600080fd5b50610b4d806100206000396000f3fe608060405234801561001057600080fd5b50600436106100885760003560e01c8063a53a1adf1161005b578063a53a1adf14610224578063cabd734f1461026a578063fd67bfd8146102b0578063fde630561461030a57610088565b8063015a18ed1461008d5780636c91047a146100d35780638032341d146101235780638609cad1146101de575b600080fd5b6100b9600480360360208110156100a357600080fd5b8101908080359060200190929190505050610350565b604051808215151515815260200191505060405180910390f35b6100ff600480360360208110156100e957600080fd5b8101908080359060200190929190505050610411565b6040518082600681111561010f57fe5b60ff16815260200191505060405180910390f35b6101c46004803603606081101561013957600080fd5b8101908080359060200190929190803573ffffffffffffffffffffffffffffffffffffffff1690602001909291908035906020019064010000000081111561018057600080fd5b82018360208201111561019257600080fd5b803590602001918460208302840111640100000000831117156101b457600080fd5b90919293919293905050506104d2565b604051808215151515815260200191505060405180910390f35b61020a600480360360208110156101f457600080fd5b81019080803590602001909291905050506106ac565b604051808215151515815260200191505060405180910390f35b6102506004803603602081101561023a57600080fd5b810190808035906020019092919050505061076d565b604051808215151515815260200191505060405180910390f35b6102966004803603602081101561028057600080fd5b810190808035906020019092919050505061082e565b604051808215151515815260200191505060405180910390f35b6102f0600480360360608110156102c657600080fd5b810190808035906020019092919080359060200190929190803590602001909291905050506108ef565b604051808215151515815260200191505060405180910390f35b6103366004803603602081101561032057600080fd5b8101908080359060200190929190505050610a57565b604051808215151515815260200191505060405180910390f35b60008060006001600085815260200190815260200160002054815260200190815260200160002073__ServiceContractLib____________________63998311fd9091846040518363ffffffff1660e01b8152600401808381526020018281526020019250505060206040518083038186803b1580156103cf57600080fd5b505af41580156103e3573d6000803e3d6000fd5b505050506040513d60208110156103f957600080fd5b81019080805190602001909291905050509050919050565b60008060006001600085815260200190815260200160002054815260200190815260200160002073__ServiceContractLib____________________636a26d3969091846040518363ffffffff1660e01b8152600401808381526020018281526020019250505060206040518083038186803b15801561049057600080fd5b505af41580156104a4573d6000803e3d6000fd5b505050506040513d60208110156104ba57600080fd5b81019080805190602001909291905050509050919050565b600080600086815260200190815260200160002060040160149054906101000a900460ff161561056a576040517f08c379a00000000000000000000000000000000000000000000000000000000081526004018080602001828103825260208152602001807f5365727669636520636f6e747261637420616c7265616479206578697374732e81525060200191505060405180910390fd5b60008090505b838390508110156105b257856001600086868581811061058c57fe5b905060200201358152602001908152602001600020819055508080600101915050610570565b5060008086815260200190815260200160002073__ServiceContractLib____________________63fd38046b9091878787876040518663ffffffff1660e01b8152600401808681526020018581526020018473ffffffffffffffffffffffffffffffffffffffff1673ffffffffffffffffffffffffffffffffffffffff168152602001806020018281038252848482818152602001925060200280828437600081840152601f19601f820116905080830192505050965050505050505060006040518083038186803b15801561068857600080fd5b505af415801561069c573d6000803e3d6000fd5b5050505060019050949350505050565b60008060006001600085815260200190815260200160002054815260200190815260200160002073__ServiceContractLib____________________636c1c6aa99091846040518363ffffffff1660e01b8152600401808381526020018281526020019250505060206040518083038186803b15801561072b57600080fd5b505af415801561073f573d6000803e3d6000fd5b505050506040513d602081101561075557600080fd5b81019080805190602001909291905050509050919050565b60008060006001600085815260200190815260200160002054815260200190815260200160002073__ServiceContractLib____________________6320f5490b9091846040518363ffffffff1660e01b8152600401808381526020018281526020019250505060206040518083038186803b1580156107ec57600080fd5b505af4158015610800573d6000803e3d6000fd5b505050506040513d602081101561081657600080fd5b81019080805190602001909291905050509050919050565b60008060006001600085815260200190815260200160002054815260200190815260200160002073__ServiceContractLib____________________6355aff3f99091846040518363ffffffff1660e01b8152600401808381526020018281526020019250505060206040518083038186803b1580156108ad57600080fd5b505af41580156108c1573d6000803e3d6000fd5b505050506040513d60208110156108d757600080fd5b81019080805190602001909291905050509050919050565b600080600085815260200190815260200160002060040160149054906101000a900460ff16610986576040517f08c379a000000000000000000000000000000000000000000000000000000000815260040180806020018281038252601e8152602001807f5365727669636520636f6e7472616374206e6f74206578697374696e672e000081525060200191505060405180910390fd5b83600160008581526020019081526020016000208190555060008085815260200190815260200160002073__ServiceContractLib____________________63b1b6364c909185856040518463ffffffff1660e01b815260040180848152602001838152602001828152602001935050505060206040518083038186803b158015610a1057600080fd5b505af4158015610a24573d6000803e3d6000fd5b505050506040513d6020811015610a3a57600080fd5b810190808051906020019092919050505050600190509392505050565b60008060006001600085815260200190815260200160002054815260200190815260200160002073__ServiceContractLib____________________6349ce64689091846040518363ffffffff1660e01b8152600401808381526020018281526020019250505060206040518083038186803b158015610ad657600080fd5b505af4158015610aea573d6000803e3d6000fd5b505050506040513d6020811015610b0057600080fd5b8101908080519060200190929190505050905091905056fea265627a7a72315820fbff7f87910efde29fe3bffdfac3049414e8028ae54edc2962b2d050cb0ee62064736f6c63430005100032",
  "source": "// SPDX-License-Identifier: MIT\npragma solidity >=0.4.21 <0.7.1;\n\nimport './ServiceContractLib.sol';\n\ncontract ServiceContract {\n    using ServiceContractLib for ServiceContractLib.ServiceContract;\n\n    mapping(bytes32 => ServiceContractLib.ServiceContract) private instances;\n    mapping(bytes32 => bytes32) private contracts;\n\n    function createServiceContract(\n        bytes32 _contract,\n        address _contractor,\n        bytes32[] calldata _services\n    ) external returns (bool) {\n        require(\n            !instances[_contract].exists,\n            'Service contract already exists.'\n        );\n        for (uint256 i = 0; i < _services.length; i++) {\n            contracts[_services[i]] = _contract;\n        }\n        instances[_contract].init(_contract, _contractor, _services);\n        return true;\n    }\n\n    function addService(\n        bytes32 _contract,\n        bytes32 _node,\n        bytes32 _parent\n    ) external returns (bool) {\n        require(instances[_contract].exists, 'Service contract not existing.');\n        contracts[_node] = _contract;\n        instances[_contract].addService(_node, _parent);\n        return true;\n    }\n\n    function stageOf(bytes32 _service)\n        public\n        view\n        returns (ServiceContractLib.Stages)\n    {\n        return instances[contracts[_service]].stageOf(_service);\n    }\n\n    function start(bytes32 _service) external returns (bool) {\n        return instances[contracts[_service]].start(_service);\n    }\n\n    function finish(bytes32 _service) external returns (bool) {\n        return instances[contracts[_service]].finish(_service);\n    }\n\n    function approve(bytes32 _service) external returns (bool) {\n        return instances[contracts[_service]].approve(_service);\n    }\n\n    function reject(bytes32 _service) external returns (bool) {\n        return instances[contracts[_service]].reject(_service);\n    }\n\n    function pay(bytes32 _service) external returns (bool) {\n        return instances[contracts[_service]].pay(_service);\n    }\n}\n",
  "sourcePath": "C:/Users/fabia/WebstormProjects/bim-contracts/contracts/ServiceContract.sol",
  "compiler": {
    "name": "solc",
    "version": "0.5.16+commit.9c3226ce.Emscripten.clang"
  },
  "schemaVersion": "3.2.4",
  "updatedAt": "2020-09-30T23:15:20.951Z",
  "networkType": "ethereum",
  "devdoc": {
    "methods": {}
  },
  "userdoc": {
    "methods": {}
  }
}