{
  "contractName": "ServiceAgreement",
  "abi": [
    {
      "anonymous": false,
      "inputs": [
        {
          "indexed": false,
          "internalType": "bytes32",
          "name": "_service",
          "type": "bytes32"
        },
        {
          "indexed": false,
          "internalType": "uint256",
          "name": "_stage",
          "type": "uint256"
        }
      ],
      "name": "ServiceTransition",
      "type": "event"
    },
    {
      "constant": false,
      "inputs": [
        {
          "internalType": "bytes32",
          "name": "_service",
          "type": "bytes32"
        },
        {
          "internalType": "bytes32",
          "name": "_parent",
          "type": "bytes32"
        },
        {
          "internalType": "address",
          "name": "_client",
          "type": "address"
        },
        {
          "internalType": "address",
          "name": "_contractor",
          "type": "address"
        },
        {
          "internalType": "bytes32[]",
          "name": "_children",
          "type": "bytes32[]"
        },
        {
          "internalType": "bytes32[]",
          "name": "_parents",
          "type": "bytes32[]"
        },
        {
          "internalType": "bool[]",
          "name": "_billables",
          "type": "bool[]"
        },
        {
          "internalType": "bytes32[]",
          "name": "_documents",
          "type": "bytes32[]"
        }
      ],
      "name": "init",
      "outputs": [],
      "payable": false,
      "stateMutability": "nonpayable",
      "type": "function"
    },
    {
      "constant": false,
      "inputs": [
        {
          "internalType": "bytes32",
          "name": "_service",
          "type": "bytes32"
        }
      ],
      "name": "removeServiceNode",
      "outputs": [
        {
          "internalType": "bool",
          "name": "",
          "type": "bool"
        }
      ],
      "payable": false,
      "stateMutability": "nonpayable",
      "type": "function"
    },
    {
      "constant": true,
      "inputs": [
        {
          "internalType": "bytes32",
          "name": "_service",
          "type": "bytes32"
        }
      ],
      "name": "getServiceStage",
      "outputs": [
        {
          "internalType": "enum ServiceAgreement.Stages",
          "name": "",
          "type": "uint8"
        }
      ],
      "payable": false,
      "stateMutability": "view",
      "type": "function"
    },
    {
      "constant": false,
      "inputs": [
        {
          "internalType": "bytes32",
          "name": "_service",
          "type": "bytes32"
        }
      ],
      "name": "startService",
      "outputs": [
        {
          "internalType": "bool",
          "name": "",
          "type": "bool"
        }
      ],
      "payable": false,
      "stateMutability": "nonpayable",
      "type": "function"
    },
    {
      "constant": false,
      "inputs": [
        {
          "internalType": "bytes32",
          "name": "_service",
          "type": "bytes32"
        }
      ],
      "name": "finishService",
      "outputs": [
        {
          "internalType": "bool",
          "name": "",
          "type": "bool"
        }
      ],
      "payable": false,
      "stateMutability": "nonpayable",
      "type": "function"
    },
    {
      "constant": false,
      "inputs": [
        {
          "internalType": "bytes32",
          "name": "_service",
          "type": "bytes32"
        }
      ],
      "name": "approveService",
      "outputs": [
        {
          "internalType": "bool",
          "name": "",
          "type": "bool"
        }
      ],
      "payable": false,
      "stateMutability": "nonpayable",
      "type": "function"
    },
    {
      "constant": false,
      "inputs": [
        {
          "internalType": "bytes32",
          "name": "_service",
          "type": "bytes32"
        }
      ],
      "name": "rejectService",
      "outputs": [
        {
          "internalType": "bool",
          "name": "",
          "type": "bool"
        }
      ],
      "payable": false,
      "stateMutability": "nonpayable",
      "type": "function"
    },
    {
      "constant": false,
      "inputs": [
        {
          "internalType": "bytes32",
          "name": "_service",
          "type": "bytes32"
        }
      ],
      "name": "payService",
      "outputs": [
        {
          "internalType": "bool",
          "name": "",
          "type": "bool"
        }
      ],
      "payable": false,
      "stateMutability": "nonpayable",
      "type": "function"
    },
    {
      "constant": false,
      "inputs": [
        {
          "internalType": "bytes32",
          "name": "_service",
          "type": "bytes32"
        },
        {
          "internalType": "enum ServiceAgreement.Stages",
          "name": "_stage",
          "type": "uint8"
        }
      ],
      "name": "setStage",
      "outputs": [
        {
          "internalType": "bool",
          "name": "",
          "type": "bool"
        }
      ],
      "payable": false,
      "stateMutability": "nonpayable",
      "type": "function"
    },
    {
      "constant": false,
      "inputs": [],
      "name": "cleanup",
      "outputs": [],
      "payable": false,
      "stateMutability": "nonpayable",
      "type": "function"
    }
  ],
  "bytecode": "0x608060405234801561001057600080fd5b50611393806100206000396000f3fe608060405234801561001057600080fd5b506004361061009e5760003560e01c80637b62a459116100665780637b62a459146101cf5780639d3a2a2c14610215578063aa5155bd146104de578063d16ad81d14610524578063d1e8c3ea1461056a5761009e565b806304f306e3146100a357806319eaf360146100e957806324eed8f5146101395780633cecd7191461017f5780634c2b58b414610189575b600080fd5b6100cf600480360360208110156100b957600080fd5b81019080803590602001909291905050506105bd565b604051808215151515815260200191505060405180910390f35b610115600480360360208110156100ff57600080fd5b81019080803590602001909291905050506106c3565b6040518082600681111561012557fe5b60ff16815260200191505060405180910390f35b6101656004803603602081101561014f57600080fd5b8101908080359060200190929190505050610749565b604051808215151515815260200191505060405180910390f35b61018761084f565b005b6101b56004803603602081101561019f57600080fd5b8101908080359060200190929190505050610851565b604051808215151515815260200191505060405180910390f35b6101fb600480360360208110156101e557600080fd5b8101908080359060200190929190505050610954565b604051808215151515815260200191505060405180910390f35b6104dc600480360361010081101561022c57600080fd5b810190808035906020019092919080359060200190929190803573ffffffffffffffffffffffffffffffffffffffff169060200190929190803573ffffffffffffffffffffffffffffffffffffffff1690602001909291908035906020019064010000000081111561029d57600080fd5b8201836020820111156102af57600080fd5b803590602001918460208302840111640100000000831117156102d157600080fd5b919080806020026020016040519081016040528093929190818152602001838360200280828437600081840152601f19601f8201169050808301925050505050505091929192908035906020019064010000000081111561033157600080fd5b82018360208201111561034357600080fd5b8035906020019184602083028401116401000000008311171561036557600080fd5b919080806020026020016040519081016040528093929190818152602001838360200280828437600081840152601f19601f820116905080830192505050505050509192919290803590602001906401000000008111156103c557600080fd5b8201836020820111156103d757600080fd5b803590602001918460208302840111640100000000831117156103f957600080fd5b919080806020026020016040519081016040528093929190818152602001838360200280828437600081840152601f19601f8201169050808301925050505050505091929192908035906020019064010000000081111561045957600080fd5b82018360208201111561046b57600080fd5b8035906020019184602083028401116401000000008311171561048d57600080fd5b919080806020026020016040519081016040528093929190818152602001838360200280828437600081840152601f19601f820116905080830192505050505050509192919290505050610a57565b005b61050a600480360360208110156104f457600080fd5b8101908080359060200190929190505050610c82565b604051808215151515815260200191505060405180910390f35b6105506004803603602081101561053a57600080fd5b8101908080359060200190929190505050610d85565b604051808215151515815260200191505060405180910390f35b6105a36004803603604081101561058057600080fd5b8101908080359060200190929190803560ff169060200190929190505050610ea7565b604051808215151515815260200191505060405180910390f35b6000600160009054906101000a900473ffffffffffffffffffffffffffffffffffffffff1673ffffffffffffffffffffffffffffffffffffffff163373ffffffffffffffffffffffffffffffffffffffff161461061957600080fd5b81600380600681111561062857fe5b60008084815260200190815260200160002060000160009054906101000a900460ff16600681111561065657fe5b146106ac576040517f08c379a00000000000000000000000000000000000000000000000000000000081526004018080602001828103825260288152602001806113376028913960400191505060405180910390fd5b6106b7846005610ea7565b50600192505050919050565b6000600360009054906101000a900473ffffffffffffffffffffffffffffffffffffffff1673ffffffffffffffffffffffffffffffffffffffff163373ffffffffffffffffffffffffffffffffffffffff161461071f57600080fd5b60008083815260200190815260200160002060000160009054906101000a900460ff169050919050565b6000600160009054906101000a900473ffffffffffffffffffffffffffffffffffffffff1673ffffffffffffffffffffffffffffffffffffffff163373ffffffffffffffffffffffffffffffffffffffff16146107a557600080fd5b8160048060068111156107b457fe5b60008084815260200190815260200160002060000160009054906101000a900460ff1660068111156107e257fe5b14610838576040517f08c379a00000000000000000000000000000000000000000000000000000000081526004018080602001828103825260288152602001806113376028913960400191505060405180910390fd5b610843846006610ea7565b50600192505050919050565b565b6000600160009054906101000a900473ffffffffffffffffffffffffffffffffffffffff1673ffffffffffffffffffffffffffffffffffffffff163373ffffffffffffffffffffffffffffffffffffffff16146108ad57600080fd5b8160038060068111156108bc57fe5b60008084815260200190815260200160002060000160009054906101000a900460ff1660068111156108ea57fe5b14610940576040517f08c379a00000000000000000000000000000000000000000000000000000000081526004018080602001828103825260288152602001806113376028913960400191505060405180910390fd5b610949846110da565b600192505050919050565b6000600260009054906101000a900473ffffffffffffffffffffffffffffffffffffffff1673ffffffffffffffffffffffffffffffffffffffff163373ffffffffffffffffffffffffffffffffffffffff16146109b057600080fd5b8160018060068111156109bf57fe5b60008084815260200190815260200160002060000160009054906101000a900460ff1660068111156109ed57fe5b14610a43576040517f08c379a00000000000000000000000000000000000000000000000000000000081526004018080602001828103825260288152602001806113376028913960400191505060405180910390fd5b610a4c846110da565b600192505050919050565b604051806080016040528060016006811115610a6f57fe5b81526020018881526020016000604051908082528060200260200182016040528015610aaa5781602001602082028038833980820191505090505b508152602001600115158152506000808a815260200190815260200160002060008201518160000160006101000a81548160ff02191690836006811115610aed57fe5b0217905550602082015181600101556040820151816002019080519060200190610b18929190611256565b5060608201518160030160006101000a81548160ff02191690831515021790555090505085600160006101000a81548173ffffffffffffffffffffffffffffffffffffffff021916908373ffffffffffffffffffffffffffffffffffffffff16021790555084600260006101000a81548173ffffffffffffffffffffffffffffffffffffffff021916908373ffffffffffffffffffffffffffffffffffffffff16021790555033600360006101000a81548173ffffffffffffffffffffffffffffffffffffffff021916908373ffffffffffffffffffffffffffffffffffffffff1602179055508060049080519060200190610c159291906112a3565b5060008090505b8451811015610c7757610c69858281518110610c3457fe5b6020026020010151858381518110610c4857fe5b6020026020010151858481518110610c5c57fe5b6020026020010151611123565b508080600101915050610c1c565b505050505050505050565b6000600260009054906101000a900473ffffffffffffffffffffffffffffffffffffffff1673ffffffffffffffffffffffffffffffffffffffff163373ffffffffffffffffffffffffffffffffffffffff1614610cde57600080fd5b816002806006811115610ced57fe5b60008084815260200190815260200160002060000160009054906101000a900460ff166006811115610d1b57fe5b14610d71576040517f08c379a00000000000000000000000000000000000000000000000000000000081526004018080602001828103825260288152602001806113376028913960400191505060405180910390fd5b610d7a846110da565b600192505050919050565b6000600360009054906101000a900473ffffffffffffffffffffffffffffffffffffffff1673ffffffffffffffffffffffffffffffffffffffff163373ffffffffffffffffffffffffffffffffffffffff1614610de157600080fd5b60008090505b60008084815260200190815260200160002060020180549050811015610e4857610e3a6000808581526020019081526020016000206002018281548110610e2a57fe5b9060005260206000200154610d85565b508080600101915050610de7565b50600080838152602001908152602001600020600080820160006101000a81549060ff02191690556001820160009055600282016000610e8891906112f0565b6003820160006101000a81549060ff0219169055505060019050919050565b600080600090505b6000808581526020019081526020016000206002018054905081101561104f5760006006811115610edc57fe5b6000808060008881526020019081526020016000206002018481548110610eff57fe5b9060005260206000200154815260200190815260200160002060000160009054906101000a900460ff166006811115610f3457fe5b111561100c57600360009054906101000a900473ffffffffffffffffffffffffffffffffffffffff1673ffffffffffffffffffffffffffffffffffffffff16630d808a216000808781526020019081526020016000206002018381548110610f9857fe5b9060005260206000200154856040518363ffffffff1660e01b815260040180838152602001826006811115610fc957fe5b60ff16815260200192505050600060405180830381600087803b158015610fef57600080fd5b505af1158015611003573d6000803e3d6000fd5b50505050611042565b611040600080868152602001908152602001600020600201828154811061102f57fe5b906000526020600020015484610ea7565b505b8080600101915050610eaf565b508160008085815260200190815260200160002060000160006101000a81548160ff0219169083600681111561108157fe5b02179055507fec1f2429db2e2e5a75096219bd1c8f41d5cbc84e68e5f316ab63c6bd12bbff33838360068111156110b457fe5b604051808381526020018281526020019250505060405180910390a16001905092915050565b61111f81600160008085815260200190815260200160002060000160009054906101000a900460ff16600681111561110e57fe5b01600681111561111a57fe5b610ea7565b5050565b600060405180608001604052806001600681111561113d57fe5b81526020016000801b8152602001600060405190808252806020026020018201604052801561117b5781602001602082028038833980820191505090505b50815260200183151581525060008086815260200190815260200160002060008201518160000160006101000a81548160ff021916908360068111156111bd57fe5b02179055506020820151816001015560408201518160020190805190602001906111e8929190611256565b5060608201518160030160006101000a81548160ff021916908315150217905550905050600080848152602001908152602001600020600201849080600181540180825580915050906001820390600052602060002001600090919290919091505550600190509392505050565b828054828255906000526020600020908101928215611292579160200282015b82811115611291578251825591602001919060010190611276565b5b50905061129f9190611311565b5090565b8280548282559060005260206000209081019282156112df579160200282015b828111156112de5782518255916020019190600101906112c3565b5b5090506112ec9190611311565b5090565b508054600082559060005260206000209081019061130e9190611311565b50565b61133391905b8082111561132f576000816000905550600101611317565b5090565b9056fe46756e6374696f6e2063616e6e6f742062652063616c6c656420617420746869732073746167652ea265627a7a72315820a8cff3e1a1b8283991113ad03105078de0cdf7aa76bbf5cc02e49df5eee496bc64736f6c63430005100032",
  "source": "// SPDX-License-Identifier: MIT\npragma solidity >=0.4.21 <0.7.1;\n\nimport './ServiceAgreementFactory.sol';\n\n/**\n * @title ServiceAgreement\n * @dev Store & retreive value in a variable\n */\ncontract ServiceAgreement {\n    event ServiceTransition(bytes32 _service, uint256 _stage);\n\n    enum Stages {\n        EMPTY, // 0 - Initial stage shouldnt be 0. This could cause validation conflicts)\n        INITIALIZED, // 1\n        STARTED, // 2\n        FINISHED, // 3\n        APPROVED, // 4\n        REJECTED, // 5\n        PAYED // 6\n    }\n\n    struct ServiceNode {\n        Stages stage;\n        bytes32 parent;\n        bytes32[] children;\n        bool billable;\n    }\n\n    mapping(bytes32 => ServiceNode) services;\n\n    address client;\n    address contractor;\n    address factory;\n\n    bytes32[] documents;\n\n    modifier onlyClient() {\n        require(msg.sender == client);\n        _;\n    }\n\n    modifier onlyContractor() {\n        require(msg.sender == contractor);\n        _;\n    }\n\n    modifier onlyFactory() {\n        require(msg.sender == factory);\n        _;\n    }\n\n    modifier atStage(bytes32 _service, Stages _stage) {\n        require(\n            services[_service].stage == _stage,\n            'Function cannot be called at this stage.'\n        );\n        _;\n    }\n\n    /**\n     * @dev Creates a new service agreement with initial values\n     * @param _service The hash of the service agreement\n     * @param _parent The hash of the parent service\n     * @param _client The contractor of the service agreement\n     * @param _contractor The contractor of the service agreement\n     * @param _children The hashes of the child services\n     * @param _parents The hashes of parent services of the service specified in same index of _hashes\n     * @param _billables Determines if the service node on index of _hashes has an associated billing unit\n     * @param _documents The hashes of contract documents of the service agreement\n     */\n    function init(\n        bytes32 _service,\n        bytes32 _parent,\n        address _client,\n        address _contractor,\n        bytes32[] memory _children,\n        bytes32[] memory _parents,\n        bool[] memory _billables,\n        bytes32[] memory _documents\n    ) public {\n        services[_service] = ServiceNode(\n            Stages.INITIALIZED,\n            _parent,\n            new bytes32[](0),\n            true\n        ); // root service\n        client = _client;\n        contractor = _contractor;\n        factory = msg.sender;\n        documents = _documents;\n        for (uint256 i = 0; i < _children.length; i++) {\n            _addServiceNode(_children[i], _parents[i], _billables[i]);\n        }\n    }\n\n    /**\n     * @dev Creates a new service node\n     * @param _service The hash of the service to be created\n     * @param _parent The hash of the parent of the new service\n     */\n    function _addServiceNode(\n        bytes32 _service,\n        bytes32 _parent,\n        bool _billable\n    ) internal returns (bool) {\n        services[_service] = ServiceNode(\n            Stages.INITIALIZED,\n            0,\n            new bytes32[](0),\n            _billable\n        );\n        services[_parent].children.push(_service);\n        return true;\n    }\n\n    /**\n     * @dev Removes service node and all of its children\n     * @param _service The hash of the service to be removed\n     */\n    function removeServiceNode(bytes32 _service)\n        public\n        onlyFactory\n        returns (bool)\n    {\n        for (uint256 i = 0; i < services[_service].children.length; i++) {\n            removeServiceNode(services[_service].children[i]);\n        }\n        delete services[_service];\n        return true;\n    }\n\n    /**\n     * @dev Retrieves the current stage of a service node\n     * @param _service The hash of the service to get the current stage from\n     */\n    function getServiceStage(bytes32 _service)\n        external\n        view\n        onlyFactory\n        returns (Stages)\n    {\n        return services[_service].stage;\n    }\n\n    /**\n     * @dev Starts a service node\n     * @param _service The hash of the service to get the current stage from\n     */\n    function startService(bytes32 _service)\n        public\n        onlyContractor\n        atStage(_service, Stages.INITIALIZED)\n        returns (bool)\n    {\n        _nextStage(_service);\n        return true;\n    }\n\n    /**\n     * @dev Finishes a service node\n     * @param _service The hash of the service to get the current stage from\n     */\n    function finishService(bytes32 _service)\n        public\n        onlyContractor\n        atStage(_service, Stages.STARTED)\n        returns (bool)\n    {\n        _nextStage(_service);\n        return true;\n    }\n\n    /**\n     * @dev Approves a service node\n     * @param _service The hash of the service to get the current stage from\n     */\n    function approveService(bytes32 _service)\n        public\n        onlyClient\n        atStage(_service, Stages.FINISHED)\n        returns (bool)\n    {\n        _nextStage(_service);\n        return true;\n    }\n\n    /**\n     * @dev Approves a service node\n     * @param _service The hash of the service to get the current stage from\n     */\n    function rejectService(bytes32 _service)\n        public\n        onlyClient\n        atStage(_service, Stages.FINISHED)\n        returns (bool)\n    {\n        setStage(_service, Stages.REJECTED);\n        return true;\n    }\n\n    /**\n     * @dev Approves a service node\n     * @param _service The hash of the service to get the current stage from\n     */\n    function payService(bytes32 _service)\n        public\n        onlyClient\n        atStage(_service, Stages.APPROVED)\n        returns (bool)\n    {\n        setStage(_service, Stages.PAYED);\n        return true;\n    }\n\n    /**\n     * @dev Transitions Service to its next stage\n     * @param _service The hash of the service to get the current stage from\n     */\n    function _nextStage(bytes32 _service) internal {\n        setStage(_service, Stages(uint256(services[_service].stage) + 1));\n    }\n\n    /**\n     * @dev Updates the stage of a service and all of its children\n     * @param _service The hash of the service to be updated\n     * @param _stage The new stage of the service\n     */\n    function setStage(bytes32 _service, Stages _stage) public returns (bool) {\n        for (uint256 i = 0; i < services[_service].children.length; i++) {\n            if (services[services[_service].children[i]].stage > Stages.EMPTY) {\n                ServiceAgreementFactory(factory).setServiceStage(\n                    services[_service].children[i],\n                    _stage\n                );\n            } else {\n                setStage(services[_service].children[i], _stage);\n            }\n        }\n        services[_service].stage = _stage;\n        emit ServiceTransition(_service, uint256(_stage));\n        return true;\n    }\n\n    function cleanup() public {\n        // TODO Implement cleanup of service agreement\n    }\n}\n",
  "sourcePath": "C:\\Users\\fabia\\WebstormProjects\\bim-contracts\\contracts\\ServiceAgreement.sol",
  "compiler": {
    "name": "solc",
    "version": "0.5.16+commit.9c3226ce.Emscripten.clang"
  },
  "schemaVersion": "3.2.4",
  "updatedAt": "2020-09-29T20:26:39.955Z",
  "devdoc": {
    "details": "Store & retreive value in a variable",
    "methods": {
      "approveService(bytes32)": {
        "details": "Approves a service node",
        "params": {
          "_service": "The hash of the service to get the current stage from"
        }
      },
      "finishService(bytes32)": {
        "details": "Finishes a service node",
        "params": {
          "_service": "The hash of the service to get the current stage from"
        }
      },
      "getServiceStage(bytes32)": {
        "details": "Retrieves the current stage of a service node",
        "params": {
          "_service": "The hash of the service to get the current stage from"
        }
      },
      "init(bytes32,bytes32,address,address,bytes32[],bytes32[],bool[],bytes32[])": {
        "details": "Creates a new service agreement with initial values",
        "params": {
          "_billables": "Determines if the service node on index of _hashes has an associated billing unit",
          "_children": "The hashes of the child services",
          "_client": "The contractor of the service agreement",
          "_contractor": "The contractor of the service agreement",
          "_documents": "The hashes of contract documents of the service agreement",
          "_parent": "The hash of the parent service",
          "_parents": "The hashes of parent services of the service specified in same index of _hashes",
          "_service": "The hash of the service agreement"
        }
      },
      "payService(bytes32)": {
        "details": "Approves a service node",
        "params": {
          "_service": "The hash of the service to get the current stage from"
        }
      },
      "rejectService(bytes32)": {
        "details": "Approves a service node",
        "params": {
          "_service": "The hash of the service to get the current stage from"
        }
      },
      "removeServiceNode(bytes32)": {
        "details": "Removes service node and all of its children",
        "params": {
          "_service": "The hash of the service to be removed"
        }
      },
      "setStage(bytes32,uint8)": {
        "details": "Updates the stage of a service and all of its children",
        "params": {
          "_service": "The hash of the service to be updated",
          "_stage": "The new stage of the service"
        }
      },
      "startService(bytes32)": {
        "details": "Starts a service node",
        "params": {
          "_service": "The hash of the service to get the current stage from"
        }
      }
    },
    "title": "ServiceAgreement"
  },
  "userdoc": {
    "methods": {}
  }
}