{
  "contractName": "ServiceContract",
  "abi": [
    {
      "constant": false,
      "inputs": [
        {
          "internalType": "bytes32",
          "name": "_contract",
          "type": "bytes32"
        },
        {
          "internalType": "address",
          "name": "_contractor",
          "type": "address"
        }
      ],
      "name": "createServiceContract",
      "outputs": [
        {
          "internalType": "bool",
          "name": "",
          "type": "bool"
        }
      ],
      "payable": false,
      "stateMutability": "nonpayable",
      "type": "function"
    },
    {
      "constant": false,
      "inputs": [
        {
          "internalType": "bytes32",
          "name": "_contract",
          "type": "bytes32"
        },
        {
          "internalType": "bytes32",
          "name": "_node",
          "type": "bytes32"
        },
        {
          "internalType": "bytes32[]",
          "name": "_children",
          "type": "bytes32[]"
        },
        {
          "internalType": "bytes32[]",
          "name": "_billings",
          "type": "bytes32[]"
        }
      ],
      "name": "addServiceSection",
      "outputs": [
        {
          "internalType": "bool",
          "name": "",
          "type": "bool"
        }
      ],
      "payable": false,
      "stateMutability": "nonpayable",
      "type": "function"
    },
    {
      "constant": true,
      "inputs": [
        {
          "internalType": "bytes32",
          "name": "_service",
          "type": "bytes32"
        }
      ],
      "name": "stageOf",
      "outputs": [
        {
          "internalType": "enum ServiceContractLib.Stages",
          "name": "",
          "type": "uint8"
        }
      ],
      "payable": false,
      "stateMutability": "view",
      "type": "function"
    },
    {
      "constant": false,
      "inputs": [
        {
          "internalType": "bytes32",
          "name": "_service",
          "type": "bytes32"
        }
      ],
      "name": "start",
      "outputs": [
        {
          "internalType": "bool",
          "name": "",
          "type": "bool"
        }
      ],
      "payable": false,
      "stateMutability": "nonpayable",
      "type": "function"
    },
    {
      "constant": false,
      "inputs": [
        {
          "internalType": "bytes32",
          "name": "_service",
          "type": "bytes32"
        }
      ],
      "name": "finish",
      "outputs": [
        {
          "internalType": "bool",
          "name": "",
          "type": "bool"
        }
      ],
      "payable": false,
      "stateMutability": "nonpayable",
      "type": "function"
    },
    {
      "constant": false,
      "inputs": [
        {
          "internalType": "bytes32",
          "name": "_service",
          "type": "bytes32"
        }
      ],
      "name": "approve",
      "outputs": [
        {
          "internalType": "bool",
          "name": "",
          "type": "bool"
        }
      ],
      "payable": false,
      "stateMutability": "nonpayable",
      "type": "function"
    },
    {
      "constant": false,
      "inputs": [
        {
          "internalType": "bytes32",
          "name": "_service",
          "type": "bytes32"
        }
      ],
      "name": "reject",
      "outputs": [
        {
          "internalType": "bool",
          "name": "",
          "type": "bool"
        }
      ],
      "payable": false,
      "stateMutability": "nonpayable",
      "type": "function"
    },
    {
      "constant": false,
      "inputs": [
        {
          "internalType": "bytes32",
          "name": "_service",
          "type": "bytes32"
        }
      ],
      "name": "pay",
      "outputs": [
        {
          "internalType": "bool",
          "name": "",
          "type": "bool"
        }
      ],
      "payable": false,
      "stateMutability": "nonpayable",
      "type": "function"
    }
  ],
  "bytecode": "0x608060405234801561001057600080fd5b50610bca806100206000396000f3fe608060405234801561001057600080fd5b50600436106100885760003560e01c806387520b2b1161005b57806387520b2b146101cf578063a53a1adf14610347578063cabd734f1461038d578063fde63056146103d357610088565b8063015a18ed1461008d5780633cc458e8146100d35780636c91047a146101395780638609cad114610189575b600080fd5b6100b9600480360360208110156100a357600080fd5b8101908080359060200190929190505050610419565b604051808215151515815260200191505060405180910390f35b61011f600480360360408110156100e957600080fd5b8101908080359060200190929190803573ffffffffffffffffffffffffffffffffffffffff1690602001909291905050506104da565b604051808215151515815260200191505060405180910390f35b6101656004803603602081101561014f57600080fd5b810190808035906020019092919050505061062a565b6040518082600681111561017557fe5b60ff16815260200191505060405180910390f35b6101b56004803603602081101561019f57600080fd5b81019080803590602001909291905050506106eb565b604051808215151515815260200191505060405180910390f35b61032d600480360360808110156101e557600080fd5b8101908080359060200190929190803590602001909291908035906020019064010000000081111561021657600080fd5b82018360208201111561022857600080fd5b8035906020019184602083028401116401000000008311171561024a57600080fd5b919080806020026020016040519081016040528093929190818152602001838360200280828437600081840152601f19601f820116905080830192505050505050509192919290803590602001906401000000008111156102aa57600080fd5b8201836020820111156102bc57600080fd5b803590602001918460208302840111640100000000831117156102de57600080fd5b919080806020026020016040519081016040528093929190818152602001838360200280828437600081840152601f19601f8201169050808301925050505050505091929192905050506107ac565b604051808215151515815260200191505060405180910390f35b6103736004803603602081101561035d57600080fd5b8101908080359060200190929190505050610952565b604051808215151515815260200191505060405180910390f35b6103b9600480360360208110156103a357600080fd5b8101908080359060200190929190505050610a13565b604051808215151515815260200191505060405180910390f35b6103ff600480360360208110156103e957600080fd5b8101908080359060200190929190505050610ad4565b604051808215151515815260200191505060405180910390f35b60008060006001600085815260200190815260200160002054815260200190815260200160002073__ServiceContractLib____________________63998311fd9091846040518363ffffffff1660e01b8152600401808381526020018281526020019250505060206040518083038186803b15801561049857600080fd5b505af41580156104ac573d6000803e3d6000fd5b505050506040513d60208110156104c257600080fd5b81019080805190602001909291905050509050919050565b600080600084815260200190815260200160002060040160149054906101000a900460ff1615610572576040517f08c379a00000000000000000000000000000000000000000000000000000000081526004018080602001828103825260208152602001807f5365727669636520636f6e747261637420616c7265616479206578697374732e81525060200191505060405180910390fd5b60008084815260200190815260200160002073__ServiceContractLib____________________633b0e4d6a9091846040518363ffffffff1660e01b8152600401808381526020018273ffffffffffffffffffffffffffffffffffffffff1673ffffffffffffffffffffffffffffffffffffffff1681526020019250505060006040518083038186803b15801561060857600080fd5b505af415801561061c573d6000803e3d6000fd5b505050506001905092915050565b60008060006001600085815260200190815260200160002054815260200190815260200160002073__ServiceContractLib____________________636a26d3969091846040518363ffffffff1660e01b8152600401808381526020018281526020019250505060206040518083038186803b1580156106a957600080fd5b505af41580156106bd573d6000803e3d6000fd5b505050506040513d60208110156106d357600080fd5b81019080805190602001909291905050509050919050565b60008060006001600085815260200190815260200160002054815260200190815260200160002073__ServiceContractLib____________________636c1c6aa99091846040518363ffffffff1660e01b8152600401808381526020018281526020019250505060206040518083038186803b15801561076a57600080fd5b505af415801561077e573d6000803e3d6000fd5b505050506040513d602081101561079457600080fd5b81019080805190602001909291905050509050919050565b600084600160008681526020019081526020016000208190555060008090505b835181101561080d5785600160008684815181106107e657fe5b602002602001015181526020019081526020016000208190555080806001019150506107cc565b5060008086815260200190815260200160002073__ServiceContractLib____________________632ae61f7990918686866040518563ffffffff1660e01b8152600401808581526020018481526020018060200180602001838103835285818151815260200191508051906020019060200280838360005b838110156108a1578082015181840152602081019050610886565b50505050905001838103825284818151815260200191508051906020019060200280838360005b838110156108e35780820151818401526020810190506108c8565b50505050905001965050505050505060206040518083038186803b15801561090a57600080fd5b505af415801561091e573d6000803e3d6000fd5b505050506040513d602081101561093457600080fd5b81019080805190602001909291905050505060019050949350505050565b60008060006001600085815260200190815260200160002054815260200190815260200160002073__ServiceContractLib____________________6320f5490b9091846040518363ffffffff1660e01b8152600401808381526020018281526020019250505060206040518083038186803b1580156109d157600080fd5b505af41580156109e5573d6000803e3d6000fd5b505050506040513d60208110156109fb57600080fd5b81019080805190602001909291905050509050919050565b60008060006001600085815260200190815260200160002054815260200190815260200160002073__ServiceContractLib____________________6355aff3f99091846040518363ffffffff1660e01b8152600401808381526020018281526020019250505060206040518083038186803b158015610a9257600080fd5b505af4158015610aa6573d6000803e3d6000fd5b505050506040513d6020811015610abc57600080fd5b81019080805190602001909291905050509050919050565b60008060006001600085815260200190815260200160002054815260200190815260200160002073__ServiceContractLib____________________6349ce64689091846040518363ffffffff1660e01b8152600401808381526020018281526020019250505060206040518083038186803b158015610b5357600080fd5b505af4158015610b67573d6000803e3d6000fd5b505050506040513d6020811015610b7d57600080fd5b8101908080519060200190929190505050905091905056fea265627a7a7231582007c450ef4d7ba09ba164ac696b2663d55bd611425539ab6711cfe14f0c995bce64736f6c63430005100032",
  "source": "// SPDX-License-Identifier: MIT\npragma solidity >=0.4.21 <0.7.1;\n\nimport './ServiceContractLib.sol';\n\ncontract ServiceContract {\n    using ServiceContractLib for ServiceContractLib.ServiceContract;\n\n    mapping(bytes32 => ServiceContractLib.ServiceContract) private instances;\n    mapping(bytes32 => bytes32) private contracts;\n\n    function createServiceContract(bytes32 _contract, address _contractor)\n        external\n        returns (bool)\n    {\n        require(\n            !instances[_contract].exists,\n            'Service contract already exists.'\n        );\n\n        instances[_contract].init(_contractor);\n        return true;\n    }\n\n    function addServiceSection(\n        bytes32 _contract,\n        bytes32 _node,\n        bytes32[] memory _children,\n        bytes32[] memory _billings\n    ) public returns (bool) {\n        contracts[_node] = _contract;\n        for (uint256 i = 0; i < _children.length; i++) {\n            contracts[_children[i]] = _contract;\n        }\n        instances[_contract].addServiceSection(_node, _children, _billings);\n        return true;\n    }\n\n    function stageOf(bytes32 _service)\n        public\n        view\n        returns (ServiceContractLib.Stages)\n    {\n        return instances[contracts[_service]].stageOf(_service);\n    }\n\n    function start(bytes32 _service) external returns (bool) {\n        return instances[contracts[_service]].start(_service);\n    }\n\n    function finish(bytes32 _service) external returns (bool) {\n        return instances[contracts[_service]].finish(_service);\n    }\n\n    function approve(bytes32 _service) external returns (bool) {\n        return instances[contracts[_service]].approve(_service);\n    }\n\n    function reject(bytes32 _service) external returns (bool) {\n        return instances[contracts[_service]].reject(_service);\n    }\n\n    function pay(bytes32 _service) external returns (bool) {\n        return instances[contracts[_service]].pay(_service);\n    }\n}\n",
  "sourcePath": "C:/Users/fabia/WebstormProjects/bim-contracts/contracts/ServiceContract.sol",
  "compiler": {
    "name": "solc",
    "version": "0.5.16+commit.9c3226ce.Emscripten.clang"
  },
  "schemaVersion": "3.2.4",
  "updatedAt": "2020-10-04T17:10:20.415Z",
  "devdoc": {
    "methods": {}
  },
  "userdoc": {
    "methods": {}
  }
}