{
  "contractName": "ServiceAgreement",
  "abi": [
    {
      "anonymous": false,
      "inputs": [
        {
          "indexed": false,
          "internalType": "bytes32",
          "name": "service",
          "type": "bytes32"
        }
      ],
      "name": "Payment",
      "type": "event"
    },
    {
      "anonymous": false,
      "inputs": [
        {
          "indexed": false,
          "internalType": "bytes32",
          "name": "service",
          "type": "bytes32"
        },
        {
          "indexed": false,
          "internalType": "uint8",
          "name": "stage",
          "type": "uint8"
        }
      ],
      "name": "ServiceTransition",
      "type": "event"
    },
    {
      "constant": false,
      "inputs": [
        {
          "internalType": "bytes32",
          "name": "_service",
          "type": "bytes32"
        },
        {
          "internalType": "bytes32",
          "name": "_parent",
          "type": "bytes32"
        },
        {
          "internalType": "address",
          "name": "_client",
          "type": "address"
        },
        {
          "internalType": "address",
          "name": "_contractor",
          "type": "address"
        },
        {
          "internalType": "bytes32[]",
          "name": "_children",
          "type": "bytes32[]"
        },
        {
          "internalType": "bytes32[]",
          "name": "_parents",
          "type": "bytes32[]"
        },
        {
          "internalType": "bool[]",
          "name": "_billables",
          "type": "bool[]"
        },
        {
          "internalType": "bytes32[]",
          "name": "_documents",
          "type": "bytes32[]"
        }
      ],
      "name": "init",
      "outputs": [],
      "payable": false,
      "stateMutability": "nonpayable",
      "type": "function"
    },
    {
      "constant": false,
      "inputs": [
        {
          "internalType": "bytes32",
          "name": "_service",
          "type": "bytes32"
        },
        {
          "internalType": "uint8",
          "name": "_stage",
          "type": "uint8"
        }
      ],
      "name": "setStage",
      "outputs": [
        {
          "internalType": "bool",
          "name": "",
          "type": "bool"
        }
      ],
      "payable": false,
      "stateMutability": "nonpayable",
      "type": "function"
    },
    {
      "constant": false,
      "inputs": [],
      "name": "cleanup",
      "outputs": [],
      "payable": false,
      "stateMutability": "nonpayable",
      "type": "function"
    }
  ],
  "bytecode": "0x608060405234801561001057600080fd5b50610b23806100206000396000f3fe608060405234801561001057600080fd5b50600436106100415760003560e01c80633cecd719146100465780639d3a2a2c14610050578063d1e8c3ea14610319575b600080fd5b61004e61036c565b005b610317600480360361010081101561006757600080fd5b810190808035906020019092919080359060200190929190803573ffffffffffffffffffffffffffffffffffffffff169060200190929190803573ffffffffffffffffffffffffffffffffffffffff169060200190929190803590602001906401000000008111156100d857600080fd5b8201836020820111156100ea57600080fd5b8035906020019184602083028401116401000000008311171561010c57600080fd5b919080806020026020016040519081016040528093929190818152602001838360200280828437600081840152601f19601f8201169050808301925050505050505091929192908035906020019064010000000081111561016c57600080fd5b82018360208201111561017e57600080fd5b803590602001918460208302840111640100000000831117156101a057600080fd5b919080806020026020016040519081016040528093929190818152602001838360200280828437600081840152601f19601f8201169050808301925050505050505091929192908035906020019064010000000081111561020057600080fd5b82018360208201111561021257600080fd5b8035906020019184602083028401116401000000008311171561023457600080fd5b919080806020026020016040519081016040528093929190818152602001838360200280828437600081840152601f19601f8201169050808301925050505050505091929192908035906020019064010000000081111561029457600080fd5b8201836020820111156102a657600080fd5b803590602001918460208302840111640100000000831117156102c857600080fd5b919080806020026020016040519081016040528093929190818152602001838360200280828437600081840152601f19601f82011690508083019250505050505050919291929050505061036e565b005b6103526004803603604081101561032f57600080fd5b8101908080359060200190929190803560ff169060200190929190505050610599565b604051808215151515815260200191505060405180910390f35b565b60405180608001604052806000600581111561038657fe5b815260200188815260200160006040519080825280602002602001820160405280156103c15781602001602082028038833980820191505090505b508152602001600115158152506000808a815260200190815260200160002060008201518160000160006101000a81548160ff0219169083600581111561040457fe5b021790555060208201518160010155604082015181600201908051906020019061042f929190610a2f565b5060608201518160030160006101000a81548160ff02191690831515021790555090505085600160006101000a81548173ffffffffffffffffffffffffffffffffffffffff021916908373ffffffffffffffffffffffffffffffffffffffff16021790555084600260006101000a81548173ffffffffffffffffffffffffffffffffffffffff021916908373ffffffffffffffffffffffffffffffffffffffff16021790555033600360006101000a81548173ffffffffffffffffffffffffffffffffffffffff021916908373ffffffffffffffffffffffffffffffffffffffff160217905550806004908051906020019061052c929190610a7c565b5060008090505b845181101561058e5761058085828151811061054b57fe5b602002602001015185838151811061055f57fe5b602002602001015185848151811061057357fe5b602002602001015161084f565b508080600101915050610533565b505050505050505050565b6000808260ff161180156105bf5750600360058111156105b557fe5b60ff168260ff1611155b6105c857600080fd5b60008090505b6000808581526020019081526020016000206002018054905081101561063057610622600080868152602001908152602001600020600201828154811061061157fe5b906000526020600020015484610599565b5080806001019150506105ce565b508160ff16600581111561064057fe5b60008085815260200190815260200160002060000160006101000a81548160ff0219169083600581111561067057fe5b02179055506000600581111561068257fe5b60008080600087815260200190815260200160002060010154815260200190815260200160002060000160009054906101000a900460ff1660058111156106c557fe5b10156107a057600360009054906101000a900473ffffffffffffffffffffffffffffffffffffffff1673ffffffffffffffffffffffffffffffffffffffff16630d808a2160008086815260200190815260200160002060010154846040518363ffffffff1660e01b8152600401808381526020018260ff1660ff16815260200192505050602060405180830381600087803b15801561076357600080fd5b505af1158015610777573d6000803e3d6000fd5b505050506040513d602081101561078d57600080fd5b8101908080519060200190929190505050505b7f0dc8f7519d807cb6d9670623bad1f80ecb93763d286dddb00e19534d901a9a688383604051808381526020018260ff1660ff1681526020019250505060405180910390a160008084815260200190815260200160002060030160009054906101000a900460ff1615610845577fadee04cb7c7dc8ba441caff4f51b7c0bbdf8122fac7f065bf606d9d3bdf370cb836040518082815260200191505060405180910390a15b6001905092915050565b600080600581111561085d57fe5b60008085815260200190815260200160002060000160009054906101000a900460ff16600581111561088b57fe5b106108fe576040517f08c379a000000000000000000000000000000000000000000000000000000000815260040180806020018281038252601e8152602001807f506172656e742073657276696365206e6f6465206e6f7420666f756e642e000081525060200191505060405180910390fd5b60405180608001604052806000600581111561091657fe5b81526020016000801b815260200160006040519080825280602002602001820160405280156109545781602001602082028038833980820191505090505b50815260200183151581525060008086815260200190815260200160002060008201518160000160006101000a81548160ff0219169083600581111561099657fe5b02179055506020820151816001015560408201518160020190805190602001906109c1929190610a2f565b5060608201518160030160006101000a81548160ff021916908315150217905550905050600080848152602001908152602001600020600201849080600181540180825580915050906001820390600052602060002001600090919290919091505550600190509392505050565b828054828255906000526020600020908101928215610a6b579160200282015b82811115610a6a578251825591602001919060010190610a4f565b5b509050610a789190610ac9565b5090565b828054828255906000526020600020908101928215610ab8579160200282015b82811115610ab7578251825591602001919060010190610a9c565b5b509050610ac59190610ac9565b5090565b610aeb91905b80821115610ae7576000816000905550600101610acf565b5090565b9056fea265627a7a72315820f4ea5e1a04b1feb6c4ebb634885c3863f30b86522a5fcdbb0b34aba27b2499ce64736f6c63430005100032",
  "source": "// SPDX-License-Identifier: MIT\npragma solidity >=0.4.21 <0.7.1;\n\nimport './ServiceAgreementFactory.sol';\n\n/**\n * @title ServiceAgreement\n * @dev Store & retreive value in a variable\n */\ncontract ServiceAgreement {\n    event ServiceTransition(bytes32 service, uint8 stage);\n    event Payment(bytes32 service);\n\n    enum Stages {INITIALIZED, STARTED, FINISHED, APPROVED, REJECTED, PAYED}\n\n    struct ServiceNode {\n        Stages stage;\n        bytes32 parent;\n        bytes32[] children;\n        bool billable;\n    }\n\n    mapping(bytes32 => ServiceNode) services;\n\n    address client;\n    address contractor;\n    address factory;\n\n    bytes32[] documents;\n\n    modifier onlyClient() {\n        require(msg.sender == client);\n        _;\n    }\n\n    modifier onlyContractor() {\n        require(msg.sender == contractor);\n        _;\n    }\n\n    modifier atStage(bytes32 _service, Stages _stage) {\n        require(\n            services[_service].stage == _stage,\n            'Function cannot be called at this stage.'\n        );\n        _;\n    }\n\n    /**\n     * @dev Creates a new service agreement with initial values\n     * @param _service The hash of the service agreement\n     * @param _parent The hash of the parent service\n     * @param _client The contractor of the service agreement\n     * @param _contractor The contractor of the service agreement\n     * @param _children The hashes of the child services\n     * @param _parents The hashes of parent services of the service specified in same index of _hashes\n     * @param _billables Determines if the service node on index of _hashes has an associated billing unit\n     * @param _documents The hashes of contract documents of the service agreement\n     */\n    function init(\n        bytes32 _service,\n        bytes32 _parent,\n        address _client,\n        address _contractor,\n        bytes32[] memory _children,\n        bytes32[] memory _parents,\n        bool[] memory _billables,\n        bytes32[] memory _documents\n    ) public {\n        services[_service] = ServiceNode(\n            Stages.INITIALIZED,\n            _parent,\n            new bytes32[](0),\n            true\n        ); // root service\n        client = _client;\n        contractor = _contractor;\n        factory = msg.sender;\n        documents = _documents;\n        for (uint256 i = 0; i < _children.length; i++) {\n            _addServiceNode(_children[i], _parents[i], _billables[i]);\n        }\n    }\n\n    /**\n     * @dev Creates a new service node\n     * @param _service The hash of the service to be created\n     * @param _parent The hash of the parent of the new service\n     */\n    function _addServiceNode(\n        bytes32 _service,\n        bytes32 _parent,\n        bool _billable\n    ) internal returns (bool) {\n        require(\n            services[_parent].stage < Stages.INITIALIZED,\n            'Parent service node not found.'\n        );\n        services[_service] = ServiceNode(\n            Stages.INITIALIZED,\n            0,\n            new bytes32[](0),\n            _billable\n        );\n        services[_parent].children.push(_service);\n        return true;\n    }\n\n    /**\n     * @dev Updates the stage of a service and all of its children\n     * @param _service The hash of the service to be updated\n     * @param _stage The new stage of the service\n     */\n    function setStage(bytes32 _service, uint8 _stage) public returns (bool) {\n        require(_stage > 0 && _stage <= uint8(Stages.APPROVED));\n        for (uint256 i = 0; i < services[_service].children.length; i++) {\n            setStage(services[_service].children[i], _stage);\n        }\n        services[_service].stage = Stages(_stage);\n        if (services[services[_service].parent].stage < Stages.INITIALIZED) {\n            // Service parent resides in another service agreement. We have to update the stage via ServiceAgreementFactory.\n            ServiceAgreementFactory(factory).setServiceStage(\n                services[_service].parent,\n                _stage\n            );\n        }\n        emit ServiceTransition(_service, _stage);\n        if (services[_service].billable) {\n            emit Payment(_service);\n        }\n        return true;\n    }\n\n    function cleanup() public {\n        // TODO Implement cleanup of service agreement\n    }\n}\n",
  "sourcePath": "C:\\Users\\fabia\\WebstormProjects\\bim-contracts\\contracts\\ServiceAgreement.sol",
  "compiler": {
    "name": "solc",
    "version": "0.5.16+commit.9c3226ce.Emscripten.clang"
  },
  "schemaVersion": "3.2.4",
  "updatedAt": "2020-09-27T16:21:01.289Z",
  "devdoc": {
    "details": "Store & retreive value in a variable",
    "methods": {
      "init(bytes32,bytes32,address,address,bytes32[],bytes32[],bool[],bytes32[])": {
        "details": "Creates a new service agreement with initial values",
        "params": {
          "_billables": "Determines if the service node on index of _hashes has an associated billing unit",
          "_children": "The hashes of the child services",
          "_client": "The contractor of the service agreement",
          "_contractor": "The contractor of the service agreement",
          "_documents": "The hashes of contract documents of the service agreement",
          "_parent": "The hash of the parent service",
          "_parents": "The hashes of parent services of the service specified in same index of _hashes",
          "_service": "The hash of the service agreement"
        }
      },
      "setStage(bytes32,uint8)": {
        "details": "Updates the stage of a service and all of its children",
        "params": {
          "_service": "The hash of the service to be updated",
          "_stage": "The new stage of the service"
        }
      }
    },
    "title": "ServiceAgreement"
  },
  "userdoc": {
    "methods": {}
  }
}