{
  "contractName": "ServiceContract",
  "abi": [
    {
      "constant": false,
      "inputs": [
        {
          "internalType": "bytes32",
          "name": "_item",
          "type": "bytes32"
        }
      ],
      "name": "initStage",
      "outputs": [],
      "payable": false,
      "stateMutability": "nonpayable",
      "type": "function"
    },
    {
      "constant": true,
      "inputs": [
        {
          "internalType": "bytes32",
          "name": "_item",
          "type": "bytes32"
        }
      ],
      "name": "stageOf",
      "outputs": [
        {
          "internalType": "enum StateMachine.Stages",
          "name": "",
          "type": "uint8"
        }
      ],
      "payable": false,
      "stateMutability": "view",
      "type": "function"
    },
    {
      "constant": false,
      "inputs": [
        {
          "internalType": "address",
          "name": "_client",
          "type": "address"
        },
        {
          "internalType": "address",
          "name": "_contractor",
          "type": "address"
        }
      ],
      "name": "init",
      "outputs": [],
      "payable": false,
      "stateMutability": "nonpayable",
      "type": "function"
    },
    {
      "constant": true,
      "inputs": [],
      "name": "getClient",
      "outputs": [
        {
          "internalType": "address",
          "name": "",
          "type": "address"
        }
      ],
      "payable": false,
      "stateMutability": "view",
      "type": "function"
    },
    {
      "constant": true,
      "inputs": [],
      "name": "getContractor",
      "outputs": [
        {
          "internalType": "address",
          "name": "",
          "type": "address"
        }
      ],
      "payable": false,
      "stateMutability": "view",
      "type": "function"
    },
    {
      "constant": true,
      "inputs": [
        {
          "internalType": "bytes32",
          "name": "_super",
          "type": "bytes32"
        }
      ],
      "name": "getSectionsOf",
      "outputs": [
        {
          "internalType": "bytes32[]",
          "name": "",
          "type": "bytes32[]"
        }
      ],
      "payable": false,
      "stateMutability": "view",
      "type": "function"
    },
    {
      "constant": false,
      "inputs": [
        {
          "internalType": "bytes32",
          "name": "_super",
          "type": "bytes32"
        },
        {
          "internalType": "bytes32",
          "name": "_section",
          "type": "bytes32"
        },
        {
          "internalType": "bytes32",
          "name": "_billing",
          "type": "bytes32"
        }
      ],
      "name": "setSectionOf",
      "outputs": [],
      "payable": false,
      "stateMutability": "nonpayable",
      "type": "function"
    },
    {
      "constant": true,
      "inputs": [
        {
          "internalType": "bytes32",
          "name": "_section",
          "type": "bytes32"
        }
      ],
      "name": "getItemsOf",
      "outputs": [
        {
          "internalType": "bytes32[]",
          "name": "",
          "type": "bytes32[]"
        }
      ],
      "payable": false,
      "stateMutability": "view",
      "type": "function"
    },
    {
      "constant": false,
      "inputs": [
        {
          "internalType": "bytes32",
          "name": "_section",
          "type": "bytes32"
        },
        {
          "internalType": "bytes32",
          "name": "_item",
          "type": "bytes32"
        },
        {
          "internalType": "bytes32",
          "name": "_billing",
          "type": "bytes32"
        }
      ],
      "name": "setItemOf",
      "outputs": [],
      "payable": false,
      "stateMutability": "nonpayable",
      "type": "function"
    },
    {
      "constant": true,
      "inputs": [
        {
          "internalType": "bytes32",
          "name": "_of",
          "type": "bytes32"
        }
      ],
      "name": "getBillingOf",
      "outputs": [
        {
          "internalType": "bytes32",
          "name": "",
          "type": "bytes32"
        }
      ],
      "payable": false,
      "stateMutability": "view",
      "type": "function"
    },
    {
      "constant": false,
      "inputs": [
        {
          "internalType": "bytes32",
          "name": "_item",
          "type": "bytes32"
        }
      ],
      "name": "start",
      "outputs": [],
      "payable": false,
      "stateMutability": "nonpayable",
      "type": "function"
    },
    {
      "constant": false,
      "inputs": [
        {
          "internalType": "bytes32",
          "name": "_item",
          "type": "bytes32"
        }
      ],
      "name": "finish",
      "outputs": [],
      "payable": false,
      "stateMutability": "nonpayable",
      "type": "function"
    },
    {
      "constant": false,
      "inputs": [
        {
          "internalType": "bytes32",
          "name": "_item",
          "type": "bytes32"
        }
      ],
      "name": "approve",
      "outputs": [],
      "payable": false,
      "stateMutability": "nonpayable",
      "type": "function"
    },
    {
      "constant": false,
      "inputs": [
        {
          "internalType": "bytes32",
          "name": "_item",
          "type": "bytes32"
        }
      ],
      "name": "reject",
      "outputs": [],
      "payable": false,
      "stateMutability": "nonpayable",
      "type": "function"
    },
    {
      "constant": false,
      "inputs": [
        {
          "internalType": "bytes32",
          "name": "_item",
          "type": "bytes32"
        }
      ],
      "name": "pay",
      "outputs": [],
      "payable": false,
      "stateMutability": "nonpayable",
      "type": "function"
    }
  ],
  "bytecode": "0x608060405234801561001057600080fd5b506118ce806100206000396000f3fe608060405234801561001057600080fd5b50600436106100f55760003560e01c80638609cad111610097578063cabd734f11610066578063cabd734f14610420578063ea9a15721461044e578063f09a401614610490578063fde63056146104f4576100f5565b80638609cad11461033857806399f2d00714610366578063a53a1adf146103a8578063b6cb405b146103d6576100f5565b80636c91047a116100d35780636c91047a146101f55780636f95a619146102455780637572fba3146102875780637f5ce9c41461030a576100f5565b8063015a18ed146100fa57806353677b201461012857806359dc735c146101ab575b600080fd5b6101266004803603602081101561011057600080fd5b8101908080359060200190929190505050610522565b005b6101546004803603602081101561013e57600080fd5b8101908080359060200190929190505050610732565b6040518080602001828103825283818151815260200191508051906020019060200280838360005b8381101561019757808201518184015260208101905061017c565b505050509050019250505060405180910390f35b6101b3610860565b604051808273ffffffffffffffffffffffffffffffffffffffff1673ffffffffffffffffffffffffffffffffffffffff16815260200191505060405180910390f35b6102216004803603602081101561020b57600080fd5b810190808035906020019092919050505061094d565b6040518082600681111561023157fe5b60ff16815260200191505060405180910390f35b6102856004803603606081101561025b57600080fd5b81019080803590602001909291908035906020019092919080359060200190929190505050610976565b005b6102b36004803603602081101561029d57600080fd5b8101908080359060200190929190505050610a9c565b6040518080602001828103825283818151815260200191508051906020019060200280838360005b838110156102f65780820151818401526020810190506102db565b505050509050019250505060405180910390f35b6103366004803603602081101561032057600080fd5b8101908080359060200190929190505050610bca565b005b6103646004803603602081101561034e57600080fd5b8101908080359060200190929190505050610c01565b005b6103926004803603602081101561037c57600080fd5b8101908080359060200190929190505050610e11565b6040518082815260200191505060405180910390f35b6103d4600480360360208110156103be57600080fd5b8101908080359060200190929190505050610ef1565b005b6103de611105565b604051808273ffffffffffffffffffffffffffffffffffffffff1673ffffffffffffffffffffffffffffffffffffffff16815260200191505060405180910390f35b61044c6004803603602081101561043657600080fd5b81019080803590602001909291905050506111f2565b005b61048e6004803603606081101561046457600080fd5b81019080803590602001909291908035906020019092919080359060200190929190505050611402565b005b6104f2600480360360408110156104a657600080fd5b81019080803573ffffffffffffffffffffffffffffffffffffffff169060200190929190803573ffffffffffffffffffffffffffffffffffffffff16906020019092919050505061151f565b005b6105206004803603602081101561050a57600080fd5b81019080803590602001909291905050506115e6565b005b600360009054906101000a900473ffffffffffffffffffffffffffffffffffffffff1673ffffffffffffffffffffffffffffffffffffffff163373ffffffffffffffffffffffffffffffffffffffff16146105e5576040517f08c379a000000000000000000000000000000000000000000000000000000000815260040180806020018281038252601a8152602001807f4e6f7420616c6c6f7765642e204f6e6c7920666163746f72792e00000000000081525060200191505060405180910390fd5b80600060068111156105f357fe5b60008083815260200190815260200160002060009054906101000a900460ff16600681111561061e57fe5b11610691576040517f08c379a00000000000000000000000000000000000000000000000000000000081526004018080602001828103825260198152602001807f50726f7669646564206974656d20697320696e76616c69642e0000000000000081525060200191505060405180910390fd5b8160018060068111156106a057fe5b60008084815260200190815260200160002060009054906101000a900460ff1660068111156106cb57fe5b14610721576040517f08c379a00000000000000000000000000000000000000000000000000000000081526004018080602001828103825260278152602001806118736027913960400191505060405180910390fd5b8361072b816117f6565b5050505050565b6060600360009054906101000a900473ffffffffffffffffffffffffffffffffffffffff1673ffffffffffffffffffffffffffffffffffffffff163373ffffffffffffffffffffffffffffffffffffffff16146107f7576040517f08c379a000000000000000000000000000000000000000000000000000000000815260040180806020018281038252601a8152602001807f4e6f7420616c6c6f7765642e204f6e6c7920666163746f72792e00000000000081525060200191505060405180910390fd5b6004600083815260200190815260200160002080548060200260200160405190810160405280929190818152602001828054801561085457602002820191906000526020600020905b815481526020019060010190808311610840575b50505050509050919050565b6000600360009054906101000a900473ffffffffffffffffffffffffffffffffffffffff1673ffffffffffffffffffffffffffffffffffffffff163373ffffffffffffffffffffffffffffffffffffffff1614610925576040517f08c379a000000000000000000000000000000000000000000000000000000000815260040180806020018281038252601a8152602001807f4e6f7420616c6c6f7765642e204f6e6c7920666163746f72792e00000000000081525060200191505060405180910390fd5b600160009054906101000a900473ffffffffffffffffffffffffffffffffffffffff16905090565b600080600083815260200190815260200160002060009054906101000a900460ff169050919050565b600360009054906101000a900473ffffffffffffffffffffffffffffffffffffffff1673ffffffffffffffffffffffffffffffffffffffff163373ffffffffffffffffffffffffffffffffffffffff1614610a39576040517f08c379a000000000000000000000000000000000000000000000000000000000815260040180806020018281038252601a8152602001807f4e6f7420616c6c6f7765642e204f6e6c7920666163746f72792e00000000000081525060200191505060405180910390fd5b80600660008581526020019081526020016000208190555060056000848152602001908152602001600020829080600181540180825580915050906001820390600052602060002001600090919290919091505550610a9782610bca565b505050565b6060600360009054906101000a900473ffffffffffffffffffffffffffffffffffffffff1673ffffffffffffffffffffffffffffffffffffffff163373ffffffffffffffffffffffffffffffffffffffff1614610b61576040517f08c379a000000000000000000000000000000000000000000000000000000000815260040180806020018281038252601a8152602001807f4e6f7420616c6c6f7765642e204f6e6c7920666163746f72792e00000000000081525060200191505060405180910390fd5b60056000838152602001908152602001600020805480602002602001604051908101604052809291908181526020018280548015610bbe57602002820191906000526020600020905b815481526020019060010190808311610baa575b50505050509050919050565b600160008083815260200190815260200160002060006101000a81548160ff02191690836006811115610bf957fe5b021790555050565b600360009054906101000a900473ffffffffffffffffffffffffffffffffffffffff1673ffffffffffffffffffffffffffffffffffffffff163373ffffffffffffffffffffffffffffffffffffffff1614610cc4576040517f08c379a000000000000000000000000000000000000000000000000000000000815260040180806020018281038252601a8152602001807f4e6f7420616c6c6f7765642e204f6e6c7920666163746f72792e00000000000081525060200191505060405180910390fd5b8060006006811115610cd257fe5b60008083815260200190815260200160002060009054906101000a900460ff166006811115610cfd57fe5b11610d70576040517f08c379a00000000000000000000000000000000000000000000000000000000081526004018080602001828103825260198152602001807f50726f7669646564206974656d20697320696e76616c69642e0000000000000081525060200191505060405180910390fd5b816004806006811115610d7f57fe5b60008084815260200190815260200160002060009054906101000a900460ff166006811115610daa57fe5b14610e00576040517f08c379a00000000000000000000000000000000000000000000000000000000081526004018080602001828103825260278152602001806118736027913960400191505060405180910390fd5b83610e0a816117f6565b5050505050565b6000600360009054906101000a900473ffffffffffffffffffffffffffffffffffffffff1673ffffffffffffffffffffffffffffffffffffffff163373ffffffffffffffffffffffffffffffffffffffff1614610ed6576040517f08c379a000000000000000000000000000000000000000000000000000000000815260040180806020018281038252601a8152602001807f4e6f7420616c6c6f7765642e204f6e6c7920666163746f72792e00000000000081525060200191505060405180910390fd5b60066000838152602001908152602001600020549050919050565b600360009054906101000a900473ffffffffffffffffffffffffffffffffffffffff1673ffffffffffffffffffffffffffffffffffffffff163373ffffffffffffffffffffffffffffffffffffffff1614610fb4576040517f08c379a000000000000000000000000000000000000000000000000000000000815260040180806020018281038252601a8152602001807f4e6f7420616c6c6f7765642e204f6e6c7920666163746f72792e00000000000081525060200191505060405180910390fd5b8060006006811115610fc257fe5b60008083815260200190815260200160002060009054906101000a900460ff166006811115610fed57fe5b11611060576040517f08c379a00000000000000000000000000000000000000000000000000000000081526004018080602001828103825260198152602001807f50726f7669646564206974656d20697320696e76616c69642e0000000000000081525060200191505060405180910390fd5b81600380600681111561106f57fe5b60008084815260200190815260200160002060009054906101000a900460ff16600681111561109a57fe5b146110f0576040517f08c379a00000000000000000000000000000000000000000000000000000000081526004018080602001828103825260278152602001806118736027913960400191505060405180910390fd5b8360046110fd828261183b565b505050505050565b6000600360009054906101000a900473ffffffffffffffffffffffffffffffffffffffff1673ffffffffffffffffffffffffffffffffffffffff163373ffffffffffffffffffffffffffffffffffffffff16146111ca576040517f08c379a000000000000000000000000000000000000000000000000000000000815260040180806020018281038252601a8152602001807f4e6f7420616c6c6f7765642e204f6e6c7920666163746f72792e00000000000081525060200191505060405180910390fd5b600260009054906101000a900473ffffffffffffffffffffffffffffffffffffffff16905090565b600360009054906101000a900473ffffffffffffffffffffffffffffffffffffffff1673ffffffffffffffffffffffffffffffffffffffff163373ffffffffffffffffffffffffffffffffffffffff16146112b5576040517f08c379a000000000000000000000000000000000000000000000000000000000815260040180806020018281038252601a8152602001807f4e6f7420616c6c6f7765642e204f6e6c7920666163746f72792e00000000000081525060200191505060405180910390fd5b80600060068111156112c357fe5b60008083815260200190815260200160002060009054906101000a900460ff1660068111156112ee57fe5b11611361576040517f08c379a00000000000000000000000000000000000000000000000000000000081526004018080602001828103825260198152602001807f50726f7669646564206974656d20697320696e76616c69642e0000000000000081525060200191505060405180910390fd5b81600380600681111561137057fe5b60008084815260200190815260200160002060009054906101000a900460ff16600681111561139b57fe5b146113f1576040517f08c379a00000000000000000000000000000000000000000000000000000000081526004018080602001828103825260278152602001806118736027913960400191505060405180910390fd5b836113fb816117f6565b5050505050565b600360009054906101000a900473ffffffffffffffffffffffffffffffffffffffff1673ffffffffffffffffffffffffffffffffffffffff163373ffffffffffffffffffffffffffffffffffffffff16146114c5576040517f08c379a000000000000000000000000000000000000000000000000000000000815260040180806020018281038252601a8152602001807f4e6f7420616c6c6f7765642e204f6e6c7920666163746f72792e00000000000081525060200191505060405180910390fd5b80600660008481526020019081526020016000208190555060046000848152602001908152602001600020829080600181540180825580915050906001820390600052602060002001600090919290919091505550505050565b33600360006101000a81548173ffffffffffffffffffffffffffffffffffffffff021916908373ffffffffffffffffffffffffffffffffffffffff16021790555081600160006101000a81548173ffffffffffffffffffffffffffffffffffffffff021916908373ffffffffffffffffffffffffffffffffffffffff16021790555080600260006101000a81548173ffffffffffffffffffffffffffffffffffffffff021916908373ffffffffffffffffffffffffffffffffffffffff1602179055505050565b600360009054906101000a900473ffffffffffffffffffffffffffffffffffffffff1673ffffffffffffffffffffffffffffffffffffffff163373ffffffffffffffffffffffffffffffffffffffff16146116a9576040517f08c379a000000000000000000000000000000000000000000000000000000000815260040180806020018281038252601a8152602001807f4e6f7420616c6c6f7765642e204f6e6c7920666163746f72792e00000000000081525060200191505060405180910390fd5b80600060068111156116b757fe5b60008083815260200190815260200160002060009054906101000a900460ff1660068111156116e257fe5b11611755576040517f08c379a00000000000000000000000000000000000000000000000000000000081526004018080602001828103825260198152602001807f50726f7669646564206974656d20697320696e76616c69642e0000000000000081525060200191505060405180910390fd5b81600280600681111561176457fe5b60008084815260200190815260200160002060009054906101000a900460ff16600681111561178f57fe5b146117e5576040517f08c379a00000000000000000000000000000000000000000000000000000000081526004018080602001828103825260278152602001806118736027913960400191505060405180910390fd5b836117ef816117f6565b5050505050565b61183881600160008085815260200190815260200160002060009054906101000a900460ff16600681111561182757fe5b01600681111561183357fe5b61183b565b50565b8060008084815260200190815260200160002060006101000a81548160ff0219169083600681111561186957fe5b0217905550505056fe46756e6374696f6e2063616e6e6f742062652063616c6c656420617420746869732074696d652ea265627a7a723158205babf4c9b2bfd180a7faa23b37002b5f656b84c020aa83e6034c694caaff5b1e64736f6c63430005100032",
  "source": "// SPDX-License-Identifier: MIT\npragma solidity >=0.4.21 <0.7.1;\n\nimport './StateMachine.sol';\n\ncontract ServiceContract is StateMachine {\n    address private client;\n    address private contractor;\n    address private factory;\n\n    mapping(bytes32 => bytes32[]) private sections; // supersection or contract -> subsections\n    mapping(bytes32 => bytes32[]) private items; // section -> items\n    mapping(bytes32 => bytes32) private billings; // section or item -> billing\n\n    modifier onlyFactory() {\n        require(msg.sender == factory, 'Not allowed. Only factory.');\n        _;\n    }\n\n    function init(address _client, address _contractor) public {\n        factory = msg.sender;\n        client = _client;\n        contractor = _contractor;\n    }\n\n    function getClient() external view onlyFactory returns (address) {\n        return client;\n    }\n\n    function getContractor() external view onlyFactory returns (address) {\n        return contractor;\n    }\n\n    function getSectionsOf(bytes32 _super)\n        external\n        view\n        onlyFactory\n        returns (bytes32[] memory)\n    {\n        return sections[_super];\n    }\n\n    function setSectionOf(\n        bytes32 _super,\n        bytes32 _section,\n        bytes32 _billing\n    ) external onlyFactory {\n        billings[_section] = _billing;\n        sections[_super].push(_section);\n    }\n\n    function getItemsOf(bytes32 _section)\n        external\n        view\n        onlyFactory\n        returns (bytes32[] memory)\n    {\n        return items[_section];\n    }\n\n    function setItemOf(\n        bytes32 _section,\n        bytes32 _item,\n        bytes32 _billing\n    ) external onlyFactory {\n        billings[_section] = _billing;\n        items[_section].push(_item);\n        initStage(_item);\n    }\n\n    function getBillingOf(bytes32 _of)\n        external\n        view\n        onlyFactory\n        returns (bytes32)\n    {\n        return billings[_of];\n    }\n\n    function start(bytes32 _item)\n        external\n        onlyFactory\n        isValid(_item)\n        atStage(_item, Stages.INITIALIZED)\n        transitionNext(_item)\n    {}\n\n    function finish(bytes32 _item)\n        external\n        onlyFactory\n        isValid(_item)\n        atStage(_item, Stages.STARTED)\n        transitionNext(_item)\n    {}\n\n    function approve(bytes32 _item)\n        external\n        onlyFactory\n        isValid(_item)\n        atStage(_item, Stages.FINISHED)\n        transitionTo(_item, StateMachine.Stages.APPROVED)\n    {}\n\n    function reject(bytes32 _item)\n        external\n        onlyFactory\n        isValid(_item)\n        atStage(_item, Stages.FINISHED)\n        transitionNext(_item)\n    {}\n\n    function pay(bytes32 _item)\n        external\n        onlyFactory\n        isValid(_item)\n        atStage(_item, Stages.APPROVED)\n        transitionNext(_item)\n    {}\n}\n",
  "sourcePath": "C:\\Users\\fabia\\WebstormProjects\\bim-contracts\\contracts\\ServiceContract.sol",
  "compiler": {
    "name": "solc",
    "version": "0.5.16+commit.9c3226ce.Emscripten.clang"
  },
  "schemaVersion": "3.2.4",
  "updatedAt": "2020-10-07T13:35:47.243Z",
  "networkType": "ethereum",
  "devdoc": {
    "methods": {}
  },
  "userdoc": {
    "methods": {}
  }
}