{
  "contractName": "ServiceAgreement",
  "abi": [
    {
      "anonymous": false,
      "inputs": [
        {
          "indexed": false,
          "internalType": "bytes32",
          "name": "_service",
          "type": "bytes32"
        }
      ],
      "name": "Payment",
      "type": "event"
    },
    {
      "anonymous": false,
      "inputs": [
        {
          "indexed": false,
          "internalType": "bytes32",
          "name": "_service",
          "type": "bytes32"
        },
        {
          "indexed": false,
          "internalType": "uint256",
          "name": "_stage",
          "type": "uint256"
        }
      ],
      "name": "ServiceTransition",
      "type": "event"
    },
    {
      "constant": false,
      "inputs": [
        {
          "internalType": "bytes32",
          "name": "_service",
          "type": "bytes32"
        },
        {
          "internalType": "bytes32",
          "name": "_parent",
          "type": "bytes32"
        },
        {
          "internalType": "address",
          "name": "_client",
          "type": "address"
        },
        {
          "internalType": "address",
          "name": "_contractor",
          "type": "address"
        },
        {
          "internalType": "bytes32[]",
          "name": "_children",
          "type": "bytes32[]"
        },
        {
          "internalType": "bytes32[]",
          "name": "_parents",
          "type": "bytes32[]"
        },
        {
          "internalType": "bool[]",
          "name": "_billables",
          "type": "bool[]"
        },
        {
          "internalType": "bytes32[]",
          "name": "_documents",
          "type": "bytes32[]"
        }
      ],
      "name": "init",
      "outputs": [],
      "payable": false,
      "stateMutability": "nonpayable",
      "type": "function"
    },
    {
      "constant": true,
      "inputs": [
        {
          "internalType": "bytes32",
          "name": "_service",
          "type": "bytes32"
        }
      ],
      "name": "getServiceStage",
      "outputs": [
        {
          "internalType": "enum ServiceAgreement.Stages",
          "name": "",
          "type": "uint8"
        }
      ],
      "payable": false,
      "stateMutability": "view",
      "type": "function"
    },
    {
      "constant": false,
      "inputs": [
        {
          "internalType": "bytes32",
          "name": "_service",
          "type": "bytes32"
        }
      ],
      "name": "startService",
      "outputs": [
        {
          "internalType": "bool",
          "name": "",
          "type": "bool"
        }
      ],
      "payable": false,
      "stateMutability": "nonpayable",
      "type": "function"
    },
    {
      "constant": false,
      "inputs": [
        {
          "internalType": "bytes32",
          "name": "_service",
          "type": "bytes32"
        }
      ],
      "name": "finishService",
      "outputs": [
        {
          "internalType": "bool",
          "name": "",
          "type": "bool"
        }
      ],
      "payable": false,
      "stateMutability": "nonpayable",
      "type": "function"
    },
    {
      "constant": false,
      "inputs": [
        {
          "internalType": "bytes32",
          "name": "_service",
          "type": "bytes32"
        }
      ],
      "name": "approveService",
      "outputs": [
        {
          "internalType": "bool",
          "name": "",
          "type": "bool"
        }
      ],
      "payable": false,
      "stateMutability": "nonpayable",
      "type": "function"
    },
    {
      "constant": false,
      "inputs": [
        {
          "internalType": "bytes32",
          "name": "_service",
          "type": "bytes32"
        }
      ],
      "name": "rejectService",
      "outputs": [
        {
          "internalType": "bool",
          "name": "",
          "type": "bool"
        }
      ],
      "payable": false,
      "stateMutability": "nonpayable",
      "type": "function"
    },
    {
      "constant": false,
      "inputs": [
        {
          "internalType": "bytes32",
          "name": "_service",
          "type": "bytes32"
        }
      ],
      "name": "payService",
      "outputs": [
        {
          "internalType": "bool",
          "name": "",
          "type": "bool"
        }
      ],
      "payable": false,
      "stateMutability": "nonpayable",
      "type": "function"
    },
    {
      "constant": false,
      "inputs": [
        {
          "internalType": "bytes32",
          "name": "_service",
          "type": "bytes32"
        },
        {
          "internalType": "enum ServiceAgreement.Stages",
          "name": "_stage",
          "type": "uint8"
        }
      ],
      "name": "setStage",
      "outputs": [
        {
          "internalType": "bool",
          "name": "",
          "type": "bool"
        }
      ],
      "payable": false,
      "stateMutability": "nonpayable",
      "type": "function"
    },
    {
      "constant": false,
      "inputs": [],
      "name": "cleanup",
      "outputs": [],
      "payable": false,
      "stateMutability": "nonpayable",
      "type": "function"
    }
  ],
  "bytecode": "0x608060405234801561001057600080fd5b50611191806100206000396000f3fe608060405234801561001057600080fd5b50600436106100935760003560e01c80634c2b58b4116100665780634c2b58b41461017e5780637b62a459146101c45780639d3a2a2c1461020a578063aa5155bd146104d3578063d1e8c3ea1461051957610093565b806304f306e31461009857806319eaf360146100de57806324eed8f51461012e5780633cecd71914610174575b600080fd5b6100c4600480360360208110156100ae57600080fd5b810190808035906020019092919050505061056c565b604051808215151515815260200191505060405180910390f35b61010a600480360360208110156100f457600080fd5b8101908080359060200190929190505050610673565b6040518082600681111561011a57fe5b60ff16815260200191505060405180910390f35b61015a6004803603602081101561014457600080fd5b81019080803590602001909291905050506106a0565b604051808215151515815260200191505060405180910390f35b61017c6107a7565b005b6101aa6004803603602081101561019457600080fd5b81019080803590602001909291905050506107a9565b604051808215151515815260200191505060405180910390f35b6101f0600480360360208110156101da57600080fd5b81019080803590602001909291905050506108af565b604051808215151515815260200191505060405180910390f35b6104d1600480360361010081101561022157600080fd5b810190808035906020019092919080359060200190929190803573ffffffffffffffffffffffffffffffffffffffff169060200190929190803573ffffffffffffffffffffffffffffffffffffffff1690602001909291908035906020019064010000000081111561029257600080fd5b8201836020820111156102a457600080fd5b803590602001918460208302840111640100000000831117156102c657600080fd5b919080806020026020016040519081016040528093929190818152602001838360200280828437600081840152601f19601f8201169050808301925050505050505091929192908035906020019064010000000081111561032657600080fd5b82018360208201111561033857600080fd5b8035906020019184602083028401116401000000008311171561035a57600080fd5b919080806020026020016040519081016040528093929190818152602001838360200280828437600081840152601f19601f820116905080830192505050505050509192919290803590602001906401000000008111156103ba57600080fd5b8201836020820111156103cc57600080fd5b803590602001918460208302840111640100000000831117156103ee57600080fd5b919080806020026020016040519081016040528093929190818152602001838360200280828437600081840152601f19601f8201169050808301925050505050505091929192908035906020019064010000000081111561044e57600080fd5b82018360208201111561046057600080fd5b8035906020019184602083028401116401000000008311171561048257600080fd5b919080806020026020016040519081016040528093929190818152602001838360200280828437600081840152601f19601f8201169050808301925050505050505091929192905050506109b5565b005b6104ff600480360360208110156104e957600080fd5b8101908080359060200190929190505050610be8565b604051808215151515815260200191505060405180910390f35b6105526004803603604081101561052f57600080fd5b8101908080359060200190929190803560ff169060200190929190505050610cee565b604051808215151515815260200191505060405180910390f35b6000600260009054906101000a900473ffffffffffffffffffffffffffffffffffffffff1673ffffffffffffffffffffffffffffffffffffffff163373ffffffffffffffffffffffffffffffffffffffff16146105c857600080fd5b8160038060068111156105d757fe5b6001600084815260200190815260200160002060000160009054906101000a900460ff16600681111561060657fe5b1461065c576040517f08c379a00000000000000000000000000000000000000000000000000000000081526004018080602001828103825260288152602001806111356028913960400191505060405180910390fd5b610667846005610cee565b50600192505050919050565b60006001600083815260200190815260200160002060000160009054906101000a900460ff169050919050565b6000600260009054906101000a900473ffffffffffffffffffffffffffffffffffffffff1673ffffffffffffffffffffffffffffffffffffffff163373ffffffffffffffffffffffffffffffffffffffff16146106fc57600080fd5b81600480600681111561070b57fe5b6001600084815260200190815260200160002060000160009054906101000a900460ff16600681111561073a57fe5b14610790576040517f08c379a00000000000000000000000000000000000000000000000000000000081526004018080602001828103825260288152602001806111356028913960400191505060405180910390fd5b61079b846006610cee565b50600192505050919050565b565b6000600260009054906101000a900473ffffffffffffffffffffffffffffffffffffffff1673ffffffffffffffffffffffffffffffffffffffff163373ffffffffffffffffffffffffffffffffffffffff161461080557600080fd5b81600380600681111561081457fe5b6001600084815260200190815260200160002060000160009054906101000a900460ff16600681111561084357fe5b14610899576040517f08c379a00000000000000000000000000000000000000000000000000000000081526004018080602001828103825260288152602001806111356028913960400191505060405180910390fd5b83600193506108a781610e47565b505050919050565b6000600360009054906101000a900473ffffffffffffffffffffffffffffffffffffffff1673ffffffffffffffffffffffffffffffffffffffff163373ffffffffffffffffffffffffffffffffffffffff161461090b57600080fd5b81600180600681111561091a57fe5b6001600084815260200190815260200160002060000160009054906101000a900460ff16600681111561094957fe5b1461099f576040517f08c379a00000000000000000000000000000000000000000000000000000000081526004018080602001828103825260288152602001806111356028913960400191505060405180910390fd5b83600193506109ad81610e47565b505050919050565b876000819055506040518060800160405280600160068111156109d457fe5b81526020018881526020016000604051908082528060200260200182016040528015610a0f5781602001602082028038833980820191505090505b50815260200160011515815250600160008a815260200190815260200160002060008201518160000160006101000a81548160ff02191690836006811115610a5357fe5b0217905550602082015181600101556040820151816002019080519060200190610a7e929190611075565b5060608201518160030160006101000a81548160ff02191690831515021790555090505085600260006101000a81548173ffffffffffffffffffffffffffffffffffffffff021916908373ffffffffffffffffffffffffffffffffffffffff16021790555084600360006101000a81548173ffffffffffffffffffffffffffffffffffffffff021916908373ffffffffffffffffffffffffffffffffffffffff16021790555033600460006101000a81548173ffffffffffffffffffffffffffffffffffffffff021916908373ffffffffffffffffffffffffffffffffffffffff1602179055508060059080519060200190610b7b9291906110c2565b5060008090505b8451811015610bdd57610bcf858281518110610b9a57fe5b6020026020010151858381518110610bae57fe5b6020026020010151858481518110610bc257fe5b6020026020010151610e90565b508080600101915050610b82565b505050505050505050565b6000600360009054906101000a900473ffffffffffffffffffffffffffffffffffffffff1673ffffffffffffffffffffffffffffffffffffffff163373ffffffffffffffffffffffffffffffffffffffff1614610c4457600080fd5b816002806006811115610c5357fe5b6001600084815260200190815260200160002060000160009054906101000a900460ff166006811115610c8257fe5b14610cd8576040517f08c379a00000000000000000000000000000000000000000000000000000000081526004018080602001828103825260288152602001806111356028913960400191505060405180910390fd5b8360019350610ce681610e47565b505050919050565b600080600090505b6001600085815260200190815260200160002060020180549050811015610d5a57610d4c600160008681526020019081526020016000206002018281548110610d3b57fe5b906000526020600020015484610cee565b508080600101915050610cf6565b50816001600085815260200190815260200160002060000160006101000a81548160ff02191690836006811115610d8d57fe5b02179055507fec1f2429db2e2e5a75096219bd1c8f41d5cbc84e68e5f316ab63c6bd12bbff3383836006811115610dc057fe5b604051808381526020018281526020019250505060405180910390a16001600084815260200190815260200160002060030160009054906101000a900460ff1615610e3d577fadee04cb7c7dc8ba441caff4f51b7c0bbdf8122fac7f065bf606d9d3bdf370cb836040518082815260200191505060405180910390a15b6001905092915050565b610e8c81600180600085815260200190815260200160002060000160009054906101000a900460ff166006811115610e7b57fe5b016006811115610e8757fe5b610cee565b5050565b600060016006811115610e9f57fe5b6001600085815260200190815260200160002060000160009054906101000a900460ff166006811115610ece57fe5b1015610f42576040517f08c379a000000000000000000000000000000000000000000000000000000000815260040180806020018281038252601e8152602001807f506172656e742073657276696365206e6f6465206e6f7420666f756e642e000081525060200191505060405180910390fd5b604051806080016040528060016006811115610f5a57fe5b81526020016000801b81526020016000604051908082528060200260200182016040528015610f985781602001602082028038833980820191505090505b5081526020018315158152506001600086815260200190815260200160002060008201518160000160006101000a81548160ff02191690836006811115610fdb57fe5b0217905550602082015181600101556040820151816002019080519060200190611006929190611075565b5060608201518160030160006101000a81548160ff02191690831515021790555090505060016000848152602001908152602001600020600201849080600181540180825580915050906001820390600052602060002001600090919290919091505550600190509392505050565b8280548282559060005260206000209081019282156110b1579160200282015b828111156110b0578251825591602001919060010190611095565b5b5090506110be919061110f565b5090565b8280548282559060005260206000209081019282156110fe579160200282015b828111156110fd5782518255916020019190600101906110e2565b5b50905061110b919061110f565b5090565b61113191905b8082111561112d576000816000905550600101611115565b5090565b9056fe46756e6374696f6e2063616e6e6f742062652063616c6c656420617420746869732073746167652ea265627a7a723158201c7565fae7ba07e8cc93898d1f27e80a2b5c4b60e9d8063c8c491694985dd9ef64736f6c63430005100032",
  "source": "// SPDX-License-Identifier: MIT\npragma solidity >=0.4.21 <0.7.1;\n\nimport './ServiceAgreementFactory.sol';\n\n/**\n * @title ServiceAgreement\n * @dev Store & retreive value in a variable\n */\ncontract ServiceAgreement {\n    event ServiceTransition(bytes32 _service, uint256 _stage);\n    event Payment(bytes32 _service);\n\n    enum Stages {\n        EMPTY, // 0 - Initial stage shouldnt be 0. This could cause validation conflicts)\n        INITIALIZED, // 1\n        STARTED, // 2\n        FINISHED, // 3\n        APPROVED, // 4\n        REJECTED, // 5\n        PAYED // 6\n    }\n\n    struct ServiceNode {\n        Stages stage;\n        bytes32 parent;\n        bytes32[] children;\n        bool billable;\n    }\n\n    bytes32 service;\n    mapping(bytes32 => ServiceNode) services;\n\n    address client;\n    address contractor;\n    address factory;\n\n    bytes32[] documents;\n\n    modifier onlyClient() {\n        require(msg.sender == client);\n        _;\n    }\n\n    modifier onlyContractor() {\n        require(msg.sender == contractor);\n        _;\n    }\n\n    modifier atStage(bytes32 _service, Stages _stage) {\n        require(\n            services[_service].stage == _stage,\n            'Function cannot be called at this stage.'\n        );\n        _;\n    }\n\n    modifier transitionAfter(bytes32 _service) {\n        _;\n        _nextStage(_service);\n    }\n\n    /**\n     * @dev Creates a new service agreement with initial values\n     * @param _service The hash of the service agreement\n     * @param _parent The hash of the parent service\n     * @param _client The contractor of the service agreement\n     * @param _contractor The contractor of the service agreement\n     * @param _children The hashes of the child services\n     * @param _parents The hashes of parent services of the service specified in same index of _hashes\n     * @param _billables Determines if the service node on index of _hashes has an associated billing unit\n     * @param _documents The hashes of contract documents of the service agreement\n     */\n    function init(\n        bytes32 _service,\n        bytes32 _parent,\n        address _client,\n        address _contractor,\n        bytes32[] memory _children,\n        bytes32[] memory _parents,\n        bool[] memory _billables,\n        bytes32[] memory _documents\n    ) public {\n        service = _service;\n        services[_service] = ServiceNode(\n            Stages.INITIALIZED,\n            _parent,\n            new bytes32[](0),\n            true\n        ); // root service\n        client = _client;\n        contractor = _contractor;\n        factory = msg.sender;\n        documents = _documents;\n        for (uint256 i = 0; i < _children.length; i++) {\n            _addServiceNode(_children[i], _parents[i], _billables[i]);\n        }\n    }\n\n    /**\n     * @dev Creates a new service node\n     * @param _service The hash of the service to be created\n     * @param _parent The hash of the parent of the new service\n     */\n    function _addServiceNode(\n        bytes32 _service,\n        bytes32 _parent,\n        bool _billable\n    ) internal returns (bool) {\n        require(\n            services[_parent].stage >= Stages.INITIALIZED,\n            'Parent service node not found.'\n        );\n        services[_service] = ServiceNode(\n            Stages.INITIALIZED,\n            0,\n            new bytes32[](0),\n            _billable\n        );\n        services[_parent].children.push(_service);\n        return true;\n    }\n\n    /**\n     * @dev Retrieves the current stage of a service node\n     * @param _service The hash of the service to get the current stage from\n     */\n    function getServiceStage(bytes32 _service) public view returns (Stages) {\n        return services[_service].stage;\n    }\n\n    /**\n     * @dev Starts a service node\n     * @param _service The hash of the service to get the current stage from\n     */\n    function startService(bytes32 _service)\n        public\n        onlyContractor\n        atStage(_service, Stages.INITIALIZED)\n        transitionAfter(_service)\n        returns (bool)\n    {\n        return true;\n    }\n\n    /**\n     * @dev Finishes a service node\n     * @param _service The hash of the service to get the current stage from\n     */\n    function finishService(bytes32 _service)\n        public\n        onlyContractor\n        atStage(_service, Stages.STARTED)\n        transitionAfter(_service)\n        returns (bool)\n    {\n        return true;\n    }\n\n    /**\n     * @dev Approves a service node\n     * @param _service The hash of the service to get the current stage from\n     */\n    function approveService(bytes32 _service)\n        public\n        onlyClient\n        atStage(_service, Stages.FINISHED)\n        transitionAfter(_service)\n        returns (bool)\n    {\n        return true;\n    }\n\n    /**\n     * @dev Approves a service node\n     * @param _service The hash of the service to get the current stage from\n     */\n    function rejectService(bytes32 _service)\n        public\n        onlyClient\n        atStage(_service, Stages.FINISHED)\n        returns (bool)\n    {\n        setStage(_service, Stages.REJECTED);\n        return true;\n    }\n\n    /**\n     * @dev Approves a service node\n     * @param _service The hash of the service to get the current stage from\n     */\n    function payService(bytes32 _service)\n        public\n        onlyClient\n        atStage(_service, Stages.APPROVED)\n        returns (bool)\n    {\n        setStage(_service, Stages.PAYED);\n        return true;\n    }\n\n    /**\n     * @dev Transitions Service to its next stage\n     * @param _service The hash of the service to get the current stage from\n     */\n    function _nextStage(bytes32 _service) internal {\n        setStage(_service, Stages(uint256(services[_service].stage) + 1));\n    }\n\n    /**\n     * @dev Updates the stage of a service and all of its children\n     * @param _service The hash of the service to be updated\n     * @param _stage The new stage of the service\n     */\n    function setStage(bytes32 _service, Stages _stage) public returns (bool) {\n        for (uint256 i = 0; i < services[_service].children.length; i++) {\n            setStage(services[_service].children[i], _stage);\n        }\n        services[_service].stage = _stage;\n        // if (services[services[_service].parent].stage < Stages.INITIALIZED) {\n        //     // Service parent resides in another service agreement. We have to update the stage via ServiceAgreementFactory.\n        //     ServiceAgreementFactory(factory).setServiceStage(\n        //         services[_service].parent,\n        //         _stage\n        //     );\n        // }\n        emit ServiceTransition(_service, uint256(_stage));\n        if (services[_service].billable) {\n            emit Payment(_service);\n        }\n        return true;\n    }\n\n    function cleanup() public {\n        // TODO Implement cleanup of service agreement\n    }\n}\n",
  "sourcePath": "C:\\Users\\fabia\\WebstormProjects\\bim-contracts\\contracts\\ServiceAgreement.sol",
  "compiler": {
    "name": "solc",
    "version": "0.5.16+commit.9c3226ce.Emscripten.clang"
  },
  "schemaVersion": "3.2.4",
  "updatedAt": "2020-09-29T12:56:48.036Z",
  "networkType": "ethereum",
  "devdoc": {
    "details": "Store & retreive value in a variable",
    "methods": {
      "approveService(bytes32)": {
        "details": "Approves a service node",
        "params": {
          "_service": "The hash of the service to get the current stage from"
        }
      },
      "finishService(bytes32)": {
        "details": "Finishes a service node",
        "params": {
          "_service": "The hash of the service to get the current stage from"
        }
      },
      "getServiceStage(bytes32)": {
        "details": "Retrieves the current stage of a service node",
        "params": {
          "_service": "The hash of the service to get the current stage from"
        }
      },
      "init(bytes32,bytes32,address,address,bytes32[],bytes32[],bool[],bytes32[])": {
        "details": "Creates a new service agreement with initial values",
        "params": {
          "_billables": "Determines if the service node on index of _hashes has an associated billing unit",
          "_children": "The hashes of the child services",
          "_client": "The contractor of the service agreement",
          "_contractor": "The contractor of the service agreement",
          "_documents": "The hashes of contract documents of the service agreement",
          "_parent": "The hash of the parent service",
          "_parents": "The hashes of parent services of the service specified in same index of _hashes",
          "_service": "The hash of the service agreement"
        }
      },
      "payService(bytes32)": {
        "details": "Approves a service node",
        "params": {
          "_service": "The hash of the service to get the current stage from"
        }
      },
      "rejectService(bytes32)": {
        "details": "Approves a service node",
        "params": {
          "_service": "The hash of the service to get the current stage from"
        }
      },
      "setStage(bytes32,uint8)": {
        "details": "Updates the stage of a service and all of its children",
        "params": {
          "_service": "The hash of the service to be updated",
          "_stage": "The new stage of the service"
        }
      },
      "startService(bytes32)": {
        "details": "Starts a service node",
        "params": {
          "_service": "The hash of the service to get the current stage from"
        }
      }
    },
    "title": "ServiceAgreement"
  },
  "userdoc": {
    "methods": {}
  }
}