{
  "contractName": "StateMachine",
  "abi": [
    {
      "constant": true,
      "inputs": [
        {
          "internalType": "bytes32",
          "name": "_item",
          "type": "bytes32"
        }
      ],
      "name": "stageOf",
      "outputs": [
        {
          "internalType": "enum StateMachine.Stages",
          "name": "",
          "type": "uint8"
        }
      ],
      "payable": false,
      "stateMutability": "view",
      "type": "function"
    },
    {
      "constant": false,
      "inputs": [
        {
          "internalType": "bytes32",
          "name": "_item",
          "type": "bytes32"
        }
      ],
      "name": "initStage",
      "outputs": [],
      "payable": false,
      "stateMutability": "nonpayable",
      "type": "function"
    }
  ],
  "bytecode": "0x608060405234801561001057600080fd5b5061014e806100206000396000f3fe608060405234801561001057600080fd5b50600436106100365760003560e01c80636c91047a1461003b5780637f5ce9c41461008b575b600080fd5b6100676004803603602081101561005157600080fd5b81019080803590602001909291905050506100b9565b6040518082600681111561007757fe5b60ff16815260200191505060405180910390f35b6100b7600480360360208110156100a157600080fd5b81019080803590602001909291905050506100e2565b005b600080600083815260200190815260200160002060009054906101000a900460ff169050919050565b600160008083815260200190815260200160002060006101000a81548160ff0219169083600681111561011157fe5b02179055505056fea265627a7a7231582016f0f98fcb09f9026a51af17f4d4f305cc797087e72c0b33ed0e0c7d8630505564736f6c63430005100032",
  "source": "// SPDX-License-Identifier: MIT\npragma solidity >=0.4.21 <0.7.1;\n\ncontract StateMachine {\n    enum Stages {\n        EMPTY, // 0\n        INITIALIZED, // 1\n        STARTED, // 2\n        FINISHED, // 3\n        APPROVED, // 4\n        REJECTED, // 5\n        PAYED // 6\n    }\n\n    mapping(bytes32 => Stages) stages;\n\n    modifier isValid(bytes32 _item) {\n        require(stages[_item] > Stages.EMPTY, 'Provided item is invalid.');\n        _;\n    }\n\n    modifier atStage(bytes32 _item, Stages _stage) {\n        require(\n            stages[_item] == _stage,\n            'Function cannot be called at this time.'\n        );\n        _;\n    }\n\n    function _nextStage(bytes32 _item) internal {\n        _setStage(_item, Stages(uint256(stages[_item]) + 1));\n    }\n\n    function _setStage(bytes32 _item, Stages _stage) internal {\n        stages[_item] = _stage;\n    }\n\n    modifier transitionNext(bytes32 _item) {\n        _;\n        _nextStage(_item);\n    }\n\n    modifier transitionTo(bytes32 _item, Stages _stage) {\n        _;\n        _setStage(_item, _stage);\n    }\n\n    function stageOf(bytes32 _item) public view returns (Stages) {\n        return stages[_item];\n    }\n\n    function initStage(bytes32 _item) public {\n        stages[_item] = Stages.INITIALIZED;\n    }\n}\n",
  "sourcePath": "C:\\Users\\fabia\\WebstormProjects\\bim-contracts\\contracts\\StateMachine.sol",
  "compiler": {
    "name": "solc",
    "version": "0.5.16+commit.9c3226ce.Emscripten.clang"
  },
  "schemaVersion": "3.2.4",
  "updatedAt": "2020-10-07T16:18:21.722Z",
  "devdoc": {
    "methods": {}
  },
  "userdoc": {
    "methods": {}
  }
}