{
  "contractName": "AgreementController",
  "abi": [
    {
      "constant": false,
      "inputs": [
        {
          "internalType": "bytes32",
          "name": "_agreement",
          "type": "bytes32"
        },
        {
          "internalType": "address",
          "name": "_contractor",
          "type": "address"
        },
        {
          "internalType": "bytes32[]",
          "name": "_roots",
          "type": "bytes32[]"
        },
        {
          "internalType": "bytes32[]",
          "name": "_services",
          "type": "bytes32[]"
        },
        {
          "internalType": "bytes32[]",
          "name": "_sections",
          "type": "bytes32[]"
        }
      ],
      "name": "createInitialAgreement",
      "outputs": [
        {
          "internalType": "bool",
          "name": "success",
          "type": "bool"
        }
      ],
      "payable": false,
      "stateMutability": "nonpayable",
      "type": "function"
    },
    {
      "constant": false,
      "inputs": [
        {
          "internalType": "bytes32",
          "name": "_agreement",
          "type": "bytes32"
        },
        {
          "internalType": "address",
          "name": "_contractor",
          "type": "address"
        },
        {
          "internalType": "bytes32[]",
          "name": "_services",
          "type": "bytes32[]"
        }
      ],
      "name": "createAgreement",
      "outputs": [
        {
          "internalType": "bool",
          "name": "success",
          "type": "bool"
        }
      ],
      "payable": false,
      "stateMutability": "nonpayable",
      "type": "function"
    },
    {
      "constant": true,
      "inputs": [
        {
          "internalType": "address",
          "name": "_client",
          "type": "address"
        }
      ],
      "name": "getAgreementsByClient",
      "outputs": [
        {
          "internalType": "bytes32[]",
          "name": "_agreements",
          "type": "bytes32[]"
        }
      ],
      "payable": false,
      "stateMutability": "view",
      "type": "function"
    },
    {
      "constant": true,
      "inputs": [
        {
          "internalType": "address",
          "name": "_contractor",
          "type": "address"
        }
      ],
      "name": "getAgreementsByContractor",
      "outputs": [
        {
          "internalType": "bytes32[]",
          "name": "_agreements",
          "type": "bytes32[]"
        }
      ],
      "payable": false,
      "stateMutability": "view",
      "type": "function"
    },
    {
      "constant": true,
      "inputs": [
        {
          "internalType": "bytes32",
          "name": "_agreement",
          "type": "bytes32"
        }
      ],
      "name": "getAgreement",
      "outputs": [
        {
          "internalType": "bool",
          "name": "payed",
          "type": "bool"
        },
        {
          "internalType": "address",
          "name": "_client",
          "type": "address"
        },
        {
          "internalType": "address",
          "name": "_contractor",
          "type": "address"
        },
        {
          "internalType": "bytes32[]",
          "name": "_services",
          "type": "bytes32[]"
        }
      ],
      "payable": false,
      "stateMutability": "view",
      "type": "function"
    },
    {
      "constant": true,
      "inputs": [
        {
          "internalType": "bytes32",
          "name": "_service",
          "type": "bytes32"
        }
      ],
      "name": "getService",
      "outputs": [
        {
          "internalType": "address",
          "name": "_client",
          "type": "address"
        },
        {
          "internalType": "address",
          "name": "_contractor",
          "type": "address"
        },
        {
          "internalType": "enum StateMachine.Stages",
          "name": "_stage",
          "type": "uint8"
        }
      ],
      "payable": false,
      "stateMutability": "view",
      "type": "function"
    },
    {
      "constant": true,
      "inputs": [
        {
          "internalType": "bytes32",
          "name": "_section",
          "type": "bytes32"
        }
      ],
      "name": "getServices",
      "outputs": [
        {
          "internalType": "bytes32[]",
          "name": "_services",
          "type": "bytes32[]"
        },
        {
          "internalType": "address[]",
          "name": "_clients",
          "type": "address[]"
        },
        {
          "internalType": "address[]",
          "name": "_contractors",
          "type": "address[]"
        },
        {
          "internalType": "enum StateMachine.Stages[]",
          "name": "_stages",
          "type": "uint8[]"
        }
      ],
      "payable": false,
      "stateMutability": "view",
      "type": "function"
    },
    {
      "constant": false,
      "inputs": [
        {
          "internalType": "bytes32",
          "name": "_service",
          "type": "bytes32"
        }
      ],
      "name": "start",
      "outputs": [
        {
          "internalType": "bool",
          "name": "success",
          "type": "bool"
        }
      ],
      "payable": false,
      "stateMutability": "nonpayable",
      "type": "function"
    },
    {
      "constant": false,
      "inputs": [
        {
          "internalType": "bytes32",
          "name": "_service",
          "type": "bytes32"
        }
      ],
      "name": "finish",
      "outputs": [
        {
          "internalType": "bool",
          "name": "success",
          "type": "bool"
        }
      ],
      "payable": false,
      "stateMutability": "nonpayable",
      "type": "function"
    },
    {
      "constant": false,
      "inputs": [
        {
          "internalType": "bytes32",
          "name": "_service",
          "type": "bytes32"
        }
      ],
      "name": "approve",
      "outputs": [
        {
          "internalType": "bool",
          "name": "success",
          "type": "bool"
        }
      ],
      "payable": false,
      "stateMutability": "nonpayable",
      "type": "function"
    },
    {
      "constant": false,
      "inputs": [
        {
          "internalType": "bytes32",
          "name": "_service",
          "type": "bytes32"
        }
      ],
      "name": "reject",
      "outputs": [
        {
          "internalType": "bool",
          "name": "success",
          "type": "bool"
        }
      ],
      "payable": false,
      "stateMutability": "nonpayable",
      "type": "function"
    }
  ],
  "bytecode": "0x608060405234801561001057600080fd5b50611b38806100206000396000f3fe608060405234801561001057600080fd5b50600436106100a95760003560e01c8063c1d76a6211610071578063c1d76a6214610432578063cabd734f146104cb578063cd01532b14610511578063da47d8561461066c578063f42eb76514610722578063fde6305614610816576100a9565b8063015a18ed146100ae5780631784997c146100f4578063a53a1adf146101ee578063aeb6889514610234578063b77031dd14610399575b600080fd5b6100da600480360360208110156100c457600080fd5b810190808035906020019092919050505061085c565b604051808215151515815260200191505060405180910390f35b6101d46004803603606081101561010a57600080fd5b8101908080359060200190929190803573ffffffffffffffffffffffffffffffffffffffff1690602001909291908035906020019064010000000081111561015157600080fd5b82018360208201111561016357600080fd5b8035906020019184602083028401116401000000008311171561018557600080fd5b919080806020026020016040519081016040528093929190818152602001838360200280828437600081840152601f19601f820116905080830192505050505050509192919290505050610870565b604051808215151515815260200191505060405180910390f35b61021a6004803603602081101561020457600080fd5b8101908080359060200190929190505050610892565b604051808215151515815260200191505060405180910390f35b61037f600480360360a081101561024a57600080fd5b8101908080359060200190929190803573ffffffffffffffffffffffffffffffffffffffff1690602001909291908035906020019064010000000081111561029157600080fd5b8201836020820111156102a357600080fd5b803590602001918460208302840111640100000000831117156102c557600080fd5b9091929391929390803590602001906401000000008111156102e657600080fd5b8201836020820111156102f857600080fd5b8035906020019184602083028401116401000000008311171561031a57600080fd5b90919293919293908035906020019064010000000081111561033b57600080fd5b82018360208201111561034d57600080fd5b8035906020019184602083028401116401000000008311171561036f57600080fd5b90919293919293905050506108a6565b604051808215151515815260200191505060405180910390f35b6103db600480360360208110156103af57600080fd5b81019080803573ffffffffffffffffffffffffffffffffffffffff169060200190929190505050610952565b6040518080602001828103825283818151815260200191508051906020019060200280838360005b8381101561041e578082015181840152602081019050610403565b505050509050019250505060405180910390f35b6104746004803603602081101561044857600080fd5b81019080803573ffffffffffffffffffffffffffffffffffffffff169060200190929190505050610964565b6040518080602001828103825283818151815260200191508051906020019060200280838360005b838110156104b757808201518184015260208101905061049c565b505050509050019250505060405180910390f35b6104f7600480360360208110156104e157600080fd5b8101908080359060200190929190505050610976565b604051808215151515815260200191505060405180910390f35b61053d6004803603602081101561052757600080fd5b810190808035906020019092919050505061098a565b6040518080602001806020018060200180602001858103855289818151815260200191508051906020019060200280838360005b8381101561058c578082015181840152602081019050610571565b50505050905001858103845288818151815260200191508051906020019060200280838360005b838110156105ce5780820151818401526020810190506105b3565b50505050905001858103835287818151815260200191508051906020019060200280838360005b838110156106105780820151818401526020810190506105f5565b50505050905001858103825286818151815260200191508051906020019060200280838360005b83811015610652578082015181840152602081019050610637565b505050509050019850505050505050505060405180910390f35b6106986004803603602081101561068257600080fd5b81019080803590602001909291905050506109a8565b604051808473ffffffffffffffffffffffffffffffffffffffff1673ffffffffffffffffffffffffffffffffffffffff1681526020018373ffffffffffffffffffffffffffffffffffffffff1673ffffffffffffffffffffffffffffffffffffffff16815260200182600481111561070c57fe5b60ff168152602001935050505060405180910390f35b61074e6004803603602081101561073857600080fd5b81019080803590602001909291905050506109c3565b60405180851515151581526020018473ffffffffffffffffffffffffffffffffffffffff1673ffffffffffffffffffffffffffffffffffffffff1681526020018373ffffffffffffffffffffffffffffffffffffffff1673ffffffffffffffffffffffffffffffffffffffff16815260200180602001828103825283818151815260200191508051906020019060200280838360005b838110156107ff5780820151818401526020810190506107e4565b505050509050019550505050505060405180910390f35b6108426004803603602081101561082c57600080fd5b81019080803590602001909291905050506109e2565b604051808215151515815260200191505060405180910390f35b6000610867826109f6565b60019050919050565b600061087d848484610b21565b6108878284610d26565b600190509392505050565b600061089d82610d8a565b60019050919050565b600080600090505b858590508110156108f4576108e78484838181106108c857fe5b905060200201358787848181106108db57fe5b90506020020135610f7a565b80806001019150506108ae565b506109418989898980806020026020016040519081016040528093929190818152602001838360200280828437600081840152601f19601f82011690508083019250505050505050610870565b506001905098975050505050505050565b606061095d82610fc4565b9050919050565b606061096f8261105b565b9050919050565b6000610981826110f2565b60019050919050565b60608060608061099985611221565b93509350935093509193509193565b60008060006109b684611459565b9250925092509193909250565b600080600060606109d38561148a565b93509350935093509193509193565b60006109ed82611596565b60019050919050565b806004600082815260200190815260200160002060009054906101000a900473ffffffffffffffffffffffffffffffffffffffff1673ffffffffffffffffffffffffffffffffffffffff163373ffffffffffffffffffffffffffffffffffffffff1614610aae576040517f08c379a0000000000000000000000000000000000000000000000000000000008152600401808060200182810382526029815260200180611a2b6029913960400191505060405180910390fd5b816001610abb82826116c1565b610b10576040517f08c379a0000000000000000000000000000000000000000000000000000000008152600401808060200182810382526043815260200180611a546043913960600191505060405180910390fd5b83610b1a81611704565b5050505050565b600160008085815260200190815260200160002060000160006101000a81548160ff021916908315150217905550600080600085815260200190815260200160002060000160016101000a81548160ff0219169083151502179055503360008085815260200190815260200160002060000160026101000a81548173ffffffffffffffffffffffffffffffffffffffff021916908373ffffffffffffffffffffffffffffffffffffffff1602179055508160008085815260200190815260200160002060010160006101000a81548173ffffffffffffffffffffffffffffffffffffffff021916908373ffffffffffffffffffffffffffffffffffffffff160217905550806000808581526020019081526020016000206002019080519060200190610c4e9291906119b8565b50600160008373ffffffffffffffffffffffffffffffffffffffff1673ffffffffffffffffffffffffffffffffffffffff168152602001908152602001600020839080600181540180825580915050906001820390600052602060002001600090919290919091505550600260003373ffffffffffffffffffffffffffffffffffffffff1673ffffffffffffffffffffffffffffffffffffffff168152602001908152602001600020839080600181540180825580915050906001820390600052602060002001600090919290919091505550505050565b60008090505b8251811015610d8557610d53838281518110610d4457fe5b6020026020010151338461174a565b610d78610d72848381518110610d6557fe5b60200260200101516117f3565b83610d26565b8080600101915050610d2c565b505050565b806003600082815260200190815260200160002060009054906101000a900473ffffffffffffffffffffffffffffffffffffffff1673ffffffffffffffffffffffffffffffffffffffff163373ffffffffffffffffffffffffffffffffffffffff1614610e42576040517f08c379a0000000000000000000000000000000000000000000000000000000008152600401808060200182810382526025815260200180611adf6025913960400191505060405180910390fd5b816003610e4f82826116c1565b610ea4576040517f08c379a0000000000000000000000000000000000000000000000000000000008152600401808060200182810382526043815260200180611a546043913960600191505060405180910390fd5b60066000858152602001908152602001600020805480602002602001604051908101604052809291908181526020018280548015610f0157602002820191906000526020600020905b815481526020019060010190808311610eed575b50505050506004610f12828261185e565b610f67576040517f08c379a0000000000000000000000000000000000000000000000000000000008152600401808060200182810382526048815260200180611a976048913960600191505060405180910390fd5b85610f7181611704565b50505050505050565b610f8381611704565b600660008381526020019081526020016000208190806001815401808255809150509060018203906000526020600020016000909192909190915055505050565b6060600260008373ffffffffffffffffffffffffffffffffffffffff1673ffffffffffffffffffffffffffffffffffffffff16815260200190815260200160002080548060200260200160405190810160405280929190818152602001828054801561104f57602002820191906000526020600020905b81548152602001906001019080831161103b575b50505050509050919050565b6060600160008373ffffffffffffffffffffffffffffffffffffffff1673ffffffffffffffffffffffffffffffffffffffff1681526020019081526020016000208054806020026020016040519081016040528092919081815260200182805480156110e657602002820191906000526020600020905b8154815260200190600101908083116110d2575b50505050509050919050565b806003600082815260200190815260200160002060009054906101000a900473ffffffffffffffffffffffffffffffffffffffff1673ffffffffffffffffffffffffffffffffffffffff163373ffffffffffffffffffffffffffffffffffffffff16146111aa576040517f08c379a0000000000000000000000000000000000000000000000000000000008152600401808060200182810382526025815260200180611adf6025913960400191505060405180910390fd5b8160036111b782826116c1565b61120c576040517f08c379a0000000000000000000000000000000000000000000000000000000008152600401808060200182810382526043815260200180611a546043913960600191505060405180910390fd5b83600261121982826118e2565b505050505050565b6060806060806006600086815260200190815260200160002080548060200260200160405190810160405280929190818152602001828054801561128457602002820191906000526020600020905b815481526020019060010190808311611270575b5050505050935083516040519080825280602002602001820160405280156112bb5781602001602082028038833980820191505090505b50925083516040519080825280602002602001820160405280156112ee5781602001602082028038833980820191505090505b50925083516040519080825280602002602001820160405280156113215781602001602082028038833980820191505090505b50915083516040519080825280602002602001820160405280156113545781602001602082028038833980820191505090505b50905060008090505b84518110156114455761138285828151811061137557fe5b6020026020010151611459565b86848151811061138e57fe5b602002602001018685815181106113a157fe5b602002602001018686815181106113b457fe5b602002602001018360048111156113c757fe5b60048111156113d257fe5b8152508373ffffffffffffffffffffffffffffffffffffffff1673ffffffffffffffffffffffffffffffffffffffff168152508373ffffffffffffffffffffffffffffffffffffffff1673ffffffffffffffffffffffffffffffffffffffff16815250505050808060010191505061135d565b508383838393509350935093509193509193565b60008060006114678461191a565b80935081945050506114788461198e565b90508282829250925092509193909250565b6000806000606060008086815260200190815260200160002060000160019054906101000a900460ff1660008087815260200190815260200160002060000160029054906101000a900473ffffffffffffffffffffffffffffffffffffffff1660008088815260200190815260200160002060010160009054906101000a900473ffffffffffffffffffffffffffffffffffffffff166000808981526020019081526020016000206002018080548060200260200160405190810160405280929190818152602001828054801561158057602002820191906000526020600020905b81548152602001906001019080831161156c575b5050505050905093509350935093509193509193565b806004600082815260200190815260200160002060009054906101000a900473ffffffffffffffffffffffffffffffffffffffff1673ffffffffffffffffffffffffffffffffffffffff163373ffffffffffffffffffffffffffffffffffffffff161461164e576040517f08c379a0000000000000000000000000000000000000000000000000000000008152600401808060200182810382526029815260200180611a2b6029913960400191505060405180910390fd5b81600261165b82826116c1565b6116b0576040517f08c379a0000000000000000000000000000000000000000000000000000000008152600401808060200182810382526043815260200180611a546043913960600191505060405180910390fd5b836116ba81611704565b5050505050565b60008160048111156116cf57fe5b6005600085815260200190815260200160002060009054906101000a900460ff1660048111156116fb57fe5b14905092915050565b6117478160016005600085815260200190815260200160002060009054906101000a900460ff16600481111561173657fe5b01600481111561174257fe5b6118e2565b50565b816003600085815260200190815260200160002060006101000a81548173ffffffffffffffffffffffffffffffffffffffff021916908373ffffffffffffffffffffffffffffffffffffffff160217905550806004600085815260200190815260200160002060006101000a81548173ffffffffffffffffffffffffffffffffffffffff021916908373ffffffffffffffffffffffffffffffffffffffff160217905550505050565b60606006600083815260200190815260200160002080548060200260200160405190810160405280929190818152602001828054801561185257602002820191906000526020600020905b81548152602001906001019080831161183e575b50505050509050919050565b600080600090505b83518110156118d65782600481111561187b57fe5b6005600086848151811061188b57fe5b6020026020010151815260200190815260200160002060009054906101000a900460ff1660048111156118ba57fe5b146118c95760009150506118dc565b8080600101915050611866565b50600190505b92915050565b806005600084815260200190815260200160002060006101000a81548160ff0219169083600481111561191157fe5b02179055505050565b6000806003600084815260200190815260200160002060009054906101000a900473ffffffffffffffffffffffffffffffffffffffff166004600085815260200190815260200160002060009054906101000a900473ffffffffffffffffffffffffffffffffffffffff1691509150915091565b60006005600083815260200190815260200160002060009054906101000a900460ff169050919050565b8280548282559060005260206000209081019282156119f4579160200282015b828111156119f35782518255916020019190600101906119d8565b5b509050611a019190611a05565b5090565b611a2791905b80821115611a23576000816000905550600101611a0b565b5090565b9056fe4e6f7420616c6c6f7765642e204f6e6c7920726573706f6e7369626c6520636f6e74726163746f722e46756e6374696f6e2063616e6e6f742062652063616c6c656420617420746869732074696d652e204974656d206973206e6f7420696e2076616c69642073746167652e46756e6374696f6e2063616e6e6f742062652063616c6c656420617420746869732074696d652e204368696c6472656e20617265206e6f7420696e2076616c69642073746167652e4e6f7420616c6c6f7765642e204f6e6c7920726573706f6e7369626c6520636c69656e742ea265627a7a723158202b227950a23e91d570cf34980fb40a77bed491980581e832950996499be21a1d64736f6c63430005100032",
  "source": "// SPDX-License-Identifier: MIT\npragma solidity >=0.4.21 <0.7.1;\n\nimport './ServiceAgreement.sol';\nimport './ServiceStorage.sol';\n\ncontract AgreementController is ServiceAgreement, ServiceStorage {\n    function createInitialAgreement(\n        bytes32 _agreement,\n        address _contractor,\n        bytes32[] calldata _roots,\n        bytes32[] calldata _services,\n        bytes32[] calldata _sections\n    ) external returns (bool success) {\n        for (uint256 i = 0; i < _services.length; i++) {\n            _addService(_sections[i], _services[i]);\n        }\n        createAgreement(_agreement, _contractor, _roots);\n        return true;\n    }\n\n    function createAgreement(\n        bytes32 _agreement,\n        address _contractor,\n        bytes32[] memory _services\n    ) public returns (bool success) {\n        _createAgreement(_agreement, _contractor, _services);\n        _deepUpdateRoles(_services, _contractor);\n        return true;\n    }\n\n    function _deepUpdateRoles(bytes32[] memory _services, address _contractor)\n        internal\n    {\n        for (uint256 i = 0; i < _services.length; i++) {\n            _updateServiceRoles(_services[i], msg.sender, _contractor);\n            _deepUpdateRoles(_getServicesOf(_services[i]), _contractor);\n        }\n    }\n\n    function getAgreementsByClient(address _client)\n        external\n        view\n        returns (bytes32[] memory _agreements)\n    {\n        return _getAgreementsByClient(_client);\n    }\n\n    function getAgreementsByContractor(address _contractor)\n        external\n        view\n        returns (bytes32[] memory _agreements)\n    {\n        return _getAgreementsByContractor(_contractor);\n    }\n\n    function getAgreement(bytes32 _agreement)\n        external\n        view\n        returns (\n            bool payed,\n            address _client,\n            address _contractor,\n            bytes32[] memory _services\n        )\n    {\n        return _getAgreement(_agreement);\n    }\n\n    function getService(bytes32 _service)\n        external\n        view\n        returns (\n            address _client,\n            address _contractor,\n            Stages _stage\n        )\n    {\n        return _getService(_service);\n    }\n\n    function getServices(bytes32 _section)\n        external\n        view\n        returns (\n            bytes32[] memory _services,\n            address[] memory _clients,\n            address[] memory _contractors,\n            Stages[] memory _stages\n        )\n    {\n        return _getServices(_section);\n    }\n\n    function start(bytes32 _service) external returns (bool success) {\n        _start(_service);\n        return true;\n    }\n\n    function finish(bytes32 _service) external returns (bool success) {\n        _finish(_service);\n        return true;\n    }\n\n    function approve(bytes32 _service) external returns (bool success) {\n        _approve(_service);\n        return true;\n    }\n\n    function reject(bytes32 _service) external returns (bool success) {\n        _reject(_service);\n        return true;\n    }\n}\n",
  "sourcePath": "C:/Users/fabia/WebstormProjects/bim-contracts/contracts/AgreementController.sol",
  "compiler": {
    "name": "solc",
    "version": "0.5.16+commit.9c3226ce.Emscripten.clang"
  },
  "schemaVersion": "3.2.4",
  "updatedAt": "2020-10-31T15:12:14.964Z",
  "networkType": "ethereum",
  "devdoc": {
    "methods": {}
  },
  "userdoc": {
    "methods": {}
  }
}