{
  "contractName": "AgreementController",
  "abi": [
    {
      "constant": false,
      "inputs": [
        {
          "internalType": "bytes32",
          "name": "_agreement",
          "type": "bytes32"
        },
        {
          "internalType": "address",
          "name": "_contractor",
          "type": "address"
        },
        {
          "internalType": "bytes32[]",
          "name": "_services",
          "type": "bytes32[]"
        },
        {
          "internalType": "bytes32[]",
          "name": "_sections",
          "type": "bytes32[]"
        },
        {
          "internalType": "bytes32[]",
          "name": "_billings",
          "type": "bytes32[]"
        }
      ],
      "name": "createInitialAgreement",
      "outputs": [
        {
          "internalType": "bool",
          "name": "success",
          "type": "bool"
        }
      ],
      "payable": false,
      "stateMutability": "nonpayable",
      "type": "function"
    },
    {
      "constant": false,
      "inputs": [
        {
          "internalType": "bytes32",
          "name": "_agreement",
          "type": "bytes32"
        },
        {
          "internalType": "address",
          "name": "_contractor",
          "type": "address"
        },
        {
          "internalType": "bytes32[]",
          "name": "_services",
          "type": "bytes32[]"
        }
      ],
      "name": "createAgreement",
      "outputs": [
        {
          "internalType": "bool",
          "name": "success",
          "type": "bool"
        }
      ],
      "payable": false,
      "stateMutability": "nonpayable",
      "type": "function"
    },
    {
      "constant": true,
      "inputs": [
        {
          "internalType": "address",
          "name": "_client",
          "type": "address"
        }
      ],
      "name": "getAgreementsByClient",
      "outputs": [
        {
          "internalType": "bytes32[]",
          "name": "",
          "type": "bytes32[]"
        }
      ],
      "payable": false,
      "stateMutability": "view",
      "type": "function"
    },
    {
      "constant": true,
      "inputs": [
        {
          "internalType": "address",
          "name": "_contractor",
          "type": "address"
        }
      ],
      "name": "getAgreementsByContractor",
      "outputs": [
        {
          "internalType": "bytes32[]",
          "name": "",
          "type": "bytes32[]"
        }
      ],
      "payable": false,
      "stateMutability": "view",
      "type": "function"
    },
    {
      "constant": true,
      "inputs": [
        {
          "internalType": "bytes32",
          "name": "_section",
          "type": "bytes32"
        }
      ],
      "name": "getServices",
      "outputs": [
        {
          "internalType": "bytes32[]",
          "name": "",
          "type": "bytes32[]"
        }
      ],
      "payable": false,
      "stateMutability": "view",
      "type": "function"
    },
    {
      "constant": true,
      "inputs": [
        {
          "internalType": "bytes32",
          "name": "_service",
          "type": "bytes32"
        }
      ],
      "name": "getBilling",
      "outputs": [
        {
          "internalType": "bytes32",
          "name": "",
          "type": "bytes32"
        }
      ],
      "payable": false,
      "stateMutability": "view",
      "type": "function"
    },
    {
      "constant": true,
      "inputs": [
        {
          "internalType": "bytes32",
          "name": "_service",
          "type": "bytes32"
        }
      ],
      "name": "getStage",
      "outputs": [
        {
          "internalType": "enum StateMachine.Stages",
          "name": "",
          "type": "uint8"
        }
      ],
      "payable": false,
      "stateMutability": "view",
      "type": "function"
    },
    {
      "constant": false,
      "inputs": [
        {
          "internalType": "bytes32",
          "name": "_agreement",
          "type": "bytes32"
        },
        {
          "internalType": "bytes32",
          "name": "_service",
          "type": "bytes32"
        }
      ],
      "name": "start",
      "outputs": [
        {
          "internalType": "bool",
          "name": "success",
          "type": "bool"
        }
      ],
      "payable": false,
      "stateMutability": "nonpayable",
      "type": "function"
    },
    {
      "constant": false,
      "inputs": [
        {
          "internalType": "bytes32",
          "name": "_agreement",
          "type": "bytes32"
        },
        {
          "internalType": "bytes32",
          "name": "_service",
          "type": "bytes32"
        }
      ],
      "name": "finish",
      "outputs": [
        {
          "internalType": "bool",
          "name": "success",
          "type": "bool"
        }
      ],
      "payable": false,
      "stateMutability": "nonpayable",
      "type": "function"
    },
    {
      "constant": false,
      "inputs": [
        {
          "internalType": "bytes32",
          "name": "_agreement",
          "type": "bytes32"
        },
        {
          "internalType": "bytes32",
          "name": "_service",
          "type": "bytes32"
        }
      ],
      "name": "approve",
      "outputs": [
        {
          "internalType": "bool",
          "name": "success",
          "type": "bool"
        }
      ],
      "payable": false,
      "stateMutability": "nonpayable",
      "type": "function"
    },
    {
      "constant": false,
      "inputs": [
        {
          "internalType": "bytes32",
          "name": "_agreement",
          "type": "bytes32"
        },
        {
          "internalType": "bytes32",
          "name": "_service",
          "type": "bytes32"
        }
      ],
      "name": "reject",
      "outputs": [
        {
          "internalType": "bool",
          "name": "success",
          "type": "bool"
        }
      ],
      "payable": false,
      "stateMutability": "nonpayable",
      "type": "function"
    },
    {
      "constant": false,
      "inputs": [
        {
          "internalType": "bytes32",
          "name": "_agreement",
          "type": "bytes32"
        },
        {
          "internalType": "bytes32",
          "name": "_service",
          "type": "bytes32"
        }
      ],
      "name": "pay",
      "outputs": [
        {
          "internalType": "bool",
          "name": "success",
          "type": "bool"
        }
      ],
      "payable": false,
      "stateMutability": "nonpayable",
      "type": "function"
    }
  ],
  "bytecode": "0x608060405234801561001057600080fd5b506114a8806100206000396000f3fe608060405234801561001057600080fd5b50600436106100b45760003560e01c806391f8a6db1161007157806391f8a6db146102f6578063ae844f7414610346578063aeb6889514610396578063b77031dd146104fb578063c1d76a6214610594578063cd01532b1461062d576100b4565b806304f999c7146100b95780631784997c146101095780634aa8a9b8146101c457806366f125db14610206578063756bae5c14610256578063869ce062146102a6575b600080fd5b6100ef600480360360408110156100cf57600080fd5b8101908080359060200190929190803590602001909291905050506106b0565b604051808215151515815260200191505060405180910390f35b6101aa6004803603606081101561011f57600080fd5b8101908080359060200190929190803573ffffffffffffffffffffffffffffffffffffffff1690602001909291908035906020019064010000000081111561016657600080fd5b82018360208201111561017857600080fd5b8035906020019184602083028401116401000000008311171561019a57600080fd5b9091929391929390505050610732565b604051808215151515815260200191505060405180910390f35b6101f0600480360360208110156101da57600080fd5b810190808035906020019092919050505061078c565b6040518082815260200191505060405180910390f35b61023c6004803603604081101561021c57600080fd5b81019080803590602001909291908035906020019092919050505061079e565b604051808215151515815260200191505060405180910390f35b61028c6004803603604081101561026c57600080fd5b810190808035906020019092919080359060200190929190505050610820565b604051808215151515815260200191505060405180910390f35b6102dc600480360360408110156102bc57600080fd5b810190808035906020019092919080359060200190929190505050610836565b604051808215151515815260200191505060405180910390f35b61032c6004803603604081101561030c57600080fd5b81019080803590602001909291908035906020019092919050505061084c565b604051808215151515815260200191505060405180910390f35b6103726004803603602081101561035c57600080fd5b81019080803590602001909291905050506108ce565b6040518082600581111561038257fe5b60ff16815260200191505060405180910390f35b6104e1600480360360a08110156103ac57600080fd5b8101908080359060200190929190803573ffffffffffffffffffffffffffffffffffffffff169060200190929190803590602001906401000000008111156103f357600080fd5b82018360208201111561040557600080fd5b8035906020019184602083028401116401000000008311171561042757600080fd5b90919293919293908035906020019064010000000081111561044857600080fd5b82018360208201111561045a57600080fd5b8035906020019184602083028401116401000000008311171561047c57600080fd5b90919293919293908035906020019064010000000081111561049d57600080fd5b8201836020820111156104af57600080fd5b803590602001918460208302840111640100000000831117156104d157600080fd5b90919293919293905050506108e0565b604051808215151515815260200191505060405180910390f35b61053d6004803603602081101561051157600080fd5b81019080803573ffffffffffffffffffffffffffffffffffffffff169060200190929190505050610a24565b6040518080602001828103825283818151815260200191508051906020019060200280838360005b83811015610580578082015181840152602081019050610565565b505050509050019250505060405180910390f35b6105d6600480360360208110156105aa57600080fd5b81019080803573ffffffffffffffffffffffffffffffffffffffff169060200190929190505050610a36565b6040518080602001828103825283818151815260200191508051906020019060200280838360005b838110156106195780820151818401526020810190506105fe565b505050509050019250505060405180910390f35b6106596004803603602081101561064357600080fd5b8101908080359060200190929190505050610a48565b6040518080602001828103825283818151815260200191508051906020019060200280838360005b8381101561069c578082015181840152602081019050610681565b505050509050019250505060405180910390f35b60006106bb82610a5a565b60026106c78282610ac5565b61071c576040517f08c379a000000000000000000000000000000000000000000000000000000000815260040180806020018281038252604881526020018061142c6048913960600191505060405180910390fd5b6107268585610b48565b60019250505092915050565b60006107808585858580806020026020016040519081016040528093929190818152602001838360200280828437600081840152601f19601f82011690508083019250505050505050610c98565b60019050949350505050565b600061079782610e44565b9050919050565b60006107a982610a5a565b60046107b58282610ac5565b61080a576040517f08c379a000000000000000000000000000000000000000000000000000000000815260040180806020018281038252604881526020018061142c6048913960600191505060405180910390fd5b6108148585610e61565b60019250505092915050565b600061082c8383610e61565b6001905092915050565b60006108428383610fad565b6001905092915050565b600061085782610a5a565b60056108638282610ac5565b6108b8576040517f08c379a000000000000000000000000000000000000000000000000000000000815260040180806020018281038252604881526020018061142c6048913960600191505060405180910390fd5b6108c28585610e61565b60019250505092915050565b60006108d9826110f9565b9050919050565b6000806000905060008090505b8888905081101561098b5761091389898381811061090757fe5b90506020020135611122565b6000801b87878381811061092357fe5b90506020020135146109755761097087878381811061093e57fe5b905060200201358a8a8481811061095157fe5b9050602002013587878581811061096457fe5b90506020020135611130565b61097e565b81806001019250505b80806001019150506108ed565b506060816040519080825280602002602001820160405280156109bd5781602001602082028038833980820191505090505b50905060008090505b82811015610a06578989828181106109da57fe5b905060200201358282815181106109ed57fe5b60200260200101818152505080806001019150506109c6565b50610a128b8b83610c98565b60019250505098975050505050505050565b6060610a2f8261118a565b9050919050565b6060610a4182611221565b9050919050565b6060610a5382610a5a565b9050919050565b606060046000838152602001908152602001600020805480602002602001604051908101604052809291908181526020018280548015610ab957602002820191906000526020600020905b815481526020019060010190808311610aa5575b50505050509050919050565b600080600090505b8351811015610b3c57826005811115610ae257fe5b600080868481518110610af157fe5b6020026020010151815260200190815260200160002060009054906101000a900460ff166005811115610b2057fe5b14610b2f576000915050610b42565b8080600101915050610acd565b50600190505b92915050565b816001600082815260200190815260200160002060000160009054906101000a900473ffffffffffffffffffffffffffffffffffffffff1673ffffffffffffffffffffffffffffffffffffffff163373ffffffffffffffffffffffffffffffffffffffff1614610c20576040517f08c379a00000000000000000000000000000000000000000000000000000000081526004018080602001828103825260198152602001807f4e6f7420616c6c6f7765642e204f6e6c7920636c69656e742e0000000000000081525060200191505060405180910390fd5b816003610c2d82826112b8565b610c82576040517f08c379a00000000000000000000000000000000000000000000000000000000081526004018080602001828103825260438152602001806113e96043913960600191505060405180910390fd5b836002610c8f82826112fa565b50505050505050565b336001600085815260200190815260200160002060000160006101000a81548173ffffffffffffffffffffffffffffffffffffffff021916908373ffffffffffffffffffffffffffffffffffffffff160217905550816001600085815260200190815260200160002060010160006101000a81548173ffffffffffffffffffffffffffffffffffffffff021916908373ffffffffffffffffffffffffffffffffffffffff16021790555080600160008581526020019081526020016000206002019080519060200190610d6c929190611376565b50600260008373ffffffffffffffffffffffffffffffffffffffff1673ffffffffffffffffffffffffffffffffffffffff168152602001908152602001600020839080600181540180825580915050906001820390600052602060002001600090919290919091505550600360003373ffffffffffffffffffffffffffffffffffffffff1673ffffffffffffffffffffffffffffffffffffffff168152602001908152602001600020839080600181540180825580915050906001820390600052602060002001600090919290919091505550505050565b600060056000838152602001908152602001600020549050919050565b816001600082815260200190815260200160002060010160009054906101000a900473ffffffffffffffffffffffffffffffffffffffff1673ffffffffffffffffffffffffffffffffffffffff163373ffffffffffffffffffffffffffffffffffffffff1614610f39576040517f08c379a000000000000000000000000000000000000000000000000000000000815260040180806020018281038252601d8152602001807f4e6f7420616c6c6f7765642e204f6e6c7920636f6e74726163746f722e00000081525060200191505060405180910390fd5b816002610f4682826112b8565b610f9b576040517f08c379a00000000000000000000000000000000000000000000000000000000081526004018080602001828103825260438152602001806113e96043913960600191505060405180910390fd5b83610fa581611331565b505050505050565b816001600082815260200190815260200160002060010160009054906101000a900473ffffffffffffffffffffffffffffffffffffffff1673ffffffffffffffffffffffffffffffffffffffff163373ffffffffffffffffffffffffffffffffffffffff1614611085576040517f08c379a000000000000000000000000000000000000000000000000000000000815260040180806020018281038252601d8152602001807f4e6f7420616c6c6f7765642e204f6e6c7920636f6e74726163746f722e00000081525060200191505060405180910390fd5b81600161109282826112b8565b6110e7576040517f08c379a00000000000000000000000000000000000000000000000000000000081526004018080602001828103825260438152602001806113e96043913960600191505060405180910390fd5b836110f181611331565b505050505050565b600080600083815260200190815260200160002060009054906101000a900460ff169050919050565b61112d8160016112fa565b50565b60046000848152602001908152602001600020829080600181540180825580915050906001820390600052602060002001600090919290919091505550806005600084815260200190815260200160002081905550505050565b6060600360008373ffffffffffffffffffffffffffffffffffffffff1673ffffffffffffffffffffffffffffffffffffffff16815260200190815260200160002080548060200260200160405190810160405280929190818152602001828054801561121557602002820191906000526020600020905b815481526020019060010190808311611201575b50505050509050919050565b6060600260008373ffffffffffffffffffffffffffffffffffffffff1673ffffffffffffffffffffffffffffffffffffffff1681526020019081526020016000208054806020026020016040519081016040528092919081815260200182805480156112ac57602002820191906000526020600020905b815481526020019060010190808311611298575b50505050509050919050565b60008160058111156112c657fe5b60008085815260200190815260200160002060009054906101000a900460ff1660058111156112f157fe5b14905092915050565b8060008084815260200190815260200160002060006101000a81548160ff0219169083600581111561132857fe5b02179055505050565b61137381600160008085815260200190815260200160002060009054906101000a900460ff16600581111561136257fe5b01600581111561136e57fe5b6112fa565b50565b8280548282559060005260206000209081019282156113b2579160200282015b828111156113b1578251825591602001919060010190611396565b5b5090506113bf91906113c3565b5090565b6113e591905b808211156113e15760008160009055506001016113c9565b5090565b9056fe46756e6374696f6e2063616e6e6f742062652063616c6c656420617420746869732074696d652e204974656d206973206e6f7420696e2076616c69642073746167652e46756e6374696f6e2063616e6e6f742062652063616c6c656420617420746869732074696d652e204368696c6472656e20617265206e6f7420696e2076616c69642073746167652ea265627a7a7231582091a0e1027b159dc3f7f478c9b0aceb0bdb816a1046fa19318f2e17a91dac067364736f6c63430005100032",
  "source": "// SPDX-License-Identifier: MIT\npragma solidity >=0.4.21 <0.7.1;\n\nimport './ServiceAgreement.sol';\nimport './ServiceStorage.sol';\n\ncontract AgreementController is ServiceAgreement, ServiceStorage {\n    function createInitialAgreement(\n        bytes32 _agreement,\n        address _contractor,\n        bytes32[] calldata _services,\n        bytes32[] calldata _sections,\n        bytes32[] calldata _billings\n    ) external returns (bool success) {\n        uint256 len = 0;\n        for (uint256 i = 0; i < _services.length; i++) {\n            _initStage(_services[i]);\n            if (_sections[i] != 0)\n                _addService(_sections[i], _services[i], _billings[i]);\n            else len++;\n        }\n\n        bytes32[] memory rootServices = new bytes32[](len);\n        for (uint256 j = 0; j < len; j++) {\n            rootServices[j] = _services[j];\n        }\n\n        _createAgreement(_agreement, _contractor, rootServices);\n        return true;\n    }\n\n    function createAgreement(\n        bytes32 _agreement,\n        address _contractor,\n        bytes32[] calldata _services\n    ) external returns (bool success) {\n        _createAgreement(_agreement, _contractor, _services);\n        return true;\n    }\n\n    function getAgreementsByClient(address _client)\n        external\n        view\n        returns (bytes32[] memory)\n    {\n        return _getAgreementsByClient(_client);\n    }\n\n    function getAgreementsByContractor(address _contractor)\n        external\n        view\n        returns (bytes32[] memory)\n    {\n        return _getAgreementsByContractor(_contractor);\n    }\n\n    function getServices(bytes32 _section)\n        external\n        view\n        returns (bytes32[] memory)\n    {\n        return _getServices(_section);\n    }\n\n    function getBilling(bytes32 _service) external view returns (bytes32) {\n        return _getBilling(_service);\n    }\n\n    function getStage(bytes32 _service) external view returns (Stages) {\n        return _stageOf(_service);\n    }\n\n    function start(bytes32 _agreement, bytes32 _service)\n        external\n        returns (bool success)\n    {\n        _start(_agreement, _service);\n        return true;\n    }\n\n    function finish(bytes32 _agreement, bytes32 _service)\n        external\n        returns (bool success)\n    {\n        _finish(_agreement, _service);\n        return true;\n    }\n\n    function approve(bytes32 _agreement, bytes32 _service)\n        external\n        atStageAll(_getServices(_service), Stages.APPROVED)\n        returns (bool success)\n    {\n        _finish(_agreement, _service);\n        return true;\n    }\n\n    function reject(bytes32 _agreement, bytes32 _service)\n        external\n        atStageAll(_getServices(_service), Stages.STARTED)\n        returns (bool success)\n    {\n        _reject(_agreement, _service);\n        return true;\n    }\n\n    function pay(bytes32 _agreement, bytes32 _service)\n        external\n        atStageAll(_getServices(_service), Stages.PAYED)\n        returns (bool success)\n    {\n        _finish(_agreement, _service);\n        return true;\n    }\n}\n",
  "sourcePath": "C:/Users/fabia/WebstormProjects/bim-contracts/contracts/AgreementController.sol",
  "compiler": {
    "name": "solc",
    "version": "0.5.16+commit.9c3226ce.Emscripten.clang"
  },
  "schemaVersion": "3.2.4",
  "updatedAt": "2020-10-24T21:11:19.756Z",
  "devdoc": {
    "methods": {}
  },
  "userdoc": {
    "methods": {}
  }
}