{
  "contractName": "AgreementController",
  "abi": [
    {
      "constant": false,
      "inputs": [
        {
          "internalType": "bytes32",
          "name": "_agreement",
          "type": "bytes32"
        },
        {
          "internalType": "address",
          "name": "_contractor",
          "type": "address"
        },
        {
          "internalType": "bytes32[]",
          "name": "_services",
          "type": "bytes32[]"
        },
        {
          "internalType": "bytes32[]",
          "name": "_sections",
          "type": "bytes32[]"
        },
        {
          "internalType": "bytes32[]",
          "name": "_billings",
          "type": "bytes32[]"
        }
      ],
      "name": "createInitialAgreement",
      "outputs": [
        {
          "internalType": "bool",
          "name": "success",
          "type": "bool"
        }
      ],
      "payable": false,
      "stateMutability": "nonpayable",
      "type": "function"
    },
    {
      "constant": false,
      "inputs": [
        {
          "internalType": "bytes32",
          "name": "_agreement",
          "type": "bytes32"
        },
        {
          "internalType": "address",
          "name": "_contractor",
          "type": "address"
        },
        {
          "internalType": "bytes32[]",
          "name": "_services",
          "type": "bytes32[]"
        }
      ],
      "name": "createAgreement",
      "outputs": [
        {
          "internalType": "bool",
          "name": "success",
          "type": "bool"
        }
      ],
      "payable": false,
      "stateMutability": "nonpayable",
      "type": "function"
    },
    {
      "constant": true,
      "inputs": [
        {
          "internalType": "address",
          "name": "_client",
          "type": "address"
        }
      ],
      "name": "getAgreementsByClient",
      "outputs": [
        {
          "internalType": "bytes32[]",
          "name": "_agreements",
          "type": "bytes32[]"
        },
        {
          "internalType": "address[]",
          "name": "_clients",
          "type": "address[]"
        },
        {
          "internalType": "address[]",
          "name": "_contractors",
          "type": "address[]"
        }
      ],
      "payable": false,
      "stateMutability": "view",
      "type": "function"
    },
    {
      "constant": true,
      "inputs": [
        {
          "internalType": "address",
          "name": "_contractor",
          "type": "address"
        }
      ],
      "name": "getAgreementsByContractor",
      "outputs": [
        {
          "internalType": "bytes32[]",
          "name": "_agreements",
          "type": "bytes32[]"
        },
        {
          "internalType": "address[]",
          "name": "_clients",
          "type": "address[]"
        },
        {
          "internalType": "address[]",
          "name": "_contractors",
          "type": "address[]"
        }
      ],
      "payable": false,
      "stateMutability": "view",
      "type": "function"
    },
    {
      "constant": true,
      "inputs": [
        {
          "internalType": "bytes32",
          "name": "_section",
          "type": "bytes32"
        }
      ],
      "name": "getServices",
      "outputs": [
        {
          "internalType": "bytes32[]",
          "name": "services",
          "type": "bytes32[]"
        },
        {
          "internalType": "bytes32[]",
          "name": "billings",
          "type": "bytes32[]"
        },
        {
          "internalType": "enum StateMachine.Stages[]",
          "name": "stages",
          "type": "uint8[]"
        }
      ],
      "payable": false,
      "stateMutability": "view",
      "type": "function"
    },
    {
      "constant": false,
      "inputs": [
        {
          "internalType": "bytes32",
          "name": "_agreement",
          "type": "bytes32"
        },
        {
          "internalType": "bytes32",
          "name": "_service",
          "type": "bytes32"
        }
      ],
      "name": "start",
      "outputs": [
        {
          "internalType": "bool",
          "name": "success",
          "type": "bool"
        }
      ],
      "payable": false,
      "stateMutability": "nonpayable",
      "type": "function"
    },
    {
      "constant": false,
      "inputs": [
        {
          "internalType": "bytes32",
          "name": "_agreement",
          "type": "bytes32"
        },
        {
          "internalType": "bytes32",
          "name": "_service",
          "type": "bytes32"
        }
      ],
      "name": "finish",
      "outputs": [
        {
          "internalType": "bool",
          "name": "success",
          "type": "bool"
        }
      ],
      "payable": false,
      "stateMutability": "nonpayable",
      "type": "function"
    },
    {
      "constant": false,
      "inputs": [
        {
          "internalType": "bytes32",
          "name": "_agreement",
          "type": "bytes32"
        },
        {
          "internalType": "bytes32",
          "name": "_service",
          "type": "bytes32"
        }
      ],
      "name": "approve",
      "outputs": [
        {
          "internalType": "bool",
          "name": "success",
          "type": "bool"
        }
      ],
      "payable": false,
      "stateMutability": "nonpayable",
      "type": "function"
    },
    {
      "constant": false,
      "inputs": [
        {
          "internalType": "bytes32",
          "name": "_agreement",
          "type": "bytes32"
        },
        {
          "internalType": "bytes32",
          "name": "_service",
          "type": "bytes32"
        }
      ],
      "name": "reject",
      "outputs": [
        {
          "internalType": "bool",
          "name": "success",
          "type": "bool"
        }
      ],
      "payable": false,
      "stateMutability": "nonpayable",
      "type": "function"
    },
    {
      "constant": false,
      "inputs": [
        {
          "internalType": "bytes32",
          "name": "_agreement",
          "type": "bytes32"
        },
        {
          "internalType": "bytes32",
          "name": "_service",
          "type": "bytes32"
        }
      ],
      "name": "pay",
      "outputs": [
        {
          "internalType": "bool",
          "name": "success",
          "type": "bool"
        }
      ],
      "payable": false,
      "stateMutability": "nonpayable",
      "type": "function"
    }
  ],
  "bytecode": "0x608060405234801561001057600080fd5b50611863806100206000396000f3fe608060405234801561001057600080fd5b506004361061009e5760003560e01c806391f8a6db1161006657806391f8a6db1461029e578063aeb68895146102ee578063b77031dd14610453578063c1d76a621461057c578063cd01532b146106a55761009e565b806304f999c7146100a35780631784997c146100f357806366f125db146101ae578063756bae5c146101fe578063869ce0621461024e575b600080fd5b6100d9600480360360408110156100b957600080fd5b8101908080359060200190929190803590602001909291905050506107b8565b604051808215151515815260200191505060405180910390f35b6101946004803603606081101561010957600080fd5b8101908080359060200190929190803573ffffffffffffffffffffffffffffffffffffffff1690602001909291908035906020019064010000000081111561015057600080fd5b82018360208201111561016257600080fd5b8035906020019184602083028401116401000000008311171561018457600080fd5b909192939192939050505061083a565b604051808215151515815260200191505060405180910390f35b6101e4600480360360408110156101c457600080fd5b810190808035906020019092919080359060200190929190505050610894565b604051808215151515815260200191505060405180910390f35b6102346004803603604081101561021457600080fd5b810190808035906020019092919080359060200190929190505050610916565b604051808215151515815260200191505060405180910390f35b6102846004803603604081101561026457600080fd5b81019080803590602001909291908035906020019092919050505061092c565b604051808215151515815260200191505060405180910390f35b6102d4600480360360408110156102b457600080fd5b810190808035906020019092919080359060200190929190505050610942565b604051808215151515815260200191505060405180910390f35b610439600480360360a081101561030457600080fd5b8101908080359060200190929190803573ffffffffffffffffffffffffffffffffffffffff1690602001909291908035906020019064010000000081111561034b57600080fd5b82018360208201111561035d57600080fd5b8035906020019184602083028401116401000000008311171561037f57600080fd5b9091929391929390803590602001906401000000008111156103a057600080fd5b8201836020820111156103b257600080fd5b803590602001918460208302840111640100000000831117156103d457600080fd5b9091929391929390803590602001906401000000008111156103f557600080fd5b82018360208201111561040757600080fd5b8035906020019184602083028401116401000000008311171561042957600080fd5b90919293919293905050506109c4565b604051808215151515815260200191505060405180910390f35b6104956004803603602081101561046957600080fd5b81019080803573ffffffffffffffffffffffffffffffffffffffff169060200190929190505050610b08565b60405180806020018060200180602001848103845287818151815260200191508051906020019060200280838360005b838110156104e05780820151818401526020810190506104c5565b50505050905001848103835286818151815260200191508051906020019060200280838360005b83811015610522578082015181840152602081019050610507565b50505050905001848103825285818151815260200191508051906020019060200280838360005b83811015610564578082015181840152602081019050610549565b50505050905001965050505050505060405180910390f35b6105be6004803603602081101561059257600080fd5b81019080803573ffffffffffffffffffffffffffffffffffffffff169060200190929190505050610b23565b60405180806020018060200180602001848103845287818151815260200191508051906020019060200280838360005b838110156106095780820151818401526020810190506105ee565b50505050905001848103835286818151815260200191508051906020019060200280838360005b8381101561064b578082015181840152602081019050610630565b50505050905001848103825285818151815260200191508051906020019060200280838360005b8381101561068d578082015181840152602081019050610672565b50505050905001965050505050505060405180910390f35b6106d1600480360360208110156106bb57600080fd5b8101908080359060200190929190505050610b3e565b60405180806020018060200180602001848103845287818151815260200191508051906020019060200280838360005b8381101561071c578082015181840152602081019050610701565b50505050905001848103835286818151815260200191508051906020019060200280838360005b8381101561075e578082015181840152602081019050610743565b50505050905001848103825285818151815260200191508051906020019060200280838360005b838110156107a0578082015181840152602081019050610785565b50505050905001965050505050505060405180910390f35b60006107c382610c4e565b60026107cf8282610cb9565b610824576040517f08c379a00000000000000000000000000000000000000000000000000000000081526004018080602001828103825260488152602001806117e76048913960600191505060405180910390fd5b61082e8585610d3c565b60019250505092915050565b60006108888585858580806020026020016040519081016040528093929190818152602001838360200280828437600081840152601f19601f82011690508083019250505050505050610e89565b60019050949350505050565b600061089f82610c4e565b60046108ab8282610cb9565b610900576040517f08c379a00000000000000000000000000000000000000000000000000000000081526004018080602001828103825260488152602001806117e76048913960600191505060405180910390fd5b61090a858561102c565b60019250505092915050565b6000610922838361102c565b6001905092915050565b60006109388383611175565b6001905092915050565b600061094d82610c4e565b60056109598282610cb9565b6109ae576040517f08c379a00000000000000000000000000000000000000000000000000000000081526004018080602001828103825260488152602001806117e76048913960600191505060405180910390fd5b6109b8858561102c565b60019250505092915050565b6000806000905060008090505b88889050811015610a6f576109f78989838181106109eb57fe5b905060200201356112be565b6000801b878783818110610a0757fe5b9050602002013514610a5957610a54878783818110610a2257fe5b905060200201358a8a84818110610a3557fe5b90506020020135878785818110610a4857fe5b905060200201356112cc565b610a62565b81806001019250505b80806001019150506109d1565b50606081604051908082528060200260200182016040528015610aa15781602001602082028038833980820191505090505b50905060008090505b82811015610aea57898982818110610abe57fe5b90506020020135828281518110610ad157fe5b6020026020010181815250508080600101915050610aaa565b50610af68b8b83610e89565b60019250505098975050505050505050565b6060806060610b1684611326565b9250925092509193909250565b6060806060610b31846113ce565b9250925092509193909250565b6060806060610b4c84610c4e565b92508251604051908082528060200260200182016040528015610b7e5781602001602082028038833980820191505090505b5091508251604051908082528060200260200182016040528015610bb15781602001602082028038833980820191505090505b50905060008090505b8151811015610c3d57610bcc85611476565b838281518110610bd857fe5b602002602001018181525050610c00848281518110610bf357fe5b6020026020010151611493565b828281518110610c0c57fe5b60200260200101906005811115610c1f57fe5b90816005811115610c2c57fe5b815250508080600101915050610bba565b508282829250925092509193909250565b606060066000838152602001908152602001600020805480602002602001604051908101604052809291908181526020018280548015610cad57602002820191906000526020600020905b815481526020019060010190808311610c99575b50505050509050919050565b600080600090505b8351811015610d3057826005811115610cd657fe5b600080868481518110610ce557fe5b6020026020010151815260200190815260200160002060009054906101000a900460ff166005811115610d1457fe5b14610d23576000915050610d36565b8080600101915050610cc1565b50600190505b92915050565b816002600082815260200190815260200160002060009054906101000a900473ffffffffffffffffffffffffffffffffffffffff1673ffffffffffffffffffffffffffffffffffffffff163373ffffffffffffffffffffffffffffffffffffffff1614610e11576040517f08c379a00000000000000000000000000000000000000000000000000000000081526004018080602001828103825260198152602001807f4e6f7420616c6c6f7765642e204f6e6c7920636c69656e742e0000000000000081525060200191505060405180910390fd5b816003610e1e82826114bc565b610e73576040517f08c379a00000000000000000000000000000000000000000000000000000000081526004018080602001828103825260438152602001806117a46043913960600191505060405180910390fd5b836002610e8082826114fe565b50505050505050565b336002600085815260200190815260200160002060006101000a81548173ffffffffffffffffffffffffffffffffffffffff021916908373ffffffffffffffffffffffffffffffffffffffff160217905550816003600085815260200190815260200160002060006101000a81548173ffffffffffffffffffffffffffffffffffffffff021916908373ffffffffffffffffffffffffffffffffffffffff16021790555080600160008581526020019081526020016000209080519060200190610f54929190611731565b50600460008373ffffffffffffffffffffffffffffffffffffffff1673ffffffffffffffffffffffffffffffffffffffff168152602001908152602001600020839080600181540180825580915050906001820390600052602060002001600090919290919091505550600560003373ffffffffffffffffffffffffffffffffffffffff1673ffffffffffffffffffffffffffffffffffffffff168152602001908152602001600020839080600181540180825580915050906001820390600052602060002001600090919290919091505550505050565b816003600082815260200190815260200160002060009054906101000a900473ffffffffffffffffffffffffffffffffffffffff1673ffffffffffffffffffffffffffffffffffffffff163373ffffffffffffffffffffffffffffffffffffffff1614611101576040517f08c379a000000000000000000000000000000000000000000000000000000000815260040180806020018281038252601d8152602001807f4e6f7420616c6c6f7765642e204f6e6c7920636f6e74726163746f722e00000081525060200191505060405180910390fd5b81600261110e82826114bc565b611163576040517f08c379a00000000000000000000000000000000000000000000000000000000081526004018080602001828103825260438152602001806117a46043913960600191505060405180910390fd5b8361116d81611535565b505050505050565b816003600082815260200190815260200160002060009054906101000a900473ffffffffffffffffffffffffffffffffffffffff1673ffffffffffffffffffffffffffffffffffffffff163373ffffffffffffffffffffffffffffffffffffffff161461124a576040517f08c379a000000000000000000000000000000000000000000000000000000000815260040180806020018281038252601d8152602001807f4e6f7420616c6c6f7765642e204f6e6c7920636f6e74726163746f722e00000081525060200191505060405180910390fd5b81600161125782826114bc565b6112ac576040517f08c379a00000000000000000000000000000000000000000000000000000000081526004018080602001828103825260438152602001806117a46043913960600191505060405180910390fd5b836112b681611535565b505050505050565b6112c98160016114fe565b50565b60066000848152602001908152602001600020829080600181540180825580915050906001820390600052602060002001600090919290919091505550806007600084815260200190815260200160002081905550505050565b60608060606113c1600560008673ffffffffffffffffffffffffffffffffffffffff1673ffffffffffffffffffffffffffffffffffffffff1681526020019081526020016000208054806020026020016040519081016040528092919081815260200182805480156113b757602002820191906000526020600020905b8154815260200190600101908083116113a3575b505050505061157a565b9250925092509193909250565b6060806060611469600460008673ffffffffffffffffffffffffffffffffffffffff1673ffffffffffffffffffffffffffffffffffffffff16815260200190815260200160002080548060200260200160405190810160405280929190818152602001828054801561145f57602002820191906000526020600020905b81548152602001906001019080831161144b575b505050505061157a565b9250925092509193909250565b600060076000838152602001908152602001600020549050919050565b600080600083815260200190815260200160002060009054906101000a900460ff169050919050565b60008160058111156114ca57fe5b60008085815260200190815260200160002060009054906101000a900460ff1660058111156114f557fe5b14905092915050565b8060008084815260200190815260200160002060006101000a81548160ff0219169083600581111561152c57fe5b02179055505050565b61157781600160008085815260200190815260200160002060009054906101000a900460ff16600581111561156657fe5b01600581111561157257fe5b6114fe565b50565b60608060608084516040519080825280602002602001820160405280156115b05781602001602082028038833980820191505090505b509050606085516040519080825280602002602001820160405280156115e55781602001602082028038833980820191505090505b50905060008090505b865181101561171e576002600088838151811061160757fe5b6020026020010151815260200190815260200160002060009054906101000a900473ffffffffffffffffffffffffffffffffffffffff1683828151811061164a57fe5b602002602001019073ffffffffffffffffffffffffffffffffffffffff16908173ffffffffffffffffffffffffffffffffffffffff16815250506003600088838151811061169457fe5b6020026020010151815260200190815260200160002060009054906101000a900473ffffffffffffffffffffffffffffffffffffffff168282815181106116d757fe5b602002602001019073ffffffffffffffffffffffffffffffffffffffff16908173ffffffffffffffffffffffffffffffffffffffff168152505080806001019150506115ee565b5085828294509450945050509193909250565b82805482825590600052602060002090810192821561176d579160200282015b8281111561176c578251825591602001919060010190611751565b5b50905061177a919061177e565b5090565b6117a091905b8082111561179c576000816000905550600101611784565b5090565b9056fe46756e6374696f6e2063616e6e6f742062652063616c6c656420617420746869732074696d652e204974656d206973206e6f7420696e2076616c69642073746167652e46756e6374696f6e2063616e6e6f742062652063616c6c656420617420746869732074696d652e204368696c6472656e20617265206e6f7420696e2076616c69642073746167652ea265627a7a72315820a037a52414d4c19c6e5a89e0bcb8d72e2f4400c6e826976c4435eb04f339e31664736f6c63430005100032",
  "source": "// SPDX-License-Identifier: MIT\npragma solidity >=0.4.21 <0.7.1;\n\nimport './ServiceAgreement.sol';\nimport './ServiceStorage.sol';\n\ncontract AgreementController is ServiceAgreement, ServiceStorage {\n    function createInitialAgreement(\n        bytes32 _agreement,\n        address _contractor,\n        bytes32[] calldata _services,\n        bytes32[] calldata _sections,\n        bytes32[] calldata _billings\n    ) external returns (bool success) {\n        uint256 len = 0;\n        for (uint256 i = 0; i < _services.length; i++) {\n            _initStage(_services[i]);\n            if (_sections[i] != 0)\n                _addService(_sections[i], _services[i], _billings[i]);\n            else len++;\n        }\n\n        bytes32[] memory rootServices = new bytes32[](len);\n        for (uint256 j = 0; j < len; j++) {\n            rootServices[j] = _services[j];\n        }\n\n        _createAgreement(_agreement, _contractor, rootServices);\n        return true;\n    }\n\n    function createAgreement(\n        bytes32 _agreement,\n        address _contractor,\n        bytes32[] calldata _services\n    ) external returns (bool success) {\n        _createAgreement(_agreement, _contractor, _services);\n        return true;\n    }\n\n    function getAgreementsByClient(address _client)\n        external\n        view\n        returns (\n            bytes32[] memory _agreements,\n            address[] memory _clients,\n            address[] memory _contractors\n        )\n    {\n        return _getAgreementsByClient(_client);\n    }\n\n    function getAgreementsByContractor(address _contractor)\n        external\n        view\n        returns (\n            bytes32[] memory _agreements,\n            address[] memory _clients,\n            address[] memory _contractors\n        )\n    {\n        return _getAgreementsByContractor(_contractor);\n    }\n\n    function getServices(bytes32 _section)\n        external\n        view\n        returns (\n            bytes32[] memory services,\n            bytes32[] memory billings,\n            Stages[] memory stages\n        )\n    {\n        services = _getServices(_section);\n        billings = new bytes32[](services.length);\n        stages = new Stages[](services.length);\n        for (uint256 i = 0; i < stages.length; i++) {\n            billings[i] = _getBilling(_section);\n            stages[i] = _stageOf(services[i]);\n        }\n        return (services, billings, stages);\n    }\n\n    function start(bytes32 _agreement, bytes32 _service)\n        external\n        returns (bool success)\n    {\n        _start(_agreement, _service);\n        return true;\n    }\n\n    function finish(bytes32 _agreement, bytes32 _service)\n        external\n        returns (bool success)\n    {\n        _finish(_agreement, _service);\n        return true;\n    }\n\n    function approve(bytes32 _agreement, bytes32 _service)\n        external\n        atStageAll(_getServices(_service), Stages.APPROVED)\n        returns (bool success)\n    {\n        _finish(_agreement, _service);\n        return true;\n    }\n\n    function reject(bytes32 _agreement, bytes32 _service)\n        external\n        atStageAll(_getServices(_service), Stages.STARTED)\n        returns (bool success)\n    {\n        _reject(_agreement, _service);\n        return true;\n    }\n\n    function pay(bytes32 _agreement, bytes32 _service)\n        external\n        atStageAll(_getServices(_service), Stages.PAYED)\n        returns (bool success)\n    {\n        _finish(_agreement, _service);\n        return true;\n    }\n}\n",
  "sourcePath": "C:/Users/fabia/WebstormProjects/bim-contracts/contracts/AgreementController.sol",
  "compiler": {
    "name": "solc",
    "version": "0.5.16+commit.9c3226ce.Emscripten.clang"
  },
  "schemaVersion": "3.2.4",
  "updatedAt": "2020-10-24T22:31:29.873Z",
  "networkType": "ethereum",
  "devdoc": {
    "methods": {}
  },
  "userdoc": {
    "methods": {}
  }
}