{
  "contractName": "AgreementController",
  "abi": [
    {
      "constant": false,
      "inputs": [
        {
          "internalType": "bytes32",
          "name": "_agreement",
          "type": "bytes32"
        },
        {
          "internalType": "address",
          "name": "_contractor",
          "type": "address"
        },
        {
          "internalType": "bytes32[]",
          "name": "_roots",
          "type": "bytes32[]"
        },
        {
          "internalType": "bytes32[]",
          "name": "_services",
          "type": "bytes32[]"
        },
        {
          "internalType": "bytes32[]",
          "name": "_sections",
          "type": "bytes32[]"
        }
      ],
      "name": "createProject",
      "outputs": [
        {
          "internalType": "bool",
          "name": "success",
          "type": "bool"
        }
      ],
      "payable": false,
      "stateMutability": "nonpayable",
      "type": "function"
    },
    {
      "constant": false,
      "inputs": [
        {
          "internalType": "bytes32",
          "name": "_agreement",
          "type": "bytes32"
        },
        {
          "internalType": "address",
          "name": "_contractor",
          "type": "address"
        },
        {
          "internalType": "bytes32[]",
          "name": "_services",
          "type": "bytes32[]"
        }
      ],
      "name": "createAgreement",
      "outputs": [
        {
          "internalType": "bool",
          "name": "success",
          "type": "bool"
        }
      ],
      "payable": false,
      "stateMutability": "nonpayable",
      "type": "function"
    },
    {
      "constant": true,
      "inputs": [
        {
          "internalType": "address",
          "name": "_client",
          "type": "address"
        }
      ],
      "name": "getAgreementsByClient",
      "outputs": [
        {
          "internalType": "bytes32[]",
          "name": "_agreements",
          "type": "bytes32[]"
        }
      ],
      "payable": false,
      "stateMutability": "view",
      "type": "function"
    },
    {
      "constant": true,
      "inputs": [
        {
          "internalType": "address",
          "name": "_contractor",
          "type": "address"
        }
      ],
      "name": "getAgreementsByContractor",
      "outputs": [
        {
          "internalType": "bytes32[]",
          "name": "_agreements",
          "type": "bytes32[]"
        }
      ],
      "payable": false,
      "stateMutability": "view",
      "type": "function"
    },
    {
      "constant": true,
      "inputs": [
        {
          "internalType": "bytes32",
          "name": "_agreement",
          "type": "bytes32"
        }
      ],
      "name": "getAgreement",
      "outputs": [
        {
          "internalType": "bool",
          "name": "payed",
          "type": "bool"
        },
        {
          "internalType": "address",
          "name": "_client",
          "type": "address"
        },
        {
          "internalType": "address",
          "name": "_contractor",
          "type": "address"
        },
        {
          "internalType": "bytes32[]",
          "name": "_services",
          "type": "bytes32[]"
        }
      ],
      "payable": false,
      "stateMutability": "view",
      "type": "function"
    },
    {
      "constant": false,
      "inputs": [
        {
          "internalType": "bytes32",
          "name": "_agreement",
          "type": "bytes32"
        }
      ],
      "name": "payAgreement",
      "outputs": [
        {
          "internalType": "bool",
          "name": "success",
          "type": "bool"
        }
      ],
      "payable": false,
      "stateMutability": "nonpayable",
      "type": "function"
    },
    {
      "constant": true,
      "inputs": [
        {
          "internalType": "bytes32",
          "name": "_service",
          "type": "bytes32"
        }
      ],
      "name": "getService",
      "outputs": [
        {
          "internalType": "address",
          "name": "_client",
          "type": "address"
        },
        {
          "internalType": "address",
          "name": "_contractor",
          "type": "address"
        },
        {
          "internalType": "enum StateMachine.Stages",
          "name": "_stage",
          "type": "uint8"
        }
      ],
      "payable": false,
      "stateMutability": "view",
      "type": "function"
    },
    {
      "constant": true,
      "inputs": [
        {
          "internalType": "bytes32",
          "name": "_section",
          "type": "bytes32"
        }
      ],
      "name": "getServicesOf",
      "outputs": [
        {
          "internalType": "bytes32[]",
          "name": "_services",
          "type": "bytes32[]"
        },
        {
          "internalType": "address[]",
          "name": "_clients",
          "type": "address[]"
        },
        {
          "internalType": "address[]",
          "name": "_contractors",
          "type": "address[]"
        },
        {
          "internalType": "enum StateMachine.Stages[]",
          "name": "_stages",
          "type": "uint8[]"
        }
      ],
      "payable": false,
      "stateMutability": "view",
      "type": "function"
    },
    {
      "constant": false,
      "inputs": [
        {
          "internalType": "bytes32",
          "name": "_service",
          "type": "bytes32"
        }
      ],
      "name": "start",
      "outputs": [
        {
          "internalType": "bool",
          "name": "success",
          "type": "bool"
        }
      ],
      "payable": false,
      "stateMutability": "nonpayable",
      "type": "function"
    },
    {
      "constant": false,
      "inputs": [
        {
          "internalType": "bytes32",
          "name": "_service",
          "type": "bytes32"
        }
      ],
      "name": "finish",
      "outputs": [
        {
          "internalType": "bool",
          "name": "success",
          "type": "bool"
        }
      ],
      "payable": false,
      "stateMutability": "nonpayable",
      "type": "function"
    },
    {
      "constant": false,
      "inputs": [
        {
          "internalType": "bytes32",
          "name": "_service",
          "type": "bytes32"
        }
      ],
      "name": "approve",
      "outputs": [
        {
          "internalType": "bool",
          "name": "success",
          "type": "bool"
        }
      ],
      "payable": false,
      "stateMutability": "nonpayable",
      "type": "function"
    },
    {
      "constant": false,
      "inputs": [
        {
          "internalType": "bytes32",
          "name": "_service",
          "type": "bytes32"
        }
      ],
      "name": "reject",
      "outputs": [
        {
          "internalType": "bool",
          "name": "success",
          "type": "bool"
        }
      ],
      "payable": false,
      "stateMutability": "nonpayable",
      "type": "function"
    }
  ],
  "bytecode": "0x608060405234801561001057600080fd5b50611dcd806100206000396000f3fe608060405234801561001057600080fd5b50600436106100b45760003560e01c8063c1d76a6211610071578063c1d76a6214610479578063cabd734f14610512578063da47d85614610558578063f42eb7651461060e578063f55abb1a14610702578063fde6305614610867576100b4565b8063015a18ed146100b95780631784997c146100ff5780637e9ffb8b146101f9578063a115010214610354578063a53a1adf1461039a578063b77031dd146103e0575b600080fd5b6100e5600480360360208110156100cf57600080fd5b81019080803590602001909291905050506108ad565b604051808215151515815260200191505060405180910390f35b6101df6004803603606081101561011557600080fd5b8101908080359060200190929190803573ffffffffffffffffffffffffffffffffffffffff1690602001909291908035906020019064010000000081111561015c57600080fd5b82018360208201111561016e57600080fd5b8035906020019184602083028401116401000000008311171561019057600080fd5b919080806020026020016040519081016040528093929190818152602001838360200280828437600081840152601f19601f8201169050808301925050505050505091929192905050506108c1565b604051808215151515815260200191505060405180910390f35b6102256004803603602081101561020f57600080fd5b8101908080359060200190929190505050610941565b6040518080602001806020018060200180602001858103855289818151815260200191508051906020019060200280838360005b83811015610274578082015181840152602081019050610259565b50505050905001858103845288818151815260200191508051906020019060200280838360005b838110156102b657808201518184015260208101905061029b565b50505050905001858103835287818151815260200191508051906020019060200280838360005b838110156102f85780820151818401526020810190506102dd565b50505050905001858103825286818151815260200191508051906020019060200280838360005b8381101561033a57808201518184015260208101905061031f565b505050509050019850505050505050505060405180910390f35b6103806004803603602081101561036a57600080fd5b810190808035906020019092919050505061095f565b604051808215151515815260200191505060405180910390f35b6103c6600480360360208110156103b057600080fd5b8101908080359060200190929190505050610973565b604051808215151515815260200191505060405180910390f35b610422600480360360208110156103f657600080fd5b81019080803573ffffffffffffffffffffffffffffffffffffffff169060200190929190505050610987565b6040518080602001828103825283818151815260200191508051906020019060200280838360005b8381101561046557808201518184015260208101905061044a565b505050509050019250505060405180910390f35b6104bb6004803603602081101561048f57600080fd5b81019080803573ffffffffffffffffffffffffffffffffffffffff169060200190929190505050610999565b6040518080602001828103825283818151815260200191508051906020019060200280838360005b838110156104fe5780820151818401526020810190506104e3565b505050509050019250505060405180910390f35b61053e6004803603602081101561052857600080fd5b81019080803590602001909291905050506109ab565b604051808215151515815260200191505060405180910390f35b6105846004803603602081101561056e57600080fd5b81019080803590602001909291905050506109bf565b604051808473ffffffffffffffffffffffffffffffffffffffff1673ffffffffffffffffffffffffffffffffffffffff1681526020018373ffffffffffffffffffffffffffffffffffffffff1673ffffffffffffffffffffffffffffffffffffffff1681526020018260048111156105f857fe5b60ff168152602001935050505060405180910390f35b61063a6004803603602081101561062457600080fd5b81019080803590602001909291905050506109da565b60405180851515151581526020018473ffffffffffffffffffffffffffffffffffffffff1673ffffffffffffffffffffffffffffffffffffffff1681526020018373ffffffffffffffffffffffffffffffffffffffff1673ffffffffffffffffffffffffffffffffffffffff16815260200180602001828103825283818151815260200191508051906020019060200280838360005b838110156106eb5780820151818401526020810190506106d0565b505050509050019550505050505060405180910390f35b61084d600480360360a081101561071857600080fd5b8101908080359060200190929190803573ffffffffffffffffffffffffffffffffffffffff1690602001909291908035906020019064010000000081111561075f57600080fd5b82018360208201111561077157600080fd5b8035906020019184602083028401116401000000008311171561079357600080fd5b9091929391929390803590602001906401000000008111156107b457600080fd5b8201836020820111156107c657600080fd5b803590602001918460208302840111640100000000831117156107e857600080fd5b90919293919293908035906020019064010000000081111561080957600080fd5b82018360208201111561081b57600080fd5b8035906020019184602083028401116401000000008311171561083d57600080fd5b90919293919293905050506109f9565b604051808215151515815260200191505060405180910390f35b6108936004803603602081101561087d57600080fd5b8101908080359060200190929190505050610aa5565b604051808215151515815260200191505060405180910390f35b60006108b882610ab9565b60019050919050565b60006108cc82610be4565b610921576040517f08c379a0000000000000000000000000000000000000000000000000000000008152600401808060200182810382526032815260200180611cb76032913960400191505060405180910390fd5b61092c848484610c95565b6109368284610e9a565b600190509392505050565b60608060608061095085610f0c565b93509350935093509193509193565b600061096a82611144565b60019050919050565b600061097e8261124d565b60019050919050565b60606109928261143d565b9050919050565b60606109a4826114d4565b9050919050565b60006109b68261156b565b60019050919050565b60008060006109cd8461169a565b9250925092509193909250565b600080600060606109ea856116cb565b93509350935093509193509193565b600080600090505b85859050811015610a4757610a3a848483818110610a1b57fe5b90506020020135878784818110610a2e57fe5b905060200201356117d7565b8080600101915050610a01565b50610a948989898980806020026020016040519081016040528093929190818152602001838360200280828437600081840152601f19601f820116905080830192505050505050506108c1565b506001905098975050505050505050565b6000610ab082611821565b60019050919050565b806004600082815260200190815260200160002060009054906101000a900473ffffffffffffffffffffffffffffffffffffffff1673ffffffffffffffffffffffffffffffffffffffff163373ffffffffffffffffffffffffffffffffffffffff1614610b71576040517f08c379a0000000000000000000000000000000000000000000000000000000008152600401808060200182810382526029815260200180611c8e6029913960400191505060405180910390fd5b816001610b7e828261194c565b610bd3576040517f08c379a0000000000000000000000000000000000000000000000000000000008152600401808060200182810382526043815260200180611ce96043913960600191505060405180910390fd5b83610bdd8161198f565b5050505050565b60008060008090505b8351811015610c8957610c12848281518110610c0557fe5b60200260200101516119d5565b905080925050610c34848281518110610c2757fe5b6020026020010151611a49565b8015610c6c57508173ffffffffffffffffffffffffffffffffffffffff163373ffffffffffffffffffffffffffffffffffffffff1614155b15610c7c57600092505050610c90565b8080600101915050610bed565b5060019150505b919050565b600160008085815260200190815260200160002060000160006101000a81548160ff021916908315150217905550600080600085815260200190815260200160002060000160016101000a81548160ff0219169083151502179055503360008085815260200190815260200160002060000160026101000a81548173ffffffffffffffffffffffffffffffffffffffff021916908373ffffffffffffffffffffffffffffffffffffffff1602179055508160008085815260200190815260200160002060010160006101000a81548173ffffffffffffffffffffffffffffffffffffffff021916908373ffffffffffffffffffffffffffffffffffffffff160217905550806000808581526020019081526020016000206002019080519060200190610dc2929190611c1b565b50600160008373ffffffffffffffffffffffffffffffffffffffff1673ffffffffffffffffffffffffffffffffffffffff168152602001908152602001600020839080600181540180825580915050906001820390600052602060002001600090919290919091505550600260003373ffffffffffffffffffffffffffffffffffffffff1673ffffffffffffffffffffffffffffffffffffffff168152602001908152602001600020839080600181540180825580915050906001820390600052602060002001600090919290919091505550505050565b606060008090505b8351811015610f0657610ec7848281518110610eba57fe5b6020026020010151610f0c565b90915090505080925050610eef848281518110610ee057fe5b60200260200101513385611a8c565b610ef98284610e9a565b8080600101915050610ea2565b50505050565b60608060608060066000868152602001908152602001600020805480602002602001604051908101604052809291908181526020018280548015610f6f57602002820191906000526020600020905b815481526020019060010190808311610f5b575b505050505093508351604051908082528060200260200182016040528015610fa65781602001602082028038833980820191505090505b5092508351604051908082528060200260200182016040528015610fd95781602001602082028038833980820191505090505b509250835160405190808252806020026020018201604052801561100c5781602001602082028038833980820191505090505b509150835160405190808252806020026020018201604052801561103f5781602001602082028038833980820191505090505b50905060008090505b84518110156111305761106d85828151811061106057fe5b602002602001015161169a565b86848151811061107957fe5b6020026020010186858151811061108c57fe5b6020026020010186868151811061109f57fe5b602002602001018360048111156110b257fe5b60048111156110bd57fe5b8152508373ffffffffffffffffffffffffffffffffffffffff1673ffffffffffffffffffffffffffffffffffffffff168152508373ffffffffffffffffffffffffffffffffffffffff1673ffffffffffffffffffffffffffffffffffffffff168152505050508080600101915050611048565b508383838393509350935093509193509193565b8060008082815260200190815260200160002060000160029054906101000a900473ffffffffffffffffffffffffffffffffffffffff1673ffffffffffffffffffffffffffffffffffffffff163373ffffffffffffffffffffffffffffffffffffffff161461121b576040517f08c379a000000000000000000000000000000000000000000000000000000000815260040180806020018281038252600c8152602001807f556e617574686f72697a6564000000000000000000000000000000000000000081525060200191505060405180910390fd5b600160008084815260200190815260200160002060000160016101000a81548160ff0219169083151502179055505050565b806003600082815260200190815260200160002060009054906101000a900473ffffffffffffffffffffffffffffffffffffffff1673ffffffffffffffffffffffffffffffffffffffff163373ffffffffffffffffffffffffffffffffffffffff1614611305576040517f08c379a0000000000000000000000000000000000000000000000000000000008152600401808060200182810382526025815260200180611d746025913960400191505060405180910390fd5b816003611312828261194c565b611367576040517f08c379a0000000000000000000000000000000000000000000000000000000008152600401808060200182810382526043815260200180611ce96043913960600191505060405180910390fd5b600660008581526020019081526020016000208054806020026020016040519081016040528092919081815260200182805480156113c457602002820191906000526020600020905b8154815260200190600101908083116113b0575b505050505060046113d58282611b35565b61142a576040517f08c379a0000000000000000000000000000000000000000000000000000000008152600401808060200182810382526048815260200180611d2c6048913960600191505060405180910390fd5b856114348161198f565b50505050505050565b6060600260008373ffffffffffffffffffffffffffffffffffffffff1673ffffffffffffffffffffffffffffffffffffffff1681526020019081526020016000208054806020026020016040519081016040528092919081815260200182805480156114c857602002820191906000526020600020905b8154815260200190600101908083116114b4575b50505050509050919050565b6060600160008373ffffffffffffffffffffffffffffffffffffffff1673ffffffffffffffffffffffffffffffffffffffff16815260200190815260200160002080548060200260200160405190810160405280929190818152602001828054801561155f57602002820191906000526020600020905b81548152602001906001019080831161154b575b50505050509050919050565b806003600082815260200190815260200160002060009054906101000a900473ffffffffffffffffffffffffffffffffffffffff1673ffffffffffffffffffffffffffffffffffffffff163373ffffffffffffffffffffffffffffffffffffffff1614611623576040517f08c379a0000000000000000000000000000000000000000000000000000000008152600401808060200182810382526025815260200180611d746025913960400191505060405180910390fd5b816003611630828261194c565b611685576040517f08c379a0000000000000000000000000000000000000000000000000000000008152600401808060200182810382526043815260200180611ce96043913960600191505060405180910390fd5b8360026116928282611bb9565b505050505050565b60008060006116a8846119d5565b80935081945050506116b984611bf1565b90508282829250925092509193909250565b6000806000606060008086815260200190815260200160002060000160019054906101000a900460ff1660008087815260200190815260200160002060000160029054906101000a900473ffffffffffffffffffffffffffffffffffffffff1660008088815260200190815260200160002060010160009054906101000a900473ffffffffffffffffffffffffffffffffffffffff16600080898152602001908152602001600020600201808054806020026020016040519081016040528092919081815260200182805480156117c157602002820191906000526020600020905b8154815260200190600101908083116117ad575b5050505050905093509350935093509193509193565b6117e08161198f565b600660008381526020019081526020016000208190806001815401808255809150509060018203906000526020600020016000909192909190915055505050565b806004600082815260200190815260200160002060009054906101000a900473ffffffffffffffffffffffffffffffffffffffff1673ffffffffffffffffffffffffffffffffffffffff163373ffffffffffffffffffffffffffffffffffffffff16146118d9576040517f08c379a0000000000000000000000000000000000000000000000000000000008152600401808060200182810382526029815260200180611c8e6029913960400191505060405180910390fd5b8160026118e6828261194c565b61193b576040517f08c379a0000000000000000000000000000000000000000000000000000000008152600401808060200182810382526043815260200180611ce96043913960600191505060405180910390fd5b836119458161198f565b5050505050565b600081600481111561195a57fe5b6005600085815260200190815260200160002060009054906101000a900460ff16600481111561198657fe5b14905092915050565b6119d28160016005600085815260200190815260200160002060009054906101000a900460ff1660048111156119c157fe5b0160048111156119cd57fe5b611bb9565b50565b6000806003600084815260200190815260200160002060009054906101000a900473ffffffffffffffffffffffffffffffffffffffff166004600085815260200190815260200160002060009054906101000a900473ffffffffffffffffffffffffffffffffffffffff1691509150915091565b600060016004811115611a5857fe5b6005600084815260200190815260200160002060009054906101000a900460ff166004811115611a8457fe5b119050919050565b816003600085815260200190815260200160002060006101000a81548173ffffffffffffffffffffffffffffffffffffffff021916908373ffffffffffffffffffffffffffffffffffffffff160217905550806004600085815260200190815260200160002060006101000a81548173ffffffffffffffffffffffffffffffffffffffff021916908373ffffffffffffffffffffffffffffffffffffffff160217905550505050565b600080600090505b8351811015611bad57826004811115611b5257fe5b60056000868481518110611b6257fe5b6020026020010151815260200190815260200160002060009054906101000a900460ff166004811115611b9157fe5b14611ba0576000915050611bb3565b8080600101915050611b3d565b50600190505b92915050565b806005600084815260200190815260200160002060006101000a81548160ff02191690836004811115611be857fe5b02179055505050565b60006005600083815260200190815260200160002060009054906101000a900460ff169050919050565b828054828255906000526020600020908101928215611c57579160200282015b82811115611c56578251825591602001919060010190611c3b565b5b509050611c649190611c68565b5090565b611c8a91905b80821115611c86576000816000905550600101611c6e565b5090565b9056fe4e6f7420616c6c6f7765642e204f6e6c7920726573706f6e7369626c6520636f6e74726163746f722e4e6f7420616c6c6f7765642e204f6e6c7920636f6e74726163746f722063616e206372656174652061677265656d656e742e46756e6374696f6e2063616e6e6f742062652063616c6c656420617420746869732074696d652e204974656d206973206e6f7420696e2076616c69642073746167652e46756e6374696f6e2063616e6e6f742062652063616c6c656420617420746869732074696d652e204368696c6472656e20617265206e6f7420696e2076616c69642073746167652e4e6f7420616c6c6f7765642e204f6e6c7920726573706f6e7369626c6520636c69656e742ea265627a7a72315820198fc069329f6dc9bb137cd7f2b89e5cf1eccbebc4d831eac8012c1c92a9dec664736f6c63430005100032",
  "source": "// SPDX-License-Identifier: MIT\npragma solidity >=0.4.21 <0.7.1;\n\nimport './ServiceAgreement.sol';\nimport './ServiceStorage.sol';\n\ncontract AgreementController is ServiceAgreement, ServiceStorage {\n    function createProject(\n        bytes32 _agreement,\n        address _contractor,\n        bytes32[] calldata _roots,\n        bytes32[] calldata _services,\n        bytes32[] calldata _sections\n    ) external returns (bool success) {\n        for (uint256 i = 0; i < _services.length; i++) {\n            _addService(_sections[i], _services[i]);\n        }\n        createAgreement(_agreement, _contractor, _roots);\n        return true;\n    }\n\n    function createAgreement(\n        bytes32 _agreement,\n        address _contractor,\n        bytes32[] memory _services\n    ) public returns (bool success) {\n        require(\n            _onlyAgreementContractor(_services),\n            'Not allowed. Only contractor can create agreement.'\n        );\n        _createAgreement(_agreement, _contractor, _services);\n        _updateRoles(_services, _contractor);\n        return true;\n    }\n\n    function _updateRoles(bytes32[] memory _sections, address _contractor)\n        internal\n    {\n        bytes32[] memory _services;\n        for (uint256 i = 0; i < _sections.length; i++) {\n            (_services, , , ) = _getServicesOf(_sections[i]);\n            _updateServiceRoles(_sections[i], msg.sender, _contractor);\n            _updateRoles(_services, _contractor);\n        }\n    }\n\n    function _onlyAgreementContractor(bytes32[] memory _services)\n        internal\n        view\n        returns (bool)\n    {\n        address _contractor;\n        for (uint256 i = 0; i < _services.length; i++) {\n            (, _contractor) = _getServiceRoles(_services[i]);\n            if (_isStarted(_services[i]) && msg.sender != _contractor) {\n                return false;\n            }\n        }\n        return true;\n    }\n\n    function getAgreementsByClient(address _client)\n        external\n        view\n        returns (bytes32[] memory _agreements)\n    {\n        return _getAgreementsByClient(_client);\n    }\n\n    function getAgreementsByContractor(address _contractor)\n        external\n        view\n        returns (bytes32[] memory _agreements)\n    {\n        return _getAgreementsByContractor(_contractor);\n    }\n\n    function getAgreement(bytes32 _agreement)\n        external\n        view\n        returns (\n            bool payed,\n            address _client,\n            address _contractor,\n            bytes32[] memory _services\n        )\n    {\n        return _getAgreement(_agreement);\n    }\n\n    function payAgreement(bytes32 _agreement) external returns (bool success) {\n        _payAgreement(_agreement);\n        return true;\n    }\n\n    function getService(bytes32 _service)\n        external\n        view\n        returns (\n            address _client,\n            address _contractor,\n            Stages _stage\n        )\n    {\n        return _getService(_service);\n    }\n\n    function getServicesOf(bytes32 _section)\n        external\n        view\n        returns (\n            bytes32[] memory _services,\n            address[] memory _clients,\n            address[] memory _contractors,\n            Stages[] memory _stages\n        )\n    {\n        return _getServicesOf(_section);\n    }\n\n    function start(bytes32 _service) external returns (bool success) {\n        _start(_service);\n        return true;\n    }\n\n    function finish(bytes32 _service) external returns (bool success) {\n        _finish(_service);\n        return true;\n    }\n\n    function approve(bytes32 _service) external returns (bool success) {\n        _approve(_service);\n        return true;\n    }\n\n    function reject(bytes32 _service) external returns (bool success) {\n        _reject(_service);\n        return true;\n    }\n}\n",
  "sourcePath": "C:/Users/fabia/WebstormProjects/bim-contracts/contracts/AgreementController.sol",
  "compiler": {
    "name": "solc",
    "version": "0.5.16+commit.9c3226ce.Emscripten.clang"
  },
  "schemaVersion": "3.2.4",
  "updatedAt": "2020-11-07T08:00:52.546Z",
  "networkType": "ethereum",
  "devdoc": {
    "methods": {}
  },
  "userdoc": {
    "methods": {}
  }
}