{
  "contractName": "AgreementController",
  "abi": [
    {
      "constant": false,
      "inputs": [
        {
          "internalType": "bytes32",
          "name": "_agreement",
          "type": "bytes32"
        },
        {
          "internalType": "address",
          "name": "_contractor",
          "type": "address"
        },
        {
          "internalType": "bytes32[]",
          "name": "_roots",
          "type": "bytes32[]"
        },
        {
          "internalType": "bytes32[]",
          "name": "_services",
          "type": "bytes32[]"
        },
        {
          "internalType": "bytes32[]",
          "name": "_sections",
          "type": "bytes32[]"
        },
        {
          "internalType": "bytes32[]",
          "name": "_billings",
          "type": "bytes32[]"
        }
      ],
      "name": "createInitialAgreement",
      "outputs": [
        {
          "internalType": "bool",
          "name": "success",
          "type": "bool"
        }
      ],
      "payable": false,
      "stateMutability": "nonpayable",
      "type": "function"
    },
    {
      "constant": false,
      "inputs": [
        {
          "internalType": "bytes32",
          "name": "_agreement",
          "type": "bytes32"
        },
        {
          "internalType": "address",
          "name": "_contractor",
          "type": "address"
        },
        {
          "internalType": "bytes32[]",
          "name": "_services",
          "type": "bytes32[]"
        }
      ],
      "name": "createAgreement",
      "outputs": [
        {
          "internalType": "bool",
          "name": "success",
          "type": "bool"
        }
      ],
      "payable": false,
      "stateMutability": "nonpayable",
      "type": "function"
    },
    {
      "constant": true,
      "inputs": [
        {
          "internalType": "address",
          "name": "_client",
          "type": "address"
        }
      ],
      "name": "getAgreementsByClient",
      "outputs": [
        {
          "internalType": "bytes32[]",
          "name": "_agreements",
          "type": "bytes32[]"
        }
      ],
      "payable": false,
      "stateMutability": "view",
      "type": "function"
    },
    {
      "constant": true,
      "inputs": [
        {
          "internalType": "address",
          "name": "_contractor",
          "type": "address"
        }
      ],
      "name": "getAgreementsByContractor",
      "outputs": [
        {
          "internalType": "bytes32[]",
          "name": "_agreements",
          "type": "bytes32[]"
        }
      ],
      "payable": false,
      "stateMutability": "view",
      "type": "function"
    },
    {
      "constant": true,
      "inputs": [
        {
          "internalType": "bytes32",
          "name": "_agreement",
          "type": "bytes32"
        }
      ],
      "name": "getAgreement",
      "outputs": [
        {
          "internalType": "bool",
          "name": "payed",
          "type": "bool"
        },
        {
          "internalType": "address",
          "name": "_client",
          "type": "address"
        },
        {
          "internalType": "address",
          "name": "_contractor",
          "type": "address"
        },
        {
          "internalType": "bytes32[]",
          "name": "_services",
          "type": "bytes32[]"
        }
      ],
      "payable": false,
      "stateMutability": "view",
      "type": "function"
    },
    {
      "constant": true,
      "inputs": [
        {
          "internalType": "bytes32",
          "name": "_service",
          "type": "bytes32"
        }
      ],
      "name": "getService",
      "outputs": [
        {
          "internalType": "address",
          "name": "_client",
          "type": "address"
        },
        {
          "internalType": "address",
          "name": "_contractor",
          "type": "address"
        },
        {
          "internalType": "bytes32",
          "name": "_billing",
          "type": "bytes32"
        },
        {
          "internalType": "enum StateMachine.Stages",
          "name": "_stage",
          "type": "uint8"
        }
      ],
      "payable": false,
      "stateMutability": "view",
      "type": "function"
    },
    {
      "constant": true,
      "inputs": [
        {
          "internalType": "bytes32",
          "name": "_section",
          "type": "bytes32"
        }
      ],
      "name": "getServices",
      "outputs": [
        {
          "internalType": "bytes32[]",
          "name": "_services",
          "type": "bytes32[]"
        },
        {
          "internalType": "address[]",
          "name": "_clients",
          "type": "address[]"
        },
        {
          "internalType": "address[]",
          "name": "_contractors",
          "type": "address[]"
        },
        {
          "internalType": "bytes32[]",
          "name": "_billings",
          "type": "bytes32[]"
        },
        {
          "internalType": "enum StateMachine.Stages[]",
          "name": "_stages",
          "type": "uint8[]"
        }
      ],
      "payable": false,
      "stateMutability": "view",
      "type": "function"
    },
    {
      "constant": false,
      "inputs": [
        {
          "internalType": "bytes32",
          "name": "_service",
          "type": "bytes32"
        }
      ],
      "name": "start",
      "outputs": [
        {
          "internalType": "bool",
          "name": "success",
          "type": "bool"
        }
      ],
      "payable": false,
      "stateMutability": "nonpayable",
      "type": "function"
    },
    {
      "constant": false,
      "inputs": [
        {
          "internalType": "bytes32",
          "name": "_service",
          "type": "bytes32"
        }
      ],
      "name": "finish",
      "outputs": [
        {
          "internalType": "bool",
          "name": "success",
          "type": "bool"
        }
      ],
      "payable": false,
      "stateMutability": "nonpayable",
      "type": "function"
    },
    {
      "constant": false,
      "inputs": [
        {
          "internalType": "bytes32",
          "name": "_service",
          "type": "bytes32"
        }
      ],
      "name": "approve",
      "outputs": [
        {
          "internalType": "bool",
          "name": "success",
          "type": "bool"
        }
      ],
      "payable": false,
      "stateMutability": "nonpayable",
      "type": "function"
    },
    {
      "constant": false,
      "inputs": [
        {
          "internalType": "bytes32",
          "name": "_service",
          "type": "bytes32"
        }
      ],
      "name": "reject",
      "outputs": [
        {
          "internalType": "bool",
          "name": "success",
          "type": "bool"
        }
      ],
      "payable": false,
      "stateMutability": "nonpayable",
      "type": "function"
    }
  ],
  "bytecode": "0x608060405234801561001057600080fd5b50611c91806100206000396000f3fe608060405234801561001057600080fd5b50600436106100a95760003560e01c8063c1d76a6211610071578063c1d76a6214610487578063cabd734f14610520578063cd01532b14610566578063da47d85614610709578063f42eb765146107c6578063fde63056146108ba576100a9565b8063015a18ed146100ae5780631784997c146100f45780638d0910b8146101ee578063a53a1adf146103a8578063b77031dd146103ee575b600080fd5b6100da600480360360208110156100c457600080fd5b8101908080359060200190929190505050610900565b604051808215151515815260200191505060405180910390f35b6101d46004803603606081101561010a57600080fd5b8101908080359060200190929190803573ffffffffffffffffffffffffffffffffffffffff1690602001909291908035906020019064010000000081111561015157600080fd5b82018360208201111561016357600080fd5b8035906020019184602083028401116401000000008311171561018557600080fd5b919080806020026020016040519081016040528093929190818152602001838360200280828437600081840152601f19601f820116905080830192505050505050509192919290505050610914565b604051808215151515815260200191505060405180910390f35b61038e600480360360c081101561020457600080fd5b8101908080359060200190929190803573ffffffffffffffffffffffffffffffffffffffff1690602001909291908035906020019064010000000081111561024b57600080fd5b82018360208201111561025d57600080fd5b8035906020019184602083028401116401000000008311171561027f57600080fd5b9091929391929390803590602001906401000000008111156102a057600080fd5b8201836020820111156102b257600080fd5b803590602001918460208302840111640100000000831117156102d457600080fd5b9091929391929390803590602001906401000000008111156102f557600080fd5b82018360208201111561030757600080fd5b8035906020019184602083028401116401000000008311171561032957600080fd5b90919293919293908035906020019064010000000081111561034a57600080fd5b82018360208201111561035c57600080fd5b8035906020019184602083028401116401000000008311171561037e57600080fd5b9091929391929390505050610936565b604051808215151515815260200191505060405180910390f35b6103d4600480360360208110156103be57600080fd5b81019080803590602001909291905050506109f7565b604051808215151515815260200191505060405180910390f35b6104306004803603602081101561040457600080fd5b81019080803573ffffffffffffffffffffffffffffffffffffffff169060200190929190505050610a0b565b6040518080602001828103825283818151815260200191508051906020019060200280838360005b83811015610473578082015181840152602081019050610458565b505050509050019250505060405180910390f35b6104c96004803603602081101561049d57600080fd5b81019080803573ffffffffffffffffffffffffffffffffffffffff169060200190929190505050610a1d565b6040518080602001828103825283818151815260200191508051906020019060200280838360005b8381101561050c5780820151818401526020810190506104f1565b505050509050019250505060405180910390f35b61054c6004803603602081101561053657600080fd5b8101908080359060200190929190505050610a2f565b604051808215151515815260200191505060405180910390f35b6105926004803603602081101561057c57600080fd5b8101908080359060200190929190505050610a43565b60405180806020018060200180602001806020018060200186810386528b818151815260200191508051906020019060200280838360005b838110156105e55780820151818401526020810190506105ca565b5050505090500186810385528a818151815260200191508051906020019060200280838360005b8381101561062757808201518184015260208101905061060c565b50505050905001868103845289818151815260200191508051906020019060200280838360005b8381101561066957808201518184015260208101905061064e565b50505050905001868103835288818151815260200191508051906020019060200280838360005b838110156106ab578082015181840152602081019050610690565b50505050905001868103825287818151815260200191508051906020019060200280838360005b838110156106ed5780820151818401526020810190506106d2565b505050509050019a505050505050505050505060405180910390f35b6107356004803603602081101561071f57600080fd5b8101908080359060200190929190505050610a67565b604051808573ffffffffffffffffffffffffffffffffffffffff1673ffffffffffffffffffffffffffffffffffffffff1681526020018473ffffffffffffffffffffffffffffffffffffffff1673ffffffffffffffffffffffffffffffffffffffff1681526020018381526020018260048111156107af57fe5b60ff16815260200194505050505060405180910390f35b6107f2600480360360208110156107dc57600080fd5b8101908080359060200190929190505050610a85565b60405180851515151581526020018473ffffffffffffffffffffffffffffffffffffffff1673ffffffffffffffffffffffffffffffffffffffff1681526020018373ffffffffffffffffffffffffffffffffffffffff1673ffffffffffffffffffffffffffffffffffffffff16815260200180602001828103825283818151815260200191508051906020019060200280838360005b838110156108a3578082015181840152602081019050610888565b505050509050019550505050505060405180910390f35b6108e6600480360360208110156108d057600080fd5b8101908080359060200190929190505050610aa4565b604051808215151515815260200191505060405180910390f35b600061090b82610ab8565b60019050919050565b6000610921848484610be3565b61092b8284610de8565b600190509392505050565b600080600090505b878790508110156109975761098a86868381811061095857fe5b9050602002013589898481811061096b57fe5b9050602002013586868581811061097e57fe5b90506020020135610e4c565b808060010191505061093e565b506109e48b8b8b8b80806020026020016040519081016040528093929190818152602001838360200280828437600081840152601f19601f82011690508083019250505050505050610914565b50600190509a9950505050505050505050565b6000610a0282610eaf565b60019050919050565b6060610a168261109f565b9050919050565b6060610a2882611136565b9050919050565b6000610a3a826111cd565b60019050919050565b6060806060806060610a54866112fc565b9450945094509450945091939590929450565b600080600080610a7685611586565b93509350935093509193509193565b60008060006060610a95856115c6565b93509350935093509193509193565b6000610aaf826116d2565b60019050919050565b806004600082815260200190815260200160002060009054906101000a900473ffffffffffffffffffffffffffffffffffffffff1673ffffffffffffffffffffffffffffffffffffffff163373ffffffffffffffffffffffffffffffffffffffff1614610b70576040517f08c379a0000000000000000000000000000000000000000000000000000000008152600401808060200182810382526029815260200180611b846029913960400191505060405180910390fd5b816001610b7d82826117fd565b610bd2576040517f08c379a0000000000000000000000000000000000000000000000000000000008152600401808060200182810382526043815260200180611bad6043913960600191505060405180910390fd5b83610bdc81611840565b5050505050565b600160008085815260200190815260200160002060000160006101000a81548160ff021916908315150217905550600080600085815260200190815260200160002060000160016101000a81548160ff0219169083151502179055503360008085815260200190815260200160002060000160026101000a81548173ffffffffffffffffffffffffffffffffffffffff021916908373ffffffffffffffffffffffffffffffffffffffff1602179055508160008085815260200190815260200160002060010160006101000a81548173ffffffffffffffffffffffffffffffffffffffff021916908373ffffffffffffffffffffffffffffffffffffffff160217905550806000808581526020019081526020016000206002019080519060200190610d10929190611b11565b50600160008373ffffffffffffffffffffffffffffffffffffffff1673ffffffffffffffffffffffffffffffffffffffff168152602001908152602001600020839080600181540180825580915050906001820390600052602060002001600090919290919091505550600260003373ffffffffffffffffffffffffffffffffffffffff1673ffffffffffffffffffffffffffffffffffffffff168152602001908152602001600020839080600181540180825580915050906001820390600052602060002001600090919290919091505550505050565b60008090505b8251811015610e4757610e15838281518110610e0657fe5b60200260200101513384611886565b610e3a610e34848381518110610e2757fe5b602002602001015161192f565b83610de8565b8080600101915050610dee565b505050565b610e5582611840565b60066000848152602001908152602001600020829080600181540180825580915050906001820390600052602060002001600090919290919091505550806007600084815260200190815260200160002081905550505050565b806003600082815260200190815260200160002060009054906101000a900473ffffffffffffffffffffffffffffffffffffffff1673ffffffffffffffffffffffffffffffffffffffff163373ffffffffffffffffffffffffffffffffffffffff1614610f67576040517f08c379a0000000000000000000000000000000000000000000000000000000008152600401808060200182810382526025815260200180611c386025913960400191505060405180910390fd5b816003610f7482826117fd565b610fc9576040517f08c379a0000000000000000000000000000000000000000000000000000000008152600401808060200182810382526043815260200180611bad6043913960600191505060405180910390fd5b6006600085815260200190815260200160002080548060200260200160405190810160405280929190818152602001828054801561102657602002820191906000526020600020905b815481526020019060010190808311611012575b50505050506004611037828261199a565b61108c576040517f08c379a0000000000000000000000000000000000000000000000000000000008152600401808060200182810382526048815260200180611bf06048913960600191505060405180910390fd5b8561109681611840565b50505050505050565b6060600260008373ffffffffffffffffffffffffffffffffffffffff1673ffffffffffffffffffffffffffffffffffffffff16815260200190815260200160002080548060200260200160405190810160405280929190818152602001828054801561112a57602002820191906000526020600020905b815481526020019060010190808311611116575b50505050509050919050565b6060600160008373ffffffffffffffffffffffffffffffffffffffff1673ffffffffffffffffffffffffffffffffffffffff1681526020019081526020016000208054806020026020016040519081016040528092919081815260200182805480156111c157602002820191906000526020600020905b8154815260200190600101908083116111ad575b50505050509050919050565b806003600082815260200190815260200160002060009054906101000a900473ffffffffffffffffffffffffffffffffffffffff1673ffffffffffffffffffffffffffffffffffffffff163373ffffffffffffffffffffffffffffffffffffffff1614611285576040517f08c379a0000000000000000000000000000000000000000000000000000000008152600401808060200182810382526025815260200180611c386025913960400191505060405180910390fd5b81600361129282826117fd565b6112e7576040517f08c379a0000000000000000000000000000000000000000000000000000000008152600401808060200182810382526043815260200180611bad6043913960600191505060405180910390fd5b8360026112f48282611a1e565b505050505050565b60608060608060606006600087815260200190815260200160002080548060200260200160405190810160405280929190818152602001828054801561136157602002820191906000526020600020905b81548152602001906001019080831161134d575b5050505050945084516040519080825280602002602001820160405280156113985781602001602082028038833980820191505090505b50935084516040519080825280602002602001820160405280156113cb5781602001602082028038833980820191505090505b50935084516040519080825280602002602001820160405280156113fe5781602001602082028038833980820191505090505b50925084516040519080825280602002602001820160405280156114315781602001602082028038833980820191505090505b50915084516040519080825280602002602001820160405280156114645781602001602082028038833980820191505090505b50905060008090505b855181101561156d5761149286828151811061148557fe5b6020026020010151611586565b88858151811061149e57fe5b602002602001018886815181106114b157fe5b602002602001018887815181106114c457fe5b602002602001018888815181106114d757fe5b602002602001018460048111156114ea57fe5b60048111156114f557fe5b815250848152508473ffffffffffffffffffffffffffffffffffffffff1673ffffffffffffffffffffffffffffffffffffffff168152508473ffffffffffffffffffffffffffffffffffffffff1673ffffffffffffffffffffffffffffffffffffffff1681525050505050808060010191505061146d565b5084848484849450945094509450945091939590929450565b60008060008061159585611a56565b80945081955050506115a685611aca565b91506115b185611ae7565b90508383838393509350935093509193509193565b6000806000606060008086815260200190815260200160002060000160019054906101000a900460ff1660008087815260200190815260200160002060000160029054906101000a900473ffffffffffffffffffffffffffffffffffffffff1660008088815260200190815260200160002060010160009054906101000a900473ffffffffffffffffffffffffffffffffffffffff16600080898152602001908152602001600020600201808054806020026020016040519081016040528092919081815260200182805480156116bc57602002820191906000526020600020905b8154815260200190600101908083116116a8575b5050505050905093509350935093509193509193565b806004600082815260200190815260200160002060009054906101000a900473ffffffffffffffffffffffffffffffffffffffff1673ffffffffffffffffffffffffffffffffffffffff163373ffffffffffffffffffffffffffffffffffffffff161461178a576040517f08c379a0000000000000000000000000000000000000000000000000000000008152600401808060200182810382526029815260200180611b846029913960400191505060405180910390fd5b81600261179782826117fd565b6117ec576040517f08c379a0000000000000000000000000000000000000000000000000000000008152600401808060200182810382526043815260200180611bad6043913960600191505060405180910390fd5b836117f681611840565b5050505050565b600081600481111561180b57fe5b6005600085815260200190815260200160002060009054906101000a900460ff16600481111561183757fe5b14905092915050565b6118838160016005600085815260200190815260200160002060009054906101000a900460ff16600481111561187257fe5b01600481111561187e57fe5b611a1e565b50565b816003600085815260200190815260200160002060006101000a81548173ffffffffffffffffffffffffffffffffffffffff021916908373ffffffffffffffffffffffffffffffffffffffff160217905550806004600085815260200190815260200160002060006101000a81548173ffffffffffffffffffffffffffffffffffffffff021916908373ffffffffffffffffffffffffffffffffffffffff160217905550505050565b60606006600083815260200190815260200160002080548060200260200160405190810160405280929190818152602001828054801561198e57602002820191906000526020600020905b81548152602001906001019080831161197a575b50505050509050919050565b600080600090505b8351811015611a12578260048111156119b757fe5b600560008684815181106119c757fe5b6020026020010151815260200190815260200160002060009054906101000a900460ff1660048111156119f657fe5b14611a05576000915050611a18565b80806001019150506119a2565b50600190505b92915050565b806005600084815260200190815260200160002060006101000a81548160ff02191690836004811115611a4d57fe5b02179055505050565b6000806003600084815260200190815260200160002060009054906101000a900473ffffffffffffffffffffffffffffffffffffffff166004600085815260200190815260200160002060009054906101000a900473ffffffffffffffffffffffffffffffffffffffff1691509150915091565b600060076000838152602001908152602001600020549050919050565b60006005600083815260200190815260200160002060009054906101000a900460ff169050919050565b828054828255906000526020600020908101928215611b4d579160200282015b82811115611b4c578251825591602001919060010190611b31565b5b509050611b5a9190611b5e565b5090565b611b8091905b80821115611b7c576000816000905550600101611b64565b5090565b9056fe4e6f7420616c6c6f7765642e204f6e6c7920726573706f6e7369626c6520636f6e74726163746f722e46756e6374696f6e2063616e6e6f742062652063616c6c656420617420746869732074696d652e204974656d206973206e6f7420696e2076616c69642073746167652e46756e6374696f6e2063616e6e6f742062652063616c6c656420617420746869732074696d652e204368696c6472656e20617265206e6f7420696e2076616c69642073746167652e4e6f7420616c6c6f7765642e204f6e6c7920726573706f6e7369626c6520636c69656e742ea265627a7a72315820494d41e9930e1a990894a893d87089e99b5d586f3f17aa53b14707f7b032d9d164736f6c63430005100032",
  "source": "// SPDX-License-Identifier: MIT\npragma solidity >=0.4.21 <0.7.1;\n\nimport './ServiceAgreement.sol';\nimport './ServiceStorage.sol';\n\ncontract AgreementController is ServiceAgreement, ServiceStorage {\n    function createInitialAgreement(\n        bytes32 _agreement,\n        address _contractor,\n        bytes32[] calldata _roots,\n        bytes32[] calldata _services,\n        bytes32[] calldata _sections,\n        bytes32[] calldata _billings\n    ) external returns (bool success) {\n        for (uint256 i = 0; i < _services.length; i++) {\n            _addService(_sections[i], _services[i], _billings[i]);\n        }\n        createAgreement(_agreement, _contractor, _roots);\n        return true;\n    }\n\n    function createAgreement(\n        bytes32 _agreement,\n        address _contractor,\n        bytes32[] memory _services\n    ) public returns (bool success) {\n        _createAgreement(_agreement, _contractor, _services);\n        _deepUpdateRoles(_services, _contractor);\n        return true;\n    }\n\n    function _deepUpdateRoles(bytes32[] memory _services, address _contractor)\n        internal\n    {\n        for (uint256 i = 0; i < _services.length; i++) {\n            _updateServiceRoles(_services[i], msg.sender, _contractor);\n            _deepUpdateRoles(_getServicesOf(_services[i]), _contractor);\n        }\n    }\n\n    function getAgreementsByClient(address _client)\n        external\n        view\n        returns (bytes32[] memory _agreements)\n    {\n        return _getAgreementsByClient(_client);\n    }\n\n    function getAgreementsByContractor(address _contractor)\n        external\n        view\n        returns (bytes32[] memory _agreements)\n    {\n        return _getAgreementsByContractor(_contractor);\n    }\n\n    function getAgreement(bytes32 _agreement)\n        external\n        view\n        returns (\n            bool payed,\n            address _client,\n            address _contractor,\n            bytes32[] memory _services\n        )\n    {\n        return _getAgreement(_agreement);\n    }\n\n    function getService(bytes32 _service)\n        external\n        view\n        returns (\n            address _client,\n            address _contractor,\n            bytes32 _billing,\n            Stages _stage\n        )\n    {\n        return _getService(_service);\n    }\n\n    function getServices(bytes32 _section)\n        external\n        view\n        returns (\n            bytes32[] memory _services,\n            address[] memory _clients,\n            address[] memory _contractors,\n            bytes32[] memory _billings,\n            Stages[] memory _stages\n        )\n    {\n        return _getServices(_section);\n    }\n\n    function start(bytes32 _service) external returns (bool success) {\n        _start(_service);\n        return true;\n    }\n\n    function finish(bytes32 _service) external returns (bool success) {\n        _finish(_service);\n        return true;\n    }\n\n    function approve(bytes32 _service) external returns (bool success) {\n        _approve(_service);\n        return true;\n    }\n\n    function reject(bytes32 _service) external returns (bool success) {\n        _reject(_service);\n        return true;\n    }\n}\n",
  "sourcePath": "C:/Users/fabia/WebstormProjects/bim-contracts/contracts/AgreementController.sol",
  "compiler": {
    "name": "solc",
    "version": "0.5.16+commit.9c3226ce.Emscripten.clang"
  },
  "schemaVersion": "3.2.4",
  "updatedAt": "2020-10-28T13:16:42.493Z",
  "networkType": "ethereum",
  "devdoc": {
    "methods": {}
  },
  "userdoc": {
    "methods": {}
  }
}