{
  "contractName": "AgreementController",
  "abi": [
    {
      "constant": false,
      "inputs": [
        {
          "internalType": "bytes32",
          "name": "_agreement",
          "type": "bytes32"
        },
        {
          "internalType": "address",
          "name": "_contractor",
          "type": "address"
        },
        {
          "internalType": "bytes32[]",
          "name": "_services",
          "type": "bytes32[]"
        },
        {
          "internalType": "bytes32[]",
          "name": "_sections",
          "type": "bytes32[]"
        },
        {
          "internalType": "bytes32[]",
          "name": "_billings",
          "type": "bytes32[]"
        }
      ],
      "name": "createInitialAgreement",
      "outputs": [
        {
          "internalType": "bool",
          "name": "success",
          "type": "bool"
        }
      ],
      "payable": false,
      "stateMutability": "nonpayable",
      "type": "function"
    },
    {
      "constant": false,
      "inputs": [
        {
          "internalType": "bytes32",
          "name": "_agreement",
          "type": "bytes32"
        },
        {
          "internalType": "address",
          "name": "_contractor",
          "type": "address"
        },
        {
          "internalType": "bytes32[]",
          "name": "_services",
          "type": "bytes32[]"
        }
      ],
      "name": "createAgreement",
      "outputs": [
        {
          "internalType": "bool",
          "name": "success",
          "type": "bool"
        }
      ],
      "payable": false,
      "stateMutability": "nonpayable",
      "type": "function"
    },
    {
      "constant": true,
      "inputs": [
        {
          "internalType": "address",
          "name": "_client",
          "type": "address"
        }
      ],
      "name": "getAgreementsByClient",
      "outputs": [
        {
          "internalType": "bytes32[]",
          "name": "_agreements",
          "type": "bytes32[]"
        }
      ],
      "payable": false,
      "stateMutability": "view",
      "type": "function"
    },
    {
      "constant": true,
      "inputs": [
        {
          "internalType": "address",
          "name": "_contractor",
          "type": "address"
        }
      ],
      "name": "getAgreementsByContractor",
      "outputs": [
        {
          "internalType": "bytes32[]",
          "name": "_agreements",
          "type": "bytes32[]"
        }
      ],
      "payable": false,
      "stateMutability": "view",
      "type": "function"
    },
    {
      "constant": true,
      "inputs": [
        {
          "internalType": "bytes32",
          "name": "_section",
          "type": "bytes32"
        }
      ],
      "name": "getServices",
      "outputs": [
        {
          "internalType": "address",
          "name": "client",
          "type": "address"
        },
        {
          "internalType": "address",
          "name": "contractor",
          "type": "address"
        },
        {
          "internalType": "bytes32[]",
          "name": "services",
          "type": "bytes32[]"
        },
        {
          "internalType": "bytes32[]",
          "name": "billings",
          "type": "bytes32[]"
        },
        {
          "internalType": "enum StateMachine.Stages[]",
          "name": "stages",
          "type": "uint8[]"
        }
      ],
      "payable": false,
      "stateMutability": "view",
      "type": "function"
    },
    {
      "constant": false,
      "inputs": [
        {
          "internalType": "bytes32",
          "name": "_agreement",
          "type": "bytes32"
        },
        {
          "internalType": "bytes32",
          "name": "_service",
          "type": "bytes32"
        }
      ],
      "name": "start",
      "outputs": [
        {
          "internalType": "bool",
          "name": "success",
          "type": "bool"
        }
      ],
      "payable": false,
      "stateMutability": "nonpayable",
      "type": "function"
    },
    {
      "constant": false,
      "inputs": [
        {
          "internalType": "bytes32",
          "name": "_agreement",
          "type": "bytes32"
        },
        {
          "internalType": "bytes32",
          "name": "_service",
          "type": "bytes32"
        }
      ],
      "name": "finish",
      "outputs": [
        {
          "internalType": "bool",
          "name": "success",
          "type": "bool"
        }
      ],
      "payable": false,
      "stateMutability": "nonpayable",
      "type": "function"
    },
    {
      "constant": false,
      "inputs": [
        {
          "internalType": "bytes32",
          "name": "_agreement",
          "type": "bytes32"
        },
        {
          "internalType": "bytes32",
          "name": "_service",
          "type": "bytes32"
        }
      ],
      "name": "approve",
      "outputs": [
        {
          "internalType": "bool",
          "name": "success",
          "type": "bool"
        }
      ],
      "payable": false,
      "stateMutability": "nonpayable",
      "type": "function"
    },
    {
      "constant": false,
      "inputs": [
        {
          "internalType": "bytes32",
          "name": "_agreement",
          "type": "bytes32"
        },
        {
          "internalType": "bytes32",
          "name": "_service",
          "type": "bytes32"
        }
      ],
      "name": "reject",
      "outputs": [
        {
          "internalType": "bool",
          "name": "success",
          "type": "bool"
        }
      ],
      "payable": false,
      "stateMutability": "nonpayable",
      "type": "function"
    },
    {
      "constant": false,
      "inputs": [
        {
          "internalType": "bytes32",
          "name": "_agreement",
          "type": "bytes32"
        },
        {
          "internalType": "bytes32",
          "name": "_service",
          "type": "bytes32"
        }
      ],
      "name": "pay",
      "outputs": [
        {
          "internalType": "bool",
          "name": "success",
          "type": "bool"
        }
      ],
      "payable": false,
      "stateMutability": "nonpayable",
      "type": "function"
    }
  ],
  "bytecode": "0x608060405234801561001057600080fd5b506116fa806100206000396000f3fe608060405234801561001057600080fd5b506004361061009e5760003560e01c806391f8a6db1161006657806391f8a6db146102dd578063aeb688951461032d578063b77031dd14610492578063c1d76a621461052b578063cd01532b146105c45761009e565b806304f999c7146100a35780631784997c146100f357806366f125db146101ed578063756bae5c1461023d578063869ce0621461028d575b600080fd5b6100d9600480360360408110156100b957600080fd5b81019080803590602001909291908035906020019092919050505061073d565b604051808215151515815260200191505060405180910390f35b6101d36004803603606081101561010957600080fd5b8101908080359060200190929190803573ffffffffffffffffffffffffffffffffffffffff1690602001909291908035906020019064010000000081111561015057600080fd5b82018360208201111561016257600080fd5b8035906020019184602083028401116401000000008311171561018457600080fd5b919080806020026020016040519081016040528093929190818152602001838360200280828437600081840152601f19601f8201169050808301925050505050505091929192905050506107bf565b604051808215151515815260200191505060405180910390f35b6102236004803603604081101561020357600080fd5b8101908080359060200190929190803590602001909291905050506107e1565b604051808215151515815260200191505060405180910390f35b6102736004803603604081101561025357600080fd5b810190808035906020019092919080359060200190929190505050610863565b604051808215151515815260200191505060405180910390f35b6102c3600480360360408110156102a357600080fd5b810190808035906020019092919080359060200190929190505050610879565b604051808215151515815260200191505060405180910390f35b610313600480360360408110156102f357600080fd5b81019080803590602001909291908035906020019092919050505061088f565b604051808215151515815260200191505060405180910390f35b610478600480360360a081101561034357600080fd5b8101908080359060200190929190803573ffffffffffffffffffffffffffffffffffffffff1690602001909291908035906020019064010000000081111561038a57600080fd5b82018360208201111561039c57600080fd5b803590602001918460208302840111640100000000831117156103be57600080fd5b9091929391929390803590602001906401000000008111156103df57600080fd5b8201836020820111156103f157600080fd5b8035906020019184602083028401116401000000008311171561041357600080fd5b90919293919293908035906020019064010000000081111561043457600080fd5b82018360208201111561044657600080fd5b8035906020019184602083028401116401000000008311171561046857600080fd5b9091929391929390505050610911565b604051808215151515815260200191505060405180910390f35b6104d4600480360360208110156104a857600080fd5b81019080803573ffffffffffffffffffffffffffffffffffffffff169060200190929190505050610a56565b6040518080602001828103825283818151815260200191508051906020019060200280838360005b838110156105175780820151818401526020810190506104fc565b505050509050019250505060405180910390f35b61056d6004803603602081101561054157600080fd5b81019080803573ffffffffffffffffffffffffffffffffffffffff169060200190929190505050610a68565b6040518080602001828103825283818151815260200191508051906020019060200280838360005b838110156105b0578082015181840152602081019050610595565b505050509050019250505060405180910390f35b6105f0600480360360208110156105da57600080fd5b8101908080359060200190929190505050610a7a565b604051808673ffffffffffffffffffffffffffffffffffffffff1673ffffffffffffffffffffffffffffffffffffffff1681526020018573ffffffffffffffffffffffffffffffffffffffff1673ffffffffffffffffffffffffffffffffffffffff168152602001806020018060200180602001848103845287818151815260200191508051906020019060200280838360005b8381101561069f578082015181840152602081019050610684565b50505050905001848103835286818151815260200191508051906020019060200280838360005b838110156106e15780820151818401526020810190506106c6565b50505050905001848103825285818151815260200191508051906020019060200280838360005b83811015610723578082015181840152602081019050610708565b505050509050019850505050505050505060405180910390f35b600061074882610ba6565b60026107548282610c11565b6107a9576040517f08c379a00000000000000000000000000000000000000000000000000000000081526004018080602001828103825260488152602001806116596048913960600191505060405180910390fd5b6107b38585610c95565b60019250505092915050565b60006107cc848484610dc4565b6107d68284610ec3565b600190509392505050565b60006107ec82610ba6565b60046107f88282610c11565b61084d576040517f08c379a00000000000000000000000000000000000000000000000000000000081526004018080602001828103825260488152602001806116596048913960600191505060405180910390fd5b6108578585610f48565b60019250505092915050565b600061086f8383610f48565b6001905092915050565b60006108858383611074565b6001905092915050565b600061089a82610ba6565b60056108a68282610c11565b6108fb576040517f08c379a00000000000000000000000000000000000000000000000000000000081526004018080602001828103825260488152602001806116596048913960600191505060405180910390fd5b6109058585610f48565b60019250505092915050565b6000806000905060008090505b888890508110156109bc5761094489898381811061093857fe5b905060200201356111a0565b6000801b87878381811061095457fe5b90506020020135146109a6576109a187878381811061096f57fe5b905060200201358a8a8481811061098257fe5b9050602002013587878581811061099557fe5b905060200201356111ae565b6109af565b81806001019250505b808060010191505061091e565b506060816040519080825280602002602001820160405280156109ee5781602001602082028038833980820191505090505b50905060008090505b82811015610a3757898982818110610a0b57fe5b90506020020135828281518110610a1e57fe5b60200260200101818152505080806001019150506109f7565b50610a438b8b836107bf565b5060019250505098975050505050505050565b6060610a6182611208565b9050919050565b6060610a738261129f565b9050919050565b6000806060806060610a8b86611336565b8095508196505050610a9c86610ba6565b92508251604051908082528060200260200182016040528015610ace5781602001602082028038833980820191505090505b5091508251604051908082528060200260200182016040528015610b015781602001602082028038833980820191505090505b50905060008090505b8151811015610b8d57610b1c876113a9565b838281518110610b2857fe5b602002602001018181525050610b50848281518110610b4357fe5b60200260200101516113c6565b828281518110610b5c57fe5b60200260200101906005811115610b6f57fe5b90816005811115610b7c57fe5b815250508080600101915050610b0a565b5084848484849450945094509450945091939590929450565b606060066000838152602001908152602001600020805480602002602001604051908101604052809291908181526020018280548015610c0557602002820191906000526020600020905b815481526020019060010190808311610bf1575b50505050509050919050565b600080600090505b8351811015610c8957826005811115610c2e57fe5b60026000868481518110610c3e57fe5b6020026020010151815260200190815260200160002060009054906101000a900460ff166005811115610c6d57fe5b14610c7c576000915050610c8f565b8080600101915050610c19565b50600190505b92915050565b8160008082815260200190815260200160002060009054906101000a900473ffffffffffffffffffffffffffffffffffffffff1673ffffffffffffffffffffffffffffffffffffffff163373ffffffffffffffffffffffffffffffffffffffff1614610d4c576040517f08c379a00000000000000000000000000000000000000000000000000000000081526004018080602001828103825260258152602001806116a16025913960400191505060405180910390fd5b816003610d5982826113f0565b610dae576040517f08c379a00000000000000000000000000000000000000000000000000000000081526004018080602001828103825260438152602001806116166043913960600191505060405180910390fd5b836002610dbb8282611433565b50505050505050565b80600360008581526020019081526020016000209080519060200190610deb92919061157a565b50600460008373ffffffffffffffffffffffffffffffffffffffff1673ffffffffffffffffffffffffffffffffffffffff168152602001908152602001600020839080600181540180825580915050906001820390600052602060002001600090919290919091505550600560003373ffffffffffffffffffffffffffffffffffffffff1673ffffffffffffffffffffffffffffffffffffffff168152602001908152602001600020839080600181540180825580915050906001820390600052602060002001600090919290919091505550505050565b60008090505b8251811015610f4357610eee838281518110610ee157fe5b602002602001015161146b565b610f1157610f10838281518110610f0157fe5b6020026020010151338461148d565b5b610f36610f30848381518110610f2357fe5b6020026020010151610ba6565b83610ec3565b8080600101915050610ec9565b505050565b816001600082815260200190815260200160002060009054906101000a900473ffffffffffffffffffffffffffffffffffffffff1673ffffffffffffffffffffffffffffffffffffffff163373ffffffffffffffffffffffffffffffffffffffff1614611000576040517f08c379a00000000000000000000000000000000000000000000000000000000081526004018080602001828103825260298152602001806115ed6029913960400191505060405180910390fd5b81600261100d82826113f0565b611062576040517f08c379a00000000000000000000000000000000000000000000000000000000081526004018080602001828103825260438152602001806116166043913960600191505060405180910390fd5b8361106c81611534565b505050505050565b816001600082815260200190815260200160002060009054906101000a900473ffffffffffffffffffffffffffffffffffffffff1673ffffffffffffffffffffffffffffffffffffffff163373ffffffffffffffffffffffffffffffffffffffff161461112c576040517f08c379a00000000000000000000000000000000000000000000000000000000081526004018080602001828103825260298152602001806115ed6029913960400191505060405180910390fd5b81600161113982826113f0565b61118e576040517f08c379a00000000000000000000000000000000000000000000000000000000081526004018080602001828103825260438152602001806116166043913960600191505060405180910390fd5b8361119881611534565b505050505050565b6111ab816001611433565b50565b60066000848152602001908152602001600020829080600181540180825580915050906001820390600052602060002001600090919290919091505550806007600084815260200190815260200160002081905550505050565b6060600560008373ffffffffffffffffffffffffffffffffffffffff1673ffffffffffffffffffffffffffffffffffffffff16815260200190815260200160002080548060200260200160405190810160405280929190818152602001828054801561129357602002820191906000526020600020905b81548152602001906001019080831161127f575b50505050509050919050565b6060600460008373ffffffffffffffffffffffffffffffffffffffff1673ffffffffffffffffffffffffffffffffffffffff16815260200190815260200160002080548060200260200160405190810160405280929190818152602001828054801561132a57602002820191906000526020600020905b815481526020019060010190808311611316575b50505050509050919050565b60008060008084815260200190815260200160002060009054906101000a900473ffffffffffffffffffffffffffffffffffffffff166001600085815260200190815260200160002060009054906101000a900473ffffffffffffffffffffffffffffffffffffffff1691509150915091565b600060076000838152602001908152602001600020549050919050565b60006002600083815260200190815260200160002060009054906101000a900460ff169050919050565b60008160058111156113fe57fe5b6002600085815260200190815260200160002060009054906101000a900460ff16600581111561142a57fe5b14905092915050565b806002600084815260200190815260200160002060006101000a81548160ff0219169083600581111561146257fe5b02179055505050565b6000806006600084815260200190815260200160002080549050119050919050565b8160008085815260200190815260200160002060006101000a81548173ffffffffffffffffffffffffffffffffffffffff021916908373ffffffffffffffffffffffffffffffffffffffff1602179055508060008085815260200190815260200160002060006101000a81548173ffffffffffffffffffffffffffffffffffffffff021916908373ffffffffffffffffffffffffffffffffffffffff160217905550505050565b6115778160016002600085815260200190815260200160002060009054906101000a900460ff16600581111561156657fe5b01600581111561157257fe5b611433565b50565b8280548282559060005260206000209081019282156115b6579160200282015b828111156115b557825182559160200191906001019061159a565b5b5090506115c391906115c7565b5090565b6115e991905b808211156115e55760008160009055506001016115cd565b5090565b9056fe4e6f7420616c6c6f7765642e204f6e6c7920726573706f6e7369626c6520636f6e74726163746f722e46756e6374696f6e2063616e6e6f742062652063616c6c656420617420746869732074696d652e204974656d206973206e6f7420696e2076616c69642073746167652e46756e6374696f6e2063616e6e6f742062652063616c6c656420617420746869732074696d652e204368696c6472656e20617265206e6f7420696e2076616c69642073746167652e4e6f7420616c6c6f7765642e204f6e6c7920726573706f6e7369626c6520636c69656e742ea265627a7a723158200b95abbcfafea0f3ff670f33e388a1148e72f44e2d35c01f160faeee5349618164736f6c63430005100032",
  "source": "// SPDX-License-Identifier: MIT\npragma solidity >=0.4.21 <0.7.1;\n\nimport './ServiceAgreement.sol';\nimport './ServiceStorage.sol';\n\ncontract AgreementController is ServiceAgreement, ServiceStorage {\n    function createInitialAgreement(\n        bytes32 _agreement,\n        address _contractor,\n        bytes32[] calldata _services,\n        bytes32[] calldata _sections,\n        bytes32[] calldata _billings\n    ) external returns (bool success) {\n        uint256 len = 0;\n        for (uint256 i = 0; i < _services.length; i++) {\n            _initStage(_services[i]);\n            if (_sections[i] != 0)\n                _addService(_sections[i], _services[i], _billings[i]);\n            else len++;\n        }\n\n        bytes32[] memory rootServices = new bytes32[](len);\n        for (uint256 j = 0; j < len; j++) {\n            rootServices[j] = _services[j];\n        }\n\n        createAgreement(_agreement, _contractor, rootServices);\n        return true;\n    }\n\n    function createAgreement(\n        bytes32 _agreement,\n        address _contractor,\n        bytes32[] memory _services\n    ) public returns (bool success) {\n        _createAgreement(_agreement, _contractor, _services);\n        _deepUpdateRoles(_services, _contractor);\n        return true;\n    }\n\n    function _deepUpdateRoles(bytes32[] memory _services, address _contractor)\n        internal\n    {\n        for (uint256 i = 0; i < _services.length; i++) {\n            if (!_isServiceItem(_services[i]))\n                _updateServiceRoles(_services[i], msg.sender, _contractor);\n            _deepUpdateRoles(_getServices(_services[i]), _contractor);\n        }\n    }\n\n    function getAgreementsByClient(address _client)\n        external\n        view\n        returns (bytes32[] memory _agreements)\n    {\n        return _getAgreementsByClient(_client);\n    }\n\n    function getAgreementsByContractor(address _contractor)\n        external\n        view\n        returns (bytes32[] memory _agreements)\n    {\n        return _getAgreementsByContractor(_contractor);\n    }\n\n    function getServices(bytes32 _section)\n        external\n        view\n        returns (\n            address client,\n            address contractor,\n            bytes32[] memory services,\n            bytes32[] memory billings,\n            Stages[] memory stages\n        )\n    {\n        (client, contractor) = _getServiceRoles(_section);\n        services = _getServices(_section);\n        billings = new bytes32[](services.length);\n        stages = new Stages[](services.length);\n        for (uint256 i = 0; i < stages.length; i++) {\n            billings[i] = _getBilling(_section);\n            stages[i] = _stageOf(services[i]);\n        }\n        return (client, contractor, services, billings, stages);\n    }\n\n    function start(bytes32 _agreement, bytes32 _service)\n        external\n        returns (bool success)\n    {\n        _start(_agreement, _service);\n        return true;\n    }\n\n    function finish(bytes32 _agreement, bytes32 _service)\n        external\n        returns (bool success)\n    {\n        _finish(_agreement, _service);\n        return true;\n    }\n\n    function approve(bytes32 _agreement, bytes32 _service)\n        external\n        atStageAll(_getServices(_service), Stages.APPROVED)\n        returns (bool success)\n    {\n        _finish(_agreement, _service);\n        return true;\n    }\n\n    function reject(bytes32 _agreement, bytes32 _service)\n        external\n        atStageAll(_getServices(_service), Stages.STARTED)\n        returns (bool success)\n    {\n        _reject(_agreement, _service);\n        return true;\n    }\n\n    function pay(bytes32 _agreement, bytes32 _service)\n        external\n        atStageAll(_getServices(_service), Stages.PAYED)\n        returns (bool success)\n    {\n        _finish(_agreement, _service);\n        return true;\n    }\n}\n",
  "sourcePath": "C:/Users/fabia/WebstormProjects/bim-contracts/contracts/AgreementController.sol",
  "compiler": {
    "name": "solc",
    "version": "0.5.16+commit.9c3226ce.Emscripten.clang"
  },
  "schemaVersion": "3.2.4",
  "updatedAt": "2020-10-25T13:35:35.371Z",
  "networkType": "ethereum",
  "devdoc": {
    "methods": {}
  },
  "userdoc": {
    "methods": {}
  }
}