{
  "contractName": "ConstructionProject",
  "abi": [
    {
      "inputs": [],
      "payable": false,
      "stateMutability": "nonpayable",
      "type": "constructor"
    },
    {
      "anonymous": false,
      "inputs": [
        {
          "indexed": true,
          "internalType": "bytes32",
          "name": "workItemId",
          "type": "bytes32"
        },
        {
          "indexed": false,
          "internalType": "enum ConstructionProject.WorkItemProgress",
          "name": "workItemProgress",
          "type": "uint8"
        }
      ],
      "name": "WorkItemProgressChange",
      "type": "event"
    },
    {
      "constant": true,
      "inputs": [],
      "name": "buildingContractor",
      "outputs": [
        {
          "internalType": "address",
          "name": "",
          "type": "address"
        }
      ],
      "payable": false,
      "stateMutability": "view",
      "type": "function"
    },
    {
      "constant": true,
      "inputs": [],
      "name": "container",
      "outputs": [
        {
          "internalType": "bytes32",
          "name": "",
          "type": "bytes32"
        }
      ],
      "payable": false,
      "stateMutability": "view",
      "type": "function"
    },
    {
      "constant": true,
      "inputs": [],
      "name": "generalContractor",
      "outputs": [
        {
          "internalType": "address",
          "name": "",
          "type": "address"
        }
      ],
      "payable": false,
      "stateMutability": "view",
      "type": "function"
    },
    {
      "constant": true,
      "inputs": [],
      "name": "hash",
      "outputs": [
        {
          "internalType": "bytes32",
          "name": "",
          "type": "bytes32"
        }
      ],
      "payable": false,
      "stateMutability": "view",
      "type": "function"
    },
    {
      "constant": true,
      "inputs": [
        {
          "internalType": "address",
          "name": "",
          "type": "address"
        }
      ],
      "name": "subContractors",
      "outputs": [
        {
          "internalType": "bool",
          "name": "",
          "type": "bool"
        }
      ],
      "payable": false,
      "stateMutability": "view",
      "type": "function"
    },
    {
      "constant": false,
      "inputs": [
        {
          "internalType": "bytes32",
          "name": "_hash",
          "type": "bytes32"
        },
        {
          "internalType": "bytes32",
          "name": "_container",
          "type": "bytes32"
        }
      ],
      "name": "init",
      "outputs": [],
      "payable": false,
      "stateMutability": "nonpayable",
      "type": "function"
    },
    {
      "constant": false,
      "inputs": [],
      "name": "registerSubContractor",
      "outputs": [],
      "payable": false,
      "stateMutability": "nonpayable",
      "type": "function"
    },
    {
      "constant": false,
      "inputs": [
        {
          "internalType": "bytes32",
          "name": "_BOQ",
          "type": "bytes32"
        }
      ],
      "name": "addBOQ",
      "outputs": [
        {
          "internalType": "bool",
          "name": "success",
          "type": "bool"
        }
      ],
      "payable": false,
      "stateMutability": "nonpayable",
      "type": "function"
    },
    {
      "constant": false,
      "inputs": [
        {
          "internalType": "bytes32",
          "name": "_billingItem",
          "type": "bytes32"
        },
        {
          "internalType": "bytes32",
          "name": "_workItemId",
          "type": "bytes32"
        }
      ],
      "name": "addBillingItem",
      "outputs": [
        {
          "internalType": "bool",
          "name": "success",
          "type": "bool"
        }
      ],
      "payable": false,
      "stateMutability": "nonpayable",
      "type": "function"
    },
    {
      "constant": false,
      "inputs": [
        {
          "internalType": "bytes32",
          "name": "_id",
          "type": "bytes32"
        },
        {
          "internalType": "bytes32",
          "name": "_parent",
          "type": "bytes32"
        }
      ],
      "name": "addWorkItem",
      "outputs": [
        {
          "internalType": "bool",
          "name": "success",
          "type": "bool"
        }
      ],
      "payable": false,
      "stateMutability": "nonpayable",
      "type": "function"
    },
    {
      "constant": false,
      "inputs": [
        {
          "internalType": "bytes32",
          "name": "_id",
          "type": "bytes32"
        },
        {
          "internalType": "uint256",
          "name": "_progress",
          "type": "uint256"
        }
      ],
      "name": "setWorkItemProgress",
      "outputs": [
        {
          "internalType": "bool",
          "name": "success",
          "type": "bool"
        }
      ],
      "payable": false,
      "stateMutability": "nonpayable",
      "type": "function"
    }
  ],
  "bytecode": "0x608060405234801561001057600080fd5b50610e12806100206000396000f3fe608060405234801561001057600080fd5b50600436106100a95760003560e01c806390d698d31161007157806390d698d3146101fa57806390e534a714610240578063ca5f158d1461025e578063cb8e054f14610268578063dfdd78ca146102b2578063f0cccf9814610302576100a9565b8063099e47b1146100ae57806309bd5a60146100fe57806362fd42a81461011c5780636c03b400146101545780638f13eda91461019e575b600080fd5b6100e4600480360360408110156100c457600080fd5b810190808035906020019092919080359060200190929190505050610352565b604051808215151515815260200191505060405180910390f35b610106610438565b6040518082815260200191505060405180910390f35b6101526004803603604081101561013257600080fd5b81019080803590602001909291908035906020019092919050505061043e565b005b61015c610490565b604051808273ffffffffffffffffffffffffffffffffffffffff1673ffffffffffffffffffffffffffffffffffffffff16815260200191505060405180910390f35b6101e0600480360360208110156101b457600080fd5b81019080803573ffffffffffffffffffffffffffffffffffffffff1690602001909291905050506104b6565b604051808215151515815260200191505060405180910390f35b6102266004803603602081101561021057600080fd5b81019080803590602001909291905050506104d6565b604051808215151515815260200191505060405180910390f35b6102486106c4565b6040518082815260200191505060405180910390f35b6102666106ca565b005b6102706107e6565b604051808273ffffffffffffffffffffffffffffffffffffffff1673ffffffffffffffffffffffffffffffffffffffff16815260200191505060405180910390f35b6102e8600480360360408110156102c857600080fd5b81019080803590602001909291908035906020019092919050505061080b565b604051808215151515815260200191505060405180910390f35b6103386004803603604081101561031857600080fd5b81019080803590602001909291908035906020019092919050505061098c565b604051808215151515815260200191505060405180910390f35b60008060009054906101000a900473ffffffffffffffffffffffffffffffffffffffff1673ffffffffffffffffffffffffffffffffffffffff163373ffffffffffffffffffffffffffffffffffffffff1614610416576040517f08c379a000000000000000000000000000000000000000000000000000000000815260040180806020018281038252600e8152602001807f4e6f207065726d697373696f6e2e00000000000000000000000000000000000081525060200191505060405180910390fd5b8260076000848152602001908152602001600020819055506001905092915050565b60025481565b336000806101000a81548173ffffffffffffffffffffffffffffffffffffffff021916908373ffffffffffffffffffffffffffffffffffffffff16021790555081600281905550806003819055505050565b600160009054906101000a900473ffffffffffffffffffffffffffffffffffffffff1681565b60046020528060005260406000206000915054906101000a900460ff1681565b60008060009054906101000a900473ffffffffffffffffffffffffffffffffffffffff1673ffffffffffffffffffffffffffffffffffffffff163373ffffffffffffffffffffffffffffffffffffffff161461059a576040517f08c379a000000000000000000000000000000000000000000000000000000000815260040180806020018281038252600e8152602001807f4e6f207065726d697373696f6e2e00000000000000000000000000000000000081525060200191505060405180910390fd5b6005600083815260200190815260200160002060000160009054906101000a900460ff1615610631576040517f08c379a00000000000000000000000000000000000000000000000000000000081526004018080602001828103825260168152602001807f424f5120616c7265616479207370656369666965642e0000000000000000000081525060200191505060405180910390fd5b60006040519080825280602002602001820160405280156106615781602001602082028038833980820191505090505b5060056000848152602001908152602001600020600101908051906020019061068b929190610d1e565b5060016005600084815260200190815260200160002060000160006101000a81548160ff02191690831515021790555060019050919050565b60035481565b6000809054906101000a900473ffffffffffffffffffffffffffffffffffffffff1673ffffffffffffffffffffffffffffffffffffffff163373ffffffffffffffffffffffffffffffffffffffff161461078c576040517f08c379a000000000000000000000000000000000000000000000000000000000815260040180806020018281038252600e8152602001807f4e6f207065726d697373696f6e2e00000000000000000000000000000000000081525060200191505060405180910390fd5b6001600460003373ffffffffffffffffffffffffffffffffffffffff1673ffffffffffffffffffffffffffffffffffffffff16815260200190815260200160002060006101000a81548160ff021916908315150217905550565b6000809054906101000a900473ffffffffffffffffffffffffffffffffffffffff1681565b6000816006600085815260200190815260200160002060030160009054906101000a900460ff16600381111561083d57fe5b1061084757600080fd5b81600381111561085357fe5b6006600085815260200190815260200160002060030160006101000a81548160ff0219169083600381111561088457fe5b021790555060008090505b60066000858152602001908152602001600020600201805490508110156109305760006006600086815260200190815260200160002060020182815481106108d357fe5b90600052602060002001549050836006600083815260200190815260200160002060030160009054906101000a900460ff16600381111561091057fe5b101561092257610920818561080b565b505b50808060010191505061088f565b50827f39f4579fe037f1f2dacbbe9f93f835c2fe2d905dad6c62e8cf6cfef14804a7ae83600381111561095f57fe5b6040518082600381111561096f57fe5b60ff16815260200191505060405180910390a26001905092915050565b60008060009054906101000a900473ffffffffffffffffffffffffffffffffffffffff1673ffffffffffffffffffffffffffffffffffffffff163373ffffffffffffffffffffffffffffffffffffffff1614610a50576040517f08c379a000000000000000000000000000000000000000000000000000000000815260040180806020018281038252600e8152602001807f4e6f207065726d697373696f6e2e00000000000000000000000000000000000081525060200191505060405180910390fd5b6000801b6006600084815260200190815260200160002060000154141580610a9857506005600083815260200190815260200160002060000160009054906101000a900460ff165b610b0a576040517f08c379a00000000000000000000000000000000000000000000000000000000081526004018080602001828103825260188152602001807f506172656e74206973206e6f74207370656369666965642e000000000000000081525060200191505060405180910390fd5b6000801b600660008581526020019081526020016000206000015414610b98576040517f08c379a000000000000000000000000000000000000000000000000000000000815260040180806020018281038252601f8152602001807f576f726b204974656d20697320616c7265616479207370656369666965642e0081525060200191505060405180910390fd5b60405180608001604052808481526020018381526020016000604051908082528060200260200182016040528015610bdf5781602001602082028038833980820191505090505b50815260200160006003811115610bf257fe5b8152506006600085815260200190815260200160002060008201518160000155602082015181600101556040820151816002019080519060200190610c38929190610d6b565b5060608201518160030160006101000a81548160ff02191690836003811115610c5d57fe5b02179055509050506005600083815260200190815260200160002060000160009054906101000a900460ff1615610cd35760056000838152602001908152602001600020600101839080600181540180825580915050906001820390600052602060002001600090919290919091505550610d14565b600660008381526020019081526020016000206002018390806001815401808255809150509060018203906000526020600020016000909192909190915055505b6001905092915050565b828054828255906000526020600020908101928215610d5a579160200282015b82811115610d59578251825591602001919060010190610d3e565b5b509050610d679190610db8565b5090565b828054828255906000526020600020908101928215610da7579160200282015b82811115610da6578251825591602001919060010190610d8b565b5b509050610db49190610db8565b5090565b610dda91905b80821115610dd6576000816000905550600101610dbe565b5090565b9056fea265627a7a72315820f12153bfe9735f77fef0fcca82de8c4df502e1f6cbb04b6d5d52d9404c70b67264736f6c63430005100032",
  "source": "pragma solidity >=0.4.21;\n\n/**\n * @title ConstructionProject\n * @dev Store & retreive value in a variable\n */\ncontract ConstructionProject {\n    event WorkItemProgressChange(\n        bytes32 indexed workItemId,\n        WorkItemProgress workItemProgress\n    );\n\n    // Leistungsverzeichnis\n    struct BOQ {\n        bool exists;\n        bytes32[] items;\n    }\n\n    // Leistungsverzeichnis-Eintrag\n    struct WorkItem {\n        bytes32 id;\n        bytes32 parent;\n        bytes32[] items;\n        WorkItemProgress progress;\n    }\n\n    enum WorkItemProgress {INITIALIZED, STARTED, FINISHED, APPROVED}\n\n    address public generalContractor; // Rolle Generalunternehmer\n    address public buildingContractor; // Rolle Bauherr\n\n    bytes32 public hash;\n    bytes32 public container;\n\n    mapping(address => bool) public subContractors; // Rolle Subunternehmer\n\n    mapping(bytes32 => BOQ) BOQs; // Leistungsverzeichnisse mit Referenz auf Work Items\n\n    mapping(bytes32 => WorkItem) workItems; // Leistungsverzeichnis-Einträge\n    mapping(bytes32 => bytes32) billingItems; // Work Items Referenz auf Abrechnungseinheiten\n\n    modifier onlyGeneralContractor {\n        require(msg.sender == generalContractor, 'No permission.');\n        _;\n    }\n\n    /**\n     * @dev Instantiates a Contract Manager factory with initial values\n     */\n    constructor() public {}\n\n    /**\n     * @dev Instantiates a Contract Manager factory with initial values\n     */\n    function init(bytes32 _hash, bytes32 _container) public {\n        generalContractor = msg.sender;\n        hash = _hash;\n        container = _container;\n    }\n\n    /**\n     * @dev Registers sub contractor\n     */\n    function registerSubContractor() public onlyGeneralContractor {\n        subContractors[msg.sender] = true;\n    }\n\n    /**\n     * @dev Adds a new Bill of Quantity\n     * @param _BOQ The hash of the BOQ\n     */\n    function addBOQ(bytes32 _BOQ)\n        public\n        onlyGeneralContractor\n        returns (bool success)\n    {\n        require(!BOQs[_BOQ].exists, 'BOQ already specified.');\n        BOQs[_BOQ].items = new bytes32[](0);\n        BOQs[_BOQ].exists = true;\n        return true;\n    }\n\n    /**\n     * @dev Pushes a new billing item to the stack\n     * @param _billingItem The hash of the billing item\n     * @param _workItemId The hash of the work item which emits payment when ready\n     */\n    function addBillingItem(bytes32 _billingItem, bytes32 _workItemId)\n        public\n        onlyGeneralContractor\n        returns (bool success)\n    {\n        billingItems[_workItemId] = _billingItem;\n        // emit BillingItemCreated(billingUnitHash);\n        return true;\n    }\n\n    /**\n     * @dev Pushes a new billing unit to the stack\n     * @param _id The hash of the work item to be added\n     * @param _parent The parent work item\n     */\n    function addWorkItem(bytes32 _id, bytes32 _parent)\n        public\n        onlyGeneralContractor\n        returns (bool success)\n    {\n        require(\n            workItems[_parent].id != 0x0 || BOQs[_parent].exists,\n            'Parent is not specified.'\n        );\n        require(workItems[_id].id == 0x0, 'Work Item is already specified.'); // require(workItems[_id].progress < WorkItemProgress.INITIALIZED);\n\n        workItems[_id] = WorkItem({\n            id: _id,\n            parent: _parent,\n            items: new bytes32[](0),\n            progress: WorkItemProgress.INITIALIZED\n        });\n        if (BOQs[_parent].exists) {\n            BOQs[_parent].items.push(_id);\n        } else {\n            workItems[_parent].items.push(_id);\n        }\n        return true;\n    }\n\n    /**\n     * @dev Sets the progress of a work item and all of its subitems to a predefined state\n     * @param _id The hash of the work item to be updated\n     * @param _progress The state as uint to set the progress of the work item (0=INITIALIZED, 1=STARTED, 2=STOPPED, 3=FINISHED)\n     */\n    function setWorkItemProgress(bytes32 _id, uint256 _progress)\n        public\n        returns (bool success)\n    {\n        require(uint256(workItems[_id].progress) < _progress);\n        workItems[_id].progress = WorkItemProgress(_progress);\n        for (uint256 i = 0; i < workItems[_id].items.length; i++) {\n            bytes32 itemId = workItems[_id].items[i];\n            if (uint256(workItems[itemId].progress) < _progress) {\n                setWorkItemProgress(itemId, _progress);\n            }\n        }\n        emit WorkItemProgressChange(_id, WorkItemProgress(_progress));\n        return true;\n    }\n}\n",
  "sourcePath": "C:\\Users\\fabia\\WebstormProjects\\bim-contracts\\contracts\\ConstructionProject.sol",
  "compiler": {
    "name": "solc",
    "version": "0.5.16+commit.9c3226ce.Emscripten.clang"
  },
  "schemaVersion": "3.2.3",
  "updatedAt": "2020-09-01T16:55:46.746Z",
  "networkType": "ethereum",
  "devdoc": {
    "details": "Store & retreive value in a variable",
    "methods": {
      "addBOQ(bytes32)": {
        "details": "Adds a new Bill of Quantity",
        "params": {
          "_BOQ": "The hash of the BOQ"
        }
      },
      "addBillingItem(bytes32,bytes32)": {
        "details": "Pushes a new billing item to the stack",
        "params": {
          "_billingItem": "The hash of the billing item",
          "_workItemId": "The hash of the work item which emits payment when ready"
        }
      },
      "addWorkItem(bytes32,bytes32)": {
        "details": "Pushes a new billing unit to the stack",
        "params": {
          "_id": "The hash of the work item to be added",
          "_parent": "The parent work item"
        }
      },
      "constructor": {
        "details": "Instantiates a Contract Manager factory with initial values"
      },
      "init(bytes32,bytes32)": {
        "details": "Instantiates a Contract Manager factory with initial values"
      },
      "registerSubContractor()": {
        "details": "Registers sub contractor"
      },
      "setWorkItemProgress(bytes32,uint256)": {
        "details": "Sets the progress of a work item and all of its subitems to a predefined state",
        "params": {
          "_id": "The hash of the work item to be updated",
          "_progress": "The state as uint to set the progress of the work item (0=INITIALIZED, 1=STARTED, 2=STOPPED, 3=FINISHED)"
        }
      }
    },
    "title": "ConstructionProject"
  },
  "userdoc": {
    "methods": {}
  }
}