{
  "contractName": "ConstructionProjectFactory",
  "abi": [
    {
      "inputs": [
        {
          "internalType": "address",
          "name": "_implementation",
          "type": "address"
        }
      ],
      "payable": false,
      "stateMutability": "nonpayable",
      "type": "constructor"
    },
    {
      "anonymous": false,
      "inputs": [
        {
          "indexed": false,
          "internalType": "address",
          "name": "project",
          "type": "address"
        }
      ],
      "name": "ConstructionProjectCreated",
      "type": "event"
    },
    {
      "constant": true,
      "inputs": [],
      "name": "admin",
      "outputs": [
        {
          "internalType": "address",
          "name": "",
          "type": "address"
        }
      ],
      "payable": false,
      "stateMutability": "view",
      "type": "function"
    },
    {
      "constant": true,
      "inputs": [],
      "name": "generalContractor",
      "outputs": [
        {
          "internalType": "address",
          "name": "",
          "type": "address"
        }
      ],
      "payable": false,
      "stateMutability": "view",
      "type": "function"
    },
    {
      "constant": true,
      "inputs": [],
      "name": "implementation",
      "outputs": [
        {
          "internalType": "address",
          "name": "",
          "type": "address"
        }
      ],
      "payable": false,
      "stateMutability": "view",
      "type": "function"
    },
    {
      "constant": true,
      "inputs": [
        {
          "internalType": "address",
          "name": "",
          "type": "address"
        }
      ],
      "name": "ownerProjectCount",
      "outputs": [
        {
          "internalType": "uint256",
          "name": "",
          "type": "uint256"
        }
      ],
      "payable": false,
      "stateMutability": "view",
      "type": "function"
    },
    {
      "constant": true,
      "inputs": [
        {
          "internalType": "uint256",
          "name": "",
          "type": "uint256"
        }
      ],
      "name": "projects",
      "outputs": [
        {
          "internalType": "address",
          "name": "contractAddress",
          "type": "address"
        },
        {
          "internalType": "address",
          "name": "owner",
          "type": "address"
        }
      ],
      "payable": false,
      "stateMutability": "view",
      "type": "function"
    },
    {
      "constant": false,
      "inputs": [],
      "name": "registerGeneralContractor",
      "outputs": [],
      "payable": false,
      "stateMutability": "nonpayable",
      "type": "function"
    },
    {
      "constant": true,
      "inputs": [
        {
          "internalType": "address",
          "name": "_owner",
          "type": "address"
        }
      ],
      "name": "getProjectsByOwner",
      "outputs": [
        {
          "internalType": "address[]",
          "name": "projectContracts",
          "type": "address[]"
        }
      ],
      "payable": false,
      "stateMutability": "view",
      "type": "function"
    },
    {
      "constant": false,
      "inputs": [
        {
          "internalType": "bytes32",
          "name": "_project",
          "type": "bytes32"
        }
      ],
      "name": "createConstructionProject",
      "outputs": [
        {
          "internalType": "bool",
          "name": "",
          "type": "bool"
        }
      ],
      "payable": false,
      "stateMutability": "nonpayable",
      "type": "function"
    }
  ],
  "bytecode": "0x608060405234801561001057600080fd5b50604051610a48380380610a488339818101604052602081101561003357600080fd5b8101908080519060200190929190505050806000806101000a81548173ffffffffffffffffffffffffffffffffffffffff021916908373ffffffffffffffffffffffffffffffffffffffff16021790555033600160006101000a81548173ffffffffffffffffffffffffffffffffffffffff021916908373ffffffffffffffffffffffffffffffffffffffff16021790555050610973806100d56000396000f3fe608060405234801561001057600080fd5b50600436106100885760003560e01c80635c60da1b1161005b5780635c60da1b146101d65780639d9cc2fe14610220578063cb8e054f146102b9578063f851a4401461030357610088565b8063107046bd1461008d5780631450b86e1461012e5780631b26a7a51461017457806323ad46cd146101cc575b600080fd5b6100b9600480360360208110156100a357600080fd5b810190808035906020019092919050505061034d565b604051808373ffffffffffffffffffffffffffffffffffffffff1673ffffffffffffffffffffffffffffffffffffffff1681526020018273ffffffffffffffffffffffffffffffffffffffff1673ffffffffffffffffffffffffffffffffffffffff1681526020019250505060405180910390f35b61015a6004803603602081101561014457600080fd5b81019080803590602001909291905050506103be565b604051808215151515815260200191505060405180910390f35b6101b66004803603602081101561018a57600080fd5b81019080803573ffffffffffffffffffffffffffffffffffffffff16906020019092919050505061061e565b6040518082815260200191505060405180910390f35b6101d4610636565b005b6101de610679565b604051808273ffffffffffffffffffffffffffffffffffffffff1673ffffffffffffffffffffffffffffffffffffffff16815260200191505060405180910390f35b6102626004803603602081101561023657600080fd5b81019080803573ffffffffffffffffffffffffffffffffffffffff16906020019092919050505061069e565b6040518080602001828103825283818151815260200191508051906020019060200280838360005b838110156102a557808201518184015260208101905061028a565b505050509050019250505060405180910390f35b6102c1610842565b604051808273ffffffffffffffffffffffffffffffffffffffff1673ffffffffffffffffffffffffffffffffffffffff16815260200191505060405180910390f35b61030b610868565b604051808273ffffffffffffffffffffffffffffffffffffffff1673ffffffffffffffffffffffffffffffffffffffff16815260200191505060405180910390f35b6003818154811061035a57fe5b90600052602060002090600202016000915090508060000160009054906101000a900473ffffffffffffffffffffffffffffffffffffffff16908060010160009054906101000a900473ffffffffffffffffffffffffffffffffffffffff16905082565b6000806103eb6000809054906101000a900473ffffffffffffffffffffffffffffffffffffffff1661088e565b90508073ffffffffffffffffffffffffffffffffffffffff16633b663195846040518263ffffffff1660e01b815260040180828152602001915050600060405180830381600087803b15801561044057600080fd5b505af1158015610454573d6000803e3d6000fd5b505050506104606108f8565b60405180604001604052808373ffffffffffffffffffffffffffffffffffffffff1681526020013373ffffffffffffffffffffffffffffffffffffffff1681525090506001600460003373ffffffffffffffffffffffffffffffffffffffff1673ffffffffffffffffffffffffffffffffffffffff168152602001908152602001600020600082825401925050819055506003819080600181540180825580915050906001820390600052602060002090600202016000909192909190915060008201518160000160006101000a81548173ffffffffffffffffffffffffffffffffffffffff021916908373ffffffffffffffffffffffffffffffffffffffff16021790555060208201518160010160006101000a81548173ffffffffffffffffffffffffffffffffffffffff021916908373ffffffffffffffffffffffffffffffffffffffff1602179055505050507fa5771d8944557ae3022bc244ed31c87adfab9057f641f4b38bdf39c34a80f4f982604051808273ffffffffffffffffffffffffffffffffffffffff1673ffffffffffffffffffffffffffffffffffffffff16815260200191505060405180910390a1600192505050919050565b60046020528060005260406000206000915090505481565b33600260006101000a81548173ffffffffffffffffffffffffffffffffffffffff021916908373ffffffffffffffffffffffffffffffffffffffff160217905550565b6000809054906101000a900473ffffffffffffffffffffffffffffffffffffffff1681565b606080600460008473ffffffffffffffffffffffffffffffffffffffff1673ffffffffffffffffffffffffffffffffffffffff1681526020019081526020016000205460405190808252806020026020018201604052801561070f5781602001602082028038833980820191505090505b509050600080905060008090505b600380549050811015610837578473ffffffffffffffffffffffffffffffffffffffff166003828154811061074e57fe5b906000526020600020906002020160010160009054906101000a900473ffffffffffffffffffffffffffffffffffffffff1673ffffffffffffffffffffffffffffffffffffffff16141561082a57600381815481106107a957fe5b906000526020600020906002020160000160009054906101000a900473ffffffffffffffffffffffffffffffffffffffff168383815181106107e757fe5b602002602001019073ffffffffffffffffffffffffffffffffffffffff16908173ffffffffffffffffffffffffffffffffffffffff168152505081806001019250505b808060010191505061071d565b508192505050919050565b600260009054906101000a900473ffffffffffffffffffffffffffffffffffffffff1681565b600160009054906101000a900473ffffffffffffffffffffffffffffffffffffffff1681565b6000808260601b90506040517f3d602d80600a3d3981f3363d3d373d3d3d363d7300000000000000000000000081528160148201527f5af43d82803e903d91602b57fd5bf3000000000000000000000000000000000060288201526037816000f092505050919050565b6040518060400160405280600073ffffffffffffffffffffffffffffffffffffffff168152602001600073ffffffffffffffffffffffffffffffffffffffff168152509056fea265627a7a72315820253e87aec388d11d801ee77de1be21ceae82ca3cd3a7d6c9caa8d7e1ce663e5964736f6c63430005100032",
  "source": "// SPDX-License-Identifier: MIT\npragma solidity >=0.4.21 <0.7.1;\n\n// import '@openzeppelin/contracts/access/Roles.sol';\nimport './CloneFactory.sol';\nimport './ConstructionProject.sol';\n\n/**\n * @title ConstructionProjectFactory\n * @dev Store & retreive value in a variable\n */\ncontract ConstructionProjectFactory is CloneFactory {\n    event ConstructionProjectCreated(address project);\n\n    struct ProjectEntry {\n        address contractAddress;\n        address owner;\n    }\n\n    address public implementation;\n\n    address public admin; // Superadmin\n    address public generalContractor; // Rolle Generalunternehmer\n\n    ProjectEntry[] public projects;\n    mapping(address => uint256) public ownerProjectCount;\n\n    modifier onlyGeneralContractor {\n        require(msg.sender == generalContractor, 'No permission.');\n        _;\n    }\n\n    /**\n     * @dev Instantiates a Contract Manager factory with initial values\n     */\n    constructor(address _implementation) public {\n        implementation = _implementation;\n        admin = msg.sender;\n    }\n\n    /**\n     * @dev Registers general contractor\n     */\n    function registerGeneralContractor() public {\n        generalContractor = msg.sender;\n    }\n\n    /**\n     * @dev Retrieves collection of construction project contract addresses\n     */\n    function getProjectsByOwner(address _owner)\n        public\n        view\n        returns (address[] memory projectContracts)\n    {\n        address[] memory result = new address[](ownerProjectCount[_owner]);\n        uint256 counter = 0;\n\n        for (uint256 i = 0; i < projects.length; i++) {\n            if (projects[i].owner == _owner) {\n                result[counter] = projects[i].contractAddress;\n                counter++;\n            }\n        }\n        return result;\n    }\n\n    /**\n     * @dev Creates a new construction project\n     */\n    function createConstructionProject(bytes32 _project) public returns (bool) {\n        address clone = createClone(implementation);\n        ConstructionProject(clone).init(_project);\n        ProjectEntry memory constructionProject = ProjectEntry(\n            clone,\n            msg.sender\n        );\n        ownerProjectCount[msg.sender] += 1;\n        projects.push(constructionProject);\n        emit ConstructionProjectCreated(clone);\n        return true;\n    }\n}\n",
  "sourcePath": "C:/Users/fabia/WebstormProjects/bim-contracts/contracts/ConstructionProjectFactory.sol",
  "compiler": {
    "name": "solc",
    "version": "0.5.16+commit.9c3226ce.Emscripten.clang"
  },
  "schemaVersion": "3.2.4",
  "updatedAt": "2020-09-03T18:01:57.457Z",
  "networkType": "ethereum",
  "devdoc": {
    "details": "Store & retreive value in a variable",
    "methods": {
      "constructor": {
        "details": "Instantiates a Contract Manager factory with initial values"
      },
      "createConstructionProject(bytes32)": {
        "details": "Creates a new construction project"
      },
      "getProjectsByOwner(address)": {
        "details": "Retrieves collection of construction project contract addresses"
      },
      "registerGeneralContractor()": {
        "details": "Registers general contractor"
      }
    },
    "title": "ConstructionProjectFactory"
  },
  "userdoc": {
    "methods": {}
  }
}