{
  "contractName": "ConstructionProjectFactory",
  "abi": [
    {
      "inputs": [],
      "payable": false,
      "stateMutability": "nonpayable",
      "type": "constructor"
    },
    {
      "anonymous": false,
      "inputs": [
        {
          "indexed": true,
          "internalType": "address",
          "name": "contractAddress",
          "type": "address"
        }
      ],
      "name": "ConstructionProjectCreated",
      "type": "event"
    },
    {
      "constant": true,
      "inputs": [],
      "name": "admin",
      "outputs": [
        {
          "internalType": "address",
          "name": "",
          "type": "address"
        }
      ],
      "payable": false,
      "stateMutability": "view",
      "type": "function"
    },
    {
      "constant": true,
      "inputs": [],
      "name": "generalContractor",
      "outputs": [
        {
          "internalType": "address",
          "name": "",
          "type": "address"
        }
      ],
      "payable": false,
      "stateMutability": "view",
      "type": "function"
    },
    {
      "constant": true,
      "inputs": [
        {
          "internalType": "address",
          "name": "",
          "type": "address"
        }
      ],
      "name": "ownerProjectCount",
      "outputs": [
        {
          "internalType": "uint256",
          "name": "",
          "type": "uint256"
        }
      ],
      "payable": false,
      "stateMutability": "view",
      "type": "function"
    },
    {
      "constant": true,
      "inputs": [
        {
          "internalType": "uint256",
          "name": "",
          "type": "uint256"
        }
      ],
      "name": "projects",
      "outputs": [
        {
          "internalType": "address",
          "name": "contractAddress",
          "type": "address"
        },
        {
          "internalType": "address",
          "name": "owner",
          "type": "address"
        }
      ],
      "payable": false,
      "stateMutability": "view",
      "type": "function"
    },
    {
      "constant": false,
      "inputs": [],
      "name": "registerGeneralContractor",
      "outputs": [],
      "payable": false,
      "stateMutability": "nonpayable",
      "type": "function"
    },
    {
      "constant": true,
      "inputs": [
        {
          "internalType": "address",
          "name": "_owner",
          "type": "address"
        }
      ],
      "name": "getProjectsByOwner",
      "outputs": [
        {
          "internalType": "address[]",
          "name": "projectContracts",
          "type": "address[]"
        }
      ],
      "payable": false,
      "stateMutability": "view",
      "type": "function"
    },
    {
      "constant": false,
      "inputs": [
        {
          "internalType": "bytes32",
          "name": "_hash",
          "type": "bytes32"
        },
        {
          "internalType": "bytes32",
          "name": "_container",
          "type": "bytes32"
        }
      ],
      "name": "createConstructionProject",
      "outputs": [
        {
          "internalType": "bool",
          "name": "",
          "type": "bool"
        }
      ],
      "payable": false,
      "stateMutability": "nonpayable",
      "type": "function"
    }
  ],
  "bytecode": "0x608060405234801561001057600080fd5b50336000806101000a81548173ffffffffffffffffffffffffffffffffffffffff021916908373ffffffffffffffffffffffffffffffffffffffff16021790555061165b806100606000396000f3fe608060405234801561001057600080fd5b506004361061007d5760003560e01c806335ae531d1161005b57806335ae531d146101855780639d9cc2fe146101d5578063cb8e054f1461026e578063f851a440146102b85761007d565b8063107046bd146100825780631b26a7a51461012357806323ad46cd1461017b575b600080fd5b6100ae6004803603602081101561009857600080fd5b8101908080359060200190929190505050610302565b604051808373ffffffffffffffffffffffffffffffffffffffff1673ffffffffffffffffffffffffffffffffffffffff1681526020018273ffffffffffffffffffffffffffffffffffffffff1673ffffffffffffffffffffffffffffffffffffffff1681526020019250505060405180910390f35b6101656004803603602081101561013957600080fd5b81019080803573ffffffffffffffffffffffffffffffffffffffff169060200190929190505050610373565b6040518082815260200191505060405180910390f35b61018361038b565b005b6101bb6004803603604081101561019b57600080fd5b8101908080359060200190929190803590602001909291905050506103ce565b604051808215151515815260200191505060405180910390f35b610217600480360360208110156101eb57600080fd5b81019080803573ffffffffffffffffffffffffffffffffffffffff1690602001909291905050506105ba565b6040518080602001828103825283818151815260200191508051906020019060200280838360005b8381101561025a57808201518184015260208101905061023f565b505050509050019250505060405180910390f35b61027661075e565b604051808273ffffffffffffffffffffffffffffffffffffffff1673ffffffffffffffffffffffffffffffffffffffff16815260200191505060405180910390f35b6102c0610784565b604051808273ffffffffffffffffffffffffffffffffffffffff1673ffffffffffffffffffffffffffffffffffffffff16815260200191505060405180910390f35b6002818154811061030f57fe5b90600052602060002090600202016000915090508060000160009054906101000a900473ffffffffffffffffffffffffffffffffffffffff16908060010160009054906101000a900473ffffffffffffffffffffffffffffffffffffffff16905082565b60036020528060005260406000206000915090505481565b33600160006101000a81548173ffffffffffffffffffffffffffffffffffffffff021916908373ffffffffffffffffffffffffffffffffffffffff160217905550565b60008083836040516103df906107a9565b8083815260200182815260200192505050604051809103906000f08015801561040c573d6000803e3d6000fd5b5090506104176107b6565b60405180604001604052808373ffffffffffffffffffffffffffffffffffffffff1681526020013373ffffffffffffffffffffffffffffffffffffffff1681525090506001600360003373ffffffffffffffffffffffffffffffffffffffff1673ffffffffffffffffffffffffffffffffffffffff168152602001908152602001600020600082825401925050819055506002819080600181540180825580915050906001820390600052602060002090600202016000909192909190915060008201518160000160006101000a81548173ffffffffffffffffffffffffffffffffffffffff021916908373ffffffffffffffffffffffffffffffffffffffff16021790555060208201518160010160006101000a81548173ffffffffffffffffffffffffffffffffffffffff021916908373ffffffffffffffffffffffffffffffffffffffff160217905550505050806000015173ffffffffffffffffffffffffffffffffffffffff167fa5771d8944557ae3022bc244ed31c87adfab9057f641f4b38bdf39c34a80f4f960405160405180910390a260019250505092915050565b606080600360008473ffffffffffffffffffffffffffffffffffffffff1673ffffffffffffffffffffffffffffffffffffffff1681526020019081526020016000205460405190808252806020026020018201604052801561062b5781602001602082028038833980820191505090505b509050600080905060008090505b600280549050811015610753578473ffffffffffffffffffffffffffffffffffffffff166002828154811061066a57fe5b906000526020600020906002020160010160009054906101000a900473ffffffffffffffffffffffffffffffffffffffff1673ffffffffffffffffffffffffffffffffffffffff16141561074657600281815481106106c557fe5b906000526020600020906002020160000160009054906101000a900473ffffffffffffffffffffffffffffffffffffffff1683838151811061070357fe5b602002602001019073ffffffffffffffffffffffffffffffffffffffff16908173ffffffffffffffffffffffffffffffffffffffff168152505081806001019250505b8080600101915050610639565b508192505050919050565b600160009054906101000a900473ffffffffffffffffffffffffffffffffffffffff1681565b6000809054906101000a900473ffffffffffffffffffffffffffffffffffffffff1681565b610e2a806107fd83390190565b6040518060400160405280600073ffffffffffffffffffffffffffffffffffffffff168152602001600073ffffffffffffffffffffffffffffffffffffffff168152509056fe608060405234801561001057600080fd5b50604051610e2a380380610e2a8339818101604052604081101561003357600080fd5b810190808051906020019092919080519060200190929190505050336000806101000a81548173ffffffffffffffffffffffffffffffffffffffff021916908373ffffffffffffffffffffffffffffffffffffffff16021790555081600281905550806003819055505050610d7d806100ad6000396000f3fe608060405234801561001057600080fd5b506004361061009e5760003560e01c806390e534a71161006657806390e534a7146101fd578063ca5f158d1461021b578063cb8e054f14610225578063dfdd78ca1461026f578063f0cccf98146102bf5761009e565b8063099e47b1146100a357806309bd5a60146100f35780636c03b400146101115780638f13eda91461015b57806390d698d3146101b7575b600080fd5b6100d9600480360360408110156100b957600080fd5b81019080803590602001909291908035906020019092919050505061030f565b604051808215151515815260200191505060405180910390f35b6100fb6103f5565b6040518082815260200191505060405180910390f35b6101196103fb565b604051808273ffffffffffffffffffffffffffffffffffffffff1673ffffffffffffffffffffffffffffffffffffffff16815260200191505060405180910390f35b61019d6004803603602081101561017157600080fd5b81019080803573ffffffffffffffffffffffffffffffffffffffff169060200190929190505050610421565b604051808215151515815260200191505060405180910390f35b6101e3600480360360208110156101cd57600080fd5b8101908080359060200190929190505050610441565b604051808215151515815260200191505060405180910390f35b61020561062f565b6040518082815260200191505060405180910390f35b610223610635565b005b61022d610751565b604051808273ffffffffffffffffffffffffffffffffffffffff1673ffffffffffffffffffffffffffffffffffffffff16815260200191505060405180910390f35b6102a56004803603604081101561028557600080fd5b810190808035906020019092919080359060200190929190505050610776565b604051808215151515815260200191505060405180910390f35b6102f5600480360360408110156102d557600080fd5b8101908080359060200190929190803590602001909291905050506108f7565b604051808215151515815260200191505060405180910390f35b60008060009054906101000a900473ffffffffffffffffffffffffffffffffffffffff1673ffffffffffffffffffffffffffffffffffffffff163373ffffffffffffffffffffffffffffffffffffffff16146103d3576040517f08c379a000000000000000000000000000000000000000000000000000000000815260040180806020018281038252600e8152602001807f4e6f207065726d697373696f6e2e00000000000000000000000000000000000081525060200191505060405180910390fd5b8260076000848152602001908152602001600020819055506001905092915050565b60025481565b600160009054906101000a900473ffffffffffffffffffffffffffffffffffffffff1681565b60046020528060005260406000206000915054906101000a900460ff1681565b60008060009054906101000a900473ffffffffffffffffffffffffffffffffffffffff1673ffffffffffffffffffffffffffffffffffffffff163373ffffffffffffffffffffffffffffffffffffffff1614610505576040517f08c379a000000000000000000000000000000000000000000000000000000000815260040180806020018281038252600e8152602001807f4e6f207065726d697373696f6e2e00000000000000000000000000000000000081525060200191505060405180910390fd5b6005600083815260200190815260200160002060000160009054906101000a900460ff161561059c576040517f08c379a00000000000000000000000000000000000000000000000000000000081526004018080602001828103825260168152602001807f424f5120616c7265616479207370656369666965642e0000000000000000000081525060200191505060405180910390fd5b60006040519080825280602002602001820160405280156105cc5781602001602082028038833980820191505090505b506005600084815260200190815260200160002060010190805190602001906105f6929190610c89565b5060016005600084815260200190815260200160002060000160006101000a81548160ff02191690831515021790555060019050919050565b60035481565b6000809054906101000a900473ffffffffffffffffffffffffffffffffffffffff1673ffffffffffffffffffffffffffffffffffffffff163373ffffffffffffffffffffffffffffffffffffffff16146106f7576040517f08c379a000000000000000000000000000000000000000000000000000000000815260040180806020018281038252600e8152602001807f4e6f207065726d697373696f6e2e00000000000000000000000000000000000081525060200191505060405180910390fd5b6001600460003373ffffffffffffffffffffffffffffffffffffffff1673ffffffffffffffffffffffffffffffffffffffff16815260200190815260200160002060006101000a81548160ff021916908315150217905550565b6000809054906101000a900473ffffffffffffffffffffffffffffffffffffffff1681565b6000816006600085815260200190815260200160002060030160009054906101000a900460ff1660038111156107a857fe5b106107b257600080fd5b8160038111156107be57fe5b6006600085815260200190815260200160002060030160006101000a81548160ff021916908360038111156107ef57fe5b021790555060008090505b600660008581526020019081526020016000206002018054905081101561089b57600060066000868152602001908152602001600020600201828154811061083e57fe5b90600052602060002001549050836006600083815260200190815260200160002060030160009054906101000a900460ff16600381111561087b57fe5b101561088d5761088b8185610776565b505b5080806001019150506107fa565b50827f39f4579fe037f1f2dacbbe9f93f835c2fe2d905dad6c62e8cf6cfef14804a7ae8360038111156108ca57fe5b604051808260038111156108da57fe5b60ff16815260200191505060405180910390a26001905092915050565b60008060009054906101000a900473ffffffffffffffffffffffffffffffffffffffff1673ffffffffffffffffffffffffffffffffffffffff163373ffffffffffffffffffffffffffffffffffffffff16146109bb576040517f08c379a000000000000000000000000000000000000000000000000000000000815260040180806020018281038252600e8152602001807f4e6f207065726d697373696f6e2e00000000000000000000000000000000000081525060200191505060405180910390fd5b6000801b6006600084815260200190815260200160002060000154141580610a0357506005600083815260200190815260200160002060000160009054906101000a900460ff165b610a75576040517f08c379a00000000000000000000000000000000000000000000000000000000081526004018080602001828103825260188152602001807f506172656e74206973206e6f74207370656369666965642e000000000000000081525060200191505060405180910390fd5b6000801b600660008581526020019081526020016000206000015414610b03576040517f08c379a000000000000000000000000000000000000000000000000000000000815260040180806020018281038252601f8152602001807f576f726b204974656d20697320616c7265616479207370656369666965642e0081525060200191505060405180910390fd5b60405180608001604052808481526020018381526020016000604051908082528060200260200182016040528015610b4a5781602001602082028038833980820191505090505b50815260200160006003811115610b5d57fe5b8152506006600085815260200190815260200160002060008201518160000155602082015181600101556040820151816002019080519060200190610ba3929190610cd6565b5060608201518160030160006101000a81548160ff02191690836003811115610bc857fe5b02179055509050506005600083815260200190815260200160002060000160009054906101000a900460ff1615610c3e5760056000838152602001908152602001600020600101839080600181540180825580915050906001820390600052602060002001600090919290919091505550610c7f565b600660008381526020019081526020016000206002018390806001815401808255809150509060018203906000526020600020016000909192909190915055505b6001905092915050565b828054828255906000526020600020908101928215610cc5579160200282015b82811115610cc4578251825591602001919060010190610ca9565b5b509050610cd29190610d23565b5090565b828054828255906000526020600020908101928215610d12579160200282015b82811115610d11578251825591602001919060010190610cf6565b5b509050610d1f9190610d23565b5090565b610d4591905b80821115610d41576000816000905550600101610d29565b5090565b9056fea265627a7a72315820148f05e7bdd3504ca0a08e47dd77286307780defb86f25ee240b1e5e8d15223f64736f6c63430005100032a265627a7a7231582066a0e71806d4534e4bcb13366983e7869ba2a05342535e03f256f87f94395f6e64736f6c63430005100032",
  "source": "// SPDX-License-Identifier: MIT\npragma solidity >=0.4.21 <0.7.0;\n\n// import '@openzeppelin/contracts/access/Roles.sol';\n\nimport './ConstructionProject.sol';\n\n/**\n * @title ConstructionProjectFactory\n * @dev Store & retreive value in a variable\n */\n\ncontract ConstructionProjectFactory {\n    event ConstructionProjectCreated(address indexed contractAddress);\n\n    struct ProjectEntry {\n        address contractAddress;\n        address owner;\n    }\n\n    address public admin; // Superadmin\n    address public generalContractor; // Rolle Generalunternehmer\n\n    ProjectEntry[] public projects;\n    mapping(address => uint256) public ownerProjectCount;\n\n    modifier onlyGeneralContractor {\n        require(msg.sender == generalContractor, 'No permission.');\n        _;\n    }\n\n    /**\n     * @dev Instantiates a Contract Manager factory with initial values\n     */\n    constructor() public {\n        admin = msg.sender;\n    }\n\n    /**\n     * @dev Registers general contractor\n     */\n    function registerGeneralContractor() public {\n        generalContractor = msg.sender;\n    }\n\n    /**\n     * @dev Retrieves collection of construction project contract addresses\n     */\n    function getProjectsByOwner(address _owner)\n        public\n        view\n        returns (address[] memory projectContracts)\n    {\n        address[] memory result = new address[](ownerProjectCount[_owner]);\n        uint256 counter = 0;\n\n        for (uint256 i = 0; i < projects.length; i++) {\n            if (projects[i].owner == _owner) {\n                result[counter] = projects[i].contractAddress;\n                counter++;\n            }\n        }\n        return result;\n    }\n\n    /**\n     * @dev Creates a new construction project\n     */\n    function createConstructionProject(bytes32 _hash, bytes32 _container)\n        public\n        returns (bool)\n    {\n        ConstructionProject project = new ConstructionProject(\n            _hash,\n            _container\n        );\n        ProjectEntry memory constructionProject = ProjectEntry(\n            address(project),\n            msg.sender\n        );\n        ownerProjectCount[msg.sender] += 1;\n        projects.push(constructionProject);\n        emit ConstructionProjectCreated(constructionProject.contractAddress);\n        return true;\n    }\n}\n",
  "sourcePath": "C:/Users/fabia/WebstormProjects/bim-contracts/contracts/ConstructionProjectFactory.sol",
  "compiler": {
    "name": "solc",
    "version": "0.5.16+commit.9c3226ce.Emscripten.clang"
  },
  "schemaVersion": "3.2.3",
  "updatedAt": "2020-09-01T15:22:00.469Z",
  "networkType": "ethereum",
  "devdoc": {
    "details": "Store & retreive value in a variable",
    "methods": {
      "constructor": {
        "details": "Instantiates a Contract Manager factory with initial values"
      },
      "createConstructionProject(bytes32,bytes32)": {
        "details": "Creates a new construction project"
      },
      "getProjectsByOwner(address)": {
        "details": "Retrieves collection of construction project contract addresses"
      },
      "registerGeneralContractor()": {
        "details": "Registers general contractor"
      }
    },
    "title": "ConstructionProjectFactory"
  },
  "userdoc": {
    "methods": {}
  }
}