{
  "contractName": "ConstructionProjectFactory",
  "abi": [
    {
      "inputs": [
        {
          "internalType": "address",
          "name": "_implementation",
          "type": "address"
        }
      ],
      "payable": false,
      "stateMutability": "nonpayable",
      "type": "constructor"
    },
    {
      "anonymous": false,
      "inputs": [
        {
          "indexed": true,
          "internalType": "address",
          "name": "contractAddress",
          "type": "address"
        }
      ],
      "name": "ConstructionProjectCreated",
      "type": "event"
    },
    {
      "constant": true,
      "inputs": [],
      "name": "admin",
      "outputs": [
        {
          "internalType": "address",
          "name": "",
          "type": "address"
        }
      ],
      "payable": false,
      "stateMutability": "view",
      "type": "function"
    },
    {
      "constant": true,
      "inputs": [],
      "name": "generalContractor",
      "outputs": [
        {
          "internalType": "address",
          "name": "",
          "type": "address"
        }
      ],
      "payable": false,
      "stateMutability": "view",
      "type": "function"
    },
    {
      "constant": true,
      "inputs": [],
      "name": "implementation",
      "outputs": [
        {
          "internalType": "address",
          "name": "",
          "type": "address"
        }
      ],
      "payable": false,
      "stateMutability": "view",
      "type": "function"
    },
    {
      "constant": true,
      "inputs": [
        {
          "internalType": "address",
          "name": "",
          "type": "address"
        }
      ],
      "name": "ownerProjectCount",
      "outputs": [
        {
          "internalType": "uint256",
          "name": "",
          "type": "uint256"
        }
      ],
      "payable": false,
      "stateMutability": "view",
      "type": "function"
    },
    {
      "constant": true,
      "inputs": [
        {
          "internalType": "uint256",
          "name": "",
          "type": "uint256"
        }
      ],
      "name": "projects",
      "outputs": [
        {
          "internalType": "address",
          "name": "contractAddress",
          "type": "address"
        },
        {
          "internalType": "address",
          "name": "owner",
          "type": "address"
        }
      ],
      "payable": false,
      "stateMutability": "view",
      "type": "function"
    },
    {
      "constant": false,
      "inputs": [],
      "name": "registerGeneralContractor",
      "outputs": [],
      "payable": false,
      "stateMutability": "nonpayable",
      "type": "function"
    },
    {
      "constant": true,
      "inputs": [
        {
          "internalType": "address",
          "name": "_owner",
          "type": "address"
        }
      ],
      "name": "getProjectsByOwner",
      "outputs": [
        {
          "internalType": "address[]",
          "name": "projectContracts",
          "type": "address[]"
        }
      ],
      "payable": false,
      "stateMutability": "view",
      "type": "function"
    },
    {
      "constant": false,
      "inputs": [
        {
          "internalType": "bytes32",
          "name": "_hash",
          "type": "bytes32"
        },
        {
          "internalType": "bytes32",
          "name": "_container",
          "type": "bytes32"
        }
      ],
      "name": "createConstructionProject",
      "outputs": [
        {
          "internalType": "bool",
          "name": "",
          "type": "bool"
        }
      ],
      "payable": false,
      "stateMutability": "nonpayable",
      "type": "function"
    }
  ],
  "bytecode": "0x608060405234801561001057600080fd5b50604051610a3f380380610a3f8339818101604052602081101561003357600080fd5b8101908080519060200190929190505050806000806101000a81548173ffffffffffffffffffffffffffffffffffffffff021916908373ffffffffffffffffffffffffffffffffffffffff16021790555033600160006101000a81548173ffffffffffffffffffffffffffffffffffffffff021916908373ffffffffffffffffffffffffffffffffffffffff1602179055505061096a806100d56000396000f3fe608060405234801561001057600080fd5b50600436106100885760003560e01c80635c60da1b1161005b5780635c60da1b146101e05780639d9cc2fe1461022a578063cb8e054f146102c3578063f851a4401461030d57610088565b8063107046bd1461008d5780631b26a7a51461012e57806323ad46cd1461018657806335ae531d14610190575b600080fd5b6100b9600480360360208110156100a357600080fd5b8101908080359060200190929190505050610357565b604051808373ffffffffffffffffffffffffffffffffffffffff1673ffffffffffffffffffffffffffffffffffffffff1681526020018273ffffffffffffffffffffffffffffffffffffffff1673ffffffffffffffffffffffffffffffffffffffff1681526020019250505060405180910390f35b6101706004803603602081101561014457600080fd5b81019080803573ffffffffffffffffffffffffffffffffffffffff1690602001909291905050506103c8565b6040518082815260200191505060405180910390f35b61018e6103e0565b005b6101c6600480360360408110156101a657600080fd5b810190808035906020019092919080359060200190929190505050610423565b604051808215151515815260200191505060405180910390f35b6101e8610670565b604051808273ffffffffffffffffffffffffffffffffffffffff1673ffffffffffffffffffffffffffffffffffffffff16815260200191505060405180910390f35b61026c6004803603602081101561024057600080fd5b81019080803573ffffffffffffffffffffffffffffffffffffffff169060200190929190505050610695565b6040518080602001828103825283818151815260200191508051906020019060200280838360005b838110156102af578082015181840152602081019050610294565b505050509050019250505060405180910390f35b6102cb610839565b604051808273ffffffffffffffffffffffffffffffffffffffff1673ffffffffffffffffffffffffffffffffffffffff16815260200191505060405180910390f35b61031561085f565b604051808273ffffffffffffffffffffffffffffffffffffffff1673ffffffffffffffffffffffffffffffffffffffff16815260200191505060405180910390f35b6003818154811061036457fe5b90600052602060002090600202016000915090508060000160009054906101000a900473ffffffffffffffffffffffffffffffffffffffff16908060010160009054906101000a900473ffffffffffffffffffffffffffffffffffffffff16905082565b60046020528060005260406000206000915090505481565b33600260006101000a81548173ffffffffffffffffffffffffffffffffffffffff021916908373ffffffffffffffffffffffffffffffffffffffff160217905550565b6000806104506000809054906101000a900473ffffffffffffffffffffffffffffffffffffffff16610885565b90508073ffffffffffffffffffffffffffffffffffffffff166362fd42a885856040518363ffffffff1660e01b81526004018083815260200182815260200192505050600060405180830381600087803b1580156104ad57600080fd5b505af11580156104c1573d6000803e3d6000fd5b505050506104cd6108ef565b60405180604001604052808373ffffffffffffffffffffffffffffffffffffffff1681526020013373ffffffffffffffffffffffffffffffffffffffff1681525090506001600460003373ffffffffffffffffffffffffffffffffffffffff1673ffffffffffffffffffffffffffffffffffffffff168152602001908152602001600020600082825401925050819055506003819080600181540180825580915050906001820390600052602060002090600202016000909192909190915060008201518160000160006101000a81548173ffffffffffffffffffffffffffffffffffffffff021916908373ffffffffffffffffffffffffffffffffffffffff16021790555060208201518160010160006101000a81548173ffffffffffffffffffffffffffffffffffffffff021916908373ffffffffffffffffffffffffffffffffffffffff160217905550505050806000015173ffffffffffffffffffffffffffffffffffffffff167fa5771d8944557ae3022bc244ed31c87adfab9057f641f4b38bdf39c34a80f4f960405160405180910390a260019250505092915050565b6000809054906101000a900473ffffffffffffffffffffffffffffffffffffffff1681565b606080600460008473ffffffffffffffffffffffffffffffffffffffff1673ffffffffffffffffffffffffffffffffffffffff168152602001908152602001600020546040519080825280602002602001820160405280156107065781602001602082028038833980820191505090505b509050600080905060008090505b60038054905081101561082e578473ffffffffffffffffffffffffffffffffffffffff166003828154811061074557fe5b906000526020600020906002020160010160009054906101000a900473ffffffffffffffffffffffffffffffffffffffff1673ffffffffffffffffffffffffffffffffffffffff16141561082157600381815481106107a057fe5b906000526020600020906002020160000160009054906101000a900473ffffffffffffffffffffffffffffffffffffffff168383815181106107de57fe5b602002602001019073ffffffffffffffffffffffffffffffffffffffff16908173ffffffffffffffffffffffffffffffffffffffff168152505081806001019250505b8080600101915050610714565b508192505050919050565b600260009054906101000a900473ffffffffffffffffffffffffffffffffffffffff1681565b600160009054906101000a900473ffffffffffffffffffffffffffffffffffffffff1681565b6000808260601b90506040517f3d602d80600a3d3981f3363d3d373d3d3d363d7300000000000000000000000081528160148201527f5af43d82803e903d91602b57fd5bf3000000000000000000000000000000000060288201526037816000f092505050919050565b6040518060400160405280600073ffffffffffffffffffffffffffffffffffffffff168152602001600073ffffffffffffffffffffffffffffffffffffffff168152509056fea265627a7a72315820c33c288284ac6d37153012d692ed6f2380fb95ed72e9efc17bbeb0b08f8f3e9364736f6c63430005100032",
  "source": "// SPDX-License-Identifier: MIT\npragma solidity >=0.4.21;\n\n// import '@openzeppelin/contracts/access/Roles.sol';\nimport './CloneFactory.sol';\nimport './ConstructionProject.sol';\n\n/**\n * @title ConstructionProjectFactory\n * @dev Store & retreive value in a variable\n */\n\ncontract ConstructionProjectFactory is CloneFactory {\n    event ConstructionProjectCreated(address indexed contractAddress);\n\n    struct ProjectEntry {\n        address contractAddress;\n        address owner;\n    }\n\n    address public implementation;\n\n    address public admin; // Superadmin\n    address public generalContractor; // Rolle Generalunternehmer\n\n    ProjectEntry[] public projects;\n    mapping(address => uint256) public ownerProjectCount;\n\n    modifier onlyGeneralContractor {\n        require(msg.sender == generalContractor, 'No permission.');\n        _;\n    }\n\n    /**\n     * @dev Instantiates a Contract Manager factory with initial values\n     */\n    constructor(address _implementation) public {\n        implementation = _implementation;\n        admin = msg.sender;\n    }\n\n    /**\n     * @dev Registers general contractor\n     */\n    function registerGeneralContractor() public {\n        generalContractor = msg.sender;\n    }\n\n    /**\n     * @dev Retrieves collection of construction project contract addresses\n     */\n    function getProjectsByOwner(address _owner)\n        public\n        view\n        returns (address[] memory projectContracts)\n    {\n        address[] memory result = new address[](ownerProjectCount[_owner]);\n        uint256 counter = 0;\n\n        for (uint256 i = 0; i < projects.length; i++) {\n            if (projects[i].owner == _owner) {\n                result[counter] = projects[i].contractAddress;\n                counter++;\n            }\n        }\n        return result;\n    }\n\n    /**\n     * @dev Creates a new construction project\n     */\n    function createConstructionProject(bytes32 _hash, bytes32 _container)\n        public\n        returns (bool)\n    {\n        address clone = createClone(implementation);\n        ConstructionProject(clone).init(_hash, _container);\n        ProjectEntry memory constructionProject = ProjectEntry(\n            clone,\n            msg.sender\n        );\n        ownerProjectCount[msg.sender] += 1;\n        projects.push(constructionProject);\n        emit ConstructionProjectCreated(constructionProject.contractAddress);\n        return true;\n    }\n}\n",
  "sourcePath": "C:/Users/fabia/WebstormProjects/bim-contracts/contracts/ConstructionProjectFactory.sol",
  "compiler": {
    "name": "solc",
    "version": "0.5.16+commit.9c3226ce.Emscripten.clang"
  },
  "schemaVersion": "3.2.3",
  "updatedAt": "2020-09-01T16:55:46.759Z",
  "networkType": "ethereum",
  "devdoc": {
    "details": "Store & retreive value in a variable",
    "methods": {
      "constructor": {
        "details": "Instantiates a Contract Manager factory with initial values"
      },
      "createConstructionProject(bytes32,bytes32)": {
        "details": "Creates a new construction project"
      },
      "getProjectsByOwner(address)": {
        "details": "Retrieves collection of construction project contract addresses"
      },
      "registerGeneralContractor()": {
        "details": "Registers general contractor"
      }
    },
    "title": "ConstructionProjectFactory"
  },
  "userdoc": {
    "methods": {}
  }
}