{
  "contractName": "ConstructionProject",
  "abi": [
    {
      "inputs": [
        {
          "internalType": "bytes32",
          "name": "_hash",
          "type": "bytes32"
        },
        {
          "internalType": "bytes32",
          "name": "_container",
          "type": "bytes32"
        }
      ],
      "payable": false,
      "stateMutability": "nonpayable",
      "type": "constructor"
    },
    {
      "anonymous": false,
      "inputs": [
        {
          "indexed": true,
          "internalType": "bytes32",
          "name": "workItemId",
          "type": "bytes32"
        },
        {
          "indexed": false,
          "internalType": "enum ConstructionProject.WorkItemProgress",
          "name": "workItemProgress",
          "type": "uint8"
        }
      ],
      "name": "WorkItemProgressChange",
      "type": "event"
    },
    {
      "constant": true,
      "inputs": [],
      "name": "buildingContractor",
      "outputs": [
        {
          "internalType": "address",
          "name": "",
          "type": "address"
        }
      ],
      "payable": false,
      "stateMutability": "view",
      "type": "function"
    },
    {
      "constant": true,
      "inputs": [],
      "name": "container",
      "outputs": [
        {
          "internalType": "bytes32",
          "name": "",
          "type": "bytes32"
        }
      ],
      "payable": false,
      "stateMutability": "view",
      "type": "function"
    },
    {
      "constant": true,
      "inputs": [],
      "name": "generalContractor",
      "outputs": [
        {
          "internalType": "address",
          "name": "",
          "type": "address"
        }
      ],
      "payable": false,
      "stateMutability": "view",
      "type": "function"
    },
    {
      "constant": true,
      "inputs": [],
      "name": "hash",
      "outputs": [
        {
          "internalType": "bytes32",
          "name": "",
          "type": "bytes32"
        }
      ],
      "payable": false,
      "stateMutability": "view",
      "type": "function"
    },
    {
      "constant": true,
      "inputs": [
        {
          "internalType": "address",
          "name": "",
          "type": "address"
        }
      ],
      "name": "subContractors",
      "outputs": [
        {
          "internalType": "bool",
          "name": "",
          "type": "bool"
        }
      ],
      "payable": false,
      "stateMutability": "view",
      "type": "function"
    },
    {
      "constant": false,
      "inputs": [],
      "name": "registerSubContractor",
      "outputs": [],
      "payable": false,
      "stateMutability": "nonpayable",
      "type": "function"
    },
    {
      "constant": false,
      "inputs": [
        {
          "internalType": "bytes32",
          "name": "_BOQ",
          "type": "bytes32"
        }
      ],
      "name": "addBOQ",
      "outputs": [
        {
          "internalType": "bool",
          "name": "success",
          "type": "bool"
        }
      ],
      "payable": false,
      "stateMutability": "nonpayable",
      "type": "function"
    },
    {
      "constant": false,
      "inputs": [
        {
          "internalType": "bytes32",
          "name": "_billingItem",
          "type": "bytes32"
        },
        {
          "internalType": "bytes32",
          "name": "_workItemId",
          "type": "bytes32"
        }
      ],
      "name": "addBillingItem",
      "outputs": [
        {
          "internalType": "bool",
          "name": "success",
          "type": "bool"
        }
      ],
      "payable": false,
      "stateMutability": "nonpayable",
      "type": "function"
    },
    {
      "constant": false,
      "inputs": [
        {
          "internalType": "bytes32",
          "name": "_id",
          "type": "bytes32"
        },
        {
          "internalType": "bytes32",
          "name": "_parent",
          "type": "bytes32"
        }
      ],
      "name": "addWorkItem",
      "outputs": [
        {
          "internalType": "bool",
          "name": "success",
          "type": "bool"
        }
      ],
      "payable": false,
      "stateMutability": "nonpayable",
      "type": "function"
    },
    {
      "constant": false,
      "inputs": [
        {
          "internalType": "bytes32",
          "name": "_id",
          "type": "bytes32"
        },
        {
          "internalType": "uint256",
          "name": "_progress",
          "type": "uint256"
        }
      ],
      "name": "setWorkItemProgress",
      "outputs": [
        {
          "internalType": "bool",
          "name": "success",
          "type": "bool"
        }
      ],
      "payable": false,
      "stateMutability": "nonpayable",
      "type": "function"
    }
  ],
  "bytecode": "0x608060405234801561001057600080fd5b50604051610e2a380380610e2a8339818101604052604081101561003357600080fd5b810190808051906020019092919080519060200190929190505050336000806101000a81548173ffffffffffffffffffffffffffffffffffffffff021916908373ffffffffffffffffffffffffffffffffffffffff16021790555081600281905550806003819055505050610d7d806100ad6000396000f3fe608060405234801561001057600080fd5b506004361061009e5760003560e01c806390e534a71161006657806390e534a7146101fd578063ca5f158d1461021b578063cb8e054f14610225578063dfdd78ca1461026f578063f0cccf98146102bf5761009e565b8063099e47b1146100a357806309bd5a60146100f35780636c03b400146101115780638f13eda91461015b57806390d698d3146101b7575b600080fd5b6100d9600480360360408110156100b957600080fd5b81019080803590602001909291908035906020019092919050505061030f565b604051808215151515815260200191505060405180910390f35b6100fb6103f5565b6040518082815260200191505060405180910390f35b6101196103fb565b604051808273ffffffffffffffffffffffffffffffffffffffff1673ffffffffffffffffffffffffffffffffffffffff16815260200191505060405180910390f35b61019d6004803603602081101561017157600080fd5b81019080803573ffffffffffffffffffffffffffffffffffffffff169060200190929190505050610421565b604051808215151515815260200191505060405180910390f35b6101e3600480360360208110156101cd57600080fd5b8101908080359060200190929190505050610441565b604051808215151515815260200191505060405180910390f35b61020561062f565b6040518082815260200191505060405180910390f35b610223610635565b005b61022d610751565b604051808273ffffffffffffffffffffffffffffffffffffffff1673ffffffffffffffffffffffffffffffffffffffff16815260200191505060405180910390f35b6102a56004803603604081101561028557600080fd5b810190808035906020019092919080359060200190929190505050610776565b604051808215151515815260200191505060405180910390f35b6102f5600480360360408110156102d557600080fd5b8101908080359060200190929190803590602001909291905050506108f7565b604051808215151515815260200191505060405180910390f35b60008060009054906101000a900473ffffffffffffffffffffffffffffffffffffffff1673ffffffffffffffffffffffffffffffffffffffff163373ffffffffffffffffffffffffffffffffffffffff16146103d3576040517f08c379a000000000000000000000000000000000000000000000000000000000815260040180806020018281038252600e8152602001807f4e6f207065726d697373696f6e2e00000000000000000000000000000000000081525060200191505060405180910390fd5b8260076000848152602001908152602001600020819055506001905092915050565b60025481565b600160009054906101000a900473ffffffffffffffffffffffffffffffffffffffff1681565b60046020528060005260406000206000915054906101000a900460ff1681565b60008060009054906101000a900473ffffffffffffffffffffffffffffffffffffffff1673ffffffffffffffffffffffffffffffffffffffff163373ffffffffffffffffffffffffffffffffffffffff1614610505576040517f08c379a000000000000000000000000000000000000000000000000000000000815260040180806020018281038252600e8152602001807f4e6f207065726d697373696f6e2e00000000000000000000000000000000000081525060200191505060405180910390fd5b6005600083815260200190815260200160002060000160009054906101000a900460ff161561059c576040517f08c379a00000000000000000000000000000000000000000000000000000000081526004018080602001828103825260168152602001807f424f5120616c7265616479207370656369666965642e0000000000000000000081525060200191505060405180910390fd5b60006040519080825280602002602001820160405280156105cc5781602001602082028038833980820191505090505b506005600084815260200190815260200160002060010190805190602001906105f6929190610c89565b5060016005600084815260200190815260200160002060000160006101000a81548160ff02191690831515021790555060019050919050565b60035481565b6000809054906101000a900473ffffffffffffffffffffffffffffffffffffffff1673ffffffffffffffffffffffffffffffffffffffff163373ffffffffffffffffffffffffffffffffffffffff16146106f7576040517f08c379a000000000000000000000000000000000000000000000000000000000815260040180806020018281038252600e8152602001807f4e6f207065726d697373696f6e2e00000000000000000000000000000000000081525060200191505060405180910390fd5b6001600460003373ffffffffffffffffffffffffffffffffffffffff1673ffffffffffffffffffffffffffffffffffffffff16815260200190815260200160002060006101000a81548160ff021916908315150217905550565b6000809054906101000a900473ffffffffffffffffffffffffffffffffffffffff1681565b6000816006600085815260200190815260200160002060030160009054906101000a900460ff1660038111156107a857fe5b106107b257600080fd5b8160038111156107be57fe5b6006600085815260200190815260200160002060030160006101000a81548160ff021916908360038111156107ef57fe5b021790555060008090505b600660008581526020019081526020016000206002018054905081101561089b57600060066000868152602001908152602001600020600201828154811061083e57fe5b90600052602060002001549050836006600083815260200190815260200160002060030160009054906101000a900460ff16600381111561087b57fe5b101561088d5761088b8185610776565b505b5080806001019150506107fa565b50827f39f4579fe037f1f2dacbbe9f93f835c2fe2d905dad6c62e8cf6cfef14804a7ae8360038111156108ca57fe5b604051808260038111156108da57fe5b60ff16815260200191505060405180910390a26001905092915050565b60008060009054906101000a900473ffffffffffffffffffffffffffffffffffffffff1673ffffffffffffffffffffffffffffffffffffffff163373ffffffffffffffffffffffffffffffffffffffff16146109bb576040517f08c379a000000000000000000000000000000000000000000000000000000000815260040180806020018281038252600e8152602001807f4e6f207065726d697373696f6e2e00000000000000000000000000000000000081525060200191505060405180910390fd5b6000801b6006600084815260200190815260200160002060000154141580610a0357506005600083815260200190815260200160002060000160009054906101000a900460ff165b610a75576040517f08c379a00000000000000000000000000000000000000000000000000000000081526004018080602001828103825260188152602001807f506172656e74206973206e6f74207370656369666965642e000000000000000081525060200191505060405180910390fd5b6000801b600660008581526020019081526020016000206000015414610b03576040517f08c379a000000000000000000000000000000000000000000000000000000000815260040180806020018281038252601f8152602001807f576f726b204974656d20697320616c7265616479207370656369666965642e0081525060200191505060405180910390fd5b60405180608001604052808481526020018381526020016000604051908082528060200260200182016040528015610b4a5781602001602082028038833980820191505090505b50815260200160006003811115610b5d57fe5b8152506006600085815260200190815260200160002060008201518160000155602082015181600101556040820151816002019080519060200190610ba3929190610cd6565b5060608201518160030160006101000a81548160ff02191690836003811115610bc857fe5b02179055509050506005600083815260200190815260200160002060000160009054906101000a900460ff1615610c3e5760056000838152602001908152602001600020600101839080600181540180825580915050906001820390600052602060002001600090919290919091505550610c7f565b600660008381526020019081526020016000206002018390806001815401808255809150509060018203906000526020600020016000909192909190915055505b6001905092915050565b828054828255906000526020600020908101928215610cc5579160200282015b82811115610cc4578251825591602001919060010190610ca9565b5b509050610cd29190610d23565b5090565b828054828255906000526020600020908101928215610d12579160200282015b82811115610d11578251825591602001919060010190610cf6565b5b509050610d1f9190610d23565b5090565b610d4591905b80821115610d41576000816000905550600101610d29565b5090565b9056fea265627a7a72315820148f05e7bdd3504ca0a08e47dd77286307780defb86f25ee240b1e5e8d15223f64736f6c63430005100032",
  "source": "pragma solidity >=0.4.22 <0.7.0;\n\n/**\n * @title ConstructionProject\n * @dev Store & retreive value in a variable\n */\ncontract ConstructionProject {\n    event WorkItemProgressChange(\n        bytes32 indexed workItemId,\n        WorkItemProgress workItemProgress\n    );\n\n    // Leistungsverzeichnis\n    struct BOQ {\n        bool exists;\n        bytes32[] items;\n    }\n\n    // Leistungsverzeichnis-Eintrag\n    struct WorkItem {\n        bytes32 id;\n        bytes32 parent;\n        bytes32[] items;\n        WorkItemProgress progress;\n    }\n\n    enum WorkItemProgress {INITIALIZED, STARTED, FINISHED, APPROVED}\n\n    address public generalContractor; // Rolle Generalunternehmer\n    address public buildingContractor; // Rolle Bauherr\n\n    bytes32 public hash;\n    bytes32 public container;\n\n    mapping(address => bool) public subContractors; // Rolle Subunternehmer\n\n    mapping(bytes32 => BOQ) BOQs; // Leistungsverzeichnisse mit Referenz auf Work Items\n\n    mapping(bytes32 => WorkItem) workItems; // Leistungsverzeichnis-Einträge\n    mapping(bytes32 => bytes32) billingItems; // Work Items Referenz auf Abrechnungseinheiten\n\n    modifier onlyGeneralContractor {\n        require(msg.sender == generalContractor, 'No permission.');\n        _;\n    }\n\n    /**\n     * @dev Instantiates a Contract Manager factory with initial values\n     */\n    constructor(bytes32 _hash, bytes32 _container) public {\n        generalContractor = msg.sender;\n        hash = _hash;\n        container = _container;\n    }\n\n    /**\n     * @dev Registers sub contractor\n     */\n    function registerSubContractor() public onlyGeneralContractor {\n        subContractors[msg.sender] = true;\n    }\n\n    /**\n     * @dev Adds a new Bill of Quantity\n     * @param _BOQ The hash of the BOQ\n     */\n    function addBOQ(bytes32 _BOQ)\n        public\n        onlyGeneralContractor\n        returns (bool success)\n    {\n        require(!BOQs[_BOQ].exists, 'BOQ already specified.');\n        BOQs[_BOQ].items = new bytes32[](0);\n        BOQs[_BOQ].exists = true;\n        return true;\n    }\n\n    /**\n     * @dev Pushes a new billing item to the stack\n     * @param _billingItem The hash of the billing item\n     * @param _workItemId The hash of the work item which emits payment when ready\n     */\n    function addBillingItem(bytes32 _billingItem, bytes32 _workItemId)\n        public\n        onlyGeneralContractor\n        returns (bool success)\n    {\n        billingItems[_workItemId] = _billingItem;\n        // emit BillingItemCreated(billingUnitHash);\n        return true;\n    }\n\n    /**\n     * @dev Pushes a new billing unit to the stack\n     * @param _id The hash of the work item to be added\n     * @param _parent The parent work item\n     */\n    function addWorkItem(bytes32 _id, bytes32 _parent)\n        public\n        onlyGeneralContractor\n        returns (bool success)\n    {\n        require(\n            workItems[_parent].id != 0x0 || BOQs[_parent].exists,\n            'Parent is not specified.'\n        );\n        require(workItems[_id].id == 0x0, 'Work Item is already specified.'); // require(workItems[_id].progress < WorkItemProgress.INITIALIZED);\n\n        workItems[_id] = WorkItem({\n            id: _id,\n            parent: _parent,\n            items: new bytes32[](0),\n            progress: WorkItemProgress.INITIALIZED\n        });\n        if (BOQs[_parent].exists) {\n            BOQs[_parent].items.push(_id);\n        } else {\n            workItems[_parent].items.push(_id);\n        }\n        return true;\n    }\n\n    /**\n     * @dev Sets the progress of a work item and all of its subitems to a predefined state\n     * @param _id The hash of the work item to be updated\n     * @param _progress The state as uint to set the progress of the work item (0=INITIALIZED, 1=STARTED, 2=STOPPED, 3=FINISHED)\n     */\n    function setWorkItemProgress(bytes32 _id, uint256 _progress)\n        public\n        returns (bool success)\n    {\n        require(uint256(workItems[_id].progress) < _progress);\n        workItems[_id].progress = WorkItemProgress(_progress);\n        for (uint256 i = 0; i < workItems[_id].items.length; i++) {\n            bytes32 itemId = workItems[_id].items[i];\n            if (uint256(workItems[itemId].progress) < _progress) {\n                setWorkItemProgress(itemId, _progress);\n            }\n        }\n        emit WorkItemProgressChange(_id, WorkItemProgress(_progress));\n        return true;\n    }\n}\n",
  "sourcePath": "C:\\Users\\fabia\\WebstormProjects\\bim-contracts\\contracts\\ConstructionProject.sol",
  "compiler": {
    "name": "solc",
    "version": "0.5.16+commit.9c3226ce.Emscripten.clang"
  },
  "schemaVersion": "3.2.3",
  "updatedAt": "2020-09-01T15:21:59.133Z",
  "devdoc": {
    "details": "Store & retreive value in a variable",
    "methods": {
      "addBOQ(bytes32)": {
        "details": "Adds a new Bill of Quantity",
        "params": {
          "_BOQ": "The hash of the BOQ"
        }
      },
      "addBillingItem(bytes32,bytes32)": {
        "details": "Pushes a new billing item to the stack",
        "params": {
          "_billingItem": "The hash of the billing item",
          "_workItemId": "The hash of the work item which emits payment when ready"
        }
      },
      "addWorkItem(bytes32,bytes32)": {
        "details": "Pushes a new billing unit to the stack",
        "params": {
          "_id": "The hash of the work item to be added",
          "_parent": "The parent work item"
        }
      },
      "constructor": {
        "details": "Instantiates a Contract Manager factory with initial values"
      },
      "registerSubContractor()": {
        "details": "Registers sub contractor"
      },
      "setWorkItemProgress(bytes32,uint256)": {
        "details": "Sets the progress of a work item and all of its subitems to a predefined state",
        "params": {
          "_id": "The hash of the work item to be updated",
          "_progress": "The state as uint to set the progress of the work item (0=INITIALIZED, 1=STARTED, 2=STOPPED, 3=FINISHED)"
        }
      }
    },
    "title": "ConstructionProject"
  },
  "userdoc": {
    "methods": {}
  }
}