{
  "contractName": "ConstructionProjectFactory",
  "abi": [
    {
      "inputs": [],
      "payable": false,
      "stateMutability": "nonpayable",
      "type": "constructor"
    },
    {
      "anonymous": false,
      "inputs": [
        {
          "indexed": true,
          "internalType": "address",
          "name": "contractAddress",
          "type": "address"
        }
      ],
      "name": "ConstructionProjectCreated",
      "type": "event"
    },
    {
      "constant": true,
      "inputs": [],
      "name": "admin",
      "outputs": [
        {
          "internalType": "address",
          "name": "",
          "type": "address"
        }
      ],
      "payable": false,
      "stateMutability": "view",
      "type": "function"
    },
    {
      "constant": true,
      "inputs": [],
      "name": "generalContractor",
      "outputs": [
        {
          "internalType": "address",
          "name": "",
          "type": "address"
        }
      ],
      "payable": false,
      "stateMutability": "view",
      "type": "function"
    },
    {
      "constant": true,
      "inputs": [
        {
          "internalType": "address",
          "name": "",
          "type": "address"
        }
      ],
      "name": "ownerProjectCount",
      "outputs": [
        {
          "internalType": "uint256",
          "name": "",
          "type": "uint256"
        }
      ],
      "payable": false,
      "stateMutability": "view",
      "type": "function"
    },
    {
      "constant": true,
      "inputs": [
        {
          "internalType": "uint256",
          "name": "",
          "type": "uint256"
        }
      ],
      "name": "projects",
      "outputs": [
        {
          "internalType": "address",
          "name": "contractAddress",
          "type": "address"
        },
        {
          "internalType": "address",
          "name": "owner",
          "type": "address"
        }
      ],
      "payable": false,
      "stateMutability": "view",
      "type": "function"
    },
    {
      "constant": false,
      "inputs": [],
      "name": "registerGeneralContractor",
      "outputs": [],
      "payable": false,
      "stateMutability": "nonpayable",
      "type": "function"
    },
    {
      "constant": true,
      "inputs": [
        {
          "internalType": "address",
          "name": "_owner",
          "type": "address"
        }
      ],
      "name": "getProjectsByOwner",
      "outputs": [
        {
          "internalType": "address[]",
          "name": "projectContracts",
          "type": "address[]"
        }
      ],
      "payable": false,
      "stateMutability": "view",
      "type": "function"
    },
    {
      "constant": false,
      "inputs": [],
      "name": "createConstructionProject",
      "outputs": [
        {
          "internalType": "bool",
          "name": "",
          "type": "bool"
        }
      ],
      "payable": false,
      "stateMutability": "nonpayable",
      "type": "function"
    }
  ],
  "bytecode": "0x608060405234801561001057600080fd5b50336000806101000a81548173ffffffffffffffffffffffffffffffffffffffff021916908373ffffffffffffffffffffffffffffffffffffffff16021790555061156c806100606000396000f3fe608060405234801561001057600080fd5b506004361061007d5760003560e01c80639d9cc2fe1161005b5780639d9cc2fe14610185578063cb8e054f1461021e578063f6696b9d14610268578063f851a4401461028a5761007d565b8063107046bd146100825780631b26a7a51461012357806323ad46cd1461017b575b600080fd5b6100ae6004803603602081101561009857600080fd5b81019080803590602001909291905050506102d4565b604051808373ffffffffffffffffffffffffffffffffffffffff1673ffffffffffffffffffffffffffffffffffffffff1681526020018273ffffffffffffffffffffffffffffffffffffffff1673ffffffffffffffffffffffffffffffffffffffff1681526020019250505060405180910390f35b6101656004803603602081101561013957600080fd5b81019080803573ffffffffffffffffffffffffffffffffffffffff169060200190929190505050610345565b6040518082815260200191505060405180910390f35b61018361035d565b005b6101c76004803603602081101561019b57600080fd5b81019080803573ffffffffffffffffffffffffffffffffffffffff1690602001909291905050506103a0565b6040518080602001828103825283818151815260200191508051906020019060200280838360005b8381101561020a5780820151818401526020810190506101ef565b505050509050019250505060405180910390f35b610226610544565b604051808273ffffffffffffffffffffffffffffffffffffffff1673ffffffffffffffffffffffffffffffffffffffff16815260200191505060405180910390f35b61027061056a565b604051808215151515815260200191505060405180910390f35b610292610740565b604051808273ffffffffffffffffffffffffffffffffffffffff1673ffffffffffffffffffffffffffffffffffffffff16815260200191505060405180910390f35b600281815481106102e157fe5b90600052602060002090600202016000915090508060000160009054906101000a900473ffffffffffffffffffffffffffffffffffffffff16908060010160009054906101000a900473ffffffffffffffffffffffffffffffffffffffff16905082565b60036020528060005260406000206000915090505481565b33600160006101000a81548173ffffffffffffffffffffffffffffffffffffffff021916908373ffffffffffffffffffffffffffffffffffffffff160217905550565b606080600360008473ffffffffffffffffffffffffffffffffffffffff1673ffffffffffffffffffffffffffffffffffffffff168152602001908152602001600020546040519080825280602002602001820160405280156104115781602001602082028038833980820191505090505b509050600080905060008090505b600280549050811015610539578473ffffffffffffffffffffffffffffffffffffffff166002828154811061045057fe5b906000526020600020906002020160010160009054906101000a900473ffffffffffffffffffffffffffffffffffffffff1673ffffffffffffffffffffffffffffffffffffffff16141561052c57600281815481106104ab57fe5b906000526020600020906002020160000160009054906101000a900473ffffffffffffffffffffffffffffffffffffffff168383815181106104e957fe5b602002602001019073ffffffffffffffffffffffffffffffffffffffff16908173ffffffffffffffffffffffffffffffffffffffff168152505081806001019250505b808060010191505061041f565b508192505050919050565b600160009054906101000a900473ffffffffffffffffffffffffffffffffffffffff1681565b60008060405161057990610765565b604051809103906000f080158015610595573d6000803e3d6000fd5b5090506105a0610772565b60405180604001604052808373ffffffffffffffffffffffffffffffffffffffff1681526020013373ffffffffffffffffffffffffffffffffffffffff1681525090506001600360003373ffffffffffffffffffffffffffffffffffffffff1673ffffffffffffffffffffffffffffffffffffffff168152602001908152602001600020600082825401925050819055506002819080600181540180825580915050906001820390600052602060002090600202016000909192909190915060008201518160000160006101000a81548173ffffffffffffffffffffffffffffffffffffffff021916908373ffffffffffffffffffffffffffffffffffffffff16021790555060208201518160010160006101000a81548173ffffffffffffffffffffffffffffffffffffffff021916908373ffffffffffffffffffffffffffffffffffffffff160217905550505050806000015173ffffffffffffffffffffffffffffffffffffffff167fa5771d8944557ae3022bc244ed31c87adfab9057f641f4b38bdf39c34a80f4f960405160405180910390a260019250505090565b6000809054906101000a900473ffffffffffffffffffffffffffffffffffffffff1681565b610d7f806107b983390190565b6040518060400160405280600073ffffffffffffffffffffffffffffffffffffffff168152602001600073ffffffffffffffffffffffffffffffffffffffff168152509056fe608060405234801561001057600080fd5b50336000806101000a81548173ffffffffffffffffffffffffffffffffffffffff021916908373ffffffffffffffffffffffffffffffffffffffff160217905550610d1f806100606000396000f3fe608060405234801561001057600080fd5b50600436106100885760003560e01c8063ca5f158d1161005b578063ca5f158d146101c9578063cb8e054f146101d3578063dfdd78ca1461021d578063f0cccf981461026d57610088565b8063099e47b11461008d5780636c03b400146100dd5780638f13eda91461012757806390d698d314610183575b600080fd5b6100c3600480360360408110156100a357600080fd5b8101908080359060200190929190803590602001909291905050506102bd565b604051808215151515815260200191505060405180910390f35b6100e56103a3565b604051808273ffffffffffffffffffffffffffffffffffffffff1673ffffffffffffffffffffffffffffffffffffffff16815260200191505060405180910390f35b6101696004803603602081101561013d57600080fd5b81019080803573ffffffffffffffffffffffffffffffffffffffff1690602001909291905050506103c9565b604051808215151515815260200191505060405180910390f35b6101af6004803603602081101561019957600080fd5b81019080803590602001909291905050506103e9565b604051808215151515815260200191505060405180910390f35b6101d16105d7565b005b6101db6106f3565b604051808273ffffffffffffffffffffffffffffffffffffffff1673ffffffffffffffffffffffffffffffffffffffff16815260200191505060405180910390f35b6102536004803603604081101561023357600080fd5b810190808035906020019092919080359060200190929190505050610718565b604051808215151515815260200191505060405180910390f35b6102a36004803603604081101561028357600080fd5b810190808035906020019092919080359060200190929190505050610899565b604051808215151515815260200191505060405180910390f35b60008060009054906101000a900473ffffffffffffffffffffffffffffffffffffffff1673ffffffffffffffffffffffffffffffffffffffff163373ffffffffffffffffffffffffffffffffffffffff1614610381576040517f08c379a000000000000000000000000000000000000000000000000000000000815260040180806020018281038252600e8152602001807f4e6f207065726d697373696f6e2e00000000000000000000000000000000000081525060200191505060405180910390fd5b8260056000848152602001908152602001600020819055506001905092915050565b600160009054906101000a900473ffffffffffffffffffffffffffffffffffffffff1681565b60026020528060005260406000206000915054906101000a900460ff1681565b60008060009054906101000a900473ffffffffffffffffffffffffffffffffffffffff1673ffffffffffffffffffffffffffffffffffffffff163373ffffffffffffffffffffffffffffffffffffffff16146104ad576040517f08c379a000000000000000000000000000000000000000000000000000000000815260040180806020018281038252600e8152602001807f4e6f207065726d697373696f6e2e00000000000000000000000000000000000081525060200191505060405180910390fd5b6003600083815260200190815260200160002060000160009054906101000a900460ff1615610544576040517f08c379a00000000000000000000000000000000000000000000000000000000081526004018080602001828103825260168152602001807f424f5120616c7265616479207370656369666965642e0000000000000000000081525060200191505060405180910390fd5b60006040519080825280602002602001820160405280156105745781602001602082028038833980820191505090505b5060036000848152602001908152602001600020600101908051906020019061059e929190610c2b565b5060016003600084815260200190815260200160002060000160006101000a81548160ff02191690831515021790555060019050919050565b6000809054906101000a900473ffffffffffffffffffffffffffffffffffffffff1673ffffffffffffffffffffffffffffffffffffffff163373ffffffffffffffffffffffffffffffffffffffff1614610699576040517f08c379a000000000000000000000000000000000000000000000000000000000815260040180806020018281038252600e8152602001807f4e6f207065726d697373696f6e2e00000000000000000000000000000000000081525060200191505060405180910390fd5b6001600260003373ffffffffffffffffffffffffffffffffffffffff1673ffffffffffffffffffffffffffffffffffffffff16815260200190815260200160002060006101000a81548160ff021916908315150217905550565b6000809054906101000a900473ffffffffffffffffffffffffffffffffffffffff1681565b6000816004600085815260200190815260200160002060030160009054906101000a900460ff16600381111561074a57fe5b1061075457600080fd5b81600381111561076057fe5b6004600085815260200190815260200160002060030160006101000a81548160ff0219169083600381111561079157fe5b021790555060008090505b600460008581526020019081526020016000206002018054905081101561083d5760006004600086815260200190815260200160002060020182815481106107e057fe5b90600052602060002001549050836004600083815260200190815260200160002060030160009054906101000a900460ff16600381111561081d57fe5b101561082f5761082d8185610718565b505b50808060010191505061079c565b50827f39f4579fe037f1f2dacbbe9f93f835c2fe2d905dad6c62e8cf6cfef14804a7ae83600381111561086c57fe5b6040518082600381111561087c57fe5b60ff16815260200191505060405180910390a26001905092915050565b60008060009054906101000a900473ffffffffffffffffffffffffffffffffffffffff1673ffffffffffffffffffffffffffffffffffffffff163373ffffffffffffffffffffffffffffffffffffffff161461095d576040517f08c379a000000000000000000000000000000000000000000000000000000000815260040180806020018281038252600e8152602001807f4e6f207065726d697373696f6e2e00000000000000000000000000000000000081525060200191505060405180910390fd5b6000801b60046000848152602001908152602001600020600001541415806109a557506003600083815260200190815260200160002060000160009054906101000a900460ff165b610a17576040517f08c379a00000000000000000000000000000000000000000000000000000000081526004018080602001828103825260188152602001807f506172656e74206973206e6f74207370656369666965642e000000000000000081525060200191505060405180910390fd5b6000801b600460008581526020019081526020016000206000015414610aa5576040517f08c379a000000000000000000000000000000000000000000000000000000000815260040180806020018281038252601f8152602001807f576f726b204974656d20697320616c7265616479207370656369666965642e0081525060200191505060405180910390fd5b60405180608001604052808481526020018381526020016000604051908082528060200260200182016040528015610aec5781602001602082028038833980820191505090505b50815260200160006003811115610aff57fe5b8152506004600085815260200190815260200160002060008201518160000155602082015181600101556040820151816002019080519060200190610b45929190610c78565b5060608201518160030160006101000a81548160ff02191690836003811115610b6a57fe5b02179055509050506003600083815260200190815260200160002060000160009054906101000a900460ff1615610be05760036000838152602001908152602001600020600101839080600181540180825580915050906001820390600052602060002001600090919290919091505550610c21565b600460008381526020019081526020016000206002018390806001815401808255809150509060018203906000526020600020016000909192909190915055505b6001905092915050565b828054828255906000526020600020908101928215610c67579160200282015b82811115610c66578251825591602001919060010190610c4b565b5b509050610c749190610cc5565b5090565b828054828255906000526020600020908101928215610cb4579160200282015b82811115610cb3578251825591602001919060010190610c98565b5b509050610cc19190610cc5565b5090565b610ce791905b80821115610ce3576000816000905550600101610ccb565b5090565b9056fea265627a7a723158203d0723f1bbdec5d8a05e6cb9dc4251c8683fcd9d36d49bad78b11d698d581c2b64736f6c63430005100032a265627a7a72315820607e4aadcb7ca8b47bc8a56ac37583aafaeab178af434862e9ebe1810bc289d664736f6c63430005100032",
  "source": "// SPDX-License-Identifier: MIT\npragma solidity >=0.4.21 <0.7.0;\n\n// import '@openzeppelin/contracts/access/Roles.sol';\n\nimport './ConstructionProject.sol';\n\n/**\n * @title ConstructionProjectFactory\n * @dev Store & retreive value in a variable\n */\n\ncontract ConstructionProjectFactory {\n    event ConstructionProjectCreated(address indexed contractAddress);\n\n    struct ProjectEntry {\n        address contractAddress;\n        address owner;\n    }\n\n    address public admin; // Superadmin\n    address public generalContractor; // Rolle Generalunternehmer\n\n    ProjectEntry[] public projects;\n    mapping(address => uint256) public ownerProjectCount;\n\n    modifier onlyGeneralContractor {\n        require(msg.sender == generalContractor, 'No permission.');\n        _;\n    }\n\n    /**\n     * @dev Instantiates a Contract Manager factory with initial values\n     */\n    constructor() public {\n        admin = msg.sender;\n    }\n\n    /**\n     * @dev Registers general contractor\n     */\n    function registerGeneralContractor() public {\n        generalContractor = msg.sender;\n    }\n\n    /**\n     * @dev Retrieves collection of construction project contract addresses\n     */\n    function getProjectsByOwner(address _owner)\n        public\n        view\n        returns (address[] memory projectContracts)\n    {\n        address[] memory result = new address[](ownerProjectCount[_owner]);\n        uint256 counter = 0;\n\n        for (uint256 i = 0; i < projects.length; i++) {\n            if (projects[i].owner == _owner) {\n                result[counter] = projects[i].contractAddress;\n                counter++;\n            }\n        }\n        return result;\n    }\n\n    /**\n     * @dev Creates a new construction project\n     */\n    function createConstructionProject() public returns (bool) {\n        ConstructionProject project = new ConstructionProject();\n        ProjectEntry memory constructionProject = ProjectEntry(\n            address(project),\n            msg.sender\n        );\n        ownerProjectCount[msg.sender] += 1;\n        projects.push(constructionProject);\n        emit ConstructionProjectCreated(constructionProject.contractAddress);\n        return true;\n    }\n}\n",
  "sourcePath": "C:/Users/fabia/WebstormProjects/bim-contracts/contracts/ConstructionProjectFactory.sol",
  "compiler": {
    "name": "solc",
    "version": "0.5.16+commit.9c3226ce.Emscripten.clang"
  },
  "schemaVersion": "3.2.3",
  "updatedAt": "2020-08-25T17:39:36.441Z",
  "networkType": "ethereum",
  "devdoc": {
    "details": "Store & retreive value in a variable",
    "methods": {
      "constructor": {
        "details": "Instantiates a Contract Manager factory with initial values"
      },
      "createConstructionProject()": {
        "details": "Creates a new construction project"
      },
      "getProjectsByOwner(address)": {
        "details": "Retrieves collection of construction project contract addresses"
      },
      "registerGeneralContractor()": {
        "details": "Registers general contractor"
      }
    },
    "title": "ConstructionProjectFactory"
  },
  "userdoc": {
    "methods": {}
  }
}