{
  "contractName": "ContractManager",
  "abi": [
    {
      "inputs": [],
      "payable": false,
      "stateMutability": "nonpayable",
      "type": "constructor"
    },
    {
      "anonymous": false,
      "inputs": [
        {
          "indexed": true,
          "internalType": "uint256",
          "name": "index",
          "type": "uint256"
        }
      ],
      "name": "ConstructionProjectCreated",
      "type": "event"
    },
    {
      "constant": true,
      "inputs": [],
      "name": "admin",
      "outputs": [
        {
          "internalType": "address",
          "name": "",
          "type": "address"
        }
      ],
      "payable": false,
      "stateMutability": "view",
      "type": "function"
    },
    {
      "constant": true,
      "inputs": [
        {
          "internalType": "uint256",
          "name": "",
          "type": "uint256"
        }
      ],
      "name": "constructionProjects",
      "outputs": [
        {
          "internalType": "contract ConstructionProject",
          "name": "",
          "type": "address"
        }
      ],
      "payable": false,
      "stateMutability": "view",
      "type": "function"
    },
    {
      "constant": true,
      "inputs": [],
      "name": "generalContractor",
      "outputs": [
        {
          "internalType": "address",
          "name": "",
          "type": "address"
        }
      ],
      "payable": false,
      "stateMutability": "view",
      "type": "function"
    },
    {
      "constant": false,
      "inputs": [],
      "name": "registerGeneralContractor",
      "outputs": [],
      "payable": false,
      "stateMutability": "nonpayable",
      "type": "function"
    },
    {
      "constant": true,
      "inputs": [],
      "name": "getProjectsLength",
      "outputs": [
        {
          "internalType": "uint256",
          "name": "projectsLength",
          "type": "uint256"
        }
      ],
      "payable": false,
      "stateMutability": "view",
      "type": "function"
    },
    {
      "constant": false,
      "inputs": [],
      "name": "createConstructionProject",
      "outputs": [
        {
          "internalType": "bool",
          "name": "success",
          "type": "bool"
        }
      ],
      "payable": false,
      "stateMutability": "nonpayable",
      "type": "function"
    }
  ],
  "bytecode": "0x608060405234801561001057600080fd5b50336000806101000a81548173ffffffffffffffffffffffffffffffffffffffff021916908373ffffffffffffffffffffffffffffffffffffffff1602179055506111d7806100606000396000f3fe608060405234801561001057600080fd5b50600436106100625760003560e01c806315eda9301461006757806323ad46cd146100d5578063c6bdc0a2146100df578063cb8e054f146100fd578063f6696b9d14610147578063f851a44014610169575b600080fd5b6100936004803603602081101561007d57600080fd5b81019080803590602001909291905050506101b3565b604051808273ffffffffffffffffffffffffffffffffffffffff1673ffffffffffffffffffffffffffffffffffffffff16815260200191505060405180910390f35b6100dd6101ef565b005b6100e7610232565b6040518082815260200191505060405180910390f35b61010561023f565b604051808273ffffffffffffffffffffffffffffffffffffffff1673ffffffffffffffffffffffffffffffffffffffff16815260200191505060405180910390f35b61014f610265565b604051808215151515815260200191505060405180910390f35b6101716103f1565b604051808273ffffffffffffffffffffffffffffffffffffffff1673ffffffffffffffffffffffffffffffffffffffff16815260200191505060405180910390f35b600281815481106101c057fe5b906000526020600020016000915054906101000a900473ffffffffffffffffffffffffffffffffffffffff1681565b33600160006101000a81548173ffffffffffffffffffffffffffffffffffffffff021916908373ffffffffffffffffffffffffffffffffffffffff160217905550565b6000600280549050905090565b600160009054906101000a900473ffffffffffffffffffffffffffffffffffffffff1681565b6000600160009054906101000a900473ffffffffffffffffffffffffffffffffffffffff1673ffffffffffffffffffffffffffffffffffffffff163373ffffffffffffffffffffffffffffffffffffffff161461032a576040517f08c379a000000000000000000000000000000000000000000000000000000000815260040180806020018281038252600e8152602001807f4e6f207065726d697373696f6e2e00000000000000000000000000000000000081525060200191505060405180910390fd5b600260405161033890610416565b604051809103906000f080158015610354573d6000803e3d6000fd5b5090806001815401808255809150509060018203906000526020600020016000909192909190916101000a81548173ffffffffffffffffffffffffffffffffffffffff021916908373ffffffffffffffffffffffffffffffffffffffff160217905550506002805490507f52a7b1a4c0d2e64ca94de2c139082187b166fd7854f15c760fc8a8626b15f4cc60405160405180910390a26001905090565b6000809054906101000a900473ffffffffffffffffffffffffffffffffffffffff1681565b610d7f806104248339019056fe608060405234801561001057600080fd5b50336000806101000a81548173ffffffffffffffffffffffffffffffffffffffff021916908373ffffffffffffffffffffffffffffffffffffffff160217905550610d1f806100606000396000f3fe608060405234801561001057600080fd5b50600436106100885760003560e01c8063ca5f158d1161005b578063ca5f158d146101c9578063cb8e054f146101d3578063dfdd78ca1461021d578063f0cccf981461026d57610088565b8063099e47b11461008d5780636c03b400146100dd5780638f13eda91461012757806390d698d314610183575b600080fd5b6100c3600480360360408110156100a357600080fd5b8101908080359060200190929190803590602001909291905050506102bd565b604051808215151515815260200191505060405180910390f35b6100e56103a3565b604051808273ffffffffffffffffffffffffffffffffffffffff1673ffffffffffffffffffffffffffffffffffffffff16815260200191505060405180910390f35b6101696004803603602081101561013d57600080fd5b81019080803573ffffffffffffffffffffffffffffffffffffffff1690602001909291905050506103c9565b604051808215151515815260200191505060405180910390f35b6101af6004803603602081101561019957600080fd5b81019080803590602001909291905050506103e9565b604051808215151515815260200191505060405180910390f35b6101d16105d7565b005b6101db6106f3565b604051808273ffffffffffffffffffffffffffffffffffffffff1673ffffffffffffffffffffffffffffffffffffffff16815260200191505060405180910390f35b6102536004803603604081101561023357600080fd5b810190808035906020019092919080359060200190929190505050610718565b604051808215151515815260200191505060405180910390f35b6102a36004803603604081101561028357600080fd5b810190808035906020019092919080359060200190929190505050610899565b604051808215151515815260200191505060405180910390f35b60008060009054906101000a900473ffffffffffffffffffffffffffffffffffffffff1673ffffffffffffffffffffffffffffffffffffffff163373ffffffffffffffffffffffffffffffffffffffff1614610381576040517f08c379a000000000000000000000000000000000000000000000000000000000815260040180806020018281038252600e8152602001807f4e6f207065726d697373696f6e2e00000000000000000000000000000000000081525060200191505060405180910390fd5b8260056000848152602001908152602001600020819055506001905092915050565b600160009054906101000a900473ffffffffffffffffffffffffffffffffffffffff1681565b60026020528060005260406000206000915054906101000a900460ff1681565b60008060009054906101000a900473ffffffffffffffffffffffffffffffffffffffff1673ffffffffffffffffffffffffffffffffffffffff163373ffffffffffffffffffffffffffffffffffffffff16146104ad576040517f08c379a000000000000000000000000000000000000000000000000000000000815260040180806020018281038252600e8152602001807f4e6f207065726d697373696f6e2e00000000000000000000000000000000000081525060200191505060405180910390fd5b6003600083815260200190815260200160002060000160009054906101000a900460ff1615610544576040517f08c379a00000000000000000000000000000000000000000000000000000000081526004018080602001828103825260168152602001807f424f5120616c7265616479207370656369666965642e0000000000000000000081525060200191505060405180910390fd5b60006040519080825280602002602001820160405280156105745781602001602082028038833980820191505090505b5060036000848152602001908152602001600020600101908051906020019061059e929190610c2b565b5060016003600084815260200190815260200160002060000160006101000a81548160ff02191690831515021790555060019050919050565b6000809054906101000a900473ffffffffffffffffffffffffffffffffffffffff1673ffffffffffffffffffffffffffffffffffffffff163373ffffffffffffffffffffffffffffffffffffffff1614610699576040517f08c379a000000000000000000000000000000000000000000000000000000000815260040180806020018281038252600e8152602001807f4e6f207065726d697373696f6e2e00000000000000000000000000000000000081525060200191505060405180910390fd5b6001600260003373ffffffffffffffffffffffffffffffffffffffff1673ffffffffffffffffffffffffffffffffffffffff16815260200190815260200160002060006101000a81548160ff021916908315150217905550565b6000809054906101000a900473ffffffffffffffffffffffffffffffffffffffff1681565b6000816004600085815260200190815260200160002060030160009054906101000a900460ff16600381111561074a57fe5b1061075457600080fd5b81600381111561076057fe5b6004600085815260200190815260200160002060030160006101000a81548160ff0219169083600381111561079157fe5b021790555060008090505b600460008581526020019081526020016000206002018054905081101561083d5760006004600086815260200190815260200160002060020182815481106107e057fe5b90600052602060002001549050836004600083815260200190815260200160002060030160009054906101000a900460ff16600381111561081d57fe5b101561082f5761082d8185610718565b505b50808060010191505061079c565b50827f39f4579fe037f1f2dacbbe9f93f835c2fe2d905dad6c62e8cf6cfef14804a7ae83600381111561086c57fe5b6040518082600381111561087c57fe5b60ff16815260200191505060405180910390a26001905092915050565b60008060009054906101000a900473ffffffffffffffffffffffffffffffffffffffff1673ffffffffffffffffffffffffffffffffffffffff163373ffffffffffffffffffffffffffffffffffffffff161461095d576040517f08c379a000000000000000000000000000000000000000000000000000000000815260040180806020018281038252600e8152602001807f4e6f207065726d697373696f6e2e00000000000000000000000000000000000081525060200191505060405180910390fd5b6000801b60046000848152602001908152602001600020600001541415806109a557506003600083815260200190815260200160002060000160009054906101000a900460ff165b610a17576040517f08c379a00000000000000000000000000000000000000000000000000000000081526004018080602001828103825260188152602001807f506172656e74206973206e6f74207370656369666965642e000000000000000081525060200191505060405180910390fd5b6000801b600460008581526020019081526020016000206000015414610aa5576040517f08c379a000000000000000000000000000000000000000000000000000000000815260040180806020018281038252601f8152602001807f576f726b204974656d20697320616c7265616479207370656369666965642e0081525060200191505060405180910390fd5b60405180608001604052808481526020018381526020016000604051908082528060200260200182016040528015610aec5781602001602082028038833980820191505090505b50815260200160006003811115610aff57fe5b8152506004600085815260200190815260200160002060008201518160000155602082015181600101556040820151816002019080519060200190610b45929190610c78565b5060608201518160030160006101000a81548160ff02191690836003811115610b6a57fe5b02179055509050506003600083815260200190815260200160002060000160009054906101000a900460ff1615610be05760036000838152602001908152602001600020600101839080600181540180825580915050906001820390600052602060002001600090919290919091505550610c21565b600460008381526020019081526020016000206002018390806001815401808255809150509060018203906000526020600020016000909192909190915055505b6001905092915050565b828054828255906000526020600020908101928215610c67579160200282015b82811115610c66578251825591602001919060010190610c4b565b5b509050610c749190610cc5565b5090565b828054828255906000526020600020908101928215610cb4579160200282015b82811115610cb3578251825591602001919060010190610c98565b5b509050610cc19190610cc5565b5090565b610ce791905b80821115610ce3576000816000905550600101610ccb565b5090565b9056fea265627a7a7231582007bed6262a0597b0f6cbb56c0323948f9bd90f7ef14e03329490c611194c7dd964736f6c63430005100032a265627a7a723158201aed3caa4ef989ed5bc08013a1dec19a9cc6d858490dcc755e1409188ba9412c64736f6c63430005100032",
  "source": "// SPDX-License-Identifier: MIT\npragma solidity >=0.4.21 <0.7.0;\n\nimport './ConstructionProject.sol';\n\n/**\n * @title ContractManager\n * @dev Store & retreive value in a variable\n */\n\ncontract ContractManager {\n    event ConstructionProjectCreated(uint256 indexed index);\n\n    address public admin; // Superadmin\n    address public generalContractor; // Rolle Generalunternehmer\n\n    ConstructionProject[] public constructionProjects;\n\n    modifier onlyGeneralContractor {\n        require(msg.sender == generalContractor, 'No permission.');\n        _;\n    }\n\n    /**\n     * @dev Instantiates a Contract Manager factory with initial values\n     */\n    constructor() public {\n        admin = msg.sender;\n    }\n\n    /**\n     * @dev Registers general contractor\n     */\n    function registerGeneralContractor() public {\n        generalContractor = msg.sender;\n    }\n\n    /**\n     * @dev Counts number of construction projects\n     */\n    function getProjectsLength() public view returns (uint256 projectsLength) {\n        return constructionProjects.length;\n    }\n\n    /**\n     * @dev Creates a new construction project\n     */\n    function createConstructionProject()\n        public\n        onlyGeneralContractor\n        returns (bool success)\n    {\n        constructionProjects.push(new ConstructionProject());\n        emit ConstructionProjectCreated(constructionProjects.length);\n        return true;\n    }\n}\n",
  "sourcePath": "C:/Users/fabia/WebstormProjects/bim-contracts/contracts/ContractManager.sol",
  "compiler": {
    "name": "solc",
    "version": "0.5.16+commit.9c3226ce.Emscripten.clang"
  },
  "schemaVersion": "3.2.3",
  "updatedAt": "2020-08-22T12:08:45.694Z",
  "networkType": "ethereum",
  "devdoc": {
    "details": "Store & retreive value in a variable",
    "methods": {
      "constructor": {
        "details": "Instantiates a Contract Manager factory with initial values"
      },
      "createConstructionProject()": {
        "details": "Creates a new construction project"
      },
      "getProjectsLength()": {
        "details": "Counts number of construction projects"
      },
      "registerGeneralContractor()": {
        "details": "Registers general contractor"
      }
    },
    "title": "ContractManager"
  },
  "userdoc": {
    "methods": {}
  }
}