{
  "contractName": "ServiceAgreement",
  "abi": [
    {
      "constant": false,
      "inputs": [
        {
          "internalType": "bytes32",
          "name": "_agreement",
          "type": "bytes32"
        },
        {
          "internalType": "bytes32",
          "name": "_root",
          "type": "bytes32"
        },
        {
          "internalType": "address",
          "name": "_contractor",
          "type": "address"
        }
      ],
      "name": "createAgreement",
      "outputs": [
        {
          "internalType": "bool",
          "name": "",
          "type": "bool"
        }
      ],
      "payable": false,
      "stateMutability": "nonpayable",
      "type": "function"
    },
    {
      "constant": false,
      "inputs": [
        {
          "internalType": "bytes32",
          "name": "_agreement",
          "type": "bytes32"
        },
        {
          "internalType": "bytes32",
          "name": "_parent",
          "type": "bytes32"
        },
        {
          "internalType": "bytes32[]",
          "name": "_children",
          "type": "bytes32[]"
        },
        {
          "internalType": "bytes32[]",
          "name": "_billings",
          "type": "bytes32[]"
        }
      ],
      "name": "addServices",
      "outputs": [
        {
          "internalType": "bool",
          "name": "",
          "type": "bool"
        }
      ],
      "payable": false,
      "stateMutability": "nonpayable",
      "type": "function"
    },
    {
      "constant": true,
      "inputs": [],
      "name": "getAgreementsByClient",
      "outputs": [
        {
          "internalType": "bytes32[]",
          "name": "",
          "type": "bytes32[]"
        }
      ],
      "payable": false,
      "stateMutability": "view",
      "type": "function"
    },
    {
      "constant": true,
      "inputs": [],
      "name": "getAgreementsByContractor",
      "outputs": [
        {
          "internalType": "bytes32[]",
          "name": "",
          "type": "bytes32[]"
        }
      ],
      "payable": false,
      "stateMutability": "view",
      "type": "function"
    },
    {
      "constant": true,
      "inputs": [
        {
          "internalType": "bytes32",
          "name": "_service",
          "type": "bytes32"
        }
      ],
      "name": "getAgreementsByService",
      "outputs": [
        {
          "internalType": "bytes32[]",
          "name": "",
          "type": "bytes32[]"
        }
      ],
      "payable": false,
      "stateMutability": "view",
      "type": "function"
    },
    {
      "constant": true,
      "inputs": [
        {
          "internalType": "bytes32",
          "name": "_agreement",
          "type": "bytes32"
        },
        {
          "internalType": "bytes32",
          "name": "_parent",
          "type": "bytes32"
        }
      ],
      "name": "getServicesByAgreement",
      "outputs": [
        {
          "internalType": "bytes32[]",
          "name": "",
          "type": "bytes32[]"
        }
      ],
      "payable": false,
      "stateMutability": "view",
      "type": "function"
    },
    {
      "constant": true,
      "inputs": [
        {
          "internalType": "bytes32",
          "name": "_agreement",
          "type": "bytes32"
        },
        {
          "internalType": "bytes32",
          "name": "_service",
          "type": "bytes32"
        }
      ],
      "name": "stageOf",
      "outputs": [
        {
          "internalType": "enum ServiceAgreement.Stages",
          "name": "",
          "type": "uint8"
        }
      ],
      "payable": false,
      "stateMutability": "view",
      "type": "function"
    },
    {
      "constant": false,
      "inputs": [
        {
          "internalType": "bytes32",
          "name": "_agreement",
          "type": "bytes32"
        },
        {
          "internalType": "bytes32",
          "name": "_service",
          "type": "bytes32"
        }
      ],
      "name": "start",
      "outputs": [],
      "payable": false,
      "stateMutability": "nonpayable",
      "type": "function"
    },
    {
      "constant": false,
      "inputs": [
        {
          "internalType": "bytes32",
          "name": "_agreement",
          "type": "bytes32"
        },
        {
          "internalType": "bytes32",
          "name": "_service",
          "type": "bytes32"
        }
      ],
      "name": "finish",
      "outputs": [],
      "payable": false,
      "stateMutability": "nonpayable",
      "type": "function"
    },
    {
      "constant": false,
      "inputs": [
        {
          "internalType": "bytes32",
          "name": "_agreement",
          "type": "bytes32"
        },
        {
          "internalType": "bytes32",
          "name": "_service",
          "type": "bytes32"
        }
      ],
      "name": "approve",
      "outputs": [],
      "payable": false,
      "stateMutability": "nonpayable",
      "type": "function"
    },
    {
      "constant": false,
      "inputs": [
        {
          "internalType": "bytes32",
          "name": "_agreement",
          "type": "bytes32"
        },
        {
          "internalType": "bytes32",
          "name": "_service",
          "type": "bytes32"
        }
      ],
      "name": "pay",
      "outputs": [],
      "payable": false,
      "stateMutability": "nonpayable",
      "type": "function"
    }
  ],
  "bytecode": "0x608060405234801561001057600080fd5b506114af806100206000396000f3fe608060405234801561001057600080fd5b50600436106100a95760003560e01c8063869ce06211610071578063869ce062146102e25780638795eff01461031a57806391f8a6db14610379578063c756bbc7146103b1578063f4c598391461043e578063f630125e146104c1576100a9565b806327260d6b146100ae57806342698a811461011e57806366f125db146102185780636ff14cbc14610250578063756bae5c146102aa575b600080fd5b610104600480360360608110156100c457600080fd5b810190808035906020019092919080359060200190929190803573ffffffffffffffffffffffffffffffffffffffff169060200190929190505050610520565b604051808215151515815260200191505060405180910390f35b6101fe6004803603608081101561013457600080fd5b8101908080359060200190929190803590602001909291908035906020019064010000000081111561016557600080fd5b82018360208201111561017757600080fd5b8035906020019184602083028401116401000000008311171561019957600080fd5b9091929391929390803590602001906401000000008111156101ba57600080fd5b8201836020820111156101cc57600080fd5b803590602001918460208302840111640100000000831117156101ee57600080fd5b9091929391929390505050610746565b604051808215151515815260200191505060405180910390f35b61024e6004803603604081101561022e57600080fd5b8101908080359060200190929190803590602001909291905050506108cd565b005b6102866004803603604081101561026657600080fd5b810190808035906020019092919080359060200190929190505050610b6a565b6040518082600581111561029657fe5b60ff16815260200191505060405180910390f35b6102e0600480360360408110156102c057600080fd5b810190808035906020019092919080359060200190929190505050610ba8565b005b610318600480360360408110156102f857600080fd5b810190808035906020019092919080359060200190929190505050610d68565b005b610322610f4b565b6040518080602001828103825283818151815260200191508051906020019060200280838360005b8381101561036557808201518184015260208101905061034a565b505050509050019250505060405180910390f35b6103af6004803603604081101561038f57600080fd5b810190808035906020019092919080359060200190929190505050610fe0565b005b6103e7600480360360408110156103c757600080fd5b81019080803590602001909291908035906020019092919050505061119f565b6040518080602001828103825283818151815260200191508051906020019060200280838360005b8381101561042a57808201518184015260208101905061040f565b505050509050019250505060405180910390f35b61046a6004803603602081101561045457600080fd5b810190808035906020019092919050505061121e565b6040518080602001828103825283818151815260200191508051906020019060200280838360005b838110156104ad578082015181840152602081019050610492565b505050509050019250505060405180910390f35b6104c9611289565b6040518080602001828103825283818151815260200191508051906020019060200280838360005b8381101561050c5780820151818401526020810190506104f1565b505050509050019250505060405180910390f35b60003360008086815260200190815260200160002060010160006101000a81548173ffffffffffffffffffffffffffffffffffffffff021916908373ffffffffffffffffffffffffffffffffffffffff1602179055508160008086815260200190815260200160002060020160006101000a81548173ffffffffffffffffffffffffffffffffffffffff021916908373ffffffffffffffffffffffffffffffffffffffff16021790555082600080868152602001908152602001600020600001819055506001600080868152602001908152602001600020600301600085815260200190815260200160002060006101000a81548160ff0219169083600581111561062757fe5b0217905550600260008373ffffffffffffffffffffffffffffffffffffffff1673ffffffffffffffffffffffffffffffffffffffff168152602001908152602001600020849080600181540180825580915050906001820390600052602060002001600090919290919091505550600360003373ffffffffffffffffffffffffffffffffffffffff1673ffffffffffffffffffffffffffffffffffffffff16815260200190815260200160002084908060018154018082558091505090600182039060005260206000200160009091929091909150555060046000848152602001908152602001600020849080600181540180825580915050906001820390600052602060002001600090919290919091505550600190509392505050565b600084846000808a81526020019081526020016000206004016000898152602001908152602001600020919061077d929190611408565b5060008090505b838390508110156108be57866000808a815260200190815260200160002060050160008888858181106107b357fe5b9050602002013581526020019081526020016000208190555060016000808a815260200190815260200160002060030160008888858181106107f157fe5b90506020020135815260200190815260200160002060006101000a81548160ff0219169083600581111561082157fe5b02179055506004600087878481811061083657fe5b90506020020135815260200190815260200160002088908060018154018082558091505090600182039060005260206000200160009091929091909150555083838281811061088157fe5b905060200201356001600088888581811061089857fe5b905060200201358152602001908152602001600020819055508080600101915050610784565b50600190509695505050505050565b8160008082815260200190815260200160002060010160009054906101000a900473ffffffffffffffffffffffffffffffffffffffff1673ffffffffffffffffffffffffffffffffffffffff163373ffffffffffffffffffffffffffffffffffffffff16146109a4576040517f08c379a00000000000000000000000000000000000000000000000000000000081526004018080602001828103825260198152602001807f4e6f7420616c6c6f7765642e204f6e6c7920636c69656e742e0000000000000081525060200191505060405180910390fd5b600080600085815260200190815260200160002060050160008481526020019081526020016000205490506004600080868152602001908152602001600020600301600085815260200190815260200160002060006101000a81548160ff02191690836005811115610a1257fe5b0217905550606060046000858152602001908152602001600020805480602002602001604051908101604052809291908181526020018280548015610a7657602002820191906000526020600020905b815481526020019060010190808311610a62575b5050505050905060008090505b8151811015610af25760036005811115610a9957fe5b610ab6838381518110610aa857fe5b602002602001015187610b6a565b6005811115610ac157fe5b1015610ae557610ae4828281518110610ad657fe5b602002602001015186610ba8565b5b8080600101915050610a83565b506000610aff8684610b6a565b905060006005811115610b0e57fe5b816005811115610b1a57fe5b14158015610b3e575060046005811115610b3057fe5b816005811115610b3c57fe5b105b8015610b525750610b518684600461131e565b5b15610b6257610b6186846108cd565b5b505050505050565b6000806000848152602001908152602001600020600301600083815260200190815260200160002060009054906101000a900460ff16905092915050565b8160008082815260200190815260200160002060020160009054906101000a900473ffffffffffffffffffffffffffffffffffffffff1673ffffffffffffffffffffffffffffffffffffffff163373ffffffffffffffffffffffffffffffffffffffff1614610c7f576040517f08c379a000000000000000000000000000000000000000000000000000000000815260040180806020018281038252601d8152602001807f4e6f7420616c6c6f7765642e204f6e6c7920636f6e74726163746f722e00000081525060200191505060405180910390fd5b600080600085815260200190815260200160002060050160008481526020019081526020016000205490506003600080868152602001908152602001600020600301600085815260200190815260200160002060006101000a81548160ff02191690836005811115610ced57fe5b02179055506000610cfe8583610b6a565b905060006005811115610d0d57fe5b816005811115610d1957fe5b14158015610d3d575060036005811115610d2f57fe5b816005811115610d3b57fe5b105b8015610d515750610d508583600361131e565b5b15610d6157610d608583610ba8565b5b5050505050565b606060046000838152602001908152602001600020805480602002602001604051908101604052809291908181526020018280548015610dc757602002820191906000526020600020905b815481526020019060010190808311610db3575b5050505050905060008090505b8151811015610f45576000806000848481518110610dee57fe5b6020026020010151815260200190815260200160002060050160008581526020019081526020016000205490506000610e3a848481518110610e2c57fe5b602002602001015186610b6a565b905060026005811115610e4957fe5b816005811115610e5557fe5b1015610eb7576002600080868681518110610e6c57fe5b60200260200101518152602001908152602001600020600301600087815260200190815260200160002060006101000a81548160ff02191690836005811115610eb157fe5b02179055505b610ed4848481518110610ec657fe5b602002602001015183610b6a565b905060006005811115610ee357fe5b816005811115610eef57fe5b14158015610f13575060026005811115610f0557fe5b816005811115610f1157fe5b105b15610f3657610f35848481518110610f2757fe5b602002602001015183610d68565b5b50508080600101915050610dd4565b50505050565b6060600360003373ffffffffffffffffffffffffffffffffffffffff1673ffffffffffffffffffffffffffffffffffffffff168152602001908152602001600020805480602002602001604051908101604052809291908181526020018280548015610fd657602002820191906000526020600020905b815481526020019060010190808311610fc2575b5050505050905090565b8160008082815260200190815260200160002060010160009054906101000a900473ffffffffffffffffffffffffffffffffffffffff1673ffffffffffffffffffffffffffffffffffffffff163373ffffffffffffffffffffffffffffffffffffffff16146110b7576040517f08c379a00000000000000000000000000000000000000000000000000000000081526004018080602001828103825260198152602001807f4e6f7420616c6c6f7765642e204f6e6c7920636c69656e742e0000000000000081525060200191505060405180910390fd5b600080600085815260200190815260200160002060050160008481526020019081526020016000205490506005600080868152602001908152602001600020600301600085815260200190815260200160002060006101000a81548160ff0219169083600581111561112557fe5b021790555060006111368583610b6a565b90506000600581111561114557fe5b81600581111561115157fe5b14158015611174575060058081111561116657fe5b81600581111561117257fe5b105b801561118857506111878583600561131e565b5b15611198576111978583610fe0565b5b5050505050565b6060600080848152602001908152602001600020600401600083815260200190815260200160002080548060200260200160405190810160405280929190818152602001828054801561121157602002820191906000526020600020905b8154815260200190600101908083116111fd575b5050505050905092915050565b60606004600083815260200190815260200160002080548060200260200160405190810160405280929190818152602001828054801561127d57602002820191906000526020600020905b815481526020019060010190808311611269575b50505050509050919050565b6060600360003373ffffffffffffffffffffffffffffffffffffffff1673ffffffffffffffffffffffffffffffffffffffff16815260200190815260200160002080548060200260200160405190810160405280929190818152602001828054801561131457602002820191906000526020600020905b815481526020019060010190808311611300575b5050505050905090565b60006060600080868152602001908152602001600020600401600085815260200190815260200160002080548060200260200160405190810160405280929190818152602001828054801561139257602002820191906000526020600020905b81548152602001906001019080831161137e575b5050505050905060008090505b81518110156113fa578360058111156113b457fe5b6113d1878484815181106113c457fe5b6020026020010151610b6a565b60058111156113dc57fe5b10156113ed57600092505050611401565b808060010191505061139f565b5060019150505b9392505050565b828054828255906000526020600020908101928215611444579160200282015b82811115611443578235825591602001919060010190611428565b5b5090506114519190611455565b5090565b61147791905b8082111561147357600081600090555060010161145b565b5090565b9056fea265627a7a72315820870152054fdcf34ca325036ff96e4824a9462aa6f9c5ddb1622bbf069da3187f64736f6c63430005100032",
  "source": "// SPDX-License-Identifier: MIT\npragma solidity >=0.4.21 <0.7.1;\n\ncontract ServiceAgreement {\n    enum Stages {\n        EMPTY, // 0\n        INITIALIZED, // 1\n        STARTED, // 2\n        FINISHED, // 3\n        APPROVED, // 4\n        PAYED // 5\n    }\n\n    mapping(bytes32 => Agreement) agreements;\n    mapping(bytes32 => bytes32) billings;\n    mapping(address => bytes32[]) agreementsByContractor;\n    mapping(address => bytes32[]) agreementsByClient;\n    mapping(bytes32 => bytes32[]) agreementsByService;\n\n    struct Agreement {\n        bytes32 root;\n        address client;\n        address contractor;\n        mapping(bytes32 => Stages) stages;\n        mapping(bytes32 => bytes32[]) services;\n        mapping(bytes32 => bytes32) section;\n    }\n\n    modifier onlyClient(bytes32 _agreement) {\n        require(\n            msg.sender == agreements[_agreement].client,\n            'Not allowed. Only client.'\n        );\n        _;\n    }\n\n    modifier onlyContractor(bytes32 _agreement) {\n        require(\n            msg.sender == agreements[_agreement].contractor,\n            'Not allowed. Only contractor.'\n        );\n        _;\n    }\n\n    function createAgreement(\n        bytes32 _agreement,\n        bytes32 _root,\n        address _contractor\n    ) public returns (bool) {\n        agreements[_agreement].client = msg.sender;\n        agreements[_agreement].contractor = _contractor;\n        agreements[_agreement].root = _root;\n        agreements[_agreement].stages[_root] = Stages.INITIALIZED;\n        agreementsByContractor[_contractor].push(_agreement);\n        agreementsByClient[msg.sender].push(_agreement);\n        agreementsByService[_root].push(_agreement);\n        return true;\n    }\n\n    function addServices(\n        bytes32 _agreement,\n        bytes32 _parent,\n        bytes32[] calldata _children,\n        bytes32[] calldata _billings\n    ) external returns (bool) {\n        agreements[_agreement].services[_parent] = _children;\n        for (uint256 i = 0; i < _billings.length; i++) {\n            agreements[_agreement].section[_children[i]] = _parent;\n            agreements[_agreement].stages[_children[i]] = Stages.INITIALIZED;\n            agreementsByService[_children[i]].push(_agreement);\n            billings[_children[i]] = _billings[i];\n        }\n        return true;\n    }\n\n    function getAgreementsByClient() external view returns (bytes32[] memory) {\n        return agreementsByClient[msg.sender];\n    }\n\n    function getAgreementsByContractor()\n        external\n        view\n        returns (bytes32[] memory)\n    {\n        return agreementsByClient[msg.sender];\n    }\n\n    function getAgreementsByService(bytes32 _service)\n        external\n        view\n        returns (bytes32[] memory)\n    {\n        return agreementsByService[_service];\n    }\n\n    function getServicesByAgreement(bytes32 _agreement, bytes32 _parent)\n        external\n        view\n        returns (bytes32[] memory)\n    {\n        return agreements[_agreement].services[_parent];\n    }\n\n    function stageOf(bytes32 _agreement, bytes32 _service)\n        public\n        view\n        returns (Stages)\n    {\n        return agreements[_agreement].stages[_service];\n    }\n\n    function start(bytes32 _agreement, bytes32 _service) public {\n        bytes32[] memory _related = agreementsByService[_service];\n        for (uint256 i = 0; i < _related.length; i++) {\n            bytes32 parent = agreements[_related[i]].section[_service];\n            Stages stage = stageOf(_related[i], _service);\n            if (uint256(stage) < uint256(Stages.STARTED))\n                agreements[_related[i]].stages[_service] = Stages.STARTED;\n            stage = stageOf(_related[i], parent);\n            if (\n                stage != Stages.EMPTY &&\n                uint256(stage) < uint256(Stages.STARTED)\n            ) start(_related[i], parent);\n        }\n    }\n\n    function finish(bytes32 _agreement, bytes32 _service)\n        public\n        onlyContractor(_agreement)\n    {\n        bytes32 parent = agreements[_agreement].section[_service];\n        agreements[_agreement].stages[_service] = Stages.FINISHED;\n        Stages stage = stageOf(_agreement, parent);\n        if (\n            stage != Stages.EMPTY &&\n            uint256(stage) < uint256(Stages.FINISHED) &&\n            checkChildrenStage(_agreement, parent, Stages.FINISHED)\n        ) {\n            finish(_agreement, parent);\n        }\n    }\n\n    function approve(bytes32 _agreement, bytes32 _service)\n        public\n        onlyClient(_agreement)\n    {\n        bytes32 parent = agreements[_agreement].section[_service];\n        agreements[_agreement].stages[_service] = Stages.APPROVED;\n        bytes32[] memory _related = agreementsByService[_service];\n        for (uint256 i = 0; i < _related.length; i++) {\n            if (\n                uint256(stageOf(_related[i], _service)) <\n                uint256(Stages.FINISHED)\n            ) finish(_related[i], _service);\n        }\n        Stages stage = stageOf(_agreement, parent);\n        if (\n            stage != Stages.EMPTY &&\n            uint256(stage) < uint256(Stages.APPROVED) &&\n            checkChildrenStage(_agreement, parent, Stages.APPROVED)\n        ) {\n            approve(_agreement, parent);\n        }\n    }\n\n    function pay(bytes32 _agreement, bytes32 _service)\n        public\n        onlyClient(_agreement)\n    {\n        bytes32 parent = agreements[_agreement].section[_service];\n        agreements[_agreement].stages[_service] = Stages.PAYED;\n        Stages stage = stageOf(_agreement, parent);\n        if (\n            stage != Stages.EMPTY &&\n            uint256(stage) < uint256(Stages.PAYED) &&\n            checkChildrenStage(_agreement, parent, Stages.PAYED)\n        ) {\n            pay(_agreement, parent);\n        }\n    }\n\n    function checkChildrenStage(\n        bytes32 _agreement,\n        bytes32 _parent,\n        Stages _stage\n    ) internal view returns (bool) {\n        bytes32[] memory children = agreements[_agreement].services[_parent];\n        for (uint256 i = 0; i < children.length; i++) {\n            if (uint256(stageOf(_agreement, children[i])) < uint256(_stage))\n                return false;\n        }\n        return true;\n    }\n}\n",
  "sourcePath": "C:/Users/fabia/WebstormProjects/bim-contracts/contracts/ServiceAgreement.sol",
  "compiler": {
    "name": "solc",
    "version": "0.5.16+commit.9c3226ce.Emscripten.clang"
  },
  "schemaVersion": "3.2.4",
  "updatedAt": "2020-10-17T12:38:48.910Z",
  "networkType": "ethereum",
  "devdoc": {
    "methods": {}
  },
  "userdoc": {
    "methods": {}
  }
}