{
  "contractName": "ServiceContract",
  "abi": [
    {
      "constant": false,
      "inputs": [
        {
          "internalType": "bytes32",
          "name": "_item",
          "type": "bytes32"
        }
      ],
      "name": "initStage",
      "outputs": [],
      "payable": false,
      "stateMutability": "nonpayable",
      "type": "function"
    },
    {
      "constant": true,
      "inputs": [
        {
          "internalType": "bytes32",
          "name": "_item",
          "type": "bytes32"
        }
      ],
      "name": "stageOf",
      "outputs": [
        {
          "internalType": "enum StateMachine.Stages",
          "name": "",
          "type": "uint8"
        }
      ],
      "payable": false,
      "stateMutability": "view",
      "type": "function"
    },
    {
      "constant": false,
      "inputs": [
        {
          "internalType": "address",
          "name": "_client",
          "type": "address"
        },
        {
          "internalType": "address",
          "name": "_contractor",
          "type": "address"
        }
      ],
      "name": "init",
      "outputs": [],
      "payable": false,
      "stateMutability": "nonpayable",
      "type": "function"
    },
    {
      "constant": true,
      "inputs": [],
      "name": "getClient",
      "outputs": [
        {
          "internalType": "address",
          "name": "",
          "type": "address"
        }
      ],
      "payable": false,
      "stateMutability": "view",
      "type": "function"
    },
    {
      "constant": true,
      "inputs": [],
      "name": "getContractor",
      "outputs": [
        {
          "internalType": "address",
          "name": "",
          "type": "address"
        }
      ],
      "payable": false,
      "stateMutability": "view",
      "type": "function"
    },
    {
      "constant": true,
      "inputs": [
        {
          "internalType": "bytes32",
          "name": "_super",
          "type": "bytes32"
        }
      ],
      "name": "getServicesOf",
      "outputs": [
        {
          "internalType": "bytes32[]",
          "name": "",
          "type": "bytes32[]"
        }
      ],
      "payable": false,
      "stateMutability": "view",
      "type": "function"
    },
    {
      "constant": false,
      "inputs": [
        {
          "internalType": "bytes32",
          "name": "_super",
          "type": "bytes32"
        },
        {
          "internalType": "bytes32",
          "name": "_service",
          "type": "bytes32"
        },
        {
          "internalType": "bytes32",
          "name": "_billing",
          "type": "bytes32"
        }
      ],
      "name": "setServiceOf",
      "outputs": [],
      "payable": false,
      "stateMutability": "nonpayable",
      "type": "function"
    },
    {
      "constant": true,
      "inputs": [
        {
          "internalType": "bytes32",
          "name": "_of",
          "type": "bytes32"
        }
      ],
      "name": "getBillingOf",
      "outputs": [
        {
          "internalType": "bytes32",
          "name": "",
          "type": "bytes32"
        }
      ],
      "payable": false,
      "stateMutability": "view",
      "type": "function"
    },
    {
      "constant": false,
      "inputs": [
        {
          "internalType": "bytes32",
          "name": "_item",
          "type": "bytes32"
        }
      ],
      "name": "start",
      "outputs": [],
      "payable": false,
      "stateMutability": "nonpayable",
      "type": "function"
    },
    {
      "constant": false,
      "inputs": [
        {
          "internalType": "bytes32",
          "name": "_item",
          "type": "bytes32"
        }
      ],
      "name": "finish",
      "outputs": [],
      "payable": false,
      "stateMutability": "nonpayable",
      "type": "function"
    },
    {
      "constant": false,
      "inputs": [
        {
          "internalType": "bytes32",
          "name": "_item",
          "type": "bytes32"
        }
      ],
      "name": "approve",
      "outputs": [],
      "payable": false,
      "stateMutability": "nonpayable",
      "type": "function"
    },
    {
      "constant": false,
      "inputs": [
        {
          "internalType": "bytes32",
          "name": "_item",
          "type": "bytes32"
        }
      ],
      "name": "pay",
      "outputs": [],
      "payable": false,
      "stateMutability": "nonpayable",
      "type": "function"
    },
    {
      "constant": false,
      "inputs": [
        {
          "internalType": "bytes32",
          "name": "_item",
          "type": "bytes32"
        }
      ],
      "name": "reject",
      "outputs": [],
      "payable": false,
      "stateMutability": "nonpayable",
      "type": "function"
    }
  ],
  "bytecode": "0x608060405234801561001057600080fd5b50611478806100206000396000f3fe608060405234801561001057600080fd5b50600436106100cf5760003560e01c80638609cad11161008c578063b6cb405b11610066578063b6cb405b1461032d578063cabd734f14610377578063f09a4016146103a5578063fde6305614610409576100cf565b80638609cad11461028f57806399f2d007146102bd578063a53a1adf146102ff576100cf565b8063015a18ed146100d457806359dc735c146101025780635f95f3bd1461014c5780636c91047a1461018e5780637e9ffb8b146101de5780637f5ce9c414610261575b600080fd5b610100600480360360208110156100ea57600080fd5b8101908080359060200190929190505050610437565b005b61010a610647565b604051808273ffffffffffffffffffffffffffffffffffffffff1673ffffffffffffffffffffffffffffffffffffffff16815260200191505060405180910390f35b61018c6004803603606081101561016257600080fd5b81019080803590602001909291908035906020019092919080359060200190929190505050610734565b005b6101ba600480360360208110156101a457600080fd5b810190808035906020019092919050505061085a565b604051808260068111156101ca57fe5b60ff16815260200191505060405180910390f35b61020a600480360360208110156101f457600080fd5b8101908080359060200190929190505050610883565b6040518080602001828103825283818151815260200191508051906020019060200280838360005b8381101561024d578082015181840152602081019050610232565b505050509050019250505060405180910390f35b61028d6004803603602081101561027757600080fd5b81019080803590602001909291905050506109b1565b005b6102bb600480360360208110156102a557600080fd5b81019080803590602001909291905050506109e8565b005b6102e9600480360360208110156102d357600080fd5b8101908080359060200190929190505050610bf8565b6040518082815260200191505060405180910390f35b61032b6004803603602081101561031557600080fd5b8101908080359060200190929190505050610cd8565b005b610335610ee8565b604051808273ffffffffffffffffffffffffffffffffffffffff1673ffffffffffffffffffffffffffffffffffffffff16815260200191505060405180910390f35b6103a36004803603602081101561038d57600080fd5b8101908080359060200190929190505050610fd5565b005b610407600480360360408110156103bb57600080fd5b81019080803573ffffffffffffffffffffffffffffffffffffffff169060200190929190803573ffffffffffffffffffffffffffffffffffffffff169060200190929190505050611157565b005b6104356004803603602081101561041f57600080fd5b810190808035906020019092919050505061121e565b005b600360009054906101000a900473ffffffffffffffffffffffffffffffffffffffff1673ffffffffffffffffffffffffffffffffffffffff163373ffffffffffffffffffffffffffffffffffffffff16146104fa576040517f08c379a000000000000000000000000000000000000000000000000000000000815260040180806020018281038252601a8152602001807f4e6f7420616c6c6f7765642e204f6e6c7920666163746f72792e00000000000081525060200191505060405180910390fd5b806000600681111561050857fe5b60008083815260200190815260200160002060009054906101000a900460ff16600681111561053357fe5b116105a6576040517f08c379a00000000000000000000000000000000000000000000000000000000081526004018080602001828103825260198152602001807f50726f7669646564206974656d20697320696e76616c69642e0000000000000081525060200191505060405180910390fd5b8160018060068111156105b557fe5b60008084815260200190815260200160002060009054906101000a900460ff1660068111156105e057fe5b14610636576040517f08c379a000000000000000000000000000000000000000000000000000000000815260040180806020018281038252602781526020018061141d6027913960400191505060405180910390fd5b83610640816113a0565b5050505050565b6000600360009054906101000a900473ffffffffffffffffffffffffffffffffffffffff1673ffffffffffffffffffffffffffffffffffffffff163373ffffffffffffffffffffffffffffffffffffffff161461070c576040517f08c379a000000000000000000000000000000000000000000000000000000000815260040180806020018281038252601a8152602001807f4e6f7420616c6c6f7765642e204f6e6c7920666163746f72792e00000000000081525060200191505060405180910390fd5b600160009054906101000a900473ffffffffffffffffffffffffffffffffffffffff16905090565b600360009054906101000a900473ffffffffffffffffffffffffffffffffffffffff1673ffffffffffffffffffffffffffffffffffffffff163373ffffffffffffffffffffffffffffffffffffffff16146107f7576040517f08c379a000000000000000000000000000000000000000000000000000000000815260040180806020018281038252601a8152602001807f4e6f7420616c6c6f7765642e204f6e6c7920666163746f72792e00000000000081525060200191505060405180910390fd5b80600560008481526020019081526020016000208190555060046000848152602001908152602001600020829080600181540180825580915050906001820390600052602060002001600090919290919091505550610855826109b1565b505050565b600080600083815260200190815260200160002060009054906101000a900460ff169050919050565b6060600360009054906101000a900473ffffffffffffffffffffffffffffffffffffffff1673ffffffffffffffffffffffffffffffffffffffff163373ffffffffffffffffffffffffffffffffffffffff1614610948576040517f08c379a000000000000000000000000000000000000000000000000000000000815260040180806020018281038252601a8152602001807f4e6f7420616c6c6f7765642e204f6e6c7920666163746f72792e00000000000081525060200191505060405180910390fd5b600460008381526020019081526020016000208054806020026020016040519081016040528092919081815260200182805480156109a557602002820191906000526020600020905b815481526020019060010190808311610991575b50505050509050919050565b600160008083815260200190815260200160002060006101000a81548160ff021916908360068111156109e057fe5b021790555050565b600360009054906101000a900473ffffffffffffffffffffffffffffffffffffffff1673ffffffffffffffffffffffffffffffffffffffff163373ffffffffffffffffffffffffffffffffffffffff1614610aab576040517f08c379a000000000000000000000000000000000000000000000000000000000815260040180806020018281038252601a8152602001807f4e6f7420616c6c6f7765642e204f6e6c7920666163746f72792e00000000000081525060200191505060405180910390fd5b8060006006811115610ab957fe5b60008083815260200190815260200160002060009054906101000a900460ff166006811115610ae457fe5b11610b57576040517f08c379a00000000000000000000000000000000000000000000000000000000081526004018080602001828103825260198152602001807f50726f7669646564206974656d20697320696e76616c69642e0000000000000081525060200191505060405180910390fd5b816004806006811115610b6657fe5b60008084815260200190815260200160002060009054906101000a900460ff166006811115610b9157fe5b14610be7576040517f08c379a000000000000000000000000000000000000000000000000000000000815260040180806020018281038252602781526020018061141d6027913960400191505060405180910390fd5b83610bf1816113a0565b5050505050565b6000600360009054906101000a900473ffffffffffffffffffffffffffffffffffffffff1673ffffffffffffffffffffffffffffffffffffffff163373ffffffffffffffffffffffffffffffffffffffff1614610cbd576040517f08c379a000000000000000000000000000000000000000000000000000000000815260040180806020018281038252601a8152602001807f4e6f7420616c6c6f7765642e204f6e6c7920666163746f72792e00000000000081525060200191505060405180910390fd5b60056000838152602001908152602001600020549050919050565b600360009054906101000a900473ffffffffffffffffffffffffffffffffffffffff1673ffffffffffffffffffffffffffffffffffffffff163373ffffffffffffffffffffffffffffffffffffffff1614610d9b576040517f08c379a000000000000000000000000000000000000000000000000000000000815260040180806020018281038252601a8152602001807f4e6f7420616c6c6f7765642e204f6e6c7920666163746f72792e00000000000081525060200191505060405180910390fd5b8060006006811115610da957fe5b60008083815260200190815260200160002060009054906101000a900460ff166006811115610dd457fe5b11610e47576040517f08c379a00000000000000000000000000000000000000000000000000000000081526004018080602001828103825260198152602001807f50726f7669646564206974656d20697320696e76616c69642e0000000000000081525060200191505060405180910390fd5b816003806006811115610e5657fe5b60008084815260200190815260200160002060009054906101000a900460ff166006811115610e8157fe5b14610ed7576040517f08c379a000000000000000000000000000000000000000000000000000000000815260040180806020018281038252602781526020018061141d6027913960400191505060405180910390fd5b83610ee1816113a0565b5050505050565b6000600360009054906101000a900473ffffffffffffffffffffffffffffffffffffffff1673ffffffffffffffffffffffffffffffffffffffff163373ffffffffffffffffffffffffffffffffffffffff1614610fad576040517f08c379a000000000000000000000000000000000000000000000000000000000815260040180806020018281038252601a8152602001807f4e6f7420616c6c6f7765642e204f6e6c7920666163746f72792e00000000000081525060200191505060405180910390fd5b600260009054906101000a900473ffffffffffffffffffffffffffffffffffffffff16905090565b600360009054906101000a900473ffffffffffffffffffffffffffffffffffffffff1673ffffffffffffffffffffffffffffffffffffffff163373ffffffffffffffffffffffffffffffffffffffff1614611098576040517f08c379a000000000000000000000000000000000000000000000000000000000815260040180806020018281038252601a8152602001807f4e6f7420616c6c6f7765642e204f6e6c7920666163746f72792e00000000000081525060200191505060405180910390fd5b80600060068111156110a657fe5b60008083815260200190815260200160002060009054906101000a900460ff1660068111156110d157fe5b11611144576040517f08c379a00000000000000000000000000000000000000000000000000000000081526004018080602001828103825260198152602001807f50726f7669646564206974656d20697320696e76616c69642e0000000000000081525060200191505060405180910390fd5b81600661115182826113e5565b50505050565b33600360006101000a81548173ffffffffffffffffffffffffffffffffffffffff021916908373ffffffffffffffffffffffffffffffffffffffff16021790555081600160006101000a81548173ffffffffffffffffffffffffffffffffffffffff021916908373ffffffffffffffffffffffffffffffffffffffff16021790555080600260006101000a81548173ffffffffffffffffffffffffffffffffffffffff021916908373ffffffffffffffffffffffffffffffffffffffff1602179055505050565b600360009054906101000a900473ffffffffffffffffffffffffffffffffffffffff1673ffffffffffffffffffffffffffffffffffffffff163373ffffffffffffffffffffffffffffffffffffffff16146112e1576040517f08c379a000000000000000000000000000000000000000000000000000000000815260040180806020018281038252601a8152602001807f4e6f7420616c6c6f7765642e204f6e6c7920666163746f72792e00000000000081525060200191505060405180910390fd5b80600060068111156112ef57fe5b60008083815260200190815260200160002060009054906101000a900460ff16600681111561131a57fe5b1161138d576040517f08c379a00000000000000000000000000000000000000000000000000000000081526004018080602001828103825260198152602001807f50726f7669646564206974656d20697320696e76616c69642e0000000000000081525060200191505060405180910390fd5b81600361139a82826113e5565b50505050565b6113e281600160008085815260200190815260200160002060009054906101000a900460ff1660068111156113d157fe5b0160068111156113dd57fe5b6113e5565b50565b8060008084815260200190815260200160002060006101000a81548160ff0219169083600681111561141357fe5b0217905550505056fe46756e6374696f6e2063616e6e6f742062652063616c6c656420617420746869732074696d652ea265627a7a723158206f41153b83d0e17bdfebeebb44e98560cb18b0c4aa7d9a147207ec72ecbfae2e64736f6c63430005100032",
  "source": "// SPDX-License-Identifier: MIT\npragma solidity >=0.4.21 <0.7.1;\n\nimport './StateMachine.sol';\n\ncontract ServiceContract is StateMachine {\n    address private client;\n    address private contractor;\n    address private factory;\n\n    mapping(bytes32 => bytes32[]) private services; // super -> services\n    mapping(bytes32 => bytes32) private billings; // service -> billing\n\n    modifier onlyFactory() {\n        require(msg.sender == factory, 'Not allowed. Only factory.');\n        _;\n    }\n\n    function init(address _client, address _contractor) public {\n        factory = msg.sender;\n        client = _client;\n        contractor = _contractor;\n    }\n\n    function getClient() external view onlyFactory returns (address) {\n        return client;\n    }\n\n    function getContractor() external view onlyFactory returns (address) {\n        return contractor;\n    }\n\n    function getServicesOf(bytes32 _super)\n        external\n        view\n        onlyFactory\n        returns (bytes32[] memory)\n    {\n        return services[_super];\n    }\n\n    function setServiceOf(\n        bytes32 _super,\n        bytes32 _service,\n        bytes32 _billing\n    ) external onlyFactory {\n        billings[_service] = _billing;\n        services[_super].push(_service);\n        initStage(_service);\n    }\n\n    function getBillingOf(bytes32 _of)\n        external\n        view\n        onlyFactory\n        returns (bytes32)\n    {\n        return billings[_of];\n    }\n\n    function start(bytes32 _item)\n        public\n        onlyFactory\n        isValid(_item)\n        atStage(_item, Stages.INITIALIZED)\n        transitionNext(_item)\n    {}\n\n    function finish(bytes32 _item)\n        public\n        onlyFactory\n        isValid(_item)\n        transitionTo(_item, StateMachine.Stages.FINISHED)\n    {}\n\n    function approve(bytes32 _item)\n        public\n        onlyFactory\n        isValid(_item)\n        atStage(_item, Stages.FINISHED)\n        transitionNext(_item)\n    {}\n\n    function pay(bytes32 _item)\n        external\n        onlyFactory\n        isValid(_item)\n        atStage(_item, Stages.APPROVED)\n        transitionNext(_item)\n    {}\n\n    function reject(bytes32 _item)\n        public\n        onlyFactory\n        isValid(_item)\n        transitionTo(_item, StateMachine.Stages.REJECTED)\n    {}\n}\n",
  "sourcePath": "C:\\Users\\fabia\\WebstormProjects\\bim-contracts\\contracts\\ServiceContract.sol",
  "compiler": {
    "name": "solc",
    "version": "0.5.16+commit.9c3226ce.Emscripten.clang"
  },
  "schemaVersion": "3.2.4",
  "updatedAt": "2020-10-16T14:55:25.157Z",
  "devdoc": {
    "methods": {}
  },
  "userdoc": {
    "methods": {}
  }
}