{
  "contractName": "ServiceAgreement",
  "abi": [
    {
      "constant": false,
      "inputs": [
        {
          "internalType": "bytes32",
          "name": "_agreement",
          "type": "bytes32"
        },
        {
          "internalType": "address",
          "name": "_contractor",
          "type": "address"
        }
      ],
      "name": "createAgreement",
      "outputs": [
        {
          "internalType": "bool",
          "name": "",
          "type": "bool"
        }
      ],
      "payable": false,
      "stateMutability": "nonpayable",
      "type": "function"
    },
    {
      "constant": false,
      "inputs": [
        {
          "internalType": "bytes32",
          "name": "_agreement",
          "type": "bytes32"
        },
        {
          "internalType": "bytes32",
          "name": "_parent",
          "type": "bytes32"
        },
        {
          "internalType": "bytes32[]",
          "name": "_children",
          "type": "bytes32[]"
        },
        {
          "internalType": "bytes32[]",
          "name": "_billings",
          "type": "bytes32[]"
        }
      ],
      "name": "addServices",
      "outputs": [
        {
          "internalType": "bool",
          "name": "",
          "type": "bool"
        }
      ],
      "payable": false,
      "stateMutability": "nonpayable",
      "type": "function"
    },
    {
      "constant": true,
      "inputs": [
        {
          "internalType": "address",
          "name": "_client",
          "type": "address"
        }
      ],
      "name": "getAgreementsByClient",
      "outputs": [
        {
          "internalType": "bytes32[]",
          "name": "",
          "type": "bytes32[]"
        }
      ],
      "payable": false,
      "stateMutability": "view",
      "type": "function"
    },
    {
      "constant": true,
      "inputs": [
        {
          "internalType": "address",
          "name": "_contractor",
          "type": "address"
        }
      ],
      "name": "getAgreementsByContractor",
      "outputs": [
        {
          "internalType": "bytes32[]",
          "name": "",
          "type": "bytes32[]"
        }
      ],
      "payable": false,
      "stateMutability": "view",
      "type": "function"
    },
    {
      "constant": true,
      "inputs": [
        {
          "internalType": "bytes32",
          "name": "_service",
          "type": "bytes32"
        }
      ],
      "name": "getAgreementsByService",
      "outputs": [
        {
          "internalType": "bytes32[]",
          "name": "",
          "type": "bytes32[]"
        }
      ],
      "payable": false,
      "stateMutability": "view",
      "type": "function"
    },
    {
      "constant": true,
      "inputs": [
        {
          "internalType": "bytes32",
          "name": "_agreement",
          "type": "bytes32"
        },
        {
          "internalType": "bytes32",
          "name": "_parent",
          "type": "bytes32"
        }
      ],
      "name": "getServicesByAgreement",
      "outputs": [
        {
          "internalType": "bytes32[]",
          "name": "",
          "type": "bytes32[]"
        }
      ],
      "payable": false,
      "stateMutability": "view",
      "type": "function"
    },
    {
      "constant": true,
      "inputs": [
        {
          "internalType": "bytes32",
          "name": "_agreement",
          "type": "bytes32"
        },
        {
          "internalType": "bytes32",
          "name": "_service",
          "type": "bytes32"
        }
      ],
      "name": "stageOf",
      "outputs": [
        {
          "internalType": "enum ServiceAgreement.Stages",
          "name": "",
          "type": "uint8"
        }
      ],
      "payable": false,
      "stateMutability": "view",
      "type": "function"
    },
    {
      "constant": false,
      "inputs": [
        {
          "internalType": "bytes32",
          "name": "_agreement",
          "type": "bytes32"
        },
        {
          "internalType": "bytes32",
          "name": "_service",
          "type": "bytes32"
        }
      ],
      "name": "start",
      "outputs": [],
      "payable": false,
      "stateMutability": "nonpayable",
      "type": "function"
    },
    {
      "constant": false,
      "inputs": [
        {
          "internalType": "bytes32",
          "name": "_agreement",
          "type": "bytes32"
        },
        {
          "internalType": "bytes32",
          "name": "_service",
          "type": "bytes32"
        }
      ],
      "name": "finish",
      "outputs": [],
      "payable": false,
      "stateMutability": "nonpayable",
      "type": "function"
    },
    {
      "constant": false,
      "inputs": [
        {
          "internalType": "bytes32",
          "name": "_agreement",
          "type": "bytes32"
        },
        {
          "internalType": "bytes32",
          "name": "_service",
          "type": "bytes32"
        }
      ],
      "name": "approve",
      "outputs": [],
      "payable": false,
      "stateMutability": "nonpayable",
      "type": "function"
    },
    {
      "constant": false,
      "inputs": [
        {
          "internalType": "bytes32",
          "name": "_agreement",
          "type": "bytes32"
        },
        {
          "internalType": "bytes32",
          "name": "_service",
          "type": "bytes32"
        }
      ],
      "name": "pay",
      "outputs": [],
      "payable": false,
      "stateMutability": "nonpayable",
      "type": "function"
    }
  ],
  "bytecode": "0x608060405234801561001057600080fd5b506113b2806100206000396000f3fe608060405234801561001057600080fd5b50600436106100a95760003560e01c8063869ce06211610071578063869ce062146102d857806391f8a6db14610310578063b77031dd14610348578063c1d76a62146103e1578063c756bbc71461047a578063f4c5983914610507576100a9565b806342698a81146100ae57806359314ceb146101a857806366f125db1461020e5780636ff14cbc14610246578063756bae5c146102a0575b600080fd5b61018e600480360360808110156100c457600080fd5b810190808035906020019092919080359060200190929190803590602001906401000000008111156100f557600080fd5b82018360208201111561010757600080fd5b8035906020019184602083028401116401000000008311171561012957600080fd5b90919293919293908035906020019064010000000081111561014a57600080fd5b82018360208201111561015c57600080fd5b8035906020019184602083028401116401000000008311171561017e57600080fd5b909192939192939050505061058a565b604051808215151515815260200191505060405180910390f35b6101f4600480360360408110156101be57600080fd5b8101908080359060200190929190803573ffffffffffffffffffffffffffffffffffffffff169060200190929190505050610711565b604051808215151515815260200191505060405180910390f35b6102446004803603604081101561022457600080fd5b810190808035906020019092919080359060200190929190505050610897565b005b61027c6004803603604081101561025c57600080fd5b810190808035906020019092919080359060200190929190505050610ae0565b6040518082600581111561028c57fe5b60ff16815260200191505060405180910390f35b6102d6600480360360408110156102b657600080fd5b810190808035906020019092919080359060200190929190505050610b1e565b005b61030e600480360360408110156102ee57600080fd5b810190808035906020019092919080359060200190929190505050610c8a565b005b6103466004803603604081101561032657600080fd5b810190808035906020019092919080359060200190929190505050610e2a565b005b61038a6004803603602081101561035e57600080fd5b81019080803573ffffffffffffffffffffffffffffffffffffffff169060200190929190505050610f96565b6040518080602001828103825283818151815260200191508051906020019060200280838360005b838110156103cd5780820151818401526020810190506103b2565b505050509050019250505060405180910390f35b610423600480360360208110156103f757600080fd5b81019080803573ffffffffffffffffffffffffffffffffffffffff16906020019092919050505061102d565b6040518080602001828103825283818151815260200191508051906020019060200280838360005b8381101561046657808201518184015260208101905061044b565b505050509050019250505060405180910390f35b6104b06004803603604081101561049057600080fd5b8101908080359060200190929190803590602001909291905050506110c4565b6040518080602001828103825283818151815260200191508051906020019060200280838360005b838110156104f35780820151818401526020810190506104d8565b505050509050019250505060405180910390f35b6105336004803603602081101561051d57600080fd5b8101908080359060200190929190505050611143565b6040518080602001828103825283818151815260200191508051906020019060200280838360005b8381101561057657808201518184015260208101905061055b565b505050509050019250505060405180910390f35b600084846000808a8152602001908152602001600020600301600089815260200190815260200160002091906105c192919061130b565b5060008090505b8383905081101561070257866000808a815260200190815260200160002060040160008888858181106105f757fe5b9050602002013581526020019081526020016000208190555060016000808a8152602001908152602001600020600201600088888581811061063557fe5b90506020020135815260200190815260200160002060006101000a81548160ff0219169083600581111561066557fe5b02179055506004600087878481811061067a57fe5b9050602002013581526020019081526020016000208890806001815401808255809150509060018203906000526020600020016000909192909190915055508383828181106106c557fe5b90506020020135600160008888858181106106dc57fe5b9050602002013581526020019081526020016000208190555080806001019150506105c8565b50600190509695505050505050565b60003360008085815260200190815260200160002060000160006101000a81548173ffffffffffffffffffffffffffffffffffffffff021916908373ffffffffffffffffffffffffffffffffffffffff1602179055508160008085815260200190815260200160002060010160006101000a81548173ffffffffffffffffffffffffffffffffffffffff021916908373ffffffffffffffffffffffffffffffffffffffff160217905550600260008373ffffffffffffffffffffffffffffffffffffffff1673ffffffffffffffffffffffffffffffffffffffff168152602001908152602001600020839080600181540180825580915050906001820390600052602060002001600090919290919091505550600360003373ffffffffffffffffffffffffffffffffffffffff1673ffffffffffffffffffffffffffffffffffffffff1681526020019081526020016000208390806001815401808255809150509060018203906000526020600020016000909192909190915055506001905092915050565b8160008082815260200190815260200160002060000160009054906101000a900473ffffffffffffffffffffffffffffffffffffffff1673ffffffffffffffffffffffffffffffffffffffff163373ffffffffffffffffffffffffffffffffffffffff161461096e576040517f08c379a00000000000000000000000000000000000000000000000000000000081526004018080602001828103825260198152602001807f4e6f7420616c6c6f7765642e204f6e6c7920636c69656e742e0000000000000081525060200191505060405180910390fd5b600080600085815260200190815260200160002060040160008481526020019081526020016000205490506004600080868152602001908152602001600020600201600085815260200190815260200160002060006101000a81548160ff021916908360058111156109dc57fe5b0217905550606060046000858152602001908152602001600020805480602002602001604051908101604052809291908181526020018280548015610a4057602002820191906000526020600020905b815481526020019060010190808311610a2c575b5050505050905060008090505b8151811015610abc5760036005811115610a6357fe5b610a80838381518110610a7257fe5b602002602001015187610ae0565b6005811115610a8b57fe5b1015610aaf57610aae828281518110610aa057fe5b602002602001015186610b1e565b5b8080600101915050610a4d565b50610ac9858360046111ae565b15610ad957610ad88583610897565b5b5050505050565b6000806000848152602001908152602001600020600201600083815260200190815260200160002060009054906101000a900460ff16905092915050565b8160008082815260200190815260200160002060010160009054906101000a900473ffffffffffffffffffffffffffffffffffffffff1673ffffffffffffffffffffffffffffffffffffffff163373ffffffffffffffffffffffffffffffffffffffff1614610bf5576040517f08c379a000000000000000000000000000000000000000000000000000000000815260040180806020018281038252601d8152602001807f4e6f7420616c6c6f7765642e204f6e6c7920636f6e74726163746f722e00000081525060200191505060405180910390fd5b600080600085815260200190815260200160002060040160008481526020019081526020016000205490506003600080868152602001908152602001600020600201600085815260200190815260200160002060006101000a81548160ff02191690836005811115610c6357fe5b0217905550610c74848260036111ae565b15610c8457610c838482610b1e565b5b50505050565b606060046000838152602001908152602001600020805480602002602001604051908101604052809291908181526020018280548015610ce957602002820191906000526020600020905b815481526020019060010190808311610cd5575b5050505050905060008090505b8151811015610e24576000806000848481518110610d1057fe5b60200260200101518152602001908152602001600020600401600085815260200190815260200160002054905060026005811115610d4a57fe5b610d67848481518110610d5957fe5b602002602001015186610ae0565b6005811115610d7257fe5b1015610dd4576002600080858581518110610d8957fe5b60200260200101518152602001908152602001600020600201600086815260200190815260200160002060006101000a81548160ff02191690836005811115610dce57fe5b02179055505b610df3838381518110610de357fe5b60200260200101518260026112b0565b15610e1657610e15838381518110610e0757fe5b602002602001015182610c8a565b5b508080600101915050610cf6565b50505050565b8160008082815260200190815260200160002060000160009054906101000a900473ffffffffffffffffffffffffffffffffffffffff1673ffffffffffffffffffffffffffffffffffffffff163373ffffffffffffffffffffffffffffffffffffffff1614610f01576040517f08c379a00000000000000000000000000000000000000000000000000000000081526004018080602001828103825260198152602001807f4e6f7420616c6c6f7765642e204f6e6c7920636c69656e742e0000000000000081525060200191505060405180910390fd5b600080600085815260200190815260200160002060040160008481526020019081526020016000205490506005600080868152602001908152602001600020600201600085815260200190815260200160002060006101000a81548160ff02191690836005811115610f6f57fe5b0217905550610f80848260056111ae565b15610f9057610f8f8482610e2a565b5b50505050565b6060600360008373ffffffffffffffffffffffffffffffffffffffff1673ffffffffffffffffffffffffffffffffffffffff16815260200190815260200160002080548060200260200160405190810160405280929190818152602001828054801561102157602002820191906000526020600020905b81548152602001906001019080831161100d575b50505050509050919050565b6060600260008373ffffffffffffffffffffffffffffffffffffffff1673ffffffffffffffffffffffffffffffffffffffff1681526020019081526020016000208054806020026020016040519081016040528092919081815260200182805480156110b857602002820191906000526020600020905b8154815260200190600101908083116110a4575b50505050509050919050565b6060600080848152602001908152602001600020600301600083815260200190815260200160002080548060200260200160405190810160405280929190818152602001828054801561113657602002820191906000526020600020905b815481526020019060010190808311611122575b5050505050905092915050565b6060600460008381526020019081526020016000208054806020026020016040519081016040528092919081815260200182805480156111a257602002820191906000526020600020905b81548152602001906001019080831161118e575b50505050509050919050565b60006111bb8484846112b0565b6111c857600090506112a9565b6060600080868152602001908152602001600020600301600085815260200190815260200160002080548060200260200160405190810160405280929190818152602001828054801561123a57602002820191906000526020600020905b815481526020019060010190808311611226575b5050505050905060008090505b81518110156112a25783600581111561125c57fe5b6112798784848151811061126c57fe5b6020026020010151610ae0565b600581111561128457fe5b1015611295576000925050506112a9565b8080600101915050611247565b5060019150505b9392505050565b6000806112bd8585610ae0565b9050600060058111156112cc57fe5b8160058111156112d857fe5b146112e7576000915050611304565b8260058111156112f357fe5b8160058111156112ff57fe5b109150505b9392505050565b828054828255906000526020600020908101928215611347579160200282015b8281111561134657823582559160200191906001019061132b565b5b5090506113549190611358565b5090565b61137a91905b8082111561137657600081600090555060010161135e565b5090565b9056fea265627a7a72315820851e0b2ce16d613697cc13fa149fa965a69e6d61f7e1167d5d04f895593216a864736f6c63430005100032",
  "source": "// SPDX-License-Identifier: MIT\npragma solidity >=0.4.21 <0.7.1;\n\ncontract ServiceAgreement {\n    enum Stages {\n        EMPTY, // 0\n        INITIALIZED, // 1\n        STARTED, // 2\n        FINISHED, // 3\n        APPROVED, // 4\n        PAYED // 5\n    }\n\n    mapping(bytes32 => Agreement) agreements;\n    mapping(bytes32 => bytes32) billings;\n    mapping(address => bytes32[]) agreementsByContractor;\n    mapping(address => bytes32[]) agreementsByClient;\n    mapping(bytes32 => bytes32[]) agreementsByService;\n\n    struct Agreement {\n        address client;\n        address contractor;\n        mapping(bytes32 => Stages) stages;\n        mapping(bytes32 => bytes32[]) services;\n        mapping(bytes32 => bytes32) section;\n    }\n\n    modifier onlyClient(bytes32 _agreement) {\n        require(\n            msg.sender == agreements[_agreement].client,\n            'Not allowed. Only client.'\n        );\n        _;\n    }\n\n    modifier onlyContractor(bytes32 _agreement) {\n        require(\n            msg.sender == agreements[_agreement].contractor,\n            'Not allowed. Only contractor.'\n        );\n        _;\n    }\n\n    function createAgreement(bytes32 _agreement, address _contractor)\n        public\n        returns (bool)\n    {\n        agreements[_agreement].client = msg.sender;\n        agreements[_agreement].contractor = _contractor;\n        agreementsByContractor[_contractor].push(_agreement);\n        agreementsByClient[msg.sender].push(_agreement);\n        return true;\n    }\n\n    function addServices(\n        bytes32 _agreement,\n        bytes32 _parent,\n        bytes32[] calldata _children,\n        bytes32[] calldata _billings\n    ) external returns (bool) {\n        agreements[_agreement].services[_parent] = _children;\n        for (uint256 i = 0; i < _billings.length; i++) {\n            agreements[_agreement].section[_children[i]] = _parent;\n            agreements[_agreement].stages[_children[i]] = Stages.INITIALIZED;\n            agreementsByService[_children[i]].push(_agreement);\n            billings[_children[i]] = _billings[i];\n        }\n        return true;\n    }\n\n    function getAgreementsByClient(address _client)\n        external\n        view\n        returns (bytes32[] memory)\n    {\n        return agreementsByClient[_client];\n    }\n\n    function getAgreementsByContractor(address _contractor)\n        external\n        view\n        returns (bytes32[] memory)\n    {\n        return agreementsByContractor[_contractor];\n    }\n\n    function getAgreementsByService(bytes32 _service)\n        external\n        view\n        returns (bytes32[] memory)\n    {\n        return agreementsByService[_service];\n    }\n\n    function getServicesByAgreement(bytes32 _agreement, bytes32 _parent)\n        external\n        view\n        returns (bytes32[] memory)\n    {\n        return agreements[_agreement].services[_parent];\n    }\n\n    function stageOf(bytes32 _agreement, bytes32 _service)\n        public\n        view\n        returns (Stages)\n    {\n        return agreements[_agreement].stages[_service];\n    }\n\n    function start(bytes32 _agreement, bytes32 _service) public {\n        bytes32[] memory related = agreementsByService[_service];\n        for (uint256 i = 0; i < related.length; i++) {\n            bytes32 parent = agreements[related[i]].section[_service];\n            if (\n                uint256(stageOf(related[i], _service)) < uint256(Stages.STARTED)\n            ) agreements[related[i]].stages[_service] = Stages.STARTED;\n            if (atStage(related[i], parent, Stages.STARTED))\n                start(related[i], parent);\n        }\n    }\n\n    function finish(bytes32 _agreement, bytes32 _service)\n        public\n        onlyContractor(_agreement)\n    {\n        bytes32 parent = agreements[_agreement].section[_service];\n        agreements[_agreement].stages[_service] = Stages.FINISHED;\n        if (allChildrenAtStage(_agreement, parent, Stages.FINISHED)) {\n            finish(_agreement, parent);\n        }\n    }\n\n    function approve(bytes32 _agreement, bytes32 _service)\n        public\n        onlyClient(_agreement)\n    {\n        bytes32 parent = agreements[_agreement].section[_service];\n        agreements[_agreement].stages[_service] = Stages.APPROVED;\n        bytes32[] memory _related = agreementsByService[_service];\n        for (uint256 i = 0; i < _related.length; i++) {\n            if (\n                uint256(stageOf(_related[i], _service)) <\n                uint256(Stages.FINISHED)\n            ) finish(_related[i], _service);\n        }\n        if (allChildrenAtStage(_agreement, parent, Stages.APPROVED)) {\n            approve(_agreement, parent);\n        }\n    }\n\n    function pay(bytes32 _agreement, bytes32 _service)\n        public\n        onlyClient(_agreement)\n    {\n        bytes32 parent = agreements[_agreement].section[_service];\n        agreements[_agreement].stages[_service] = Stages.PAYED;\n        if (allChildrenAtStage(_agreement, parent, Stages.PAYED)) {\n            pay(_agreement, parent);\n        }\n    }\n\n    function atStage(\n        bytes32 _agreement,\n        bytes32 _service,\n        Stages _stage\n    ) internal view returns (bool) {\n        Stages stage = stageOf(_agreement, _service);\n        if (stage != Stages.EMPTY) return false;\n        return uint256(stage) < uint256(_stage);\n    }\n\n    function allChildrenAtStage(\n        bytes32 _agreement,\n        bytes32 _parent,\n        Stages _stage\n    ) internal view returns (bool) {\n        if (!atStage(_agreement, _parent, _stage)) return false;\n        bytes32[] memory children = agreements[_agreement].services[_parent];\n        for (uint256 i = 0; i < children.length; i++) {\n            if (uint256(stageOf(_agreement, children[i])) < uint256(_stage))\n                return false;\n        }\n        return true;\n    }\n}\n",
  "sourcePath": "C:/Users/fabia/WebstormProjects/bim-contracts/contracts/ServiceAgreement.sol",
  "compiler": {
    "name": "solc",
    "version": "0.5.16+commit.9c3226ce.Emscripten.clang"
  },
  "schemaVersion": "3.2.4",
  "updatedAt": "2020-10-21T20:06:05.224Z",
  "networkType": "ethereum",
  "devdoc": {
    "methods": {}
  },
  "userdoc": {
    "methods": {}
  }
}