{
  "contractName": "ServiceAgreement",
  "abi": [
    {
      "constant": false,
      "inputs": [
        {
          "internalType": "bytes32",
          "name": "_agreement",
          "type": "bytes32"
        },
        {
          "internalType": "bytes32",
          "name": "_root",
          "type": "bytes32"
        },
        {
          "internalType": "address",
          "name": "_contractor",
          "type": "address"
        }
      ],
      "name": "createAgreement",
      "outputs": [
        {
          "internalType": "bool",
          "name": "",
          "type": "bool"
        }
      ],
      "payable": false,
      "stateMutability": "nonpayable",
      "type": "function"
    },
    {
      "constant": false,
      "inputs": [
        {
          "internalType": "bytes32",
          "name": "_agreement",
          "type": "bytes32"
        },
        {
          "internalType": "bytes32",
          "name": "_parent",
          "type": "bytes32"
        },
        {
          "internalType": "bytes32[]",
          "name": "_children",
          "type": "bytes32[]"
        },
        {
          "internalType": "bytes32[]",
          "name": "_billings",
          "type": "bytes32[]"
        }
      ],
      "name": "addServices",
      "outputs": [
        {
          "internalType": "bool",
          "name": "",
          "type": "bool"
        }
      ],
      "payable": false,
      "stateMutability": "nonpayable",
      "type": "function"
    },
    {
      "constant": true,
      "inputs": [
        {
          "internalType": "address",
          "name": "_client",
          "type": "address"
        }
      ],
      "name": "getAgreementsByClient",
      "outputs": [
        {
          "internalType": "bytes32[]",
          "name": "",
          "type": "bytes32[]"
        }
      ],
      "payable": false,
      "stateMutability": "view",
      "type": "function"
    },
    {
      "constant": true,
      "inputs": [
        {
          "internalType": "address",
          "name": "_contractor",
          "type": "address"
        }
      ],
      "name": "getAgreementsByContractor",
      "outputs": [
        {
          "internalType": "bytes32[]",
          "name": "",
          "type": "bytes32[]"
        }
      ],
      "payable": false,
      "stateMutability": "view",
      "type": "function"
    },
    {
      "constant": true,
      "inputs": [
        {
          "internalType": "bytes32",
          "name": "_service",
          "type": "bytes32"
        }
      ],
      "name": "getAgreementsByService",
      "outputs": [
        {
          "internalType": "bytes32[]",
          "name": "",
          "type": "bytes32[]"
        }
      ],
      "payable": false,
      "stateMutability": "view",
      "type": "function"
    },
    {
      "constant": true,
      "inputs": [
        {
          "internalType": "bytes32",
          "name": "_agreement",
          "type": "bytes32"
        },
        {
          "internalType": "bytes32",
          "name": "_parent",
          "type": "bytes32"
        }
      ],
      "name": "getServicesByAgreement",
      "outputs": [
        {
          "internalType": "bytes32[]",
          "name": "",
          "type": "bytes32[]"
        }
      ],
      "payable": false,
      "stateMutability": "view",
      "type": "function"
    },
    {
      "constant": true,
      "inputs": [
        {
          "internalType": "bytes32",
          "name": "_agreement",
          "type": "bytes32"
        },
        {
          "internalType": "bytes32",
          "name": "_service",
          "type": "bytes32"
        }
      ],
      "name": "stageOf",
      "outputs": [
        {
          "internalType": "enum ServiceAgreement.Stages",
          "name": "",
          "type": "uint8"
        }
      ],
      "payable": false,
      "stateMutability": "view",
      "type": "function"
    },
    {
      "constant": false,
      "inputs": [
        {
          "internalType": "bytes32",
          "name": "_agreement",
          "type": "bytes32"
        },
        {
          "internalType": "bytes32",
          "name": "_service",
          "type": "bytes32"
        }
      ],
      "name": "start",
      "outputs": [],
      "payable": false,
      "stateMutability": "nonpayable",
      "type": "function"
    },
    {
      "constant": false,
      "inputs": [
        {
          "internalType": "bytes32",
          "name": "_agreement",
          "type": "bytes32"
        },
        {
          "internalType": "bytes32",
          "name": "_service",
          "type": "bytes32"
        }
      ],
      "name": "finish",
      "outputs": [],
      "payable": false,
      "stateMutability": "nonpayable",
      "type": "function"
    },
    {
      "constant": false,
      "inputs": [
        {
          "internalType": "bytes32",
          "name": "_agreement",
          "type": "bytes32"
        },
        {
          "internalType": "bytes32",
          "name": "_service",
          "type": "bytes32"
        }
      ],
      "name": "approve",
      "outputs": [],
      "payable": false,
      "stateMutability": "nonpayable",
      "type": "function"
    },
    {
      "constant": false,
      "inputs": [
        {
          "internalType": "bytes32",
          "name": "_agreement",
          "type": "bytes32"
        },
        {
          "internalType": "bytes32",
          "name": "_service",
          "type": "bytes32"
        }
      ],
      "name": "pay",
      "outputs": [],
      "payable": false,
      "stateMutability": "nonpayable",
      "type": "function"
    }
  ],
  "bytecode": "0x608060405234801561001057600080fd5b5061145c806100206000396000f3fe608060405234801561001057600080fd5b50600436106100a95760003560e01c8063869ce06211610071578063869ce062146102e257806391f8a6db1461031a578063b77031dd14610352578063c1d76a62146103eb578063c756bbc714610484578063f4c5983914610511576100a9565b806327260d6b146100ae57806342698a811461011e57806366f125db146102185780636ff14cbc14610250578063756bae5c146102aa575b600080fd5b610104600480360360608110156100c457600080fd5b810190808035906020019092919080359060200190929190803573ffffffffffffffffffffffffffffffffffffffff169060200190929190505050610594565b604051808215151515815260200191505060405180910390f35b6101fe6004803603608081101561013457600080fd5b8101908080359060200190929190803590602001909291908035906020019064010000000081111561016557600080fd5b82018360208201111561017757600080fd5b8035906020019184602083028401116401000000008311171561019957600080fd5b9091929391929390803590602001906401000000008111156101ba57600080fd5b8201836020820111156101cc57600080fd5b803590602001918460208302840111640100000000831117156101ee57600080fd5b90919293919293905050506107ba565b604051808215151515815260200191505060405180910390f35b61024e6004803603604081101561022e57600080fd5b810190808035906020019092919080359060200190929190505050610941565b005b6102866004803603604081101561026657600080fd5b810190808035906020019092919080359060200190929190505050610b8a565b6040518082600581111561029657fe5b60ff16815260200191505060405180910390f35b6102e0600480360360408110156102c057600080fd5b810190808035906020019092919080359060200190929190505050610bc8565b005b610318600480360360408110156102f857600080fd5b810190808035906020019092919080359060200190929190505050610d34565b005b6103506004803603604081101561033057600080fd5b810190808035906020019092919080359060200190929190505050610ed4565b005b6103946004803603602081101561036857600080fd5b81019080803573ffffffffffffffffffffffffffffffffffffffff169060200190929190505050611040565b6040518080602001828103825283818151815260200191508051906020019060200280838360005b838110156103d75780820151818401526020810190506103bc565b505050509050019250505060405180910390f35b61042d6004803603602081101561040157600080fd5b81019080803573ffffffffffffffffffffffffffffffffffffffff1690602001909291905050506110d7565b6040518080602001828103825283818151815260200191508051906020019060200280838360005b83811015610470578082015181840152602081019050610455565b505050509050019250505060405180910390f35b6104ba6004803603604081101561049a57600080fd5b81019080803590602001909291908035906020019092919050505061116e565b6040518080602001828103825283818151815260200191508051906020019060200280838360005b838110156104fd5780820151818401526020810190506104e2565b505050509050019250505060405180910390f35b61053d6004803603602081101561052757600080fd5b81019080803590602001909291905050506111ed565b6040518080602001828103825283818151815260200191508051906020019060200280838360005b83811015610580578082015181840152602081019050610565565b505050509050019250505060405180910390f35b60003360008086815260200190815260200160002060010160006101000a81548173ffffffffffffffffffffffffffffffffffffffff021916908373ffffffffffffffffffffffffffffffffffffffff1602179055508160008086815260200190815260200160002060020160006101000a81548173ffffffffffffffffffffffffffffffffffffffff021916908373ffffffffffffffffffffffffffffffffffffffff16021790555082600080868152602001908152602001600020600001819055506001600080868152602001908152602001600020600301600085815260200190815260200160002060006101000a81548160ff0219169083600581111561069b57fe5b0217905550600260008373ffffffffffffffffffffffffffffffffffffffff1673ffffffffffffffffffffffffffffffffffffffff168152602001908152602001600020849080600181540180825580915050906001820390600052602060002001600090919290919091505550600360003373ffffffffffffffffffffffffffffffffffffffff1673ffffffffffffffffffffffffffffffffffffffff16815260200190815260200160002084908060018154018082558091505090600182039060005260206000200160009091929091909150555060046000848152602001908152602001600020849080600181540180825580915050906001820390600052602060002001600090919290919091505550600190509392505050565b600084846000808a8152602001908152602001600020600401600089815260200190815260200160002091906107f19291906113b5565b5060008090505b8383905081101561093257866000808a8152602001908152602001600020600501600088888581811061082757fe5b9050602002013581526020019081526020016000208190555060016000808a8152602001908152602001600020600301600088888581811061086557fe5b90506020020135815260200190815260200160002060006101000a81548160ff0219169083600581111561089557fe5b0217905550600460008787848181106108aa57fe5b9050602002013581526020019081526020016000208890806001815401808255809150509060018203906000526020600020016000909192909190915055508383828181106108f557fe5b905060200201356001600088888581811061090c57fe5b9050602002013581526020019081526020016000208190555080806001019150506107f8565b50600190509695505050505050565b8160008082815260200190815260200160002060010160009054906101000a900473ffffffffffffffffffffffffffffffffffffffff1673ffffffffffffffffffffffffffffffffffffffff163373ffffffffffffffffffffffffffffffffffffffff1614610a18576040517f08c379a00000000000000000000000000000000000000000000000000000000081526004018080602001828103825260198152602001807f4e6f7420616c6c6f7765642e204f6e6c7920636c69656e742e0000000000000081525060200191505060405180910390fd5b600080600085815260200190815260200160002060050160008481526020019081526020016000205490506004600080868152602001908152602001600020600301600085815260200190815260200160002060006101000a81548160ff02191690836005811115610a8657fe5b0217905550606060046000858152602001908152602001600020805480602002602001604051908101604052809291908181526020018280548015610aea57602002820191906000526020600020905b815481526020019060010190808311610ad6575b5050505050905060008090505b8151811015610b665760036005811115610b0d57fe5b610b2a838381518110610b1c57fe5b602002602001015187610b8a565b6005811115610b3557fe5b1015610b5957610b58828281518110610b4a57fe5b602002602001015186610bc8565b5b8080600101915050610af7565b50610b7385836004611258565b15610b8357610b828583610941565b5b5050505050565b6000806000848152602001908152602001600020600301600083815260200190815260200160002060009054906101000a900460ff16905092915050565b8160008082815260200190815260200160002060020160009054906101000a900473ffffffffffffffffffffffffffffffffffffffff1673ffffffffffffffffffffffffffffffffffffffff163373ffffffffffffffffffffffffffffffffffffffff1614610c9f576040517f08c379a000000000000000000000000000000000000000000000000000000000815260040180806020018281038252601d8152602001807f4e6f7420616c6c6f7765642e204f6e6c7920636f6e74726163746f722e00000081525060200191505060405180910390fd5b600080600085815260200190815260200160002060050160008481526020019081526020016000205490506003600080868152602001908152602001600020600301600085815260200190815260200160002060006101000a81548160ff02191690836005811115610d0d57fe5b0217905550610d1e84826003611258565b15610d2e57610d2d8482610bc8565b5b50505050565b606060046000838152602001908152602001600020805480602002602001604051908101604052809291908181526020018280548015610d9357602002820191906000526020600020905b815481526020019060010190808311610d7f575b5050505050905060008090505b8151811015610ece576000806000848481518110610dba57fe5b60200260200101518152602001908152602001600020600501600085815260200190815260200160002054905060026005811115610df457fe5b610e11848481518110610e0357fe5b602002602001015186610b8a565b6005811115610e1c57fe5b1015610e7e576002600080858581518110610e3357fe5b60200260200101518152602001908152602001600020600301600086815260200190815260200160002060006101000a81548160ff02191690836005811115610e7857fe5b02179055505b610e9d838381518110610e8d57fe5b602002602001015182600261135a565b15610ec057610ebf838381518110610eb157fe5b602002602001015182610d34565b5b508080600101915050610da0565b50505050565b8160008082815260200190815260200160002060010160009054906101000a900473ffffffffffffffffffffffffffffffffffffffff1673ffffffffffffffffffffffffffffffffffffffff163373ffffffffffffffffffffffffffffffffffffffff1614610fab576040517f08c379a00000000000000000000000000000000000000000000000000000000081526004018080602001828103825260198152602001807f4e6f7420616c6c6f7765642e204f6e6c7920636c69656e742e0000000000000081525060200191505060405180910390fd5b600080600085815260200190815260200160002060050160008481526020019081526020016000205490506005600080868152602001908152602001600020600301600085815260200190815260200160002060006101000a81548160ff0219169083600581111561101957fe5b021790555061102a84826005611258565b1561103a576110398482610ed4565b5b50505050565b6060600360008373ffffffffffffffffffffffffffffffffffffffff1673ffffffffffffffffffffffffffffffffffffffff1681526020019081526020016000208054806020026020016040519081016040528092919081815260200182805480156110cb57602002820191906000526020600020905b8154815260200190600101908083116110b7575b50505050509050919050565b6060600360008373ffffffffffffffffffffffffffffffffffffffff1673ffffffffffffffffffffffffffffffffffffffff16815260200190815260200160002080548060200260200160405190810160405280929190818152602001828054801561116257602002820191906000526020600020905b81548152602001906001019080831161114e575b50505050509050919050565b606060008084815260200190815260200160002060040160008381526020019081526020016000208054806020026020016040519081016040528092919081815260200182805480156111e057602002820191906000526020600020905b8154815260200190600101908083116111cc575b5050505050905092915050565b60606004600083815260200190815260200160002080548060200260200160405190810160405280929190818152602001828054801561124c57602002820191906000526020600020905b815481526020019060010190808311611238575b50505050509050919050565b600061126584848461135a565b6112725760009050611353565b606060008086815260200190815260200160002060040160008581526020019081526020016000208054806020026020016040519081016040528092919081815260200182805480156112e457602002820191906000526020600020905b8154815260200190600101908083116112d0575b5050505050905060008090505b815181101561134c5783600581111561130657fe5b6113238784848151811061131657fe5b6020026020010151610b8a565b600581111561132e57fe5b101561133f57600092505050611353565b80806001019150506112f1565b5060019150505b9392505050565b6000806113678585610b8a565b90506000600581111561137657fe5b81600581111561138257fe5b146113915760009150506113ae565b82600581111561139d57fe5b8160058111156113a957fe5b109150505b9392505050565b8280548282559060005260206000209081019282156113f1579160200282015b828111156113f05782358255916020019190600101906113d5565b5b5090506113fe9190611402565b5090565b61142491905b80821115611420576000816000905550600101611408565b5090565b9056fea265627a7a72315820817a98dc2582232096a6f56fb1336bd4c6452d35a3fb538fd8e5cecbc265319364736f6c63430005100032",
  "source": "// SPDX-License-Identifier: MIT\npragma solidity >=0.4.21 <0.7.1;\n\ncontract ServiceAgreement {\n    enum Stages {\n        EMPTY, // 0\n        INITIALIZED, // 1\n        STARTED, // 2\n        FINISHED, // 3\n        APPROVED, // 4\n        PAYED // 5\n    }\n\n    mapping(bytes32 => Agreement) agreements;\n    mapping(bytes32 => bytes32) billings;\n    mapping(address => bytes32[]) agreementsByContractor;\n    mapping(address => bytes32[]) agreementsByClient;\n    mapping(bytes32 => bytes32[]) agreementsByService;\n\n    struct Agreement {\n        bytes32 root;\n        address client;\n        address contractor;\n        mapping(bytes32 => Stages) stages;\n        mapping(bytes32 => bytes32[]) services;\n        mapping(bytes32 => bytes32) section;\n    }\n\n    modifier onlyClient(bytes32 _agreement) {\n        require(\n            msg.sender == agreements[_agreement].client,\n            'Not allowed. Only client.'\n        );\n        _;\n    }\n\n    modifier onlyContractor(bytes32 _agreement) {\n        require(\n            msg.sender == agreements[_agreement].contractor,\n            'Not allowed. Only contractor.'\n        );\n        _;\n    }\n\n    function createAgreement(\n        bytes32 _agreement,\n        bytes32 _root,\n        address _contractor\n    ) public returns (bool) {\n        agreements[_agreement].client = msg.sender;\n        agreements[_agreement].contractor = _contractor;\n        agreements[_agreement].root = _root;\n        agreements[_agreement].stages[_root] = Stages.INITIALIZED;\n        agreementsByContractor[_contractor].push(_agreement);\n        agreementsByClient[msg.sender].push(_agreement);\n        agreementsByService[_root].push(_agreement);\n        return true;\n    }\n\n    function addServices(\n        bytes32 _agreement,\n        bytes32 _parent,\n        bytes32[] calldata _children,\n        bytes32[] calldata _billings\n    ) external returns (bool) {\n        agreements[_agreement].services[_parent] = _children;\n        for (uint256 i = 0; i < _billings.length; i++) {\n            agreements[_agreement].section[_children[i]] = _parent;\n            agreements[_agreement].stages[_children[i]] = Stages.INITIALIZED;\n            agreementsByService[_children[i]].push(_agreement);\n            billings[_children[i]] = _billings[i];\n        }\n        return true;\n    }\n\n    function getAgreementsByClient(address _client)\n        external\n        view\n        returns (bytes32[] memory)\n    {\n        return agreementsByClient[_client];\n    }\n\n    function getAgreementsByContractor(address _contractor)\n        external\n        view\n        returns (bytes32[] memory)\n    {\n        return agreementsByClient[_contractor];\n    }\n\n    function getAgreementsByService(bytes32 _service)\n        external\n        view\n        returns (bytes32[] memory)\n    {\n        return agreementsByService[_service];\n    }\n\n    function getServicesByAgreement(bytes32 _agreement, bytes32 _parent)\n        external\n        view\n        returns (bytes32[] memory)\n    {\n        return agreements[_agreement].services[_parent];\n    }\n\n    function stageOf(bytes32 _agreement, bytes32 _service)\n        public\n        view\n        returns (Stages)\n    {\n        return agreements[_agreement].stages[_service];\n    }\n\n    function start(bytes32 _agreement, bytes32 _service) public {\n        bytes32[] memory related = agreementsByService[_service];\n        for (uint256 i = 0; i < related.length; i++) {\n            bytes32 parent = agreements[related[i]].section[_service];\n            if (\n                uint256(stageOf(related[i], _service)) < uint256(Stages.STARTED)\n            ) agreements[related[i]].stages[_service] = Stages.STARTED;\n            if (atStage(related[i], parent, Stages.STARTED))\n                start(related[i], parent);\n        }\n    }\n\n    function finish(bytes32 _agreement, bytes32 _service)\n        public\n        onlyContractor(_agreement)\n    {\n        bytes32 parent = agreements[_agreement].section[_service];\n        agreements[_agreement].stages[_service] = Stages.FINISHED;\n        if (allChildrenAtStage(_agreement, parent, Stages.FINISHED)) {\n            finish(_agreement, parent);\n        }\n    }\n\n    function approve(bytes32 _agreement, bytes32 _service)\n        public\n        onlyClient(_agreement)\n    {\n        bytes32 parent = agreements[_agreement].section[_service];\n        agreements[_agreement].stages[_service] = Stages.APPROVED;\n        bytes32[] memory _related = agreementsByService[_service];\n        for (uint256 i = 0; i < _related.length; i++) {\n            if (\n                uint256(stageOf(_related[i], _service)) <\n                uint256(Stages.FINISHED)\n            ) finish(_related[i], _service);\n        }\n        if (allChildrenAtStage(_agreement, parent, Stages.APPROVED)) {\n            approve(_agreement, parent);\n        }\n    }\n\n    function pay(bytes32 _agreement, bytes32 _service)\n        public\n        onlyClient(_agreement)\n    {\n        bytes32 parent = agreements[_agreement].section[_service];\n        agreements[_agreement].stages[_service] = Stages.PAYED;\n        if (allChildrenAtStage(_agreement, parent, Stages.PAYED)) {\n            pay(_agreement, parent);\n        }\n    }\n\n    function atStage(\n        bytes32 _agreement,\n        bytes32 _service,\n        Stages _stage\n    ) internal view returns (bool) {\n        Stages stage = stageOf(_agreement, _service);\n        if (stage != Stages.EMPTY) return false;\n        return uint256(stage) < uint256(_stage);\n    }\n\n    function allChildrenAtStage(\n        bytes32 _agreement,\n        bytes32 _parent,\n        Stages _stage\n    ) internal view returns (bool) {\n        if (!atStage(_agreement, _parent, _stage)) return false;\n        bytes32[] memory children = agreements[_agreement].services[_parent];\n        for (uint256 i = 0; i < children.length; i++) {\n            if (uint256(stageOf(_agreement, children[i])) < uint256(_stage))\n                return false;\n        }\n        return true;\n    }\n}\n",
  "sourcePath": "C:/Users/fabia/WebstormProjects/bim-contracts/contracts/ServiceAgreement.sol",
  "compiler": {
    "name": "solc",
    "version": "0.5.16+commit.9c3226ce.Emscripten.clang"
  },
  "schemaVersion": "3.2.4",
  "updatedAt": "2020-10-19T19:50:08.642Z",
  "devdoc": {
    "methods": {}
  },
  "userdoc": {
    "methods": {}
  }
}